{
  "transactions": [
    {
      "hash": "0x830e3b58f3444d00e03a992bcfb137ade22460e99cd597b796f4b9b5e9d98cb3",
      "transactionType": "CALL",
      "contractName": null,
      "contractAddress": "0x1f9840a85d5af5bf1d1762f925bdaddc4201f984",
      "function": "approve(address,uint256)",
      "arguments": [
        "0x40262B967bF31Ca1cA68920753dd9B03925f6fdd",
        "100000000000000"
      ],
      "transaction": {
        "from": "0xeff3521fb13228c767ad6dc3b934f9efac9c56ad",
        "to": "0x1f9840a85d5af5bf1d1762f925bdaddc4201f984",
        "gas": "0x10ba5",
        "value": "0x0",
        "input": "0x095ea7b300000000000000000000000040262b967bf31ca1ca68920753dd9b03925f6fdd00000000000000000000000000000000000000000000000000005af3107a4000",
        "nonce": "0xeb",
        "chainId": "0xaa36a7"
      },
      "additionalContracts": [],
      "isFixedGasLimit": false
    },
    {
      "hash": "0x188297731ff5ad02bf1eddc4911ea14f3ae3886e84b7f647f877735c8d8d5c2c",
      "transactionType": "CALL",
      "contractName": null,
      "contractAddress": "0x0e1efea9f52f99baac1ca663d41119c037258d54",
      "function": "approve(address,uint256)",
      "arguments": [
        "0x40262B967bF31Ca1cA68920753dd9B03925f6fdd",
        "99999999999999980392"
      ],
      "transaction": {
        "from": "0xeff3521fb13228c767ad6dc3b934f9efac9c56ad",
        "to": "0x0e1efea9f52f99baac1ca663d41119c037258d54",
        "gas": "0xfa82",
        "value": "0x0",
        "input": "0x095ea7b300000000000000000000000040262b967bf31ca1ca68920753dd9b03925f6fdd0000000000000000000000000000000000000000000000056bc75e2d630fb368",
        "nonce": "0xec",
        "chainId": "0xaa36a7"
      },
      "additionalContracts": [],
      "isFixedGasLimit": false
    },
    {
      "hash": "0x6726972b85368b1eb0704c5c1791f39d66f65a660535979eed286edb1af08d79",
      "transactionType": "CALL",
      "contractName": null,
      "contractAddress": "0x40262b967bf31ca1ca68920753dd9b03925f6fdd",
      "function": "addLiquidity(address,address,uint256,uint256)",
      "arguments": [
        "0x1f9840a85d5aF5bf1D1762F925BDADdC4201F984",
        "0x0E1Efea9F52f99bAAC1ca663D41119C037258D54",
        "100000000000000",
        "99999999999999980392"
      ],
      "transaction": {
        "from": "0xeff3521fb13228c767ad6dc3b934f9efac9c56ad",
        "to": "0x40262b967bf31ca1ca68920753dd9b03925f6fdd",
        "gas": "0x47180",
        "value": "0x0",
        "input": "0xcf6c62ea0000000000000000000000001f9840a85d5af5bf1d1762f925bdaddc4201f9840000000000000000000000000e1efea9f52f99baac1ca663d41119c037258d5400000000000000000000000000000000000000000000000000005af3107a40000000000000000000000000000000000000000000000000056bc75e2d630fb368",
        "nonce": "0xed",
        "chainId": "0xaa36a7"
      },
      "additionalContracts": [],
      "isFixedGasLimit": false
    }
  ],
  "receipts": [
    {
      "status": "0x1",
      "cumulativeGasUsed": "0x7f6b3f",
      "logs": [
        {
          "address": "0x1f9840a85d5af5bf1d1762f925bdaddc4201f984",
          "topics": [
            "0x8c5be1e5ebec7d5bd14f71427d1e84f3dd0314c0f7b2291e5b200ac8c7c3b925",
            "0x000000000000000000000000eff3521fb13228c767ad6dc3b934f9efac9c56ad",
            "0x00000000000000000000000040262b967bf31ca1ca68920753dd9b03925f6fdd"
          ],
          "data": "0x00000000000000000000000000000000000000000000000000005af3107a4000",
          "blockHash": "0x70e6af2ab0c8f6a5d83a6c826353449ba4a674ba8117a8f87b2c62dae680659f",
          "blockNumber": "0x90ef66",
          "blockTimestamp": "0x68fed6d0",
          "transactionHash": "0x830e3b58f3444d00e03a992bcfb137ade22460e99cd597b796f4b9b5e9d98cb3",
          "transactionIndex": "0x62",
          "logIndex": "0x4c",
          "removed": false
        }
      ],
      "logsBloom": "0x00000000000000000000000000000000000000000000000000000000000000020000000000000000000000000000001000000000000000000000000000200010000000000000000000000000100000000000000000000000002000000000000008000000000000000000000000000000000000000000000000000000000000000000000000000000000000000000000000000000000000000000000000000000020000000000000000000000000000000000100000000000000000000000000000000000000000000000000000000000000004000000000000000040000000000010000000000000000000000000000000000000000000000000000000000000",
      "type": "0x2",
      "transactionHash": "0x830e3b58f3444d00e03a992bcfb137ade22460e99cd597b796f4b9b5e9d98cb3",
      "transactionIndex": "0x62",
      "blockHash": "0x70e6af2ab0c8f6a5d83a6c826353449ba4a674ba8117a8f87b2c62dae680659f",
      "blockNumber": "0x90ef66",
      "gasUsed": "0xb702",
      "effectiveGasPrice": "0xf424c",
      "from": "0xeff3521fb13228c767ad6dc3b934f9efac9c56ad",
      "to": "0x1f9840a85d5af5bf1d1762f925bdaddc4201f984",
      "contractAddress": null
    },
    {
      "status": "0x1",
      "cumulativeGasUsed": "0x80209d",
      "logs": [
        {
          "address": "0x0e1efea9f52f99baac1ca663d41119c037258d54",
          "topics": [
            "0x8c5be1e5ebec7d5bd14f71427d1e84f3dd0314c0f7b2291e5b200ac8c7c3b925",
            "0x000000000000000000000000eff3521fb13228c767ad6dc3b934f9efac9c56ad",
            "0x00000000000000000000000040262b967bf31ca1ca68920753dd9b03925f6fdd"
          ],
          "data": "0x0000000000000000000000000000000000000000000000056bc75e2d630fb368",
          "blockHash": "0x70e6af2ab0c8f6a5d83a6c826353449ba4a674ba8117a8f87b2c62dae680659f",
          "blockNumber": "0x90ef66",
          "blockTimestamp": "0x68fed6d0",
          "transactionHash": "0x188297731ff5ad02bf1eddc4911ea14f3ae3886e84b7f647f877735c8d8d5c2c",
          "transactionIndex": "0x63",
          "logIndex": "0x4d",
          "removed": false
        }
      ],
      "logsBloom": "0x00000100000000000000000000000000000000000000000000000000000000020000000000020000000000000000000000000000000000000000000000200010000000000000000000000000000000000000000000000000002000000000000000000000000000000000000000000000000000000000000000000000000000000000000000000000000000000000000000000000000000000000000000000000020000000000000000000000000000000000100000000000000000000000000000000000000000000000000000000004000004000000000000000040000000000010000000000000000000000000000000000000000000000000000000000000",
      "type": "0x2",
      "transactionHash": "0x188297731ff5ad02bf1eddc4911ea14f3ae3886e84b7f647f877735c8d8d5c2c",
      "transactionIndex": "0x63",
      "blockHash": "0x70e6af2ab0c8f6a5d83a6c826353449ba4a674ba8117a8f87b2c62dae680659f",
      "blockNumber": "0x90ef66",
      "gasUsed": "0xb55e",
      "effectiveGasPrice": "0xf424c",
      "from": "0xeff3521fb13228c767ad6dc3b934f9efac9c56ad",
      "to": "0x0e1efea9f52f99baac1ca663d41119c037258d54",
      "contractAddress": null
    },
    {
      "status": "0x1",
      "cumulativeGasUsed": "0x835825",
      "logs": [
        {
          "address": "0x1f9840a85d5af5bf1d1762f925bdaddc4201f984",
          "topics": [
            "0x8c5be1e5ebec7d5bd14f71427d1e84f3dd0314c0f7b2291e5b200ac8c7c3b925",
            "0x000000000000000000000000eff3521fb13228c767ad6dc3b934f9efac9c56ad",
            "0x00000000000000000000000040262b967bf31ca1ca68920753dd9b03925f6fdd"
          ],
          "data": "0x0000000000000000000000000000000000000000000000000000000000000000",
          "blockHash": "0x70e6af2ab0c8f6a5d83a6c826353449ba4a674ba8117a8f87b2c62dae680659f",
          "blockNumber": "0x90ef66",
          "blockTimestamp": "0x68fed6d0",
          "transactionHash": "0x6726972b85368b1eb0704c5c1791f39d66f65a660535979eed286edb1af08d79",
          "transactionIndex": "0x64",
          "logIndex": "0x4e",
          "removed": false
        },
        {
          "address": "0x1f9840a85d5af5bf1d1762f925bdaddc4201f984",
          "topics": [
            "0xddf252ad1be2c89b69c2b068fc378daa952ba7f163c4a11628f55a4df523b3ef",
            "0x000000000000000000000000eff3521fb13228c767ad6dc3b934f9efac9c56ad",
            "0x00000000000000000000000040262b967bf31ca1ca68920753dd9b03925f6fdd"
          ],
          "data": "0x00000000000000000000000000000000000000000000000000005af3107a4000",
          "blockHash": "0x70e6af2ab0c8f6a5d83a6c826353449ba4a674ba8117a8f87b2c62dae680659f",
          "blockNumber": "0x90ef66",
          "blockTimestamp": "0x68fed6d0",
          "transactionHash": "0x6726972b85368b1eb0704c5c1791f39d66f65a660535979eed286edb1af08d79",
          "transactionIndex": "0x64",
          "logIndex": "0x4f",
          "removed": false
        },
        {
          "address": "0x0e1efea9f52f99baac1ca663d41119c037258d54",
          "topics": [
            "0xddf252ad1be2c89b69c2b068fc378daa952ba7f163c4a11628f55a4df523b3ef",
            "0x000000000000000000000000eff3521fb13228c767ad6dc3b934f9efac9c56ad",
            "0x00000000000000000000000040262b967bf31ca1ca68920753dd9b03925f6fdd"
          ],
          "data": "0x0000000000000000000000000000000000000000000000056bc75e2d630fb368",
          "blockHash": "0x70e6af2ab0c8f6a5d83a6c826353449ba4a674ba8117a8f87b2c62dae680659f",
          "blockNumber": "0x90ef66",
          "blockTimestamp": "0x68fed6d0",
          "transactionHash": "0x6726972b85368b1eb0704c5c1791f39d66f65a660535979eed286edb1af08d79",
          "transactionIndex": "0x64",
          "logIndex": "0x50",
          "removed": false
        },
        {
          "address": "0x1f9840a85d5af5bf1d1762f925bdaddc4201f984",
          "topics": [
            "0x8c5be1e5ebec7d5bd14f71427d1e84f3dd0314c0f7b2291e5b200ac8c7c3b925",
            "0x00000000000000000000000040262b967bf31ca1ca68920753dd9b03925f6fdd",
            "0x000000000000000000000000ee567fe1712faf6149d80da1e6934e354124cfe3"
          ],
          "data": "0x00000000000000000000000000000000000000000000000000005af3107a4000",
          "blockHash": "0x70e6af2ab0c8f6a5d83a6c826353449ba4a674ba8117a8f87b2c62dae680659f",
          "blockNumber": "0x90ef66",
          "blockTimestamp": "0x68fed6d0",
          "transactionHash": "0x6726972b85368b1eb0704c5c1791f39d66f65a660535979eed286edb1af08d79",
          "transactionIndex": "0x64",
          "logIndex": "0x51",
          "removed": false
        },
        {
          "address": "0x0e1efea9f52f99baac1ca663d41119c037258d54",
          "topics": [
            "0x8c5be1e5ebec7d5bd14f71427d1e84f3dd0314c0f7b2291e5b200ac8c7c3b925",
            "0x00000000000000000000000040262b967bf31ca1ca68920753dd9b03925f6fdd",
            "0x000000000000000000000000ee567fe1712faf6149d80da1e6934e354124cfe3"
          ],
          "data": "0x0000000000000000000000000000000000000000000000056bc75e2d630fb368",
          "blockHash": "0x70e6af2ab0c8f6a5d83a6c826353449ba4a674ba8117a8f87b2c62dae680659f",
          "blockNumber": "0x90ef66",
          "blockTimestamp": "0x68fed6d0",
          "transactionHash": "0x6726972b85368b1eb0704c5c1791f39d66f65a660535979eed286edb1af08d79",
          "transactionIndex": "0x64",
          "logIndex": "0x52",
          "removed": false
        },
        {
          "address": "0x1f9840a85d5af5bf1d1762f925bdaddc4201f984",
          "topics": [
            "0x8c5be1e5ebec7d5bd14f71427d1e84f3dd0314c0f7b2291e5b200ac8c7c3b925",
            "0x00000000000000000000000040262b967bf31ca1ca68920753dd9b03925f6fdd",
            "0x000000000000000000000000ee567fe1712faf6149d80da1e6934e354124cfe3"
          ],
          "data": "0x0000000000000000000000000000000000000000000000000000000000000000",
          "blockHash": "0x70e6af2ab0c8f6a5d83a6c826353449ba4a674ba8117a8f87b2c62dae680659f",
          "blockNumber": "0x90ef66",
          "blockTimestamp": "0x68fed6d0",
          "transactionHash": "0x6726972b85368b1eb0704c5c1791f39d66f65a660535979eed286edb1af08d79",
          "transactionIndex": "0x64",
          "logIndex": "0x53",
          "removed": false
        },
        {
          "address": "0x1f9840a85d5af5bf1d1762f925bdaddc4201f984",
          "topics": [
            "0xddf252ad1be2c89b69c2b068fc378daa952ba7f163c4a11628f55a4df523b3ef",
            "0x00000000000000000000000040262b967bf31ca1ca68920753dd9b03925f6fdd",
            "0x000000000000000000000000f8d80ca3b525456711fce0456ee96b1caccf38ab"
          ],
          "data": "0x00000000000000000000000000000000000000000000000000005af3107a4000",
          "blockHash": "0x70e6af2ab0c8f6a5d83a6c826353449ba4a674ba8117a8f87b2c62dae680659f",
          "blockNumber": "0x90ef66",
          "blockTimestamp": "0x68fed6d0",
          "transactionHash": "0x6726972b85368b1eb0704c5c1791f39d66f65a660535979eed286edb1af08d79",
          "transactionIndex": "0x64",
          "logIndex": "0x54",
          "removed": false
        },
        {
          "address": "0x0e1efea9f52f99baac1ca663d41119c037258d54",
          "topics": [
            "0xddf252ad1be2c89b69c2b068fc378daa952ba7f163c4a11628f55a4df523b3ef",
            "0x00000000000000000000000040262b967bf31ca1ca68920753dd9b03925f6fdd",
            "0x000000000000000000000000f8d80ca3b525456711fce0456ee96b1caccf38ab"
          ],
          "data": "0x0000000000000000000000000000000000000000000000056bc75e2d630fb368",
          "blockHash": "0x70e6af2ab0c8f6a5d83a6c826353449ba4a674ba8117a8f87b2c62dae680659f",
          "blockNumber": "0x90ef66",
          "blockTimestamp": "0x68fed6d0",
          "transactionHash": "0x6726972b85368b1eb0704c5c1791f39d66f65a660535979eed286edb1af08d79",
          "transactionIndex": "0x64",
          "logIndex": "0x55",
          "removed": false
        },
        {
          "address": "0xf8d80ca3b525456711fce0456ee96b1caccf38ab",
          "topics": [
            "0xddf252ad1be2c89b69c2b068fc378daa952ba7f163c4a11628f55a4df523b3ef",
            "0x0000000000000000000000000000000000000000000000000000000000000000",
            "0x000000000000000000000000eff3521fb13228c767ad6dc3b934f9efac9c56ad"
          ],
          "data": "0x000000000000000000000000000000000000000000000000016345785d89ffec",
          "blockHash": "0x70e6af2ab0c8f6a5d83a6c826353449ba4a674ba8117a8f87b2c62dae680659f",
          "blockNumber": "0x90ef66",
          "blockTimestamp": "0x68fed6d0",
          "transactionHash": "0x6726972b85368b1eb0704c5c1791f39d66f65a660535979eed286edb1af08d79",
          "transactionIndex": "0x64",
          "logIndex": "0x56",
          "removed": false
        },
        {
          "address": "0xf8d80ca3b525456711fce0456ee96b1caccf38ab",
          "topics": [
            "0x1c411e9a96e071241c2f21f7726b17ae89e3cab4c78be50e062b03a9fffbbad1"
          ],
          "data": "0x00000000000000000000000000000000000000000000009a7fb1fc0d874ebb58000000000000000000000000000000000000000000000000000a200f559c2001",
          "blockHash": "0x70e6af2ab0c8f6a5d83a6c826353449ba4a674ba8117a8f87b2c62dae680659f",
          "blockNumber": "0x90ef66",
          "blockTimestamp": "0x68fed6d0",
          "transactionHash": "0x6726972b85368b1eb0704c5c1791f39d66f65a660535979eed286edb1af08d79",
          "transactionIndex": "0x64",
          "logIndex": "0x57",
          "removed": false
        },
        {
          "address": "0xf8d80ca3b525456711fce0456ee96b1caccf38ab",
          "topics": [
            "0x4c209b5fc8ad50758f13e2e1088ba56a560dff690a1c6fef26394f4c03821c4f",
            "0x000000000000000000000000ee567fe1712faf6149d80da1e6934e354124cfe3"
          ],
          "data": "0x0000000000000000000000000000000000000000000000056bc75e2d630fb36800000000000000000000000000000000000000000000000000005af3107a4000",
          "blockHash": "0x70e6af2ab0c8f6a5d83a6c826353449ba4a674ba8117a8f87b2c62dae680659f",
          "blockNumber": "0x90ef66",
          "blockTimestamp": "0x68fed6d0",
          "transactionHash": "0x6726972b85368b1eb0704c5c1791f39d66f65a660535979eed286edb1af08d79",
          "transactionIndex": "0x64",
          "logIndex": "0x58",
          "removed": false
        },
        {
          "address": "0x40262b967bf31ca1ca68920753dd9b03925f6fdd",
          "topics": [
            "0x4a1a2a6176e9646d9e3157f7c2ab3c499f18337c0b0828cfb28e0a61de4a11f7"
          ],
          "data": "0x0000000000000000000000001f9840a85d5af5bf1d1762f925bdaddc4201f9840000000000000000000000000e1efea9f52f99baac1ca663d41119c037258d5400000000000000000000000000000000000000000000000000005af3107a40000000000000000000000000000000000000000000000000056bc75e2d630fb368000000000000000000000000000000000000000000000000016345785d89ffec",
          "blockHash": "0x70e6af2ab0c8f6a5d83a6c826353449ba4a674ba8117a8f87b2c62dae680659f",
          "blockNumber": "0x90ef66",
          "blockTimestamp": "0x68fed6d0",
          "transactionHash": "0x6726972b85368b1eb0704c5c1791f39d66f65a660535979eed286edb1af08d79",
          "transactionIndex": "0x64",
          "logIndex": "0x59",
          "removed": false
        }
      ],
      "logsBloom": "0x00000100000000000000000080000000000000004000000000000000000001020000000000020000000000000000001000000000000000000000200008200010000000000000000000000008100000000000000000000000002000000000000008000000020000000000800000000800000000000008000000010010000000000000000000000000000000000000000001000000000000080000000000010000024000000080000000000000000000000000100000000000000000800000000000000002000000000000004000020004000004000000001000000040000028000010000000000000000000000000000010000000000000000080000000000000",
      "type": "0x2",
      "transactionHash": "0x6726972b85368b1eb0704c5c1791f39d66f65a660535979eed286edb1af08d79",
      "transactionIndex": "0x64",
      "blockHash": "0x70e6af2ab0c8f6a5d83a6c826353449ba4a674ba8117a8f87b2c62dae680659f",
      "blockNumber": "0x90ef66",
      "gasUsed": "0x33788",
      "effectiveGasPrice": "0xf424c",
      "from": "0xeff3521fb13228c767ad6dc3b934f9efac9c56ad",
      "to": "0x40262b967bf31ca1ca68920753dd9b03925f6fdd",
      "contractAddress": null
    }
  ],
  "libraries": [],
  "pending": [],
  "returns": {},
  "timestamp": 1761531602,
  "chain": 11155111,
  "commit": "b9ab932"
}