{
  "transactions": [
    {
      "hash": "0x5bc9a28ae1a1616f80a45b1efb778994e9571266fa75bc2e344b9bbb5b352c6f",
      "transactionType": "CALL",
      "contractName": null,
      "contractAddress": "0x1f9840a85d5af5bf1d1762f925bdaddc4201f984",
      "function": "approve(address,uint256)",
      "arguments": [
        "0x9D4eB64290887536CaBc9B9E841132145EE55F07",
        "5000000000000000"
      ],
      "transaction": {
        "from": "0xeff3521fb13228c767ad6dc3b934f9efac9c56ad",
        "to": "0x1f9840a85d5af5bf1d1762f925bdaddc4201f984",
        "gas": "0xfcd7",
        "value": "0x0",
        "input": "0x095ea7b30000000000000000000000009d4eb64290887536cabc9b9e841132145ee55f070000000000000000000000000000000000000000000000000011c37937e08000",
        "nonce": "0xd2",
        "chainId": "0xaa36a7"
      },
      "additionalContracts": [],
      "isFixedGasLimit": false
    },
    {
      "hash": "0xe53cf23957b28263f7a71fc264719b4a7607b45eadec588e9c3d94e4e53cbc41",
      "transactionType": "CALL",
      "contractName": null,
      "contractAddress": "0x0e1efea9f52f99baac1ca663d41119c037258d54",
      "function": "approve(address,uint256)",
      "arguments": [
        "0x9D4eB64290887536CaBc9B9E841132145EE55F07",
        "5000000000000000000000"
      ],
      "transaction": {
        "from": "0xeff3521fb13228c767ad6dc3b934f9efac9c56ad",
        "to": "0x0e1efea9f52f99baac1ca663d41119c037258d54",
        "gas": "0x1092e",
        "value": "0x0",
        "input": "0x095ea7b30000000000000000000000009d4eb64290887536cabc9b9e841132145ee55f0700000000000000000000000000000000000000000000010f0cf064dd59200000",
        "nonce": "0xd3",
        "chainId": "0xaa36a7"
      },
      "additionalContracts": [],
      "isFixedGasLimit": false
    },
    {
      "hash": "0xc19c79b35941d779ebe356936c3f579c9c55ce44fd1d66da620b5c72cde97270",
      "transactionType": "CALL",
      "contractName": null,
      "contractAddress": "0x9d4eb64290887536cabc9b9e841132145ee55f07",
      "function": "addLiquidity(address,address,uint256,uint256)",
      "arguments": [
        "0x1f9840a85d5aF5bf1D1762F925BDADdC4201F984",
        "0x0E1Efea9F52f99bAAC1ca663D41119C037258D54",
        "5000000000000000",
        "5000000000000000000000"
      ],
      "transaction": {
        "from": "0xeff3521fb13228c767ad6dc3b934f9efac9c56ad",
        "to": "0x9d4eb64290887536cabc9b9e841132145ee55f07",
        "gas": "0x6845a",
        "value": "0x0",
        "input": "0xcf6c62ea0000000000000000000000001f9840a85d5af5bf1d1762f925bdaddc4201f9840000000000000000000000000e1efea9f52f99baac1ca663d41119c037258d540000000000000000000000000000000000000000000000000011c37937e0800000000000000000000000000000000000000000000000010f0cf064dd59200000",
        "nonce": "0xd4",
        "chainId": "0xaa36a7"
      },
      "additionalContracts": [],
      "isFixedGasLimit": false
    }
  ],
  "receipts": [
    {
      "status": "0x1",
      "cumulativeGasUsed": "0x9bf589",
      "logs": [
        {
          "address": "0x1f9840a85d5af5bf1d1762f925bdaddc4201f984",
          "topics": [
            "0x8c5be1e5ebec7d5bd14f71427d1e84f3dd0314c0f7b2291e5b200ac8c7c3b925",
            "0x000000000000000000000000eff3521fb13228c767ad6dc3b934f9efac9c56ad",
            "0x0000000000000000000000009d4eb64290887536cabc9b9e841132145ee55f07"
          ],
          "data": "0x0000000000000000000000000000000000000000000000000011c37937e08000",
          "blockHash": "0x71c864ee1b08bd78f883abc26d1e7d16ba57c6f93d0daf86a1ad5c256991b420",
          "blockNumber": "0x90d802",
          "blockTimestamp": "0x68fdbda8",
          "transactionHash": "0x5bc9a28ae1a1616f80a45b1efb778994e9571266fa75bc2e344b9bbb5b352c6f",
          "transactionIndex": "0x41",
          "logIndex": "0x6b",
          "removed": false
        }
      ],
      "logsBloom": "0x00000000000000000000000000000000000000000000000000000000000000020000000000000000000000000000001000000000000000000000000000200000000000000400000000000000100000000000000000000000002000000000000008000000000000000000000000000000000000000000000000000000000000000000000000000000000000000000008000000000000000000000000000000000020000000000000000000000000000000000100000000000000000000000000000000000000000000000000000000000000000000000000000000000000000000010000000000000000000000002000000000000000000000000000000000000",
      "type": "0x2",
      "transactionHash": "0x5bc9a28ae1a1616f80a45b1efb778994e9571266fa75bc2e344b9bbb5b352c6f",
      "transactionIndex": "0x41",
      "blockHash": "0x71c864ee1b08bd78f883abc26d1e7d16ba57c6f93d0daf86a1ad5c256991b420",
      "blockNumber": "0x90d802",
      "gasUsed": "0xb70e",
      "effectiveGasPrice": "0xf4249",
      "from": "0xeff3521fb13228c767ad6dc3b934f9efac9c56ad",
      "to": "0x1f9840a85d5af5bf1d1762f925bdaddc4201f984",
      "contractAddress": null
    },
    {
      "status": "0x1",
      "cumulativeGasUsed": "0x9caadb",
      "logs": [
        {
          "address": "0x0e1efea9f52f99baac1ca663d41119c037258d54",
          "topics": [
            "0x8c5be1e5ebec7d5bd14f71427d1e84f3dd0314c0f7b2291e5b200ac8c7c3b925",
            "0x000000000000000000000000eff3521fb13228c767ad6dc3b934f9efac9c56ad",
            "0x0000000000000000000000009d4eb64290887536cabc9b9e841132145ee55f07"
          ],
          "data": "0x00000000000000000000000000000000000000000000010f0cf064dd59200000",
          "blockHash": "0x71c864ee1b08bd78f883abc26d1e7d16ba57c6f93d0daf86a1ad5c256991b420",
          "blockNumber": "0x90d802",
          "blockTimestamp": "0x68fdbda8",
          "transactionHash": "0xe53cf23957b28263f7a71fc264719b4a7607b45eadec588e9c3d94e4e53cbc41",
          "transactionIndex": "0x42",
          "logIndex": "0x6c",
          "removed": false
        }
      ],
      "logsBloom": "0x00000100000000000000000000000000000000000000000000000000000000020000000000020000000000000000000000000000000000000000000000200000000000000400000000000000000000000000000000000000002000000000000000000000000000000000000000000000000000000000000000000000000000000000000000000000000000000000008000000000000000000000000000000000020000000000000000000000000000000000100000000000000000000000000000000000000000000000000000000004000000000000000000000000000000000010000000000000000000000002000000000000000000000000000000000000",
      "type": "0x2",
      "transactionHash": "0xe53cf23957b28263f7a71fc264719b4a7607b45eadec588e9c3d94e4e53cbc41",
      "transactionIndex": "0x42",
      "blockHash": "0x71c864ee1b08bd78f883abc26d1e7d16ba57c6f93d0daf86a1ad5c256991b420",
      "blockNumber": "0x90d802",
      "gasUsed": "0xb552",
      "effectiveGasPrice": "0xf4249",
      "from": "0xeff3521fb13228c767ad6dc3b934f9efac9c56ad",
      "to": "0x0e1efea9f52f99baac1ca663d41119c037258d54",
      "contractAddress": null
    },
    {
      "status": "0x1",
      "cumulativeGasUsed": "0xa43112",
      "logs": [
        {
          "address": "0x1f9840a85d5af5bf1d1762f925bdaddc4201f984",
          "topics": [
            "0x8c5be1e5ebec7d5bd14f71427d1e84f3dd0314c0f7b2291e5b200ac8c7c3b925",
            "0x000000000000000000000000eff3521fb13228c767ad6dc3b934f9efac9c56ad",
            "0x0000000000000000000000009d4eb64290887536cabc9b9e841132145ee55f07"
          ],
          "data": "0x0000000000000000000000000000000000000000000000000000000000000000",
          "blockHash": "0x71c864ee1b08bd78f883abc26d1e7d16ba57c6f93d0daf86a1ad5c256991b420",
          "blockNumber": "0x90d802",
          "blockTimestamp": "0x68fdbda8",
          "transactionHash": "0xc19c79b35941d779ebe356936c3f579c9c55ce44fd1d66da620b5c72cde97270",
          "transactionIndex": "0x44",
          "logIndex": "0x70",
          "removed": false
        },
        {
          "address": "0x1f9840a85d5af5bf1d1762f925bdaddc4201f984",
          "topics": [
            "0xddf252ad1be2c89b69c2b068fc378daa952ba7f163c4a11628f55a4df523b3ef",
            "0x000000000000000000000000eff3521fb13228c767ad6dc3b934f9efac9c56ad",
            "0x0000000000000000000000009d4eb64290887536cabc9b9e841132145ee55f07"
          ],
          "data": "0x0000000000000000000000000000000000000000000000000011c37937e08000",
          "blockHash": "0x71c864ee1b08bd78f883abc26d1e7d16ba57c6f93d0daf86a1ad5c256991b420",
          "blockNumber": "0x90d802",
          "blockTimestamp": "0x68fdbda8",
          "transactionHash": "0xc19c79b35941d779ebe356936c3f579c9c55ce44fd1d66da620b5c72cde97270",
          "transactionIndex": "0x44",
          "logIndex": "0x71",
          "removed": false
        },
        {
          "address": "0x0e1efea9f52f99baac1ca663d41119c037258d54",
          "topics": [
            "0xddf252ad1be2c89b69c2b068fc378daa952ba7f163c4a11628f55a4df523b3ef",
            "0x000000000000000000000000eff3521fb13228c767ad6dc3b934f9efac9c56ad",
            "0x0000000000000000000000009d4eb64290887536cabc9b9e841132145ee55f07"
          ],
          "data": "0x00000000000000000000000000000000000000000000010f0cf064dd59200000",
          "blockHash": "0x71c864ee1b08bd78f883abc26d1e7d16ba57c6f93d0daf86a1ad5c256991b420",
          "blockNumber": "0x90d802",
          "blockTimestamp": "0x68fdbda8",
          "transactionHash": "0xc19c79b35941d779ebe356936c3f579c9c55ce44fd1d66da620b5c72cde97270",
          "transactionIndex": "0x44",
          "logIndex": "0x72",
          "removed": false
        },
        {
          "address": "0x1f9840a85d5af5bf1d1762f925bdaddc4201f984",
          "topics": [
            "0x8c5be1e5ebec7d5bd14f71427d1e84f3dd0314c0f7b2291e5b200ac8c7c3b925",
            "0x0000000000000000000000009d4eb64290887536cabc9b9e841132145ee55f07",
            "0x000000000000000000000000ee567fe1712faf6149d80da1e6934e354124cfe3"
          ],
          "data": "0x0000000000000000000000000000000000000000000000000011c37937e08000",
          "blockHash": "0x71c864ee1b08bd78f883abc26d1e7d16ba57c6f93d0daf86a1ad5c256991b420",
          "blockNumber": "0x90d802",
          "blockTimestamp": "0x68fdbda8",
          "transactionHash": "0xc19c79b35941d779ebe356936c3f579c9c55ce44fd1d66da620b5c72cde97270",
          "transactionIndex": "0x44",
          "logIndex": "0x73",
          "removed": false
        },
        {
          "address": "0x0e1efea9f52f99baac1ca663d41119c037258d54",
          "topics": [
            "0x8c5be1e5ebec7d5bd14f71427d1e84f3dd0314c0f7b2291e5b200ac8c7c3b925",
            "0x0000000000000000000000009d4eb64290887536cabc9b9e841132145ee55f07",
            "0x000000000000000000000000ee567fe1712faf6149d80da1e6934e354124cfe3"
          ],
          "data": "0x00000000000000000000000000000000000000000000010f0cf064dd59200000",
          "blockHash": "0x71c864ee1b08bd78f883abc26d1e7d16ba57c6f93d0daf86a1ad5c256991b420",
          "blockNumber": "0x90d802",
          "blockTimestamp": "0x68fdbda8",
          "transactionHash": "0xc19c79b35941d779ebe356936c3f579c9c55ce44fd1d66da620b5c72cde97270",
          "transactionIndex": "0x44",
          "logIndex": "0x74",
          "removed": false
        },
        {
          "address": "0x1f9840a85d5af5bf1d1762f925bdaddc4201f984",
          "topics": [
            "0x8c5be1e5ebec7d5bd14f71427d1e84f3dd0314c0f7b2291e5b200ac8c7c3b925",
            "0x0000000000000000000000009d4eb64290887536cabc9b9e841132145ee55f07",
            "0x000000000000000000000000ee567fe1712faf6149d80da1e6934e354124cfe3"
          ],
          "data": "0x0000000000000000000000000000000000000000000000000000000000000000",
          "blockHash": "0x71c864ee1b08bd78f883abc26d1e7d16ba57c6f93d0daf86a1ad5c256991b420",
          "blockNumber": "0x90d802",
          "blockTimestamp": "0x68fdbda8",
          "transactionHash": "0xc19c79b35941d779ebe356936c3f579c9c55ce44fd1d66da620b5c72cde97270",
          "transactionIndex": "0x44",
          "logIndex": "0x75",
          "removed": false
        },
        {
          "address": "0x1f9840a85d5af5bf1d1762f925bdaddc4201f984",
          "topics": [
            "0xddf252ad1be2c89b69c2b068fc378daa952ba7f163c4a11628f55a4df523b3ef",
            "0x0000000000000000000000009d4eb64290887536cabc9b9e841132145ee55f07",
            "0x000000000000000000000000f8d80ca3b525456711fce0456ee96b1caccf38ab"
          ],
          "data": "0x0000000000000000000000000000000000000000000000000011c37937e08000",
          "blockHash": "0x71c864ee1b08bd78f883abc26d1e7d16ba57c6f93d0daf86a1ad5c256991b420",
          "blockNumber": "0x90d802",
          "blockTimestamp": "0x68fdbda8",
          "transactionHash": "0xc19c79b35941d779ebe356936c3f579c9c55ce44fd1d66da620b5c72cde97270",
          "transactionIndex": "0x44",
          "logIndex": "0x76",
          "removed": false
        },
        {
          "address": "0x0e1efea9f52f99baac1ca663d41119c037258d54",
          "topics": [
            "0xddf252ad1be2c89b69c2b068fc378daa952ba7f163c4a11628f55a4df523b3ef",
            "0x0000000000000000000000009d4eb64290887536cabc9b9e841132145ee55f07",
            "0x000000000000000000000000f8d80ca3b525456711fce0456ee96b1caccf38ab"
          ],
          "data": "0x00000000000000000000000000000000000000000000010f0cf064dd59200000",
          "blockHash": "0x71c864ee1b08bd78f883abc26d1e7d16ba57c6f93d0daf86a1ad5c256991b420",
          "blockNumber": "0x90d802",
          "blockTimestamp": "0x68fdbda8",
          "transactionHash": "0xc19c79b35941d779ebe356936c3f579c9c55ce44fd1d66da620b5c72cde97270",
          "transactionIndex": "0x44",
          "logIndex": "0x77",
          "removed": false
        },
        {
          "address": "0xf8d80ca3b525456711fce0456ee96b1caccf38ab",
          "topics": [
            "0xddf252ad1be2c89b69c2b068fc378daa952ba7f163c4a11628f55a4df523b3ef",
            "0x0000000000000000000000000000000000000000000000000000000000000000",
            "0x0000000000000000000000000000000000000000000000000000000000000000"
          ],
          "data": "0x00000000000000000000000000000000000000000000000000000000000003e8",
          "blockHash": "0x71c864ee1b08bd78f883abc26d1e7d16ba57c6f93d0daf86a1ad5c256991b420",
          "blockNumber": "0x90d802",
          "blockTimestamp": "0x68fdbda8",
          "transactionHash": "0xc19c79b35941d779ebe356936c3f579c9c55ce44fd1d66da620b5c72cde97270",
          "transactionIndex": "0x44",
          "logIndex": "0x78",
          "removed": false
        },
        {
          "address": "0xf8d80ca3b525456711fce0456ee96b1caccf38ab",
          "topics": [
            "0xddf252ad1be2c89b69c2b068fc378daa952ba7f163c4a11628f55a4df523b3ef",
            "0x0000000000000000000000000000000000000000000000000000000000000000",
            "0x000000000000000000000000eff3521fb13228c767ad6dc3b934f9efac9c56ad"
          ],
          "data": "0x0000000000000000000000000000000000000000000000004563918244f3fc18",
          "blockHash": "0x71c864ee1b08bd78f883abc26d1e7d16ba57c6f93d0daf86a1ad5c256991b420",
          "blockNumber": "0x90d802",
          "blockTimestamp": "0x68fdbda8",
          "transactionHash": "0xc19c79b35941d779ebe356936c3f579c9c55ce44fd1d66da620b5c72cde97270",
          "transactionIndex": "0x44",
          "logIndex": "0x79",
          "removed": false
        },
        {
          "address": "0xf8d80ca3b525456711fce0456ee96b1caccf38ab",
          "topics": [
            "0x1c411e9a96e071241c2f21f7726b17ae89e3cab4c78be50e062b03a9fffbbad1"
          ],
          "data": "0x00000000000000000000000000000000000000000000010f0cf064dd592000000000000000000000000000000000000000000000000000000011c37937e08000",
          "blockHash": "0x71c864ee1b08bd78f883abc26d1e7d16ba57c6f93d0daf86a1ad5c256991b420",
          "blockNumber": "0x90d802",
          "blockTimestamp": "0x68fdbda8",
          "transactionHash": "0xc19c79b35941d779ebe356936c3f579c9c55ce44fd1d66da620b5c72cde97270",
          "transactionIndex": "0x44",
          "logIndex": "0x7a",
          "removed": false
        },
        {
          "address": "0xf8d80ca3b525456711fce0456ee96b1caccf38ab",
          "topics": [
            "0x4c209b5fc8ad50758f13e2e1088ba56a560dff690a1c6fef26394f4c03821c4f",
            "0x000000000000000000000000ee567fe1712faf6149d80da1e6934e354124cfe3"
          ],
          "data": "0x00000000000000000000000000000000000000000000010f0cf064dd592000000000000000000000000000000000000000000000000000000011c37937e08000",
          "blockHash": "0x71c864ee1b08bd78f883abc26d1e7d16ba57c6f93d0daf86a1ad5c256991b420",
          "blockNumber": "0x90d802",
          "blockTimestamp": "0x68fdbda8",
          "transactionHash": "0xc19c79b35941d779ebe356936c3f579c9c55ce44fd1d66da620b5c72cde97270",
          "transactionIndex": "0x44",
          "logIndex": "0x7b",
          "removed": false
        },
        {
          "address": "0x9d4eb64290887536cabc9b9e841132145ee55f07",
          "topics": [
            "0x4a1a2a6176e9646d9e3157f7c2ab3c499f18337c0b0828cfb28e0a61de4a11f7"
          ],
          "data": "0x0000000000000000000000001f9840a85d5af5bf1d1762f925bdaddc4201f9840000000000000000000000000e1efea9f52f99baac1ca663d41119c037258d540000000000000000000000000000000000000000000000000011c37937e0800000000000000000000000000000000000000000000000010f0cf064dd592000000000000000000000000000000000000000000000000000004563918244f3fc18",
          "blockHash": "0x71c864ee1b08bd78f883abc26d1e7d16ba57c6f93d0daf86a1ad5c256991b420",
          "blockNumber": "0x90d802",
          "blockTimestamp": "0x68fdbda8",
          "transactionHash": "0xc19c79b35941d779ebe356936c3f579c9c55ce44fd1d66da620b5c72cde97270",
          "transactionIndex": "0x44",
          "logIndex": "0x7c",
          "removed": false
        }
      ],
      "logsBloom": "0x00000100000000000000000080000000000000000000000000000000000001020000000000020000000000000000001000000000000000000000000008200000000000000400000000000008100000000000000000000000002000000000000008000000020000000000800400000800000000000008000000010010000000000000000000000000000000000000008001000000000000080000000000010000024000000080000000000400000000000000100000000000000000800000000000000002000000000000004000020004000000000000001000010000000028000010000000000000000000000002000010000000000000000080000000000000",
      "type": "0x2",
      "transactionHash": "0xc19c79b35941d779ebe356936c3f579c9c55ce44fd1d66da620b5c72cde97270",
      "transactionIndex": "0x44",
      "blockHash": "0x71c864ee1b08bd78f883abc26d1e7d16ba57c6f93d0daf86a1ad5c256991b420",
      "blockNumber": "0x90d802",
      "gasUsed": "0x474c1",
      "effectiveGasPrice": "0xf4249",
      "from": "0xeff3521fb13228c767ad6dc3b934f9efac9c56ad",
      "to": "0x9d4eb64290887536cabc9b9e841132145ee55f07",
      "contractAddress": null
    }
  ],
  "libraries": [],
  "pending": [],
  "returns": {},
  "timestamp": 1761459629,
  "chain": 11155111,
  "commit": "0754351"
}