{
  "transactions": [
    {
      "hash": "0x3023bac6f0ae0ae84967bc4736ab8fabb07320160dbf23786a645a8008bc2a4f",
      "transactionType": "CALL",
      "contractName": null,
      "contractAddress": "0x1f9840a85d5af5bf1d1762f925bdaddc4201f984",
      "function": "approve(address,uint256)",
      "arguments": [
        "0x40262B967bF31Ca1cA68920753dd9B03925f6fdd",
        "100000000000000"
      ],
      "transaction": {
        "from": "0xeff3521fb13228c767ad6dc3b934f9efac9c56ad",
        "to": "0x1f9840a85d5af5bf1d1762f925bdaddc4201f984",
        "gas": "0x10ba5",
        "value": "0x0",
        "input": "0x095ea7b300000000000000000000000040262b967bf31ca1ca68920753dd9b03925f6fdd00000000000000000000000000000000000000000000000000005af3107a4000",
        "nonce": "0xf1",
        "chainId": "0xaa36a7"
      },
      "additionalContracts": [],
      "isFixedGasLimit": false
    },
    {
      "hash": "0x8b620b9b5f4c6bc56ae79166ba6331f8ac7ab2ca65e83413b0a1d88e078d8323",
      "transactionType": "CALL",
      "contractName": null,
      "contractAddress": "0x6c64e8278b7d5513143d59bf1484b0e6972e4505",
      "function": "approve(address,uint256)",
      "arguments": [
        "0x40262B967bF31Ca1cA68920753dd9B03925f6fdd",
        "1000000000000000000000"
      ],
      "transaction": {
        "from": "0xeff3521fb13228c767ad6dc3b934f9efac9c56ad",
        "to": "0x6c64e8278b7d5513143d59bf1484b0e6972e4505",
        "gas": "0x10c4a",
        "value": "0x0",
        "input": "0x095ea7b300000000000000000000000040262b967bf31ca1ca68920753dd9b03925f6fdd00000000000000000000000000000000000000000000003635c9adc5dea00000",
        "nonce": "0xf2",
        "chainId": "0xaa36a7"
      },
      "additionalContracts": [],
      "isFixedGasLimit": false
    },
    {
      "hash": "0x56f66a9fbfbf14158ac56b58ec3dbdebd8d0a5441db80e629983bb831afe41ac",
      "transactionType": "CALL",
      "contractName": null,
      "contractAddress": "0x40262b967bf31ca1ca68920753dd9b03925f6fdd",
      "function": "addLiquidity(address,address,uint256,uint256)",
      "arguments": [
        "0x1f9840a85d5aF5bf1D1762F925BDADdC4201F984",
        "0x6c64E8278B7d5513143D59Bf1484B0e6972e4505",
        "100000000000000",
        "1000000000000000000000"
      ],
      "transaction": {
        "from": "0xeff3521fb13228c767ad6dc3b934f9efac9c56ad",
        "to": "0x40262b967bf31ca1ca68920753dd9b03925f6fdd",
        "gas": "0x6a388",
        "value": "0x0",
        "input": "0xcf6c62ea0000000000000000000000001f9840a85d5af5bf1d1762f925bdaddc4201f9840000000000000000000000006c64e8278b7d5513143d59bf1484b0e6972e450500000000000000000000000000000000000000000000000000005af3107a400000000000000000000000000000000000000000000000003635c9adc5dea00000",
        "nonce": "0xf3",
        "chainId": "0xaa36a7"
      },
      "additionalContracts": [],
      "isFixedGasLimit": false
    }
  ],
  "receipts": [
    {
      "status": "0x1",
      "cumulativeGasUsed": "0x1075cf3",
      "logs": [
        {
          "address": "0x1f9840a85d5af5bf1d1762f925bdaddc4201f984",
          "topics": [
            "0x8c5be1e5ebec7d5bd14f71427d1e84f3dd0314c0f7b2291e5b200ac8c7c3b925",
            "0x000000000000000000000000eff3521fb13228c767ad6dc3b934f9efac9c56ad",
            "0x00000000000000000000000040262b967bf31ca1ca68920753dd9b03925f6fdd"
          ],
          "data": "0x00000000000000000000000000000000000000000000000000005af3107a4000",
          "blockHash": "0xe09c29d464cf65df2333c678d3cf7c3dbca96df44e1ccc2f8c232b55325f8575",
          "blockNumber": "0x90ef8b",
          "blockTimestamp": "0x68fed88c",
          "transactionHash": "0x3023bac6f0ae0ae84967bc4736ab8fabb07320160dbf23786a645a8008bc2a4f",
          "transactionIndex": "0x65",
          "logIndex": "0x68",
          "removed": false
        }
      ],
      "logsBloom": "0x00000000000000000000000000000000000000000000000000000000000000020000000000000000000000000000001000000000000000000000000000200010000000000000000000000000100000000000000000000000002000000000000008000000000000000000000000000000000000000000000000000000000000000000000000000000000000000000000000000000000000000000000000000000020000000000000000000000000000000000100000000000000000000000000000000000000000000000000000000000000004000000000000000040000000000010000000000000000000000000000000000000000000000000000000000000",
      "type": "0x2",
      "transactionHash": "0x3023bac6f0ae0ae84967bc4736ab8fabb07320160dbf23786a645a8008bc2a4f",
      "transactionIndex": "0x65",
      "blockHash": "0xe09c29d464cf65df2333c678d3cf7c3dbca96df44e1ccc2f8c232b55325f8575",
      "blockNumber": "0x90ef8b",
      "gasUsed": "0xb702",
      "effectiveGasPrice": "0xf424a",
      "from": "0xeff3521fb13228c767ad6dc3b934f9efac9c56ad",
      "to": "0x1f9840a85d5af5bf1d1762f925bdaddc4201f984",
      "contractAddress": null
    },
    {
      "status": "0x1",
      "cumulativeGasUsed": "0x1081466",
      "logs": [
        {
          "address": "0x6c64e8278b7d5513143d59bf1484b0e6972e4505",
          "topics": [
            "0x8c5be1e5ebec7d5bd14f71427d1e84f3dd0314c0f7b2291e5b200ac8c7c3b925",
            "0x000000000000000000000000eff3521fb13228c767ad6dc3b934f9efac9c56ad",
            "0x00000000000000000000000040262b967bf31ca1ca68920753dd9b03925f6fdd"
          ],
          "data": "0x00000000000000000000000000000000000000000000003635c9adc5dea00000",
          "blockHash": "0xe09c29d464cf65df2333c678d3cf7c3dbca96df44e1ccc2f8c232b55325f8575",
          "blockNumber": "0x90ef8b",
          "blockTimestamp": "0x68fed88c",
          "transactionHash": "0x8b620b9b5f4c6bc56ae79166ba6331f8ac7ab2ca65e83413b0a1d88e078d8323",
          "transactionIndex": "0x66",
          "logIndex": "0x69",
          "removed": false
        }
      ],
      "logsBloom": "0x00000000000000000000000000000000000000000000000000000000000000020000000000000000000000000000000000000000000000000000000000200010000000000000000000000000000000000000000000000000002000000000000000000000000000000000000000000000000000000000000000000000000000000000000000000000000000000000000000000000000000000000000000000000020000000000000000000000000000000000100000000040000000000000100000000000000000000000000000000000000004000010000000000040000000000010000000000000000000000000000000000000000000000000000000000000",
      "type": "0x2",
      "transactionHash": "0x8b620b9b5f4c6bc56ae79166ba6331f8ac7ab2ca65e83413b0a1d88e078d8323",
      "transactionIndex": "0x66",
      "blockHash": "0xe09c29d464cf65df2333c678d3cf7c3dbca96df44e1ccc2f8c232b55325f8575",
      "blockNumber": "0x90ef8b",
      "gasUsed": "0xb773",
      "effectiveGasPrice": "0xf424a",
      "from": "0xeff3521fb13228c767ad6dc3b934f9efac9c56ad",
      "to": "0x6c64e8278b7d5513143d59bf1484b0e6972e4505",
      "contractAddress": null
    },
    {
      "status": "0x1",
      "cumulativeGasUsed": "0x10c9e79",
      "logs": [
        {
          "address": "0x1f9840a85d5af5bf1d1762f925bdaddc4201f984",
          "topics": [
            "0x8c5be1e5ebec7d5bd14f71427d1e84f3dd0314c0f7b2291e5b200ac8c7c3b925",
            "0x000000000000000000000000eff3521fb13228c767ad6dc3b934f9efac9c56ad",
            "0x00000000000000000000000040262b967bf31ca1ca68920753dd9b03925f6fdd"
          ],
          "data": "0x0000000000000000000000000000000000000000000000000000000000000000",
          "blockHash": "0xe09c29d464cf65df2333c678d3cf7c3dbca96df44e1ccc2f8c232b55325f8575",
          "blockNumber": "0x90ef8b",
          "blockTimestamp": "0x68fed88c",
          "transactionHash": "0x56f66a9fbfbf14158ac56b58ec3dbdebd8d0a5441db80e629983bb831afe41ac",
          "transactionIndex": "0x67",
          "logIndex": "0x6a",
          "removed": false
        },
        {
          "address": "0x1f9840a85d5af5bf1d1762f925bdaddc4201f984",
          "topics": [
            "0xddf252ad1be2c89b69c2b068fc378daa952ba7f163c4a11628f55a4df523b3ef",
            "0x000000000000000000000000eff3521fb13228c767ad6dc3b934f9efac9c56ad",
            "0x00000000000000000000000040262b967bf31ca1ca68920753dd9b03925f6fdd"
          ],
          "data": "0x00000000000000000000000000000000000000000000000000005af3107a4000",
          "blockHash": "0xe09c29d464cf65df2333c678d3cf7c3dbca96df44e1ccc2f8c232b55325f8575",
          "blockNumber": "0x90ef8b",
          "blockTimestamp": "0x68fed88c",
          "transactionHash": "0x56f66a9fbfbf14158ac56b58ec3dbdebd8d0a5441db80e629983bb831afe41ac",
          "transactionIndex": "0x67",
          "logIndex": "0x6b",
          "removed": false
        },
        {
          "address": "0x6c64e8278b7d5513143d59bf1484b0e6972e4505",
          "topics": [
            "0xddf252ad1be2c89b69c2b068fc378daa952ba7f163c4a11628f55a4df523b3ef",
            "0x000000000000000000000000eff3521fb13228c767ad6dc3b934f9efac9c56ad",
            "0x00000000000000000000000040262b967bf31ca1ca68920753dd9b03925f6fdd"
          ],
          "data": "0x00000000000000000000000000000000000000000000003635c9adc5dea00000",
          "blockHash": "0xe09c29d464cf65df2333c678d3cf7c3dbca96df44e1ccc2f8c232b55325f8575",
          "blockNumber": "0x90ef8b",
          "blockTimestamp": "0x68fed88c",
          "transactionHash": "0x56f66a9fbfbf14158ac56b58ec3dbdebd8d0a5441db80e629983bb831afe41ac",
          "transactionIndex": "0x67",
          "logIndex": "0x6c",
          "removed": false
        },
        {
          "address": "0x1f9840a85d5af5bf1d1762f925bdaddc4201f984",
          "topics": [
            "0x8c5be1e5ebec7d5bd14f71427d1e84f3dd0314c0f7b2291e5b200ac8c7c3b925",
            "0x00000000000000000000000040262b967bf31ca1ca68920753dd9b03925f6fdd",
            "0x000000000000000000000000ee567fe1712faf6149d80da1e6934e354124cfe3"
          ],
          "data": "0x00000000000000000000000000000000000000000000000000005af3107a4000",
          "blockHash": "0xe09c29d464cf65df2333c678d3cf7c3dbca96df44e1ccc2f8c232b55325f8575",
          "blockNumber": "0x90ef8b",
          "blockTimestamp": "0x68fed88c",
          "transactionHash": "0x56f66a9fbfbf14158ac56b58ec3dbdebd8d0a5441db80e629983bb831afe41ac",
          "transactionIndex": "0x67",
          "logIndex": "0x6d",
          "removed": false
        },
        {
          "address": "0x6c64e8278b7d5513143d59bf1484b0e6972e4505",
          "topics": [
            "0x8c5be1e5ebec7d5bd14f71427d1e84f3dd0314c0f7b2291e5b200ac8c7c3b925",
            "0x00000000000000000000000040262b967bf31ca1ca68920753dd9b03925f6fdd",
            "0x000000000000000000000000ee567fe1712faf6149d80da1e6934e354124cfe3"
          ],
          "data": "0x00000000000000000000000000000000000000000000003635c9adc5dea00000",
          "blockHash": "0xe09c29d464cf65df2333c678d3cf7c3dbca96df44e1ccc2f8c232b55325f8575",
          "blockNumber": "0x90ef8b",
          "blockTimestamp": "0x68fed88c",
          "transactionHash": "0x56f66a9fbfbf14158ac56b58ec3dbdebd8d0a5441db80e629983bb831afe41ac",
          "transactionIndex": "0x67",
          "logIndex": "0x6e",
          "removed": false
        },
        {
          "address": "0x1f9840a85d5af5bf1d1762f925bdaddc4201f984",
          "topics": [
            "0x8c5be1e5ebec7d5bd14f71427d1e84f3dd0314c0f7b2291e5b200ac8c7c3b925",
            "0x00000000000000000000000040262b967bf31ca1ca68920753dd9b03925f6fdd",
            "0x000000000000000000000000ee567fe1712faf6149d80da1e6934e354124cfe3"
          ],
          "data": "0x0000000000000000000000000000000000000000000000000000000000000000",
          "blockHash": "0xe09c29d464cf65df2333c678d3cf7c3dbca96df44e1ccc2f8c232b55325f8575",
          "blockNumber": "0x90ef8b",
          "blockTimestamp": "0x68fed88c",
          "transactionHash": "0x56f66a9fbfbf14158ac56b58ec3dbdebd8d0a5441db80e629983bb831afe41ac",
          "transactionIndex": "0x67",
          "logIndex": "0x6f",
          "removed": false
        },
        {
          "address": "0x1f9840a85d5af5bf1d1762f925bdaddc4201f984",
          "topics": [
            "0xddf252ad1be2c89b69c2b068fc378daa952ba7f163c4a11628f55a4df523b3ef",
            "0x00000000000000000000000040262b967bf31ca1ca68920753dd9b03925f6fdd",
            "0x000000000000000000000000421b152478f5370c4d28b11fdfab122d171b731b"
          ],
          "data": "0x00000000000000000000000000000000000000000000000000005af3107a4000",
          "blockHash": "0xe09c29d464cf65df2333c678d3cf7c3dbca96df44e1ccc2f8c232b55325f8575",
          "blockNumber": "0x90ef8b",
          "blockTimestamp": "0x68fed88c",
          "transactionHash": "0x56f66a9fbfbf14158ac56b58ec3dbdebd8d0a5441db80e629983bb831afe41ac",
          "transactionIndex": "0x67",
          "logIndex": "0x70",
          "removed": false
        },
        {
          "address": "0x6c64e8278b7d5513143d59bf1484b0e6972e4505",
          "topics": [
            "0xddf252ad1be2c89b69c2b068fc378daa952ba7f163c4a11628f55a4df523b3ef",
            "0x00000000000000000000000040262b967bf31ca1ca68920753dd9b03925f6fdd",
            "0x000000000000000000000000421b152478f5370c4d28b11fdfab122d171b731b"
          ],
          "data": "0x00000000000000000000000000000000000000000000003635c9adc5dea00000",
          "blockHash": "0xe09c29d464cf65df2333c678d3cf7c3dbca96df44e1ccc2f8c232b55325f8575",
          "blockNumber": "0x90ef8b",
          "blockTimestamp": "0x68fed88c",
          "transactionHash": "0x56f66a9fbfbf14158ac56b58ec3dbdebd8d0a5441db80e629983bb831afe41ac",
          "transactionIndex": "0x67",
          "logIndex": "0x71",
          "removed": false
        },
        {
          "address": "0x421b152478f5370c4d28b11fdfab122d171b731b",
          "topics": [
            "0xddf252ad1be2c89b69c2b068fc378daa952ba7f163c4a11628f55a4df523b3ef",
            "0x0000000000000000000000000000000000000000000000000000000000000000",
            "0x0000000000000000000000000000000000000000000000000000000000000000"
          ],
          "data": "0x00000000000000000000000000000000000000000000000000000000000003e8",
          "blockHash": "0xe09c29d464cf65df2333c678d3cf7c3dbca96df44e1ccc2f8c232b55325f8575",
          "blockNumber": "0x90ef8b",
          "blockTimestamp": "0x68fed88c",
          "transactionHash": "0x56f66a9fbfbf14158ac56b58ec3dbdebd8d0a5441db80e629983bb831afe41ac",
          "transactionIndex": "0x67",
          "logIndex": "0x72",
          "removed": false
        },
        {
          "address": "0x421b152478f5370c4d28b11fdfab122d171b731b",
          "topics": [
            "0xddf252ad1be2c89b69c2b068fc378daa952ba7f163c4a11628f55a4df523b3ef",
            "0x0000000000000000000000000000000000000000000000000000000000000000",
            "0x000000000000000000000000eff3521fb13228c767ad6dc3b934f9efac9c56ad"
          ],
          "data": "0x0000000000000000000000000000000000000000000000000463777a4d8c8545",
          "blockHash": "0xe09c29d464cf65df2333c678d3cf7c3dbca96df44e1ccc2f8c232b55325f8575",
          "blockNumber": "0x90ef8b",
          "blockTimestamp": "0x68fed88c",
          "transactionHash": "0x56f66a9fbfbf14158ac56b58ec3dbdebd8d0a5441db80e629983bb831afe41ac",
          "transactionIndex": "0x67",
          "logIndex": "0x73",
          "removed": false
        },
        {
          "address": "0x421b152478f5370c4d28b11fdfab122d171b731b",
          "topics": [
            "0x1c411e9a96e071241c2f21f7726b17ae89e3cab4c78be50e062b03a9fffbbad1"
          ],
          "data": "0x00000000000000000000000000000000000000000000000000005af3107a400000000000000000000000000000000000000000000000003635c9adc5dea00000",
          "blockHash": "0xe09c29d464cf65df2333c678d3cf7c3dbca96df44e1ccc2f8c232b55325f8575",
          "blockNumber": "0x90ef8b",
          "blockTimestamp": "0x68fed88c",
          "transactionHash": "0x56f66a9fbfbf14158ac56b58ec3dbdebd8d0a5441db80e629983bb831afe41ac",
          "transactionIndex": "0x67",
          "logIndex": "0x74",
          "removed": false
        },
        {
          "address": "0x421b152478f5370c4d28b11fdfab122d171b731b",
          "topics": [
            "0x4c209b5fc8ad50758f13e2e1088ba56a560dff690a1c6fef26394f4c03821c4f",
            "0x000000000000000000000000ee567fe1712faf6149d80da1e6934e354124cfe3"
          ],
          "data": "0x00000000000000000000000000000000000000000000000000005af3107a400000000000000000000000000000000000000000000000003635c9adc5dea00000",
          "blockHash": "0xe09c29d464cf65df2333c678d3cf7c3dbca96df44e1ccc2f8c232b55325f8575",
          "blockNumber": "0x90ef8b",
          "blockTimestamp": "0x68fed88c",
          "transactionHash": "0x56f66a9fbfbf14158ac56b58ec3dbdebd8d0a5441db80e629983bb831afe41ac",
          "transactionIndex": "0x67",
          "logIndex": "0x75",
          "removed": false
        },
        {
          "address": "0x40262b967bf31ca1ca68920753dd9b03925f6fdd",
          "topics": [
            "0x4a1a2a6176e9646d9e3157f7c2ab3c499f18337c0b0828cfb28e0a61de4a11f7"
          ],
          "data": "0x0000000000000000000000001f9840a85d5af5bf1d1762f925bdaddc4201f9840000000000000000000000006c64e8278b7d5513143d59bf1484b0e6972e450500000000000000000000000000000000000000000000000000005af3107a400000000000000000000000000000000000000000000000003635c9adc5dea000000000000000000000000000000000000000000000000000000463777a4d8c8545",
          "blockHash": "0xe09c29d464cf65df2333c678d3cf7c3dbca96df44e1ccc2f8c232b55325f8575",
          "blockNumber": "0x90ef8b",
          "blockTimestamp": "0x68fed88c",
          "transactionHash": "0x56f66a9fbfbf14158ac56b58ec3dbdebd8d0a5441db80e629983bb831afe41ac",
          "transactionIndex": "0x67",
          "logIndex": "0x76",
          "removed": false
        }
      ],
      "logsBloom": "0x0000000000000000000000008000000002000000400000000000000000000102000080000000000000000200000000100000000800000000000020000820001000000000000000000000000810000000000000000000000000200000000000000a000000020000000000800000000800000000000008000000000010000000000000000000000000000000000000000000000000000000080000000000010000020000000000000000000000000000000000100000000040000000800000180000000002000000000000000000020000000004000010001000000040000028000010000000000000000000000000000000000000000000000080000000000000",
      "type": "0x2",
      "transactionHash": "0x56f66a9fbfbf14158ac56b58ec3dbdebd8d0a5441db80e629983bb831afe41ac",
      "transactionIndex": "0x67",
      "blockHash": "0xe09c29d464cf65df2333c678d3cf7c3dbca96df44e1ccc2f8c232b55325f8575",
      "blockNumber": "0x90ef8b",
      "gasUsed": "0x48a13",
      "effectiveGasPrice": "0xf424a",
      "from": "0xeff3521fb13228c767ad6dc3b934f9efac9c56ad",
      "to": "0x40262b967bf31ca1ca68920753dd9b03925f6fdd",
      "contractAddress": null
    }
  ],
  "libraries": [],
  "pending": [],
  "returns": {},
  "timestamp": 1761532047,
  "chain": 11155111,
  "commit": "b9ab932"
}