{
  "transactions": [
    {
      "hash": "0xe14ff0f8715f3d16c8c7daa0c29e26a1dc4935397c15d2682985e508e84060bf",
      "transactionType": "CALL",
      "contractName": null,
      "contractAddress": "0x1f9840a85d5af5bf1d1762f925bdaddc4201f984",
      "function": "approve(address,uint256)",
      "arguments": [
        "0xbFd4c35D5dD72dEEf603Dd7EdD85B2BE9C14e9Cd",
        "200000000000000"
      ],
      "transaction": {
        "from": "0xeff3521fb13228c767ad6dc3b934f9efac9c56ad",
        "to": "0x1f9840a85d5af5bf1d1762f925bdaddc4201f984",
        "gas": "0x10ba5",
        "value": "0x0",
        "input": "0x095ea7b3000000000000000000000000bfd4c35d5dd72deef603dd7edd85b2be9c14e9cd0000000000000000000000000000000000000000000000000000b5e620f48000",
        "nonce": "0x10d",
        "chainId": "0xaa36a7"
      },
      "additionalContracts": [],
      "isFixedGasLimit": false
    },
    {
      "hash": "0xb4197e899c66e060adc5ef351c9d01cff6f48661ca594c8b6dcc7f59b5fe0fbb",
      "transactionType": "CALL",
      "contractName": null,
      "contractAddress": "0x6c64e8278b7d5513143d59bf1484b0e6972e4505",
      "function": "approve(address,uint256)",
      "arguments": [
        "0xbFd4c35D5dD72dEEf603Dd7EdD85B2BE9C14e9Cd",
        "632455600000000000000"
      ],
      "transaction": {
        "from": "0xeff3521fb13228c767ad6dc3b934f9efac9c56ad",
        "to": "0x6c64e8278b7d5513143d59bf1484b0e6972e4505",
        "gas": "0x10c4a",
        "value": "0x0",
        "input": "0x095ea7b3000000000000000000000000bfd4c35d5dd72deef603dd7edd85b2be9c14e9cd0000000000000000000000000000000000000000000000224915a94e7e8b0000",
        "nonce": "0x10e",
        "chainId": "0xaa36a7"
      },
      "additionalContracts": [],
      "isFixedGasLimit": false
    },
    {
      "hash": "0x07f2657edc0af25d9a29f9dd4ed38e7fa80f91346f161248caa0556830a45beb",
      "transactionType": "CALL",
      "contractName": null,
      "contractAddress": "0xbfd4c35d5dd72deef603dd7edd85b2be9c14e9cd",
      "function": "addLiquidity(address,address,uint256,uint256)",
      "arguments": [
        "0x1f9840a85d5aF5bf1D1762F925BDADdC4201F984",
        "0x6c64E8278B7d5513143D59Bf1484B0e6972e4505",
        "200000000000000",
        "632455600000000000000"
      ],
      "transaction": {
        "from": "0xeff3521fb13228c767ad6dc3b934f9efac9c56ad",
        "to": "0xbfd4c35d5dd72deef603dd7edd85b2be9c14e9cd",
        "gas": "0x50cf2",
        "value": "0x0",
        "input": "0xcf6c62ea0000000000000000000000001f9840a85d5af5bf1d1762f925bdaddc4201f9840000000000000000000000006c64e8278b7d5513143d59bf1484b0e6972e45050000000000000000000000000000000000000000000000000000b5e620f480000000000000000000000000000000000000000000000000224915a94e7e8b0000",
        "nonce": "0x10f",
        "chainId": "0xaa36a7"
      },
      "additionalContracts": [],
      "isFixedGasLimit": false
    }
  ],
  "receipts": [
    {
      "status": "0x1",
      "cumulativeGasUsed": "0x620e35",
      "logs": [
        {
          "address": "0x1f9840a85d5af5bf1d1762f925bdaddc4201f984",
          "topics": [
            "0x8c5be1e5ebec7d5bd14f71427d1e84f3dd0314c0f7b2291e5b200ac8c7c3b925",
            "0x000000000000000000000000eff3521fb13228c767ad6dc3b934f9efac9c56ad",
            "0x000000000000000000000000bfd4c35d5dd72deef603dd7edd85b2be9c14e9cd"
          ],
          "data": "0x0000000000000000000000000000000000000000000000000000b5e620f48000",
          "blockHash": "0xeaab771395cedd86c181d3245be35b8741d3fe17860b03998fe949bcccd3ab8d",
          "blockNumber": "0x910b15",
          "blockTimestamp": "0x69002580",
          "transactionHash": "0xe14ff0f8715f3d16c8c7daa0c29e26a1dc4935397c15d2682985e508e84060bf",
          "transactionIndex": "0x44",
          "logIndex": "0x4b",
          "removed": false
        }
      ],
      "logsBloom": "0x00000000000000000000000000000000000000000000000000000000000000020000000000000000000000000000001000000000000000000000000000200000000000000000000000000000100000000000000000000000002000000000000008000000000000800000000000000000000000000000000000000000000000000000000000000000000000000000000000000000000000000000000000000000020000000000000000000000000000000000100000000000000000000000000000000000000000000000000000000000000000000000000000000000000000000010000000200000000000000200000000000000000000000000000000000000",
      "type": "0x2",
      "transactionHash": "0xe14ff0f8715f3d16c8c7daa0c29e26a1dc4935397c15d2682985e508e84060bf",
      "transactionIndex": "0x44",
      "blockHash": "0xeaab771395cedd86c181d3245be35b8741d3fe17860b03998fe949bcccd3ab8d",
      "blockNumber": "0x910b15",
      "gasUsed": "0xb702",
      "effectiveGasPrice": "0xf4248",
      "from": "0xeff3521fb13228c767ad6dc3b934f9efac9c56ad",
      "to": "0x1f9840a85d5af5bf1d1762f925bdaddc4201f984",
      "contractAddress": null
    },
    {
      "status": "0x1",
      "cumulativeGasUsed": "0x62c5a8",
      "logs": [
        {
          "address": "0x6c64e8278b7d5513143d59bf1484b0e6972e4505",
          "topics": [
            "0x8c5be1e5ebec7d5bd14f71427d1e84f3dd0314c0f7b2291e5b200ac8c7c3b925",
            "0x000000000000000000000000eff3521fb13228c767ad6dc3b934f9efac9c56ad",
            "0x000000000000000000000000bfd4c35d5dd72deef603dd7edd85b2be9c14e9cd"
          ],
          "data": "0x0000000000000000000000000000000000000000000000224915a94e7e8b0000",
          "blockHash": "0xeaab771395cedd86c181d3245be35b8741d3fe17860b03998fe949bcccd3ab8d",
          "blockNumber": "0x910b15",
          "blockTimestamp": "0x69002580",
          "transactionHash": "0xb4197e899c66e060adc5ef351c9d01cff6f48661ca594c8b6dcc7f59b5fe0fbb",
          "transactionIndex": "0x45",
          "logIndex": "0x4c",
          "removed": false
        }
      ],
      "logsBloom": "0x00000000000000000000000000000000000000000000000000000000000000020000000000000000000000000000000000000000000000000000000000200000000000000000000000000000000000000000000000000000002000000000000000000000000000800000000000000000000000000000000000000000000000000000000000000000000000000000000000000000000000000000000000000000020000000000000000000000000000000000100000000040000000000000100000000000000000000000000000000000000000000010000000000000000000000010000000200000000000000200000000000000000000000000000000000000",
      "type": "0x2",
      "transactionHash": "0xb4197e899c66e060adc5ef351c9d01cff6f48661ca594c8b6dcc7f59b5fe0fbb",
      "transactionIndex": "0x45",
      "blockHash": "0xeaab771395cedd86c181d3245be35b8741d3fe17860b03998fe949bcccd3ab8d",
      "blockNumber": "0x910b15",
      "gasUsed": "0xb773",
      "effectiveGasPrice": "0xf4248",
      "from": "0xeff3521fb13228c767ad6dc3b934f9efac9c56ad",
      "to": "0x6c64e8278b7d5513143d59bf1484b0e6972e4505",
      "contractAddress": null
    },
    {
      "status": "0x1",
      "cumulativeGasUsed": "0x6639b9",
      "logs": [
        {
          "address": "0x1f9840a85d5af5bf1d1762f925bdaddc4201f984",
          "topics": [
            "0x8c5be1e5ebec7d5bd14f71427d1e84f3dd0314c0f7b2291e5b200ac8c7c3b925",
            "0x000000000000000000000000eff3521fb13228c767ad6dc3b934f9efac9c56ad",
            "0x000000000000000000000000bfd4c35d5dd72deef603dd7edd85b2be9c14e9cd"
          ],
          "data": "0x0000000000000000000000000000000000000000000000000000000000000000",
          "blockHash": "0xeaab771395cedd86c181d3245be35b8741d3fe17860b03998fe949bcccd3ab8d",
          "blockNumber": "0x910b15",
          "blockTimestamp": "0x69002580",
          "transactionHash": "0x07f2657edc0af25d9a29f9dd4ed38e7fa80f91346f161248caa0556830a45beb",
          "transactionIndex": "0x46",
          "logIndex": "0x4d",
          "removed": false
        },
        {
          "address": "0x1f9840a85d5af5bf1d1762f925bdaddc4201f984",
          "topics": [
            "0xddf252ad1be2c89b69c2b068fc378daa952ba7f163c4a11628f55a4df523b3ef",
            "0x000000000000000000000000eff3521fb13228c767ad6dc3b934f9efac9c56ad",
            "0x000000000000000000000000bfd4c35d5dd72deef603dd7edd85b2be9c14e9cd"
          ],
          "data": "0x0000000000000000000000000000000000000000000000000000b5e620f48000",
          "blockHash": "0xeaab771395cedd86c181d3245be35b8741d3fe17860b03998fe949bcccd3ab8d",
          "blockNumber": "0x910b15",
          "blockTimestamp": "0x69002580",
          "transactionHash": "0x07f2657edc0af25d9a29f9dd4ed38e7fa80f91346f161248caa0556830a45beb",
          "transactionIndex": "0x46",
          "logIndex": "0x4e",
          "removed": false
        },
        {
          "address": "0x6c64e8278b7d5513143d59bf1484b0e6972e4505",
          "topics": [
            "0xddf252ad1be2c89b69c2b068fc378daa952ba7f163c4a11628f55a4df523b3ef",
            "0x000000000000000000000000eff3521fb13228c767ad6dc3b934f9efac9c56ad",
            "0x000000000000000000000000bfd4c35d5dd72deef603dd7edd85b2be9c14e9cd"
          ],
          "data": "0x0000000000000000000000000000000000000000000000224915a94e7e8b0000",
          "blockHash": "0xeaab771395cedd86c181d3245be35b8741d3fe17860b03998fe949bcccd3ab8d",
          "blockNumber": "0x910b15",
          "blockTimestamp": "0x69002580",
          "transactionHash": "0x07f2657edc0af25d9a29f9dd4ed38e7fa80f91346f161248caa0556830a45beb",
          "transactionIndex": "0x46",
          "logIndex": "0x4f",
          "removed": false
        },
        {
          "address": "0x1f9840a85d5af5bf1d1762f925bdaddc4201f984",
          "topics": [
            "0x8c5be1e5ebec7d5bd14f71427d1e84f3dd0314c0f7b2291e5b200ac8c7c3b925",
            "0x000000000000000000000000bfd4c35d5dd72deef603dd7edd85b2be9c14e9cd",
            "0x000000000000000000000000ee567fe1712faf6149d80da1e6934e354124cfe3"
          ],
          "data": "0x0000000000000000000000000000000000000000000000000000b5e620f48000",
          "blockHash": "0xeaab771395cedd86c181d3245be35b8741d3fe17860b03998fe949bcccd3ab8d",
          "blockNumber": "0x910b15",
          "blockTimestamp": "0x69002580",
          "transactionHash": "0x07f2657edc0af25d9a29f9dd4ed38e7fa80f91346f161248caa0556830a45beb",
          "transactionIndex": "0x46",
          "logIndex": "0x50",
          "removed": false
        },
        {
          "address": "0x6c64e8278b7d5513143d59bf1484b0e6972e4505",
          "topics": [
            "0x8c5be1e5ebec7d5bd14f71427d1e84f3dd0314c0f7b2291e5b200ac8c7c3b925",
            "0x000000000000000000000000bfd4c35d5dd72deef603dd7edd85b2be9c14e9cd",
            "0x000000000000000000000000ee567fe1712faf6149d80da1e6934e354124cfe3"
          ],
          "data": "0x0000000000000000000000000000000000000000000000224915a94e7e8b0000",
          "blockHash": "0xeaab771395cedd86c181d3245be35b8741d3fe17860b03998fe949bcccd3ab8d",
          "blockNumber": "0x910b15",
          "blockTimestamp": "0x69002580",
          "transactionHash": "0x07f2657edc0af25d9a29f9dd4ed38e7fa80f91346f161248caa0556830a45beb",
          "transactionIndex": "0x46",
          "logIndex": "0x51",
          "removed": false
        },
        {
          "address": "0x1f9840a85d5af5bf1d1762f925bdaddc4201f984",
          "topics": [
            "0x8c5be1e5ebec7d5bd14f71427d1e84f3dd0314c0f7b2291e5b200ac8c7c3b925",
            "0x000000000000000000000000bfd4c35d5dd72deef603dd7edd85b2be9c14e9cd",
            "0x000000000000000000000000ee567fe1712faf6149d80da1e6934e354124cfe3"
          ],
          "data": "0x0000000000000000000000000000000000000000000000000000000000000000",
          "blockHash": "0xeaab771395cedd86c181d3245be35b8741d3fe17860b03998fe949bcccd3ab8d",
          "blockNumber": "0x910b15",
          "blockTimestamp": "0x69002580",
          "transactionHash": "0x07f2657edc0af25d9a29f9dd4ed38e7fa80f91346f161248caa0556830a45beb",
          "transactionIndex": "0x46",
          "logIndex": "0x52",
          "removed": false
        },
        {
          "address": "0x1f9840a85d5af5bf1d1762f925bdaddc4201f984",
          "topics": [
            "0xddf252ad1be2c89b69c2b068fc378daa952ba7f163c4a11628f55a4df523b3ef",
            "0x000000000000000000000000bfd4c35d5dd72deef603dd7edd85b2be9c14e9cd",
            "0x000000000000000000000000421b152478f5370c4d28b11fdfab122d171b731b"
          ],
          "data": "0x0000000000000000000000000000000000000000000000000000b5e620f48000",
          "blockHash": "0xeaab771395cedd86c181d3245be35b8741d3fe17860b03998fe949bcccd3ab8d",
          "blockNumber": "0x910b15",
          "blockTimestamp": "0x69002580",
          "transactionHash": "0x07f2657edc0af25d9a29f9dd4ed38e7fa80f91346f161248caa0556830a45beb",
          "transactionIndex": "0x46",
          "logIndex": "0x53",
          "removed": false
        },
        {
          "address": "0x6c64e8278b7d5513143d59bf1484b0e6972e4505",
          "topics": [
            "0xddf252ad1be2c89b69c2b068fc378daa952ba7f163c4a11628f55a4df523b3ef",
            "0x000000000000000000000000bfd4c35d5dd72deef603dd7edd85b2be9c14e9cd",
            "0x000000000000000000000000421b152478f5370c4d28b11fdfab122d171b731b"
          ],
          "data": "0x0000000000000000000000000000000000000000000000224915a94e7e8b0000",
          "blockHash": "0xeaab771395cedd86c181d3245be35b8741d3fe17860b03998fe949bcccd3ab8d",
          "blockNumber": "0x910b15",
          "blockTimestamp": "0x69002580",
          "transactionHash": "0x07f2657edc0af25d9a29f9dd4ed38e7fa80f91346f161248caa0556830a45beb",
          "transactionIndex": "0x46",
          "logIndex": "0x54",
          "removed": false
        },
        {
          "address": "0x421b152478f5370c4d28b11fdfab122d171b731b",
          "topics": [
            "0xddf252ad1be2c89b69c2b068fc378daa952ba7f163c4a11628f55a4df523b3ef",
            "0x0000000000000000000000000000000000000000000000000000000000000000",
            "0x000000000000000000000000eff3521fb13228c767ad6dc3b934f9efac9c56ad"
          ],
          "data": "0x00000000000000000000000000000000000000000000000002c68af0bb140000",
          "blockHash": "0xeaab771395cedd86c181d3245be35b8741d3fe17860b03998fe949bcccd3ab8d",
          "blockNumber": "0x910b15",
          "blockTimestamp": "0x69002580",
          "transactionHash": "0x07f2657edc0af25d9a29f9dd4ed38e7fa80f91346f161248caa0556830a45beb",
          "transactionIndex": "0x46",
          "logIndex": "0x55",
          "removed": false
        },
        {
          "address": "0x421b152478f5370c4d28b11fdfab122d171b731b",
          "topics": [
            "0x1c411e9a96e071241c2f21f7726b17ae89e3cab4c78be50e062b03a9fffbbad1"
          ],
          "data": "0x0000000000000000000000000000000000000000000000000000b5e620f480010000000000000000000000000000000000000000000000224915a94e7ebb40a6",
          "blockHash": "0xeaab771395cedd86c181d3245be35b8741d3fe17860b03998fe949bcccd3ab8d",
          "blockNumber": "0x910b15",
          "blockTimestamp": "0x69002580",
          "transactionHash": "0x07f2657edc0af25d9a29f9dd4ed38e7fa80f91346f161248caa0556830a45beb",
          "transactionIndex": "0x46",
          "logIndex": "0x56",
          "removed": false
        },
        {
          "address": "0x421b152478f5370c4d28b11fdfab122d171b731b",
          "topics": [
            "0x4c209b5fc8ad50758f13e2e1088ba56a560dff690a1c6fef26394f4c03821c4f",
            "0x000000000000000000000000ee567fe1712faf6149d80da1e6934e354124cfe3"
          ],
          "data": "0x0000000000000000000000000000000000000000000000000000b5e620f480000000000000000000000000000000000000000000000000224915a94e7e8b0000",
          "blockHash": "0xeaab771395cedd86c181d3245be35b8741d3fe17860b03998fe949bcccd3ab8d",
          "blockNumber": "0x910b15",
          "blockTimestamp": "0x69002580",
          "transactionHash": "0x07f2657edc0af25d9a29f9dd4ed38e7fa80f91346f161248caa0556830a45beb",
          "transactionIndex": "0x46",
          "logIndex": "0x57",
          "removed": false
        },
        {
          "address": "0xbfd4c35d5dd72deef603dd7edd85b2be9c14e9cd",
          "topics": [
            "0x4a1a2a6176e9646d9e3157f7c2ab3c499f18337c0b0828cfb28e0a61de4a11f7"
          ],
          "data": "0x0000000000000000000000001f9840a85d5af5bf1d1762f925bdaddc4201f9840000000000000000000000006c64e8278b7d5513143d59bf1484b0e6972e45050000000000000000000000000000000000000000000000000000b5e620f480000000000000000000000000000000000000000000000000224915a94e7e8b000000000000000000000000000000000000000000000000000002c68af0bb140000",
          "blockHash": "0xeaab771395cedd86c181d3245be35b8741d3fe17860b03998fe949bcccd3ab8d",
          "blockNumber": "0x910b15",
          "blockTimestamp": "0x69002580",
          "transactionHash": "0x07f2657edc0af25d9a29f9dd4ed38e7fa80f91346f161248caa0556830a45beb",
          "transactionIndex": "0x46",
          "logIndex": "0x58",
          "removed": false
        }
      ],
      "logsBloom": "0x0000000000000000000000008000000002000000000000000000000000000102000080000000000000000200000000100000000800000000000000000820400000000000000000000000000810000000000000000000000000200000000000000a000000020000808000800000000800000000000008000000000010000000000000000000000000000000000000000000000000000000080000000000010000020000000000000000000000000000000000100000000040000000800000180000000002000000000000000000020000000000000010001000000000000028000010000000200000000000000200000000000000000000040080000000000000",
      "type": "0x2",
      "transactionHash": "0x07f2657edc0af25d9a29f9dd4ed38e7fa80f91346f161248caa0556830a45beb",
      "transactionIndex": "0x46",
      "blockHash": "0xeaab771395cedd86c181d3245be35b8741d3fe17860b03998fe949bcccd3ab8d",
      "blockNumber": "0x910b15",
      "gasUsed": "0x37411",
      "effectiveGasPrice": "0xf4248",
      "from": "0xeff3521fb13228c767ad6dc3b934f9efac9c56ad",
      "to": "0xbfd4c35d5dd72deef603dd7edd85b2be9c14e9cd",
      "contractAddress": null
    }
  ],
  "libraries": [],
  "pending": [],
  "returns": {},
  "timestamp": 1761617281,
  "chain": 11155111,
  "commit": "4457f8a"
}