{
  "transactions": [
    {
      "hash": "0x4b72f6a73037ccc77807b8ce09a93132155a21bf5a32475ec16ae6c9c2bf84ac",
      "transactionType": "CALL",
      "contractName": null,
      "contractAddress": "0x1f9840a85d5af5bf1d1762f925bdaddc4201f984",
      "function": "approve(address,uint256)",
      "arguments": [
        "0x284af8B3d00dBbaFA46c93633b365d4291E8Bd74",
        "200000000000000"
      ],
      "transaction": {
        "from": "0xeff3521fb13228c767ad6dc3b934f9efac9c56ad",
        "to": "0x1f9840a85d5af5bf1d1762f925bdaddc4201f984",
        "gas": "0x10ba5",
        "value": "0x0",
        "input": "0x095ea7b3000000000000000000000000284af8b3d00dbbafa46c93633b365d4291e8bd740000000000000000000000000000000000000000000000000000b5e620f48000",
        "nonce": "0x142",
        "chainId": "0xaa36a7"
      },
      "additionalContracts": [],
      "isFixedGasLimit": false
    },
    {
      "hash": "0xfaf96acbde5829533edd9f6ac7e9d9cb2737de4795e6fd383f58a2590b61efe9",
      "transactionType": "CALL",
      "contractName": null,
      "contractAddress": "0x1c7d4b196cb0c7b01d743fbc6116a902379c7238",
      "function": "approve(address,uint256)",
      "arguments": [
        "0x284af8B3d00dBbaFA46c93633b365d4291E8Bd74",
        "69007562"
      ],
      "transaction": {
        "from": "0xeff3521fb13228c767ad6dc3b934f9efac9c56ad",
        "to": "0x1c7d4b196cb0c7b01d743fbc6116a902379c7238",
        "gas": "0x13cc6",
        "value": "0x0",
        "input": "0x095ea7b3000000000000000000000000284af8b3d00dbbafa46c93633b365d4291e8bd7400000000000000000000000000000000000000000000000000000000041cf8ca",
        "nonce": "0x143",
        "chainId": "0xaa36a7"
      },
      "additionalContracts": [],
      "isFixedGasLimit": false
    },
    {
      "hash": "0x2af05ff11940045742349aea1970e86ad2abebd6fb9557494bfdedca8c99de46",
      "transactionType": "CALL",
      "contractName": null,
      "contractAddress": "0x284af8b3d00dbbafa46c93633b365d4291e8bd74",
      "function": "addLiquidity(address,address,uint256,uint256)",
      "arguments": [
        "0x1f9840a85d5aF5bf1D1762F925BDADdC4201F984",
        "0x1c7D4B196Cb0C7B01d743Fbc6116a902379C7238",
        "200000000000000",
        "69007562"
      ],
      "transaction": {
        "from": "0xeff3521fb13228c767ad6dc3b934f9efac9c56ad",
        "to": "0x284af8b3d00dbbafa46c93633b365d4291e8bd74",
        "gas": "0x5368a",
        "value": "0x0",
        "input": "0xcf6c62ea0000000000000000000000001f9840a85d5af5bf1d1762f925bdaddc4201f9840000000000000000000000001c7d4b196cb0c7b01d743fbc6116a902379c72380000000000000000000000000000000000000000000000000000b5e620f4800000000000000000000000000000000000000000000000000000000000041cf8ca",
        "nonce": "0x144",
        "chainId": "0xaa36a7"
      },
      "additionalContracts": [],
      "isFixedGasLimit": false
    }
  ],
  "receipts": [
    {
      "status": "0x1",
      "cumulativeGasUsed": "0x6a5133",
      "logs": [
        {
          "address": "0x1f9840a85d5af5bf1d1762f925bdaddc4201f984",
          "topics": [
            "0x8c5be1e5ebec7d5bd14f71427d1e84f3dd0314c0f7b2291e5b200ac8c7c3b925",
            "0x000000000000000000000000eff3521fb13228c767ad6dc3b934f9efac9c56ad",
            "0x000000000000000000000000284af8b3d00dbbafa46c93633b365d4291e8bd74"
          ],
          "data": "0x0000000000000000000000000000000000000000000000000000b5e620f48000",
          "blockHash": "0xae7ca4eb95223918cdf80ae6c0195b9c006d8d7f394b550edfb8c15c503394d8",
          "blockNumber": "0x9126cf",
          "blockTimestamp": "0x69017b20",
          "transactionHash": "0x4b72f6a73037ccc77807b8ce09a93132155a21bf5a32475ec16ae6c9c2bf84ac",
          "transactionIndex": "0x3e",
          "logIndex": "0x42",
          "removed": false
        }
      ],
      "logsBloom": "0x00000000000000200000000000000000000000000000000000000000000000020002000000000000000000000000001000000000000000000000000000200000000000000000000000000000100000000000000000000000002000000000000008000000000000000000000000000000000000000000000000000000000000000000000000000000000000000000000000000000000000000000000000000000020000000000000000000000000000000000100001000000000000000000000000000000000000000000000000000000000000000000000000000000000000000010000000000000000000000000000000000000000000000000000000000000",
      "type": "0x2",
      "transactionHash": "0x4b72f6a73037ccc77807b8ce09a93132155a21bf5a32475ec16ae6c9c2bf84ac",
      "transactionIndex": "0x3e",
      "blockHash": "0xae7ca4eb95223918cdf80ae6c0195b9c006d8d7f394b550edfb8c15c503394d8",
      "blockNumber": "0x9126cf",
      "gasUsed": "0xb702",
      "effectiveGasPrice": "0xf4249",
      "from": "0xeff3521fb13228c767ad6dc3b934f9efac9c56ad",
      "to": "0x1f9840a85d5af5bf1d1762f925bdaddc4201f984",
      "contractAddress": null
    },
    {
      "status": "0x1",
      "cumulativeGasUsed": "0x6b29cc",
      "logs": [
        {
          "address": "0x1c7d4b196cb0c7b01d743fbc6116a902379c7238",
          "topics": [
            "0x8c5be1e5ebec7d5bd14f71427d1e84f3dd0314c0f7b2291e5b200ac8c7c3b925",
            "0x000000000000000000000000eff3521fb13228c767ad6dc3b934f9efac9c56ad",
            "0x000000000000000000000000284af8b3d00dbbafa46c93633b365d4291e8bd74"
          ],
          "data": "0x00000000000000000000000000000000000000000000000000000000041cf8ca",
          "blockHash": "0xae7ca4eb95223918cdf80ae6c0195b9c006d8d7f394b550edfb8c15c503394d8",
          "blockNumber": "0x9126cf",
          "blockTimestamp": "0x69017b20",
          "transactionHash": "0xfaf96acbde5829533edd9f6ac7e9d9cb2737de4795e6fd383f58a2590b61efe9",
          "transactionIndex": "0x3f",
          "logIndex": "0x43",
          "removed": false
        }
      ],
      "logsBloom": "0x00000000000000200000000000000000000000000000000000000000000200020002000000000000000000000000000000000000000000000000000000200000000000000000000000000000000000000000000000000000002000000000000000000000000000000000000000000000000000000000000000000000000000000000000000100000000000000000000000000000000000000000000000000000020000000000000000000000000000000000100001000000000000000000000000000000000000000000000000000000000000000000000000000000000000000010000000000000000010000000000000000000000000000000000000000000",
      "type": "0x2",
      "transactionHash": "0xfaf96acbde5829533edd9f6ac7e9d9cb2737de4795e6fd383f58a2590b61efe9",
      "transactionIndex": "0x3f",
      "blockHash": "0xae7ca4eb95223918cdf80ae6c0195b9c006d8d7f394b550edfb8c15c503394d8",
      "blockNumber": "0x9126cf",
      "gasUsed": "0xd899",
      "effectiveGasPrice": "0xf4249",
      "from": "0xeff3521fb13228c767ad6dc3b934f9efac9c56ad",
      "to": "0x1c7d4b196cb0c7b01d743fbc6116a902379c7238",
      "contractAddress": null
    },
    {
      "status": "0x1",
      "cumulativeGasUsed": "0x6eba4e",
      "logs": [
        {
          "address": "0x1f9840a85d5af5bf1d1762f925bdaddc4201f984",
          "topics": [
            "0x8c5be1e5ebec7d5bd14f71427d1e84f3dd0314c0f7b2291e5b200ac8c7c3b925",
            "0x000000000000000000000000eff3521fb13228c767ad6dc3b934f9efac9c56ad",
            "0x000000000000000000000000284af8b3d00dbbafa46c93633b365d4291e8bd74"
          ],
          "data": "0x0000000000000000000000000000000000000000000000000000000000000000",
          "blockHash": "0xae7ca4eb95223918cdf80ae6c0195b9c006d8d7f394b550edfb8c15c503394d8",
          "blockNumber": "0x9126cf",
          "blockTimestamp": "0x69017b20",
          "transactionHash": "0x2af05ff11940045742349aea1970e86ad2abebd6fb9557494bfdedca8c99de46",
          "transactionIndex": "0x40",
          "logIndex": "0x44",
          "removed": false
        },
        {
          "address": "0x1f9840a85d5af5bf1d1762f925bdaddc4201f984",
          "topics": [
            "0xddf252ad1be2c89b69c2b068fc378daa952ba7f163c4a11628f55a4df523b3ef",
            "0x000000000000000000000000eff3521fb13228c767ad6dc3b934f9efac9c56ad",
            "0x000000000000000000000000284af8b3d00dbbafa46c93633b365d4291e8bd74"
          ],
          "data": "0x0000000000000000000000000000000000000000000000000000b5e620f48000",
          "blockHash": "0xae7ca4eb95223918cdf80ae6c0195b9c006d8d7f394b550edfb8c15c503394d8",
          "blockNumber": "0x9126cf",
          "blockTimestamp": "0x69017b20",
          "transactionHash": "0x2af05ff11940045742349aea1970e86ad2abebd6fb9557494bfdedca8c99de46",
          "transactionIndex": "0x40",
          "logIndex": "0x45",
          "removed": false
        },
        {
          "address": "0x1c7d4b196cb0c7b01d743fbc6116a902379c7238",
          "topics": [
            "0xddf252ad1be2c89b69c2b068fc378daa952ba7f163c4a11628f55a4df523b3ef",
            "0x000000000000000000000000eff3521fb13228c767ad6dc3b934f9efac9c56ad",
            "0x000000000000000000000000284af8b3d00dbbafa46c93633b365d4291e8bd74"
          ],
          "data": "0x00000000000000000000000000000000000000000000000000000000041cf8ca",
          "blockHash": "0xae7ca4eb95223918cdf80ae6c0195b9c006d8d7f394b550edfb8c15c503394d8",
          "blockNumber": "0x9126cf",
          "blockTimestamp": "0x69017b20",
          "transactionHash": "0x2af05ff11940045742349aea1970e86ad2abebd6fb9557494bfdedca8c99de46",
          "transactionIndex": "0x40",
          "logIndex": "0x46",
          "removed": false
        },
        {
          "address": "0x1f9840a85d5af5bf1d1762f925bdaddc4201f984",
          "topics": [
            "0x8c5be1e5ebec7d5bd14f71427d1e84f3dd0314c0f7b2291e5b200ac8c7c3b925",
            "0x000000000000000000000000284af8b3d00dbbafa46c93633b365d4291e8bd74",
            "0x000000000000000000000000ee567fe1712faf6149d80da1e6934e354124cfe3"
          ],
          "data": "0x0000000000000000000000000000000000000000000000000000b5e620f48000",
          "blockHash": "0xae7ca4eb95223918cdf80ae6c0195b9c006d8d7f394b550edfb8c15c503394d8",
          "blockNumber": "0x9126cf",
          "blockTimestamp": "0x69017b20",
          "transactionHash": "0x2af05ff11940045742349aea1970e86ad2abebd6fb9557494bfdedca8c99de46",
          "transactionIndex": "0x40",
          "logIndex": "0x47",
          "removed": false
        },
        {
          "address": "0x1c7d4b196cb0c7b01d743fbc6116a902379c7238",
          "topics": [
            "0x8c5be1e5ebec7d5bd14f71427d1e84f3dd0314c0f7b2291e5b200ac8c7c3b925",
            "0x000000000000000000000000284af8b3d00dbbafa46c93633b365d4291e8bd74",
            "0x000000000000000000000000ee567fe1712faf6149d80da1e6934e354124cfe3"
          ],
          "data": "0x00000000000000000000000000000000000000000000000000000000041cf8ca",
          "blockHash": "0xae7ca4eb95223918cdf80ae6c0195b9c006d8d7f394b550edfb8c15c503394d8",
          "blockNumber": "0x9126cf",
          "blockTimestamp": "0x69017b20",
          "transactionHash": "0x2af05ff11940045742349aea1970e86ad2abebd6fb9557494bfdedca8c99de46",
          "transactionIndex": "0x40",
          "logIndex": "0x48",
          "removed": false
        },
        {
          "address": "0x1f9840a85d5af5bf1d1762f925bdaddc4201f984",
          "topics": [
            "0x8c5be1e5ebec7d5bd14f71427d1e84f3dd0314c0f7b2291e5b200ac8c7c3b925",
            "0x000000000000000000000000284af8b3d00dbbafa46c93633b365d4291e8bd74",
            "0x000000000000000000000000ee567fe1712faf6149d80da1e6934e354124cfe3"
          ],
          "data": "0x0000000000000000000000000000000000000000000000000000000000000000",
          "blockHash": "0xae7ca4eb95223918cdf80ae6c0195b9c006d8d7f394b550edfb8c15c503394d8",
          "blockNumber": "0x9126cf",
          "blockTimestamp": "0x69017b20",
          "transactionHash": "0x2af05ff11940045742349aea1970e86ad2abebd6fb9557494bfdedca8c99de46",
          "transactionIndex": "0x40",
          "logIndex": "0x49",
          "removed": false
        },
        {
          "address": "0x1f9840a85d5af5bf1d1762f925bdaddc4201f984",
          "topics": [
            "0xddf252ad1be2c89b69c2b068fc378daa952ba7f163c4a11628f55a4df523b3ef",
            "0x000000000000000000000000284af8b3d00dbbafa46c93633b365d4291e8bd74",
            "0x00000000000000000000000031feb94712a8252532aaf35a0d61a1300bd2d12b"
          ],
          "data": "0x0000000000000000000000000000000000000000000000000000b5e620f48000",
          "blockHash": "0xae7ca4eb95223918cdf80ae6c0195b9c006d8d7f394b550edfb8c15c503394d8",
          "blockNumber": "0x9126cf",
          "blockTimestamp": "0x69017b20",
          "transactionHash": "0x2af05ff11940045742349aea1970e86ad2abebd6fb9557494bfdedca8c99de46",
          "transactionIndex": "0x40",
          "logIndex": "0x4a",
          "removed": false
        },
        {
          "address": "0x1c7d4b196cb0c7b01d743fbc6116a902379c7238",
          "topics": [
            "0xddf252ad1be2c89b69c2b068fc378daa952ba7f163c4a11628f55a4df523b3ef",
            "0x000000000000000000000000284af8b3d00dbbafa46c93633b365d4291e8bd74",
            "0x00000000000000000000000031feb94712a8252532aaf35a0d61a1300bd2d12b"
          ],
          "data": "0x00000000000000000000000000000000000000000000000000000000041cf8ca",
          "blockHash": "0xae7ca4eb95223918cdf80ae6c0195b9c006d8d7f394b550edfb8c15c503394d8",
          "blockNumber": "0x9126cf",
          "blockTimestamp": "0x69017b20",
          "transactionHash": "0x2af05ff11940045742349aea1970e86ad2abebd6fb9557494bfdedca8c99de46",
          "transactionIndex": "0x40",
          "logIndex": "0x4b",
          "removed": false
        },
        {
          "address": "0x31feb94712a8252532aaf35a0d61a1300bd2d12b",
          "topics": [
            "0xddf252ad1be2c89b69c2b068fc378daa952ba7f163c4a11628f55a4df523b3ef",
            "0x0000000000000000000000000000000000000000000000000000000000000000",
            "0x000000000000000000000000eff3521fb13228c767ad6dc3b934f9efac9c56ad"
          ],
          "data": "0x00000000000000000000000000000000000000000000000000000012c44a4627",
          "blockHash": "0xae7ca4eb95223918cdf80ae6c0195b9c006d8d7f394b550edfb8c15c503394d8",
          "blockNumber": "0x9126cf",
          "blockTimestamp": "0x69017b20",
          "transactionHash": "0x2af05ff11940045742349aea1970e86ad2abebd6fb9557494bfdedca8c99de46",
          "transactionIndex": "0x40",
          "logIndex": "0x4c",
          "removed": false
        },
        {
          "address": "0x31feb94712a8252532aaf35a0d61a1300bd2d12b",
          "topics": [
            "0x1c411e9a96e071241c2f21f7726b17ae89e3cab4c78be50e062b03a9fffbbad1"
          ],
          "data": "0x00000000000000000000000000000000000000000000000000000000399cdadb0000000000000000000000000000000000000000000000000009f3d661e4e050",
          "blockHash": "0xae7ca4eb95223918cdf80ae6c0195b9c006d8d7f394b550edfb8c15c503394d8",
          "blockNumber": "0x9126cf",
          "blockTimestamp": "0x69017b20",
          "transactionHash": "0x2af05ff11940045742349aea1970e86ad2abebd6fb9557494bfdedca8c99de46",
          "transactionIndex": "0x40",
          "logIndex": "0x4d",
          "removed": false
        },
        {
          "address": "0x31feb94712a8252532aaf35a0d61a1300bd2d12b",
          "topics": [
            "0x4c209b5fc8ad50758f13e2e1088ba56a560dff690a1c6fef26394f4c03821c4f",
            "0x000000000000000000000000ee567fe1712faf6149d80da1e6934e354124cfe3"
          ],
          "data": "0x00000000000000000000000000000000000000000000000000000000041cf8ca0000000000000000000000000000000000000000000000000000b5e620f48000",
          "blockHash": "0xae7ca4eb95223918cdf80ae6c0195b9c006d8d7f394b550edfb8c15c503394d8",
          "blockNumber": "0x9126cf",
          "blockTimestamp": "0x69017b20",
          "transactionHash": "0x2af05ff11940045742349aea1970e86ad2abebd6fb9557494bfdedca8c99de46",
          "transactionIndex": "0x40",
          "logIndex": "0x4e",
          "removed": false
        },
        {
          "address": "0x284af8b3d00dbbafa46c93633b365d4291e8bd74",
          "topics": [
            "0x4a1a2a6176e9646d9e3157f7c2ab3c499f18337c0b0828cfb28e0a61de4a11f7"
          ],
          "data": "0x0000000000000000000000001f9840a85d5af5bf1d1762f925bdaddc4201f9840000000000000000000000001c7d4b196cb0c7b01d743fbc6116a902379c72380000000000000000000000000000000000000000000000000000b5e620f4800000000000000000000000000000000000000000000000000000000000041cf8ca00000000000000000000000000000000000000000000000000000012c44a4627",
          "blockHash": "0xae7ca4eb95223918cdf80ae6c0195b9c006d8d7f394b550edfb8c15c503394d8",
          "blockNumber": "0x9126cf",
          "blockTimestamp": "0x69017b20",
          "transactionHash": "0x2af05ff11940045742349aea1970e86ad2abebd6fb9557494bfdedca8c99de46",
          "transactionIndex": "0x40",
          "logIndex": "0x4f",
          "removed": false
        }
      ],
      "logsBloom": "0x00000000000000200000000080000000000000000000000000000000000201020002000000000000000000000010001000000000000000000000000008200000000000000000000000000008100000000000000000000000002000000000000008000800020000000000800000000800000000000008000000000410000000000001000000100000000000000000000000000000000000080000000000010000020000000000000000000000000000000000100001000000000000800000000000000002000004000000000000020200000800000000001000000000000028000010000000000080000010000000000000000000000000000082000000000000",
      "type": "0x2",
      "transactionHash": "0x2af05ff11940045742349aea1970e86ad2abebd6fb9557494bfdedca8c99de46",
      "transactionIndex": "0x40",
      "blockHash": "0xae7ca4eb95223918cdf80ae6c0195b9c006d8d7f394b550edfb8c15c503394d8",
      "blockNumber": "0x9126cf",
      "gasUsed": "0x39082",
      "effectiveGasPrice": "0xf4249",
      "from": "0xeff3521fb13228c767ad6dc3b934f9efac9c56ad",
      "to": "0x284af8b3d00dbbafa46c93633b365d4291e8bd74",
      "contractAddress": null
    }
  ],
  "libraries": [],
  "pending": [],
  "returns": {},
  "timestamp": 1761704746,
  "chain": 11155111,
  "commit": "6735a57"
}