{
  "transactions": [
    {
      "hash": "0x2479bd1e1d4f58a3b9628b2e7aa33092f01cebbaedadd210c4869cad089284d4",
      "transactionType": "CALL",
      "contractName": null,
      "contractAddress": "0x1f9840a85d5af5bf1d1762f925bdaddc4201f984",
      "function": "approve(address,uint256)",
      "arguments": [
        "0xD452F4925Fc63A00ea03982Ab4E4D27bE79DA0B8",
        "100000000000000"
      ],
      "transaction": {
        "from": "0xeff3521fb13228c767ad6dc3b934f9efac9c56ad",
        "to": "0x1f9840a85d5af5bf1d1762f925bdaddc4201f984",
        "gas": "0xfcb6",
        "value": "0x0",
        "input": "0x095ea7b3000000000000000000000000d452f4925fc63a00ea03982ab4e4d27be79da0b800000000000000000000000000000000000000000000000000005af3107a4000",
        "nonce": "0xd8",
        "chainId": "0xaa36a7"
      },
      "additionalContracts": [],
      "isFixedGasLimit": false
    },
    {
      "hash": "0xe33760f8e8e91996678e341a980a604e115e80821664b0d8628ea78710926b9a",
      "transactionType": "CALL",
      "contractName": null,
      "contractAddress": "0x0e1efea9f52f99baac1ca663d41119c037258d54",
      "function": "approve(address,uint256)",
      "arguments": [
        "0xD452F4925Fc63A00ea03982Ab4E4D27bE79DA0B8",
        "100000000000000000000"
      ],
      "transaction": {
        "from": "0xeff3521fb13228c767ad6dc3b934f9efac9c56ad",
        "to": "0x0e1efea9f52f99baac1ca663d41119c037258d54",
        "gas": "0x1090a",
        "value": "0x0",
        "input": "0x095ea7b3000000000000000000000000d452f4925fc63a00ea03982ab4e4d27be79da0b80000000000000000000000000000000000000000000000056bc75e2d63100000",
        "nonce": "0xd9",
        "chainId": "0xaa36a7"
      },
      "additionalContracts": [],
      "isFixedGasLimit": false
    },
    {
      "hash": "0x1aae6a437f5ca9b7238aaefd5ac8da09fd35082b52643871d94c47520fa6bb9e",
      "transactionType": "CALL",
      "contractName": null,
      "contractAddress": "0xd452f4925fc63a00ea03982ab4e4d27be79da0b8",
      "function": "addLiquidity(address,address,uint256,uint256)",
      "arguments": [
        "0x1f9840a85d5aF5bf1D1762F925BDADdC4201F984",
        "0x0E1Efea9F52f99bAAC1ca663D41119C037258D54",
        "100000000000000",
        "100000000000000000000"
      ],
      "transaction": {
        "from": "0xeff3521fb13228c767ad6dc3b934f9efac9c56ad",
        "to": "0xd452f4925fc63a00ea03982ab4e4d27be79da0b8",
        "gas": "0x4ef7f",
        "value": "0x0",
        "input": "0xcf6c62ea0000000000000000000000001f9840a85d5af5bf1d1762f925bdaddc4201f9840000000000000000000000000e1efea9f52f99baac1ca663d41119c037258d5400000000000000000000000000000000000000000000000000005af3107a40000000000000000000000000000000000000000000000000056bc75e2d63100000",
        "nonce": "0xda",
        "chainId": "0xaa36a7"
      },
      "additionalContracts": [],
      "isFixedGasLimit": false
    }
  ],
  "receipts": [
    {
      "status": "0x1",
      "cumulativeGasUsed": "0x5ce50d",
      "logs": [
        {
          "address": "0x1f9840a85d5af5bf1d1762f925bdaddc4201f984",
          "topics": [
            "0x8c5be1e5ebec7d5bd14f71427d1e84f3dd0314c0f7b2291e5b200ac8c7c3b925",
            "0x000000000000000000000000eff3521fb13228c767ad6dc3b934f9efac9c56ad",
            "0x000000000000000000000000d452f4925fc63a00ea03982ab4e4d27be79da0b8"
          ],
          "data": "0x00000000000000000000000000000000000000000000000000005af3107a4000",
          "blockHash": "0xc97f3ef20428eb8ff1ee3ab69e6ac3a72315e3e0574ae39586437bbe3a6359df",
          "blockNumber": "0x90d8ae",
          "blockTimestamp": "0x68fdc5c4",
          "transactionHash": "0x2479bd1e1d4f58a3b9628b2e7aa33092f01cebbaedadd210c4869cad089284d4",
          "transactionIndex": "0x36",
          "logIndex": "0x57",
          "removed": false
        }
      ],
      "logsBloom": "0x00000000000000000000000000000000000000000000000000000000000000020000000000000000000000000000001000000000000000000000000000200000000800000000000000000000100000000000000000000000002000000000000008000000000000000000000000000000000000000000000000000000000000000000000000000001000000000000000000000000000000000000000000000000020000000000000000000000000000000000100000000000000000000000000000000000000000000000000000004000000000000000000000000000000000000010000000000000000000000000000000000000000000000000000000000000",
      "type": "0x2",
      "transactionHash": "0x2479bd1e1d4f58a3b9628b2e7aa33092f01cebbaedadd210c4869cad089284d4",
      "transactionIndex": "0x36",
      "blockHash": "0xc97f3ef20428eb8ff1ee3ab69e6ac3a72315e3e0574ae39586437bbe3a6359df",
      "blockNumber": "0x90d8ae",
      "gasUsed": "0xb6f6",
      "effectiveGasPrice": "0xf4248",
      "from": "0xeff3521fb13228c767ad6dc3b934f9efac9c56ad",
      "to": "0x1f9840a85d5af5bf1d1762f925bdaddc4201f984",
      "contractAddress": null
    },
    {
      "status": "0x1",
      "cumulativeGasUsed": "0x5d9a47",
      "logs": [
        {
          "address": "0x0e1efea9f52f99baac1ca663d41119c037258d54",
          "topics": [
            "0x8c5be1e5ebec7d5bd14f71427d1e84f3dd0314c0f7b2291e5b200ac8c7c3b925",
            "0x000000000000000000000000eff3521fb13228c767ad6dc3b934f9efac9c56ad",
            "0x000000000000000000000000d452f4925fc63a00ea03982ab4e4d27be79da0b8"
          ],
          "data": "0x0000000000000000000000000000000000000000000000056bc75e2d63100000",
          "blockHash": "0xc97f3ef20428eb8ff1ee3ab69e6ac3a72315e3e0574ae39586437bbe3a6359df",
          "blockNumber": "0x90d8ae",
          "blockTimestamp": "0x68fdc5c4",
          "transactionHash": "0xe33760f8e8e91996678e341a980a604e115e80821664b0d8628ea78710926b9a",
          "transactionIndex": "0x37",
          "logIndex": "0x58",
          "removed": false
        }
      ],
      "logsBloom": "0x00000100000000000000000000000000000000000000000000000000000000020000000000020000000000000000000000000000000000000000000000200000000800000000000000000000000000000000000000000000002000000000000000000000000000000000000000000000000000000000000000000000000000000000000000000001000000000000000000000000000000000000000000000000020000000000000000000000000000000000100000000000000000000000000000000000000000000000000000004004000000000000000000000000000000000010000000000000000000000000000000000000000000000000000000000000",
      "type": "0x2",
      "transactionHash": "0xe33760f8e8e91996678e341a980a604e115e80821664b0d8628ea78710926b9a",
      "transactionIndex": "0x37",
      "blockHash": "0xc97f3ef20428eb8ff1ee3ab69e6ac3a72315e3e0574ae39586437bbe3a6359df",
      "blockNumber": "0x90d8ae",
      "gasUsed": "0xb53a",
      "effectiveGasPrice": "0xf4248",
      "from": "0xeff3521fb13228c767ad6dc3b934f9efac9c56ad",
      "to": "0x0e1efea9f52f99baac1ca663d41119c037258d54",
      "contractAddress": null
    },
    {
      "status": "0x1",
      "cumulativeGasUsed": "0x63bed2",
      "logs": [
        {
          "address": "0x1f9840a85d5af5bf1d1762f925bdaddc4201f984",
          "topics": [
            "0x8c5be1e5ebec7d5bd14f71427d1e84f3dd0314c0f7b2291e5b200ac8c7c3b925",
            "0x000000000000000000000000eff3521fb13228c767ad6dc3b934f9efac9c56ad",
            "0x000000000000000000000000d452f4925fc63a00ea03982ab4e4d27be79da0b8"
          ],
          "data": "0x0000000000000000000000000000000000000000000000000000000000000000",
          "blockHash": "0xc97f3ef20428eb8ff1ee3ab69e6ac3a72315e3e0574ae39586437bbe3a6359df",
          "blockNumber": "0x90d8ae",
          "blockTimestamp": "0x68fdc5c4",
          "transactionHash": "0x1aae6a437f5ca9b7238aaefd5ac8da09fd35082b52643871d94c47520fa6bb9e",
          "transactionIndex": "0x3d",
          "logIndex": "0x5e",
          "removed": false
        },
        {
          "address": "0x1f9840a85d5af5bf1d1762f925bdaddc4201f984",
          "topics": [
            "0xddf252ad1be2c89b69c2b068fc378daa952ba7f163c4a11628f55a4df523b3ef",
            "0x000000000000000000000000eff3521fb13228c767ad6dc3b934f9efac9c56ad",
            "0x000000000000000000000000d452f4925fc63a00ea03982ab4e4d27be79da0b8"
          ],
          "data": "0x00000000000000000000000000000000000000000000000000005af3107a4000",
          "blockHash": "0xc97f3ef20428eb8ff1ee3ab69e6ac3a72315e3e0574ae39586437bbe3a6359df",
          "blockNumber": "0x90d8ae",
          "blockTimestamp": "0x68fdc5c4",
          "transactionHash": "0x1aae6a437f5ca9b7238aaefd5ac8da09fd35082b52643871d94c47520fa6bb9e",
          "transactionIndex": "0x3d",
          "logIndex": "0x5f",
          "removed": false
        },
        {
          "address": "0x0e1efea9f52f99baac1ca663d41119c037258d54",
          "topics": [
            "0xddf252ad1be2c89b69c2b068fc378daa952ba7f163c4a11628f55a4df523b3ef",
            "0x000000000000000000000000eff3521fb13228c767ad6dc3b934f9efac9c56ad",
            "0x000000000000000000000000d452f4925fc63a00ea03982ab4e4d27be79da0b8"
          ],
          "data": "0x0000000000000000000000000000000000000000000000056bc75e2d63100000",
          "blockHash": "0xc97f3ef20428eb8ff1ee3ab69e6ac3a72315e3e0574ae39586437bbe3a6359df",
          "blockNumber": "0x90d8ae",
          "blockTimestamp": "0x68fdc5c4",
          "transactionHash": "0x1aae6a437f5ca9b7238aaefd5ac8da09fd35082b52643871d94c47520fa6bb9e",
          "transactionIndex": "0x3d",
          "logIndex": "0x60",
          "removed": false
        },
        {
          "address": "0x1f9840a85d5af5bf1d1762f925bdaddc4201f984",
          "topics": [
            "0x8c5be1e5ebec7d5bd14f71427d1e84f3dd0314c0f7b2291e5b200ac8c7c3b925",
            "0x000000000000000000000000d452f4925fc63a00ea03982ab4e4d27be79da0b8",
            "0x000000000000000000000000ee567fe1712faf6149d80da1e6934e354124cfe3"
          ],
          "data": "0x00000000000000000000000000000000000000000000000000005af3107a4000",
          "blockHash": "0xc97f3ef20428eb8ff1ee3ab69e6ac3a72315e3e0574ae39586437bbe3a6359df",
          "blockNumber": "0x90d8ae",
          "blockTimestamp": "0x68fdc5c4",
          "transactionHash": "0x1aae6a437f5ca9b7238aaefd5ac8da09fd35082b52643871d94c47520fa6bb9e",
          "transactionIndex": "0x3d",
          "logIndex": "0x61",
          "removed": false
        },
        {
          "address": "0x0e1efea9f52f99baac1ca663d41119c037258d54",
          "topics": [
            "0x8c5be1e5ebec7d5bd14f71427d1e84f3dd0314c0f7b2291e5b200ac8c7c3b925",
            "0x000000000000000000000000d452f4925fc63a00ea03982ab4e4d27be79da0b8",
            "0x000000000000000000000000ee567fe1712faf6149d80da1e6934e354124cfe3"
          ],
          "data": "0x0000000000000000000000000000000000000000000000056bc75e2d63100000",
          "blockHash": "0xc97f3ef20428eb8ff1ee3ab69e6ac3a72315e3e0574ae39586437bbe3a6359df",
          "blockNumber": "0x90d8ae",
          "blockTimestamp": "0x68fdc5c4",
          "transactionHash": "0x1aae6a437f5ca9b7238aaefd5ac8da09fd35082b52643871d94c47520fa6bb9e",
          "transactionIndex": "0x3d",
          "logIndex": "0x62",
          "removed": false
        },
        {
          "address": "0x1f9840a85d5af5bf1d1762f925bdaddc4201f984",
          "topics": [
            "0x8c5be1e5ebec7d5bd14f71427d1e84f3dd0314c0f7b2291e5b200ac8c7c3b925",
            "0x000000000000000000000000d452f4925fc63a00ea03982ab4e4d27be79da0b8",
            "0x000000000000000000000000ee567fe1712faf6149d80da1e6934e354124cfe3"
          ],
          "data": "0x0000000000000000000000000000000000000000000000000000000000000000",
          "blockHash": "0xc97f3ef20428eb8ff1ee3ab69e6ac3a72315e3e0574ae39586437bbe3a6359df",
          "blockNumber": "0x90d8ae",
          "blockTimestamp": "0x68fdc5c4",
          "transactionHash": "0x1aae6a437f5ca9b7238aaefd5ac8da09fd35082b52643871d94c47520fa6bb9e",
          "transactionIndex": "0x3d",
          "logIndex": "0x63",
          "removed": false
        },
        {
          "address": "0x1f9840a85d5af5bf1d1762f925bdaddc4201f984",
          "topics": [
            "0xddf252ad1be2c89b69c2b068fc378daa952ba7f163c4a11628f55a4df523b3ef",
            "0x000000000000000000000000d452f4925fc63a00ea03982ab4e4d27be79da0b8",
            "0x000000000000000000000000f8d80ca3b525456711fce0456ee96b1caccf38ab"
          ],
          "data": "0x00000000000000000000000000000000000000000000000000005af3107a4000",
          "blockHash": "0xc97f3ef20428eb8ff1ee3ab69e6ac3a72315e3e0574ae39586437bbe3a6359df",
          "blockNumber": "0x90d8ae",
          "blockTimestamp": "0x68fdc5c4",
          "transactionHash": "0x1aae6a437f5ca9b7238aaefd5ac8da09fd35082b52643871d94c47520fa6bb9e",
          "transactionIndex": "0x3d",
          "logIndex": "0x64",
          "removed": false
        },
        {
          "address": "0x0e1efea9f52f99baac1ca663d41119c037258d54",
          "topics": [
            "0xddf252ad1be2c89b69c2b068fc378daa952ba7f163c4a11628f55a4df523b3ef",
            "0x000000000000000000000000d452f4925fc63a00ea03982ab4e4d27be79da0b8",
            "0x000000000000000000000000f8d80ca3b525456711fce0456ee96b1caccf38ab"
          ],
          "data": "0x0000000000000000000000000000000000000000000000056bc75e2d63100000",
          "blockHash": "0xc97f3ef20428eb8ff1ee3ab69e6ac3a72315e3e0574ae39586437bbe3a6359df",
          "blockNumber": "0x90d8ae",
          "blockTimestamp": "0x68fdc5c4",
          "transactionHash": "0x1aae6a437f5ca9b7238aaefd5ac8da09fd35082b52643871d94c47520fa6bb9e",
          "transactionIndex": "0x3d",
          "logIndex": "0x65",
          "removed": false
        },
        {
          "address": "0xf8d80ca3b525456711fce0456ee96b1caccf38ab",
          "topics": [
            "0xddf252ad1be2c89b69c2b068fc378daa952ba7f163c4a11628f55a4df523b3ef",
            "0x0000000000000000000000000000000000000000000000000000000000000000",
            "0x000000000000000000000000eff3521fb13228c767ad6dc3b934f9efac9c56ad"
          ],
          "data": "0x000000000000000000000000000000000000000000000000016345785d8a0000",
          "blockHash": "0xc97f3ef20428eb8ff1ee3ab69e6ac3a72315e3e0574ae39586437bbe3a6359df",
          "blockNumber": "0x90d8ae",
          "blockTimestamp": "0x68fdc5c4",
          "transactionHash": "0x1aae6a437f5ca9b7238aaefd5ac8da09fd35082b52643871d94c47520fa6bb9e",
          "transactionIndex": "0x3d",
          "logIndex": "0x66",
          "removed": false
        },
        {
          "address": "0xf8d80ca3b525456711fce0456ee96b1caccf38ab",
          "topics": [
            "0x1c411e9a96e071241c2f21f7726b17ae89e3cab4c78be50e062b03a9fffbbad1"
          ],
          "data": "0x00000000000000000000000000000000000000000000011478b7c30abc30000000000000000000000000000000000000000000000000000000121e6c485ac000",
          "blockHash": "0xc97f3ef20428eb8ff1ee3ab69e6ac3a72315e3e0574ae39586437bbe3a6359df",
          "blockNumber": "0x90d8ae",
          "blockTimestamp": "0x68fdc5c4",
          "transactionHash": "0x1aae6a437f5ca9b7238aaefd5ac8da09fd35082b52643871d94c47520fa6bb9e",
          "transactionIndex": "0x3d",
          "logIndex": "0x67",
          "removed": false
        },
        {
          "address": "0xf8d80ca3b525456711fce0456ee96b1caccf38ab",
          "topics": [
            "0x4c209b5fc8ad50758f13e2e1088ba56a560dff690a1c6fef26394f4c03821c4f",
            "0x000000000000000000000000ee567fe1712faf6149d80da1e6934e354124cfe3"
          ],
          "data": "0x0000000000000000000000000000000000000000000000056bc75e2d6310000000000000000000000000000000000000000000000000000000005af3107a4000",
          "blockHash": "0xc97f3ef20428eb8ff1ee3ab69e6ac3a72315e3e0574ae39586437bbe3a6359df",
          "blockNumber": "0x90d8ae",
          "blockTimestamp": "0x68fdc5c4",
          "transactionHash": "0x1aae6a437f5ca9b7238aaefd5ac8da09fd35082b52643871d94c47520fa6bb9e",
          "transactionIndex": "0x3d",
          "logIndex": "0x68",
          "removed": false
        },
        {
          "address": "0xd452f4925fc63a00ea03982ab4e4d27be79da0b8",
          "topics": [
            "0x4a1a2a6176e9646d9e3157f7c2ab3c499f18337c0b0828cfb28e0a61de4a11f7"
          ],
          "data": "0x0000000000000000000000001f9840a85d5af5bf1d1762f925bdaddc4201f9840000000000000000000000000e1efea9f52f99baac1ca663d41119c037258d5400000000000000000000000000000000000000000000000000005af3107a40000000000000000000000000000000000000000000000000056bc75e2d63100000000000000000000000000000000000000000000000000000016345785d8a0000",
          "blockHash": "0xc97f3ef20428eb8ff1ee3ab69e6ac3a72315e3e0574ae39586437bbe3a6359df",
          "blockNumber": "0x90d8ae",
          "blockTimestamp": "0x68fdc5c4",
          "transactionHash": "0x1aae6a437f5ca9b7238aaefd5ac8da09fd35082b52643871d94c47520fa6bb9e",
          "transactionIndex": "0x3d",
          "logIndex": "0x69",
          "removed": false
        }
      ],
      "logsBloom": "0x00000100000000000000000080000000000000000000000000000000000001020000000000020000000000000000001000000000000000000000000008200000000800000000000000000008100000000000000000000000002000000000000008000000020000000000800000000800000000000008000020010010000000000000000000000001000000000000000001000000000000080000000000010000024000000080000000000000000000000000100000000000000040800000000000000002000000000000004000024004000000000000001000000000000028000010000000000000000000000000000010000040000000000080000000000000",
      "type": "0x2",
      "transactionHash": "0x1aae6a437f5ca9b7238aaefd5ac8da09fd35082b52643871d94c47520fa6bb9e",
      "transactionIndex": "0x3d",
      "blockHash": "0xc97f3ef20428eb8ff1ee3ab69e6ac3a72315e3e0574ae39586437bbe3a6359df",
      "blockNumber": "0x90d8ae",
      "gasUsed": "0x392c0",
      "effectiveGasPrice": "0xf4248",
      "from": "0xeff3521fb13228c767ad6dc3b934f9efac9c56ad",
      "to": "0xd452f4925fc63a00ea03982ab4e4d27be79da0b8",
      "contractAddress": null
    }
  ],
  "libraries": [],
  "pending": [],
  "returns": {},
  "timestamp": 1761461704,
  "chain": 11155111,
  "commit": "0754351"
}