{
  "transactions": [
    {
      "hash": "0xa381c74fb044cd0c1ba6e0668840842de0f641a9ef9899dbca21e840d062b424",
      "transactionType": "CALL",
      "contractName": null,
      "contractAddress": "0x1f9840a85d5af5bf1d1762f925bdaddc4201f984",
      "function": "approve(address,uint256)",
      "arguments": [
        "0x284af8B3d00dBbaFA46c93633b365d4291E8Bd74",
        "200000000000000"
      ],
      "transaction": {
        "from": "0xeff3521fb13228c767ad6dc3b934f9efac9c56ad",
        "to": "0x1f9840a85d5af5bf1d1762f925bdaddc4201f984",
        "gas": "0x10ba5",
        "value": "0x0",
        "input": "0x095ea7b3000000000000000000000000284af8b3d00dbbafa46c93633b365d4291e8bd740000000000000000000000000000000000000000000000000000b5e620f48000",
        "nonce": "0x14a",
        "chainId": "0xaa36a7"
      },
      "additionalContracts": [],
      "isFixedGasLimit": false
    },
    {
      "hash": "0x672439d116900f7cca12dea6c1ec5f0003d8fb6a9ce66de3e16055bdfe5b63b0",
      "transactionType": "CALL",
      "contractName": null,
      "contractAddress": "0x1c7d4b196cb0c7b01d743fbc6116a902379c7238",
      "function": "approve(address,uint256)",
      "arguments": [
        "0x284af8B3d00dBbaFA46c93633b365d4291E8Bd74",
        "92802538"
      ],
      "transaction": {
        "from": "0xeff3521fb13228c767ad6dc3b934f9efac9c56ad",
        "to": "0x1c7d4b196cb0c7b01d743fbc6116a902379c7238",
        "gas": "0x13cc6",
        "value": "0x0",
        "input": "0x095ea7b3000000000000000000000000284af8b3d00dbbafa46c93633b365d4291e8bd740000000000000000000000000000000000000000000000000000000005880dea",
        "nonce": "0x14b",
        "chainId": "0xaa36a7"
      },
      "additionalContracts": [],
      "isFixedGasLimit": false
    },
    {
      "hash": "0x805dda3e675e4608c3f91d7484d0e0d5725f98ef8b94d091688db1dbe125acd2",
      "transactionType": "CALL",
      "contractName": null,
      "contractAddress": "0x284af8b3d00dbbafa46c93633b365d4291e8bd74",
      "function": "addLiquidity(address,address,uint256,uint256)",
      "arguments": [
        "0x1f9840a85d5aF5bf1D1762F925BDADdC4201F984",
        "0x1c7D4B196Cb0C7B01d743Fbc6116a902379C7238",
        "200000000000000",
        "92802538"
      ],
      "transaction": {
        "from": "0xeff3521fb13228c767ad6dc3b934f9efac9c56ad",
        "to": "0x284af8b3d00dbbafa46c93633b365d4291e8bd74",
        "gas": "0x4e863",
        "value": "0x0",
        "input": "0xcf6c62ea0000000000000000000000001f9840a85d5af5bf1d1762f925bdaddc4201f9840000000000000000000000001c7d4b196cb0c7b01d743fbc6116a902379c72380000000000000000000000000000000000000000000000000000b5e620f480000000000000000000000000000000000000000000000000000000000005880dea",
        "nonce": "0x14c",
        "chainId": "0xaa36a7"
      },
      "additionalContracts": [],
      "isFixedGasLimit": false
    }
  ],
  "receipts": [
    {
      "status": "0x1",
      "cumulativeGasUsed": "0x74be4d",
      "logs": [
        {
          "address": "0x1f9840a85d5af5bf1d1762f925bdaddc4201f984",
          "topics": [
            "0x8c5be1e5ebec7d5bd14f71427d1e84f3dd0314c0f7b2291e5b200ac8c7c3b925",
            "0x000000000000000000000000eff3521fb13228c767ad6dc3b934f9efac9c56ad",
            "0x000000000000000000000000284af8b3d00dbbafa46c93633b365d4291e8bd74"
          ],
          "data": "0x0000000000000000000000000000000000000000000000000000b5e620f48000",
          "blockHash": "0xa2d26fb3c904fec7707f31b0f65e88a54a3b2a7ce1ccba38d01aaa93d22ad1f7",
          "blockNumber": "0x91274b",
          "blockTimestamp": "0x690180f0",
          "transactionHash": "0xa381c74fb044cd0c1ba6e0668840842de0f641a9ef9899dbca21e840d062b424",
          "transactionIndex": "0x45",
          "logIndex": "0x7a",
          "removed": false
        }
      ],
      "logsBloom": "0x00000000000000200000000000000000000000000000000000000000000000020002000000000000000000000000001000000000000000000000000000200000000000000000000000000000100000000000000000000000002000000000000008000000000000000000000000000000000000000000000000000000000000000000000000000000000000000000000000000000000000000000000000000000020000000000000000000000000000000000100001000000000000000000000000000000000000000000000000000000000000000000000000000000000000000010000000000000000000000000000000000000000000000000000000000000",
      "type": "0x2",
      "transactionHash": "0xa381c74fb044cd0c1ba6e0668840842de0f641a9ef9899dbca21e840d062b424",
      "transactionIndex": "0x45",
      "blockHash": "0xa2d26fb3c904fec7707f31b0f65e88a54a3b2a7ce1ccba38d01aaa93d22ad1f7",
      "blockNumber": "0x91274b",
      "gasUsed": "0xb702",
      "effectiveGasPrice": "0xf424a",
      "from": "0xeff3521fb13228c767ad6dc3b934f9efac9c56ad",
      "to": "0x1f9840a85d5af5bf1d1762f925bdaddc4201f984",
      "contractAddress": null
    },
    {
      "status": "0x1",
      "cumulativeGasUsed": "0x7596e6",
      "logs": [
        {
          "address": "0x1c7d4b196cb0c7b01d743fbc6116a902379c7238",
          "topics": [
            "0x8c5be1e5ebec7d5bd14f71427d1e84f3dd0314c0f7b2291e5b200ac8c7c3b925",
            "0x000000000000000000000000eff3521fb13228c767ad6dc3b934f9efac9c56ad",
            "0x000000000000000000000000284af8b3d00dbbafa46c93633b365d4291e8bd74"
          ],
          "data": "0x0000000000000000000000000000000000000000000000000000000005880dea",
          "blockHash": "0xa2d26fb3c904fec7707f31b0f65e88a54a3b2a7ce1ccba38d01aaa93d22ad1f7",
          "blockNumber": "0x91274b",
          "blockTimestamp": "0x690180f0",
          "transactionHash": "0x672439d116900f7cca12dea6c1ec5f0003d8fb6a9ce66de3e16055bdfe5b63b0",
          "transactionIndex": "0x46",
          "logIndex": "0x7b",
          "removed": false
        }
      ],
      "logsBloom": "0x00000000000000200000000000000000000000000000000000000000000200020002000000000000000000000000000000000000000000000000000000200000000000000000000000000000000000000000000000000000002000000000000000000000000000000000000000000000000000000000000000000000000000000000000000100000000000000000000000000000000000000000000000000000020000000000000000000000000000000000100001000000000000000000000000000000000000000000000000000000000000000000000000000000000000000010000000000000000010000000000000000000000000000000000000000000",
      "type": "0x2",
      "transactionHash": "0x672439d116900f7cca12dea6c1ec5f0003d8fb6a9ce66de3e16055bdfe5b63b0",
      "transactionIndex": "0x46",
      "blockHash": "0xa2d26fb3c904fec7707f31b0f65e88a54a3b2a7ce1ccba38d01aaa93d22ad1f7",
      "blockNumber": "0x91274b",
      "gasUsed": "0xd899",
      "effectiveGasPrice": "0xf424a",
      "from": "0xeff3521fb13228c767ad6dc3b934f9efac9c56ad",
      "to": "0x1c7d4b196cb0c7b01d743fbc6116a902379c7238",
      "contractAddress": null
    },
    {
      "status": "0x1",
      "cumulativeGasUsed": "0x78f1f8",
      "logs": [
        {
          "address": "0x1f9840a85d5af5bf1d1762f925bdaddc4201f984",
          "topics": [
            "0x8c5be1e5ebec7d5bd14f71427d1e84f3dd0314c0f7b2291e5b200ac8c7c3b925",
            "0x000000000000000000000000eff3521fb13228c767ad6dc3b934f9efac9c56ad",
            "0x000000000000000000000000284af8b3d00dbbafa46c93633b365d4291e8bd74"
          ],
          "data": "0x0000000000000000000000000000000000000000000000000000000000000000",
          "blockHash": "0xa2d26fb3c904fec7707f31b0f65e88a54a3b2a7ce1ccba38d01aaa93d22ad1f7",
          "blockNumber": "0x91274b",
          "blockTimestamp": "0x690180f0",
          "transactionHash": "0x805dda3e675e4608c3f91d7484d0e0d5725f98ef8b94d091688db1dbe125acd2",
          "transactionIndex": "0x47",
          "logIndex": "0x7c",
          "removed": false
        },
        {
          "address": "0x1f9840a85d5af5bf1d1762f925bdaddc4201f984",
          "topics": [
            "0xddf252ad1be2c89b69c2b068fc378daa952ba7f163c4a11628f55a4df523b3ef",
            "0x000000000000000000000000eff3521fb13228c767ad6dc3b934f9efac9c56ad",
            "0x000000000000000000000000284af8b3d00dbbafa46c93633b365d4291e8bd74"
          ],
          "data": "0x0000000000000000000000000000000000000000000000000000b5e620f48000",
          "blockHash": "0xa2d26fb3c904fec7707f31b0f65e88a54a3b2a7ce1ccba38d01aaa93d22ad1f7",
          "blockNumber": "0x91274b",
          "blockTimestamp": "0x690180f0",
          "transactionHash": "0x805dda3e675e4608c3f91d7484d0e0d5725f98ef8b94d091688db1dbe125acd2",
          "transactionIndex": "0x47",
          "logIndex": "0x7d",
          "removed": false
        },
        {
          "address": "0x1c7d4b196cb0c7b01d743fbc6116a902379c7238",
          "topics": [
            "0xddf252ad1be2c89b69c2b068fc378daa952ba7f163c4a11628f55a4df523b3ef",
            "0x000000000000000000000000eff3521fb13228c767ad6dc3b934f9efac9c56ad",
            "0x000000000000000000000000284af8b3d00dbbafa46c93633b365d4291e8bd74"
          ],
          "data": "0x0000000000000000000000000000000000000000000000000000000005880dea",
          "blockHash": "0xa2d26fb3c904fec7707f31b0f65e88a54a3b2a7ce1ccba38d01aaa93d22ad1f7",
          "blockNumber": "0x91274b",
          "blockTimestamp": "0x690180f0",
          "transactionHash": "0x805dda3e675e4608c3f91d7484d0e0d5725f98ef8b94d091688db1dbe125acd2",
          "transactionIndex": "0x47",
          "logIndex": "0x7e",
          "removed": false
        },
        {
          "address": "0x1f9840a85d5af5bf1d1762f925bdaddc4201f984",
          "topics": [
            "0x8c5be1e5ebec7d5bd14f71427d1e84f3dd0314c0f7b2291e5b200ac8c7c3b925",
            "0x000000000000000000000000284af8b3d00dbbafa46c93633b365d4291e8bd74",
            "0x000000000000000000000000ee567fe1712faf6149d80da1e6934e354124cfe3"
          ],
          "data": "0x0000000000000000000000000000000000000000000000000000b5e620f48000",
          "blockHash": "0xa2d26fb3c904fec7707f31b0f65e88a54a3b2a7ce1ccba38d01aaa93d22ad1f7",
          "blockNumber": "0x91274b",
          "blockTimestamp": "0x690180f0",
          "transactionHash": "0x805dda3e675e4608c3f91d7484d0e0d5725f98ef8b94d091688db1dbe125acd2",
          "transactionIndex": "0x47",
          "logIndex": "0x7f",
          "removed": false
        },
        {
          "address": "0x1c7d4b196cb0c7b01d743fbc6116a902379c7238",
          "topics": [
            "0x8c5be1e5ebec7d5bd14f71427d1e84f3dd0314c0f7b2291e5b200ac8c7c3b925",
            "0x000000000000000000000000284af8b3d00dbbafa46c93633b365d4291e8bd74",
            "0x000000000000000000000000ee567fe1712faf6149d80da1e6934e354124cfe3"
          ],
          "data": "0x0000000000000000000000000000000000000000000000000000000005880dea",
          "blockHash": "0xa2d26fb3c904fec7707f31b0f65e88a54a3b2a7ce1ccba38d01aaa93d22ad1f7",
          "blockNumber": "0x91274b",
          "blockTimestamp": "0x690180f0",
          "transactionHash": "0x805dda3e675e4608c3f91d7484d0e0d5725f98ef8b94d091688db1dbe125acd2",
          "transactionIndex": "0x47",
          "logIndex": "0x80",
          "removed": false
        },
        {
          "address": "0x1f9840a85d5af5bf1d1762f925bdaddc4201f984",
          "topics": [
            "0x8c5be1e5ebec7d5bd14f71427d1e84f3dd0314c0f7b2291e5b200ac8c7c3b925",
            "0x000000000000000000000000284af8b3d00dbbafa46c93633b365d4291e8bd74",
            "0x000000000000000000000000ee567fe1712faf6149d80da1e6934e354124cfe3"
          ],
          "data": "0x0000000000000000000000000000000000000000000000000000000000000000",
          "blockHash": "0xa2d26fb3c904fec7707f31b0f65e88a54a3b2a7ce1ccba38d01aaa93d22ad1f7",
          "blockNumber": "0x91274b",
          "blockTimestamp": "0x690180f0",
          "transactionHash": "0x805dda3e675e4608c3f91d7484d0e0d5725f98ef8b94d091688db1dbe125acd2",
          "transactionIndex": "0x47",
          "logIndex": "0x81",
          "removed": false
        },
        {
          "address": "0x1f9840a85d5af5bf1d1762f925bdaddc4201f984",
          "topics": [
            "0xddf252ad1be2c89b69c2b068fc378daa952ba7f163c4a11628f55a4df523b3ef",
            "0x000000000000000000000000284af8b3d00dbbafa46c93633b365d4291e8bd74",
            "0x00000000000000000000000031feb94712a8252532aaf35a0d61a1300bd2d12b"
          ],
          "data": "0x0000000000000000000000000000000000000000000000000000b5e620f48000",
          "blockHash": "0xa2d26fb3c904fec7707f31b0f65e88a54a3b2a7ce1ccba38d01aaa93d22ad1f7",
          "blockNumber": "0x91274b",
          "blockTimestamp": "0x690180f0",
          "transactionHash": "0x805dda3e675e4608c3f91d7484d0e0d5725f98ef8b94d091688db1dbe125acd2",
          "transactionIndex": "0x47",
          "logIndex": "0x82",
          "removed": false
        },
        {
          "address": "0x1c7d4b196cb0c7b01d743fbc6116a902379c7238",
          "topics": [
            "0xddf252ad1be2c89b69c2b068fc378daa952ba7f163c4a11628f55a4df523b3ef",
            "0x000000000000000000000000284af8b3d00dbbafa46c93633b365d4291e8bd74",
            "0x00000000000000000000000031feb94712a8252532aaf35a0d61a1300bd2d12b"
          ],
          "data": "0x0000000000000000000000000000000000000000000000000000000005880dea",
          "blockHash": "0xa2d26fb3c904fec7707f31b0f65e88a54a3b2a7ce1ccba38d01aaa93d22ad1f7",
          "blockNumber": "0x91274b",
          "blockTimestamp": "0x690180f0",
          "transactionHash": "0x805dda3e675e4608c3f91d7484d0e0d5725f98ef8b94d091688db1dbe125acd2",
          "transactionIndex": "0x47",
          "logIndex": "0x83",
          "removed": false
        },
        {
          "address": "0x31feb94712a8252532aaf35a0d61a1300bd2d12b",
          "topics": [
            "0xddf252ad1be2c89b69c2b068fc378daa952ba7f163c4a11628f55a4df523b3ef",
            "0x0000000000000000000000000000000000000000000000000000000000000000",
            "0x000000000000000000000000eff3521fb13228c767ad6dc3b934f9efac9c56ad"
          ],
          "data": "0x00000000000000000000000000000000000000000000000000000015c228efb4",
          "blockHash": "0xa2d26fb3c904fec7707f31b0f65e88a54a3b2a7ce1ccba38d01aaa93d22ad1f7",
          "blockNumber": "0x91274b",
          "blockTimestamp": "0x690180f0",
          "transactionHash": "0x805dda3e675e4608c3f91d7484d0e0d5725f98ef8b94d091688db1dbe125acd2",
          "transactionIndex": "0x47",
          "logIndex": "0x84",
          "removed": false
        },
        {
          "address": "0x31feb94712a8252532aaf35a0d61a1300bd2d12b",
          "topics": [
            "0x1c411e9a96e071241c2f21f7726b17ae89e3cab4c78be50e062b03a9fffbbad1"
          ],
          "data": "0x0000000000000000000000000000000000000000000000000000000043960fec0000000000000000000000000000000000000000000000000008ae884fdc3049",
          "blockHash": "0xa2d26fb3c904fec7707f31b0f65e88a54a3b2a7ce1ccba38d01aaa93d22ad1f7",
          "blockNumber": "0x91274b",
          "blockTimestamp": "0x690180f0",
          "transactionHash": "0x805dda3e675e4608c3f91d7484d0e0d5725f98ef8b94d091688db1dbe125acd2",
          "transactionIndex": "0x47",
          "logIndex": "0x85",
          "removed": false
        },
        {
          "address": "0x31feb94712a8252532aaf35a0d61a1300bd2d12b",
          "topics": [
            "0x4c209b5fc8ad50758f13e2e1088ba56a560dff690a1c6fef26394f4c03821c4f",
            "0x000000000000000000000000ee567fe1712faf6149d80da1e6934e354124cfe3"
          ],
          "data": "0x0000000000000000000000000000000000000000000000000000000005880dea0000000000000000000000000000000000000000000000000000b5e620f48000",
          "blockHash": "0xa2d26fb3c904fec7707f31b0f65e88a54a3b2a7ce1ccba38d01aaa93d22ad1f7",
          "blockNumber": "0x91274b",
          "blockTimestamp": "0x690180f0",
          "transactionHash": "0x805dda3e675e4608c3f91d7484d0e0d5725f98ef8b94d091688db1dbe125acd2",
          "transactionIndex": "0x47",
          "logIndex": "0x86",
          "removed": false
        },
        {
          "address": "0x284af8b3d00dbbafa46c93633b365d4291e8bd74",
          "topics": [
            "0x4a1a2a6176e9646d9e3157f7c2ab3c499f18337c0b0828cfb28e0a61de4a11f7"
          ],
          "data": "0x0000000000000000000000001f9840a85d5af5bf1d1762f925bdaddc4201f9840000000000000000000000001c7d4b196cb0c7b01d743fbc6116a902379c72380000000000000000000000000000000000000000000000000000b5e620f480000000000000000000000000000000000000000000000000000000000005880dea00000000000000000000000000000000000000000000000000000015c228efb4",
          "blockHash": "0xa2d26fb3c904fec7707f31b0f65e88a54a3b2a7ce1ccba38d01aaa93d22ad1f7",
          "blockNumber": "0x91274b",
          "blockTimestamp": "0x690180f0",
          "transactionHash": "0x805dda3e675e4608c3f91d7484d0e0d5725f98ef8b94d091688db1dbe125acd2",
          "transactionIndex": "0x47",
          "logIndex": "0x87",
          "removed": false
        }
      ],
      "logsBloom": "0x00000000000000200000000080000000000000000000000000000000000201020002000000000000000000000010001000000000000000000000000008200000000000000000000000000008100000000000000000000000002000000000000008000800020000000000800000000800000000000008000000000410000000000001000000100000000000000000000000000000000000080000000000010000020000000000000000000000000000000000100001000000000000800000000000000002000004000000000000020200000800000000001000000000000028000010000000000080000010000000000000000000000000000082000000000000",
      "type": "0x2",
      "transactionHash": "0x805dda3e675e4608c3f91d7484d0e0d5725f98ef8b94d091688db1dbe125acd2",
      "transactionIndex": "0x47",
      "blockHash": "0xa2d26fb3c904fec7707f31b0f65e88a54a3b2a7ce1ccba38d01aaa93d22ad1f7",
      "blockNumber": "0x91274b",
      "gasUsed": "0x35b12",
      "effectiveGasPrice": "0xf424a",
      "from": "0xeff3521fb13228c767ad6dc3b934f9efac9c56ad",
      "to": "0x284af8b3d00dbbafa46c93633b365d4291e8bd74",
      "contractAddress": null
    }
  ],
  "libraries": [],
  "pending": [],
  "returns": {},
  "timestamp": 1761706225,
  "chain": 11155111,
  "commit": "6735a57"
}