{
  "transactions": [
    {
      "hash": "0xf6f124a76ed97b315429f4834685503612cc08f4a182b0ed4544dce2306b6256",
      "transactionType": "CALL",
      "contractName": null,
      "contractAddress": "0x1f9840a85d5af5bf1d1762f925bdaddc4201f984",
      "function": "approve(address,uint256)",
      "arguments": [
        "0xE8240Fdb32C607c7adaC21888873F1DfF72cdFA8",
        "200000000000000"
      ],
      "transaction": {
        "from": "0xeff3521fb13228c767ad6dc3b934f9efac9c56ad",
        "to": "0x1f9840a85d5af5bf1d1762f925bdaddc4201f984",
        "gas": "0x10ba5",
        "value": "0x0",
        "input": "0x095ea7b3000000000000000000000000e8240fdb32c607c7adac21888873f1dff72cdfa80000000000000000000000000000000000000000000000000000b5e620f48000",
        "nonce": "0x111",
        "chainId": "0xaa36a7"
      },
      "additionalContracts": [],
      "isFixedGasLimit": false
    },
    {
      "hash": "0x5c1f8c97a40e66557477e9fb9ed625ddefa427d28633942b3a66249b77c0cefe",
      "transactionType": "CALL",
      "contractName": null,
      "contractAddress": "0x6c64e8278b7d5513143d59bf1484b0e6972e4505",
      "function": "approve(address,uint256)",
      "arguments": [
        "0xE8240Fdb32C607c7adaC21888873F1DfF72cdFA8",
        "632455600000000000000"
      ],
      "transaction": {
        "from": "0xeff3521fb13228c767ad6dc3b934f9efac9c56ad",
        "to": "0x6c64e8278b7d5513143d59bf1484b0e6972e4505",
        "gas": "0x10c4a",
        "value": "0x0",
        "input": "0x095ea7b3000000000000000000000000e8240fdb32c607c7adac21888873f1dff72cdfa80000000000000000000000000000000000000000000000224915a94e7e8b0000",
        "nonce": "0x112",
        "chainId": "0xaa36a7"
      },
      "additionalContracts": [],
      "isFixedGasLimit": false
    },
    {
      "hash": "0x463b152f9811da3200031437e2cc14728ec6fa5d166325177e99291c79e6b799",
      "transactionType": "CALL",
      "contractName": null,
      "contractAddress": "0xe8240fdb32c607c7adac21888873f1dff72cdfa8",
      "function": "addLiquidity(address,address,uint256,uint256)",
      "arguments": [
        "0x1f9840a85d5aF5bf1D1762F925BDADdC4201F984",
        "0x6c64E8278B7d5513143D59Bf1484B0e6972e4505",
        "200000000000000",
        "632455600000000000000"
      ],
      "transaction": {
        "from": "0xeff3521fb13228c767ad6dc3b934f9efac9c56ad",
        "to": "0xe8240fdb32c607c7adac21888873f1dff72cdfa8",
        "gas": "0x4bf4d",
        "value": "0x0",
        "input": "0xcf6c62ea0000000000000000000000001f9840a85d5af5bf1d1762f925bdaddc4201f9840000000000000000000000006c64e8278b7d5513143d59bf1484b0e6972e45050000000000000000000000000000000000000000000000000000b5e620f480000000000000000000000000000000000000000000000000224915a94e7e8b0000",
        "nonce": "0x113",
        "chainId": "0xaa36a7"
      },
      "additionalContracts": [],
      "isFixedGasLimit": false
    }
  ],
  "receipts": [
    {
      "status": "0x1",
      "cumulativeGasUsed": "0x89f886",
      "logs": [
        {
          "address": "0x1f9840a85d5af5bf1d1762f925bdaddc4201f984",
          "topics": [
            "0x8c5be1e5ebec7d5bd14f71427d1e84f3dd0314c0f7b2291e5b200ac8c7c3b925",
            "0x000000000000000000000000eff3521fb13228c767ad6dc3b934f9efac9c56ad",
            "0x000000000000000000000000e8240fdb32c607c7adac21888873f1dff72cdfa8"
          ],
          "data": "0x0000000000000000000000000000000000000000000000000000b5e620f48000",
          "blockHash": "0x3de489be04954552d376ac3806fe98175d84040c84d17bd91623167017304723",
          "blockNumber": "0x910d8f",
          "blockTimestamp": "0x690044f4",
          "transactionHash": "0xf6f124a76ed97b315429f4834685503612cc08f4a182b0ed4544dce2306b6256",
          "transactionIndex": "0x44",
          "logIndex": "0x39",
          "removed": false
        }
      ],
      "logsBloom": "0x00000000000000000000000000000000000000000000000000000000000000020000000000000000000000000000001000000000000000100000000000200000000000000000000000000000100000000000000000000000002000000000000008000000000000000000000000000000000000000000000000000000000000000000000010000000000000000000000000000000000000000000000000000000020000000000000000000000000000000000100000000000000000000000000000000000000000000000000000000000000000000000000000000000000000000010000000000000040000000000000000000000000000000000000000000000",
      "type": "0x2",
      "transactionHash": "0xf6f124a76ed97b315429f4834685503612cc08f4a182b0ed4544dce2306b6256",
      "transactionIndex": "0x44",
      "blockHash": "0x3de489be04954552d376ac3806fe98175d84040c84d17bd91623167017304723",
      "blockNumber": "0x910d8f",
      "gasUsed": "0xb702",
      "effectiveGasPrice": "0xf424a",
      "from": "0xeff3521fb13228c767ad6dc3b934f9efac9c56ad",
      "to": "0x1f9840a85d5af5bf1d1762f925bdaddc4201f984",
      "contractAddress": null
    },
    {
      "status": "0x1",
      "cumulativeGasUsed": "0x8aaff9",
      "logs": [
        {
          "address": "0x6c64e8278b7d5513143d59bf1484b0e6972e4505",
          "topics": [
            "0x8c5be1e5ebec7d5bd14f71427d1e84f3dd0314c0f7b2291e5b200ac8c7c3b925",
            "0x000000000000000000000000eff3521fb13228c767ad6dc3b934f9efac9c56ad",
            "0x000000000000000000000000e8240fdb32c607c7adac21888873f1dff72cdfa8"
          ],
          "data": "0x0000000000000000000000000000000000000000000000224915a94e7e8b0000",
          "blockHash": "0x3de489be04954552d376ac3806fe98175d84040c84d17bd91623167017304723",
          "blockNumber": "0x910d8f",
          "blockTimestamp": "0x690044f4",
          "transactionHash": "0x5c1f8c97a40e66557477e9fb9ed625ddefa427d28633942b3a66249b77c0cefe",
          "transactionIndex": "0x45",
          "logIndex": "0x3a",
          "removed": false
        }
      ],
      "logsBloom": "0x00000000000000000000000000000000000000000000000000000000000000020000000000000000000000000000000000000000000000100000000000200000000000000000000000000000000000000000000000000000002000000000000000000000000000000000000000000000000000000000000000000000000000000000000010000000000000000000000000000000000000000000000000000000020000000000000000000000000000000000100000000040000000000000100000000000000000000000000000000000000000000010000000000000000000000010000000000000040000000000000000000000000000000000000000000000",
      "type": "0x2",
      "transactionHash": "0x5c1f8c97a40e66557477e9fb9ed625ddefa427d28633942b3a66249b77c0cefe",
      "transactionIndex": "0x45",
      "blockHash": "0x3de489be04954552d376ac3806fe98175d84040c84d17bd91623167017304723",
      "blockNumber": "0x910d8f",
      "gasUsed": "0xb773",
      "effectiveGasPrice": "0xf424a",
      "from": "0xeff3521fb13228c767ad6dc3b934f9efac9c56ad",
      "to": "0x6c64e8278b7d5513143d59bf1484b0e6972e4505",
      "contractAddress": null
    },
    {
      "status": "0x1",
      "cumulativeGasUsed": "0x8deef3",
      "logs": [
        {
          "address": "0x1f9840a85d5af5bf1d1762f925bdaddc4201f984",
          "topics": [
            "0x8c5be1e5ebec7d5bd14f71427d1e84f3dd0314c0f7b2291e5b200ac8c7c3b925",
            "0x000000000000000000000000eff3521fb13228c767ad6dc3b934f9efac9c56ad",
            "0x000000000000000000000000e8240fdb32c607c7adac21888873f1dff72cdfa8"
          ],
          "data": "0x0000000000000000000000000000000000000000000000000000000000000000",
          "blockHash": "0x3de489be04954552d376ac3806fe98175d84040c84d17bd91623167017304723",
          "blockNumber": "0x910d8f",
          "blockTimestamp": "0x690044f4",
          "transactionHash": "0x463b152f9811da3200031437e2cc14728ec6fa5d166325177e99291c79e6b799",
          "transactionIndex": "0x46",
          "logIndex": "0x3b",
          "removed": false
        },
        {
          "address": "0x1f9840a85d5af5bf1d1762f925bdaddc4201f984",
          "topics": [
            "0xddf252ad1be2c89b69c2b068fc378daa952ba7f163c4a11628f55a4df523b3ef",
            "0x000000000000000000000000eff3521fb13228c767ad6dc3b934f9efac9c56ad",
            "0x000000000000000000000000e8240fdb32c607c7adac21888873f1dff72cdfa8"
          ],
          "data": "0x0000000000000000000000000000000000000000000000000000b5e620f48000",
          "blockHash": "0x3de489be04954552d376ac3806fe98175d84040c84d17bd91623167017304723",
          "blockNumber": "0x910d8f",
          "blockTimestamp": "0x690044f4",
          "transactionHash": "0x463b152f9811da3200031437e2cc14728ec6fa5d166325177e99291c79e6b799",
          "transactionIndex": "0x46",
          "logIndex": "0x3c",
          "removed": false
        },
        {
          "address": "0x6c64e8278b7d5513143d59bf1484b0e6972e4505",
          "topics": [
            "0xddf252ad1be2c89b69c2b068fc378daa952ba7f163c4a11628f55a4df523b3ef",
            "0x000000000000000000000000eff3521fb13228c767ad6dc3b934f9efac9c56ad",
            "0x000000000000000000000000e8240fdb32c607c7adac21888873f1dff72cdfa8"
          ],
          "data": "0x0000000000000000000000000000000000000000000000224915a94e7e8b0000",
          "blockHash": "0x3de489be04954552d376ac3806fe98175d84040c84d17bd91623167017304723",
          "blockNumber": "0x910d8f",
          "blockTimestamp": "0x690044f4",
          "transactionHash": "0x463b152f9811da3200031437e2cc14728ec6fa5d166325177e99291c79e6b799",
          "transactionIndex": "0x46",
          "logIndex": "0x3d",
          "removed": false
        },
        {
          "address": "0x1f9840a85d5af5bf1d1762f925bdaddc4201f984",
          "topics": [
            "0x8c5be1e5ebec7d5bd14f71427d1e84f3dd0314c0f7b2291e5b200ac8c7c3b925",
            "0x000000000000000000000000e8240fdb32c607c7adac21888873f1dff72cdfa8",
            "0x000000000000000000000000ee567fe1712faf6149d80da1e6934e354124cfe3"
          ],
          "data": "0x0000000000000000000000000000000000000000000000000000b5e620f48000",
          "blockHash": "0x3de489be04954552d376ac3806fe98175d84040c84d17bd91623167017304723",
          "blockNumber": "0x910d8f",
          "blockTimestamp": "0x690044f4",
          "transactionHash": "0x463b152f9811da3200031437e2cc14728ec6fa5d166325177e99291c79e6b799",
          "transactionIndex": "0x46",
          "logIndex": "0x3e",
          "removed": false
        },
        {
          "address": "0x6c64e8278b7d5513143d59bf1484b0e6972e4505",
          "topics": [
            "0x8c5be1e5ebec7d5bd14f71427d1e84f3dd0314c0f7b2291e5b200ac8c7c3b925",
            "0x000000000000000000000000e8240fdb32c607c7adac21888873f1dff72cdfa8",
            "0x000000000000000000000000ee567fe1712faf6149d80da1e6934e354124cfe3"
          ],
          "data": "0x0000000000000000000000000000000000000000000000224915a94e7e8b0000",
          "blockHash": "0x3de489be04954552d376ac3806fe98175d84040c84d17bd91623167017304723",
          "blockNumber": "0x910d8f",
          "blockTimestamp": "0x690044f4",
          "transactionHash": "0x463b152f9811da3200031437e2cc14728ec6fa5d166325177e99291c79e6b799",
          "transactionIndex": "0x46",
          "logIndex": "0x3f",
          "removed": false
        },
        {
          "address": "0x1f9840a85d5af5bf1d1762f925bdaddc4201f984",
          "topics": [
            "0x8c5be1e5ebec7d5bd14f71427d1e84f3dd0314c0f7b2291e5b200ac8c7c3b925",
            "0x000000000000000000000000e8240fdb32c607c7adac21888873f1dff72cdfa8",
            "0x000000000000000000000000ee567fe1712faf6149d80da1e6934e354124cfe3"
          ],
          "data": "0x0000000000000000000000000000000000000000000000000000000000000000",
          "blockHash": "0x3de489be04954552d376ac3806fe98175d84040c84d17bd91623167017304723",
          "blockNumber": "0x910d8f",
          "blockTimestamp": "0x690044f4",
          "transactionHash": "0x463b152f9811da3200031437e2cc14728ec6fa5d166325177e99291c79e6b799",
          "transactionIndex": "0x46",
          "logIndex": "0x40",
          "removed": false
        },
        {
          "address": "0x1f9840a85d5af5bf1d1762f925bdaddc4201f984",
          "topics": [
            "0xddf252ad1be2c89b69c2b068fc378daa952ba7f163c4a11628f55a4df523b3ef",
            "0x000000000000000000000000e8240fdb32c607c7adac21888873f1dff72cdfa8",
            "0x000000000000000000000000421b152478f5370c4d28b11fdfab122d171b731b"
          ],
          "data": "0x0000000000000000000000000000000000000000000000000000b5e620f48000",
          "blockHash": "0x3de489be04954552d376ac3806fe98175d84040c84d17bd91623167017304723",
          "blockNumber": "0x910d8f",
          "blockTimestamp": "0x690044f4",
          "transactionHash": "0x463b152f9811da3200031437e2cc14728ec6fa5d166325177e99291c79e6b799",
          "transactionIndex": "0x46",
          "logIndex": "0x41",
          "removed": false
        },
        {
          "address": "0x6c64e8278b7d5513143d59bf1484b0e6972e4505",
          "topics": [
            "0xddf252ad1be2c89b69c2b068fc378daa952ba7f163c4a11628f55a4df523b3ef",
            "0x000000000000000000000000e8240fdb32c607c7adac21888873f1dff72cdfa8",
            "0x000000000000000000000000421b152478f5370c4d28b11fdfab122d171b731b"
          ],
          "data": "0x0000000000000000000000000000000000000000000000224915a94e7e8b0000",
          "blockHash": "0x3de489be04954552d376ac3806fe98175d84040c84d17bd91623167017304723",
          "blockNumber": "0x910d8f",
          "blockTimestamp": "0x690044f4",
          "transactionHash": "0x463b152f9811da3200031437e2cc14728ec6fa5d166325177e99291c79e6b799",
          "transactionIndex": "0x46",
          "logIndex": "0x42",
          "removed": false
        },
        {
          "address": "0x421b152478f5370c4d28b11fdfab122d171b731b",
          "topics": [
            "0xddf252ad1be2c89b69c2b068fc378daa952ba7f163c4a11628f55a4df523b3ef",
            "0x0000000000000000000000000000000000000000000000000000000000000000",
            "0x000000000000000000000000eff3521fb13228c767ad6dc3b934f9efac9c56ad"
          ],
          "data": "0x00000000000000000000000000000000000000000000000002c68af0bb140000",
          "blockHash": "0x3de489be04954552d376ac3806fe98175d84040c84d17bd91623167017304723",
          "blockNumber": "0x910d8f",
          "blockTimestamp": "0x690044f4",
          "transactionHash": "0x463b152f9811da3200031437e2cc14728ec6fa5d166325177e99291c79e6b799",
          "transactionIndex": "0x46",
          "logIndex": "0x43",
          "removed": false
        },
        {
          "address": "0x421b152478f5370c4d28b11fdfab122d171b731b",
          "topics": [
            "0x1c411e9a96e071241c2f21f7726b17ae89e3cab4c78be50e062b03a9fffbbad1"
          ],
          "data": "0x00000000000000000000000000000000000000000000000000016bcc41e90001000000000000000000000000000000000000000000000044922b529cfd4640a6",
          "blockHash": "0x3de489be04954552d376ac3806fe98175d84040c84d17bd91623167017304723",
          "blockNumber": "0x910d8f",
          "blockTimestamp": "0x690044f4",
          "transactionHash": "0x463b152f9811da3200031437e2cc14728ec6fa5d166325177e99291c79e6b799",
          "transactionIndex": "0x46",
          "logIndex": "0x44",
          "removed": false
        },
        {
          "address": "0x421b152478f5370c4d28b11fdfab122d171b731b",
          "topics": [
            "0x4c209b5fc8ad50758f13e2e1088ba56a560dff690a1c6fef26394f4c03821c4f",
            "0x000000000000000000000000ee567fe1712faf6149d80da1e6934e354124cfe3"
          ],
          "data": "0x0000000000000000000000000000000000000000000000000000b5e620f480000000000000000000000000000000000000000000000000224915a94e7e8b0000",
          "blockHash": "0x3de489be04954552d376ac3806fe98175d84040c84d17bd91623167017304723",
          "blockNumber": "0x910d8f",
          "blockTimestamp": "0x690044f4",
          "transactionHash": "0x463b152f9811da3200031437e2cc14728ec6fa5d166325177e99291c79e6b799",
          "transactionIndex": "0x46",
          "logIndex": "0x45",
          "removed": false
        },
        {
          "address": "0xe8240fdb32c607c7adac21888873f1dff72cdfa8",
          "topics": [
            "0x4a1a2a6176e9646d9e3157f7c2ab3c499f18337c0b0828cfb28e0a61de4a11f7"
          ],
          "data": "0x0000000000000000000000001f9840a85d5af5bf1d1762f925bdaddc4201f9840000000000000000000000006c64e8278b7d5513143d59bf1484b0e6972e45050000000000000000000000000000000000000000000000000000b5e620f480000000000000000000000000000000000000000000000000224915a94e7e8b000000000000000000000000000000000000000000000000000002c68af0bb140000",
          "blockHash": "0x3de489be04954552d376ac3806fe98175d84040c84d17bd91623167017304723",
          "blockNumber": "0x910d8f",
          "blockTimestamp": "0x690044f4",
          "transactionHash": "0x463b152f9811da3200031437e2cc14728ec6fa5d166325177e99291c79e6b799",
          "transactionIndex": "0x46",
          "logIndex": "0x46",
          "removed": false
        }
      ],
      "logsBloom": "0x0000000000000000000000008000000002000000000000000000000000000102000080000000000000000200000000100000000800000010000000000820000000000000000000000000000810000000000000000000000000200000000000000a000000020000000000800000000800000000000008000000400010000000000000000010000000000000000000000000000000000000080001000000010000020000000000000000000000000000000000100000000040000000800000180000000002000000000000000000020000040000000010001000000000000028000010000000000000040000000000000000000000000000000080000000000000",
      "type": "0x2",
      "transactionHash": "0x463b152f9811da3200031437e2cc14728ec6fa5d166325177e99291c79e6b799",
      "transactionIndex": "0x46",
      "blockHash": "0x3de489be04954552d376ac3806fe98175d84040c84d17bd91623167017304723",
      "blockNumber": "0x910d8f",
      "gasUsed": "0x33efa",
      "effectiveGasPrice": "0xf424a",
      "from": "0xeff3521fb13228c767ad6dc3b934f9efac9c56ad",
      "to": "0xe8240fdb32c607c7adac21888873f1dff72cdfa8",
      "contractAddress": null
    }
  ],
  "libraries": [],
  "pending": [],
  "returns": {},
  "timestamp": 1761625333,
  "chain": 11155111,
  "commit": "4457f8a"
}