{
  "transactions": [
    {
      "hash": "0xc74f1ad704fcc684d2dcfdfbbcf93e0bd9b6f09a95128763704037a3964c8957",
      "transactionType": "CALL",
      "contractName": null,
      "contractAddress": "0x1f9840a85d5af5bf1d1762f925bdaddc4201f984",
      "function": "approve(address,uint256)",
      "arguments": [
        "0xbFd4c35D5dD72dEEf603Dd7EdD85B2BE9C14e9Cd",
        "200000000000000"
      ],
      "transaction": {
        "from": "0xeff3521fb13228c767ad6dc3b934f9efac9c56ad",
        "to": "0x1f9840a85d5af5bf1d1762f925bdaddc4201f984",
        "gas": "0x10ba5",
        "value": "0x0",
        "input": "0x095ea7b3000000000000000000000000bfd4c35d5dd72deef603dd7edd85b2be9c14e9cd0000000000000000000000000000000000000000000000000000b5e620f48000",
        "nonce": "0xf8",
        "chainId": "0xaa36a7"
      },
      "additionalContracts": [],
      "isFixedGasLimit": false
    },
    {
      "hash": "0x7ad1e497e5b7eee51de964a5ff79802315baaa73d77f62aa3baab54be8b12107",
      "transactionType": "CALL",
      "contractName": null,
      "contractAddress": "0x6c64e8278b7d5513143d59bf1484b0e6972e4505",
      "function": "approve(address,uint256)",
      "arguments": [
        "0xbFd4c35D5dD72dEEf603Dd7EdD85B2BE9C14e9Cd",
        "2000000000000000000000"
      ],
      "transaction": {
        "from": "0xeff3521fb13228c767ad6dc3b934f9efac9c56ad",
        "to": "0x6c64e8278b7d5513143d59bf1484b0e6972e4505",
        "gas": "0x10c4a",
        "value": "0x0",
        "input": "0x095ea7b3000000000000000000000000bfd4c35d5dd72deef603dd7edd85b2be9c14e9cd00000000000000000000000000000000000000000000006c6b935b8bbd400000",
        "nonce": "0xf9",
        "chainId": "0xaa36a7"
      },
      "additionalContracts": [],
      "isFixedGasLimit": false
    },
    {
      "hash": "0xfa7e45641d2434aa529be68ed5a410054e6ed5d7b282cb1b76e33f0f71033281",
      "transactionType": "CALL",
      "contractName": null,
      "contractAddress": "0xbfd4c35d5dd72deef603dd7edd85b2be9c14e9cd",
      "function": "addLiquidity(address,address,uint256,uint256)",
      "arguments": [
        "0x1f9840a85d5aF5bf1D1762F925BDADdC4201F984",
        "0x6c64E8278B7d5513143D59Bf1484B0e6972e4505",
        "200000000000000",
        "2000000000000000000000"
      ],
      "transaction": {
        "from": "0xeff3521fb13228c767ad6dc3b934f9efac9c56ad",
        "to": "0xbfd4c35d5dd72deef603dd7edd85b2be9c14e9cd",
        "gas": "0x4becb",
        "value": "0x0",
        "input": "0xcf6c62ea0000000000000000000000001f9840a85d5af5bf1d1762f925bdaddc4201f9840000000000000000000000006c64e8278b7d5513143d59bf1484b0e6972e45050000000000000000000000000000000000000000000000000000b5e620f4800000000000000000000000000000000000000000000000006c6b935b8bbd400000",
        "nonce": "0xfa",
        "chainId": "0xaa36a7"
      },
      "additionalContracts": [],
      "isFixedGasLimit": false
    }
  ],
  "receipts": [
    {
      "status": "0x1",
      "cumulativeGasUsed": "0x8cd491",
      "logs": [
        {
          "address": "0x1f9840a85d5af5bf1d1762f925bdaddc4201f984",
          "topics": [
            "0x8c5be1e5ebec7d5bd14f71427d1e84f3dd0314c0f7b2291e5b200ac8c7c3b925",
            "0x000000000000000000000000eff3521fb13228c767ad6dc3b934f9efac9c56ad",
            "0x000000000000000000000000bfd4c35d5dd72deef603dd7edd85b2be9c14e9cd"
          ],
          "data": "0x0000000000000000000000000000000000000000000000000000b5e620f48000",
          "blockHash": "0xd69c6f8dd97ca605a5d6c347ba5abaff854675aeebeb5995d081442328a6fa1e",
          "blockNumber": "0x90efc8",
          "blockTimestamp": "0x68fedb68",
          "transactionHash": "0xc74f1ad704fcc684d2dcfdfbbcf93e0bd9b6f09a95128763704037a3964c8957",
          "transactionIndex": "0x28",
          "logIndex": "0x50",
          "removed": false
        }
      ],
      "logsBloom": "0x00000000000000000000000000000000000000000000000000000000000000020000000000000000000000000000001000000000000000000000000000200000000000000000000000000000100000000000000000000000002000000000000008000000000000800000000000000000000000000000000000000000000000000000000000000000000000000000000000000000000000000000000000000000020000000000000000000000000000000000100000000000000000000000000000000000000000000000000000000000000000000000000000000000000000000010000000200000000000000200000000000000000000000000000000000000",
      "type": "0x2",
      "transactionHash": "0xc74f1ad704fcc684d2dcfdfbbcf93e0bd9b6f09a95128763704037a3964c8957",
      "transactionIndex": "0x28",
      "blockHash": "0xd69c6f8dd97ca605a5d6c347ba5abaff854675aeebeb5995d081442328a6fa1e",
      "blockNumber": "0x90efc8",
      "gasUsed": "0xb702",
      "effectiveGasPrice": "0xf4240",
      "from": "0xeff3521fb13228c767ad6dc3b934f9efac9c56ad",
      "to": "0x1f9840a85d5af5bf1d1762f925bdaddc4201f984",
      "contractAddress": null
    },
    {
      "status": "0x1",
      "cumulativeGasUsed": "0x8d8c04",
      "logs": [
        {
          "address": "0x6c64e8278b7d5513143d59bf1484b0e6972e4505",
          "topics": [
            "0x8c5be1e5ebec7d5bd14f71427d1e84f3dd0314c0f7b2291e5b200ac8c7c3b925",
            "0x000000000000000000000000eff3521fb13228c767ad6dc3b934f9efac9c56ad",
            "0x000000000000000000000000bfd4c35d5dd72deef603dd7edd85b2be9c14e9cd"
          ],
          "data": "0x00000000000000000000000000000000000000000000006c6b935b8bbd400000",
          "blockHash": "0xd69c6f8dd97ca605a5d6c347ba5abaff854675aeebeb5995d081442328a6fa1e",
          "blockNumber": "0x90efc8",
          "blockTimestamp": "0x68fedb68",
          "transactionHash": "0x7ad1e497e5b7eee51de964a5ff79802315baaa73d77f62aa3baab54be8b12107",
          "transactionIndex": "0x29",
          "logIndex": "0x51",
          "removed": false
        }
      ],
      "logsBloom": "0x00000000000000000000000000000000000000000000000000000000000000020000000000000000000000000000000000000000000000000000000000200000000000000000000000000000000000000000000000000000002000000000000000000000000000800000000000000000000000000000000000000000000000000000000000000000000000000000000000000000000000000000000000000000020000000000000000000000000000000000100000000040000000000000100000000000000000000000000000000000000000000010000000000000000000000010000000200000000000000200000000000000000000000000000000000000",
      "type": "0x2",
      "transactionHash": "0x7ad1e497e5b7eee51de964a5ff79802315baaa73d77f62aa3baab54be8b12107",
      "transactionIndex": "0x29",
      "blockHash": "0xd69c6f8dd97ca605a5d6c347ba5abaff854675aeebeb5995d081442328a6fa1e",
      "blockNumber": "0x90efc8",
      "gasUsed": "0xb773",
      "effectiveGasPrice": "0xf4240",
      "from": "0xeff3521fb13228c767ad6dc3b934f9efac9c56ad",
      "to": "0x6c64e8278b7d5513143d59bf1484b0e6972e4505",
      "contractAddress": null
    },
    {
      "status": "0x1",
      "cumulativeGasUsed": "0x90caa5",
      "logs": [
        {
          "address": "0x1f9840a85d5af5bf1d1762f925bdaddc4201f984",
          "topics": [
            "0x8c5be1e5ebec7d5bd14f71427d1e84f3dd0314c0f7b2291e5b200ac8c7c3b925",
            "0x000000000000000000000000eff3521fb13228c767ad6dc3b934f9efac9c56ad",
            "0x000000000000000000000000bfd4c35d5dd72deef603dd7edd85b2be9c14e9cd"
          ],
          "data": "0x0000000000000000000000000000000000000000000000000000000000000000",
          "blockHash": "0xd69c6f8dd97ca605a5d6c347ba5abaff854675aeebeb5995d081442328a6fa1e",
          "blockNumber": "0x90efc8",
          "blockTimestamp": "0x68fedb68",
          "transactionHash": "0xfa7e45641d2434aa529be68ed5a410054e6ed5d7b282cb1b76e33f0f71033281",
          "transactionIndex": "0x2a",
          "logIndex": "0x52",
          "removed": false
        },
        {
          "address": "0x1f9840a85d5af5bf1d1762f925bdaddc4201f984",
          "topics": [
            "0xddf252ad1be2c89b69c2b068fc378daa952ba7f163c4a11628f55a4df523b3ef",
            "0x000000000000000000000000eff3521fb13228c767ad6dc3b934f9efac9c56ad",
            "0x000000000000000000000000bfd4c35d5dd72deef603dd7edd85b2be9c14e9cd"
          ],
          "data": "0x0000000000000000000000000000000000000000000000000000b5e620f48000",
          "blockHash": "0xd69c6f8dd97ca605a5d6c347ba5abaff854675aeebeb5995d081442328a6fa1e",
          "blockNumber": "0x90efc8",
          "blockTimestamp": "0x68fedb68",
          "transactionHash": "0xfa7e45641d2434aa529be68ed5a410054e6ed5d7b282cb1b76e33f0f71033281",
          "transactionIndex": "0x2a",
          "logIndex": "0x53",
          "removed": false
        },
        {
          "address": "0x6c64e8278b7d5513143d59bf1484b0e6972e4505",
          "topics": [
            "0xddf252ad1be2c89b69c2b068fc378daa952ba7f163c4a11628f55a4df523b3ef",
            "0x000000000000000000000000eff3521fb13228c767ad6dc3b934f9efac9c56ad",
            "0x000000000000000000000000bfd4c35d5dd72deef603dd7edd85b2be9c14e9cd"
          ],
          "data": "0x00000000000000000000000000000000000000000000006c6b935b8bbd400000",
          "blockHash": "0xd69c6f8dd97ca605a5d6c347ba5abaff854675aeebeb5995d081442328a6fa1e",
          "blockNumber": "0x90efc8",
          "blockTimestamp": "0x68fedb68",
          "transactionHash": "0xfa7e45641d2434aa529be68ed5a410054e6ed5d7b282cb1b76e33f0f71033281",
          "transactionIndex": "0x2a",
          "logIndex": "0x54",
          "removed": false
        },
        {
          "address": "0x1f9840a85d5af5bf1d1762f925bdaddc4201f984",
          "topics": [
            "0x8c5be1e5ebec7d5bd14f71427d1e84f3dd0314c0f7b2291e5b200ac8c7c3b925",
            "0x000000000000000000000000bfd4c35d5dd72deef603dd7edd85b2be9c14e9cd",
            "0x000000000000000000000000ee567fe1712faf6149d80da1e6934e354124cfe3"
          ],
          "data": "0x0000000000000000000000000000000000000000000000000000b5e620f48000",
          "blockHash": "0xd69c6f8dd97ca605a5d6c347ba5abaff854675aeebeb5995d081442328a6fa1e",
          "blockNumber": "0x90efc8",
          "blockTimestamp": "0x68fedb68",
          "transactionHash": "0xfa7e45641d2434aa529be68ed5a410054e6ed5d7b282cb1b76e33f0f71033281",
          "transactionIndex": "0x2a",
          "logIndex": "0x55",
          "removed": false
        },
        {
          "address": "0x6c64e8278b7d5513143d59bf1484b0e6972e4505",
          "topics": [
            "0x8c5be1e5ebec7d5bd14f71427d1e84f3dd0314c0f7b2291e5b200ac8c7c3b925",
            "0x000000000000000000000000bfd4c35d5dd72deef603dd7edd85b2be9c14e9cd",
            "0x000000000000000000000000ee567fe1712faf6149d80da1e6934e354124cfe3"
          ],
          "data": "0x00000000000000000000000000000000000000000000006c6b935b8bbd400000",
          "blockHash": "0xd69c6f8dd97ca605a5d6c347ba5abaff854675aeebeb5995d081442328a6fa1e",
          "blockNumber": "0x90efc8",
          "blockTimestamp": "0x68fedb68",
          "transactionHash": "0xfa7e45641d2434aa529be68ed5a410054e6ed5d7b282cb1b76e33f0f71033281",
          "transactionIndex": "0x2a",
          "logIndex": "0x56",
          "removed": false
        },
        {
          "address": "0x1f9840a85d5af5bf1d1762f925bdaddc4201f984",
          "topics": [
            "0x8c5be1e5ebec7d5bd14f71427d1e84f3dd0314c0f7b2291e5b200ac8c7c3b925",
            "0x000000000000000000000000bfd4c35d5dd72deef603dd7edd85b2be9c14e9cd",
            "0x000000000000000000000000ee567fe1712faf6149d80da1e6934e354124cfe3"
          ],
          "data": "0x0000000000000000000000000000000000000000000000000000000000000000",
          "blockHash": "0xd69c6f8dd97ca605a5d6c347ba5abaff854675aeebeb5995d081442328a6fa1e",
          "blockNumber": "0x90efc8",
          "blockTimestamp": "0x68fedb68",
          "transactionHash": "0xfa7e45641d2434aa529be68ed5a410054e6ed5d7b282cb1b76e33f0f71033281",
          "transactionIndex": "0x2a",
          "logIndex": "0x57",
          "removed": false
        },
        {
          "address": "0x1f9840a85d5af5bf1d1762f925bdaddc4201f984",
          "topics": [
            "0xddf252ad1be2c89b69c2b068fc378daa952ba7f163c4a11628f55a4df523b3ef",
            "0x000000000000000000000000bfd4c35d5dd72deef603dd7edd85b2be9c14e9cd",
            "0x000000000000000000000000421b152478f5370c4d28b11fdfab122d171b731b"
          ],
          "data": "0x0000000000000000000000000000000000000000000000000000b5e620f48000",
          "blockHash": "0xd69c6f8dd97ca605a5d6c347ba5abaff854675aeebeb5995d081442328a6fa1e",
          "blockNumber": "0x90efc8",
          "blockTimestamp": "0x68fedb68",
          "transactionHash": "0xfa7e45641d2434aa529be68ed5a410054e6ed5d7b282cb1b76e33f0f71033281",
          "transactionIndex": "0x2a",
          "logIndex": "0x58",
          "removed": false
        },
        {
          "address": "0x6c64e8278b7d5513143d59bf1484b0e6972e4505",
          "topics": [
            "0xddf252ad1be2c89b69c2b068fc378daa952ba7f163c4a11628f55a4df523b3ef",
            "0x000000000000000000000000bfd4c35d5dd72deef603dd7edd85b2be9c14e9cd",
            "0x000000000000000000000000421b152478f5370c4d28b11fdfab122d171b731b"
          ],
          "data": "0x00000000000000000000000000000000000000000000006c6b935b8bbd400000",
          "blockHash": "0xd69c6f8dd97ca605a5d6c347ba5abaff854675aeebeb5995d081442328a6fa1e",
          "blockNumber": "0x90efc8",
          "blockTimestamp": "0x68fedb68",
          "transactionHash": "0xfa7e45641d2434aa529be68ed5a410054e6ed5d7b282cb1b76e33f0f71033281",
          "transactionIndex": "0x2a",
          "logIndex": "0x59",
          "removed": false
        },
        {
          "address": "0x421b152478f5370c4d28b11fdfab122d171b731b",
          "topics": [
            "0xddf252ad1be2c89b69c2b068fc378daa952ba7f163c4a11628f55a4df523b3ef",
            "0x0000000000000000000000000000000000000000000000000000000000000000",
            "0x000000000000000000000000eff3521fb13228c767ad6dc3b934f9efac9c56ad"
          ],
          "data": "0x00000000000000000000000000000000000000000000000008c6eef49b19125a",
          "blockHash": "0xd69c6f8dd97ca605a5d6c347ba5abaff854675aeebeb5995d081442328a6fa1e",
          "blockNumber": "0x90efc8",
          "blockTimestamp": "0x68fedb68",
          "transactionHash": "0xfa7e45641d2434aa529be68ed5a410054e6ed5d7b282cb1b76e33f0f71033281",
          "transactionIndex": "0x2a",
          "logIndex": "0x5a",
          "removed": false
        },
        {
          "address": "0x421b152478f5370c4d28b11fdfab122d171b731b",
          "topics": [
            "0x1c411e9a96e071241c2f21f7726b17ae89e3cab4c78be50e062b03a9fffbbad1"
          ],
          "data": "0x0000000000000000000000000000000000000000000000000001c6bf5263400000000000000000000000000000000000000000000000010f0cf064dd59200000",
          "blockHash": "0xd69c6f8dd97ca605a5d6c347ba5abaff854675aeebeb5995d081442328a6fa1e",
          "blockNumber": "0x90efc8",
          "blockTimestamp": "0x68fedb68",
          "transactionHash": "0xfa7e45641d2434aa529be68ed5a410054e6ed5d7b282cb1b76e33f0f71033281",
          "transactionIndex": "0x2a",
          "logIndex": "0x5b",
          "removed": false
        },
        {
          "address": "0x421b152478f5370c4d28b11fdfab122d171b731b",
          "topics": [
            "0x4c209b5fc8ad50758f13e2e1088ba56a560dff690a1c6fef26394f4c03821c4f",
            "0x000000000000000000000000ee567fe1712faf6149d80da1e6934e354124cfe3"
          ],
          "data": "0x0000000000000000000000000000000000000000000000000000b5e620f4800000000000000000000000000000000000000000000000006c6b935b8bbd400000",
          "blockHash": "0xd69c6f8dd97ca605a5d6c347ba5abaff854675aeebeb5995d081442328a6fa1e",
          "blockNumber": "0x90efc8",
          "blockTimestamp": "0x68fedb68",
          "transactionHash": "0xfa7e45641d2434aa529be68ed5a410054e6ed5d7b282cb1b76e33f0f71033281",
          "transactionIndex": "0x2a",
          "logIndex": "0x5c",
          "removed": false
        },
        {
          "address": "0xbfd4c35d5dd72deef603dd7edd85b2be9c14e9cd",
          "topics": [
            "0x4a1a2a6176e9646d9e3157f7c2ab3c499f18337c0b0828cfb28e0a61de4a11f7"
          ],
          "data": "0x0000000000000000000000001f9840a85d5af5bf1d1762f925bdaddc4201f9840000000000000000000000006c64e8278b7d5513143d59bf1484b0e6972e45050000000000000000000000000000000000000000000000000000b5e620f4800000000000000000000000000000000000000000000000006c6b935b8bbd40000000000000000000000000000000000000000000000000000008c6eef49b19125a",
          "blockHash": "0xd69c6f8dd97ca605a5d6c347ba5abaff854675aeebeb5995d081442328a6fa1e",
          "blockNumber": "0x90efc8",
          "blockTimestamp": "0x68fedb68",
          "transactionHash": "0xfa7e45641d2434aa529be68ed5a410054e6ed5d7b282cb1b76e33f0f71033281",
          "transactionIndex": "0x2a",
          "logIndex": "0x5d",
          "removed": false
        }
      ],
      "logsBloom": "0x0000000000000000000000008000000002000000000000000000000000000102000080000000000000000200000000100000000800000000000000000820400000000000000000000000000810000000000000000000000000200000000000000a000000020000808000800000000800000000000008000000000010000000000000000000000000000000000000000000000000000000080000000000010000020000000000000000000000000000000000100000000040000000800000180000000002000000000000000000020000000000000010001000000000000028000010000000200000000000000200000000000000000000040080000000000000",
      "type": "0x2",
      "transactionHash": "0xfa7e45641d2434aa529be68ed5a410054e6ed5d7b282cb1b76e33f0f71033281",
      "transactionIndex": "0x2a",
      "blockHash": "0xd69c6f8dd97ca605a5d6c347ba5abaff854675aeebeb5995d081442328a6fa1e",
      "blockNumber": "0x90efc8",
      "gasUsed": "0x33ea1",
      "effectiveGasPrice": "0xf4240",
      "from": "0xeff3521fb13228c767ad6dc3b934f9efac9c56ad",
      "to": "0xbfd4c35d5dd72deef603dd7edd85b2be9c14e9cd",
      "contractAddress": null
    }
  ],
  "libraries": [],
  "pending": [],
  "returns": {},
  "timestamp": 1761532778,
  "chain": 11155111,
  "commit": "b9ab932"
}