{
  "transactions": [
    {
      "hash": "0x006cfd872c16f4acd8a101ed6b4712464e4f164205faa5dac700e3e57038b5ca",
      "transactionType": "CALL",
      "contractName": null,
      "contractAddress": "0x1f9840a85d5af5bf1d1762f925bdaddc4201f984",
      "function": "approve(address,uint256)",
      "arguments": [
        "0x5deB5E322dA6ec413363Aef0399F3A5d24C8c1cB",
        "1128870658976293"
      ],
      "transaction": {
        "from": "0xeff3521fb13228c767ad6dc3b934f9efac9c56ad",
        "to": "0x1f9840a85d5af5bf1d1762f925bdaddc4201f984",
        "gas": "0x10bc8",
        "value": "0x0",
        "input": "0x095ea7b30000000000000000000000005deb5e322da6ec413363aef0399f3a5d24c8c1cb000000000000000000000000000000000000000000000000000402b3aea02a25",
        "nonce": "0xc2",
        "chainId": "0xaa36a7"
      },
      "additionalContracts": [],
      "isFixedGasLimit": false
    },
    {
      "hash": "0xfe7829fb677f7f97ae526a3946c89fe39df6ecf17a0ccd56298e1e73ba63008a",
      "transactionType": "CALL",
      "contractName": null,
      "contractAddress": "0x5deb5e322da6ec413363aef0399f3a5d24c8c1cb",
      "function": "swapTokenForETH(address,uint256)",
      "arguments": [
        "0x1f9840a85d5aF5bf1D1762F925BDADdC4201F984",
        "1128870658976293"
      ],
      "transaction": {
        "from": "0xeff3521fb13228c767ad6dc3b934f9efac9c56ad",
        "to": "0x5deb5e322da6ec413363aef0399f3a5d24c8c1cb",
        "gas": "0x3d435",
        "value": "0x0",
        "input": "0x6a42d9060000000000000000000000001f9840a85d5af5bf1d1762f925bdaddc4201f984000000000000000000000000000000000000000000000000000402b3aea02a25",
        "nonce": "0xc3",
        "chainId": "0xaa36a7"
      },
      "additionalContracts": [],
      "isFixedGasLimit": false
    }
  ],
  "receipts": [
    {
      "status": "0x1",
      "cumulativeGasUsed": "0xdc6493",
      "logs": [
        {
          "address": "0x1f9840a85d5af5bf1d1762f925bdaddc4201f984",
          "topics": [
            "0x8c5be1e5ebec7d5bd14f71427d1e84f3dd0314c0f7b2291e5b200ac8c7c3b925",
            "0x000000000000000000000000eff3521fb13228c767ad6dc3b934f9efac9c56ad",
            "0x0000000000000000000000005deb5e322da6ec413363aef0399f3a5d24c8c1cb"
          ],
          "data": "0x000000000000000000000000000000000000000000000000000402b3aea02a25",
          "blockHash": "0x58b34cdec09fa817352265306e92314edf55bb8ccb6451af1ee5ba37e30f225d",
          "blockNumber": "0x90a442",
          "blockTimestamp": "0x68fb4868",
          "transactionHash": "0x006cfd872c16f4acd8a101ed6b4712464e4f164205faa5dac700e3e57038b5ca",
          "transactionIndex": "0x4e",
          "logIndex": "0x73",
          "removed": false
        }
      ],
      "logsBloom": "0x00000000000000000000000000000000100000000000000000000000000000020000000000000000000000000000001000000000000000000000000000200000000000200000000000000000100000000000000000000000002000000000000008000000000000000000000000000000000000000000000000000000000000000000000000000000000000000000000000000000000000000000000000000000020000000000010000000000000000000000100000000000000000000000000000000000000000000000000000000000000000000000000000000000000000000010000000000000000000000000000000000000000000000000000000000000",
      "type": "0x2",
      "transactionHash": "0x006cfd872c16f4acd8a101ed6b4712464e4f164205faa5dac700e3e57038b5ca",
      "transactionIndex": "0x4e",
      "blockHash": "0x58b34cdec09fa817352265306e92314edf55bb8ccb6451af1ee5ba37e30f225d",
      "blockNumber": "0x90a442",
      "gasUsed": "0xb71a",
      "effectiveGasPrice": "0xf424a",
      "from": "0xeff3521fb13228c767ad6dc3b934f9efac9c56ad",
      "to": "0x1f9840a85d5af5bf1d1762f925bdaddc4201f984",
      "contractAddress": null
    },
    {
      "status": "0x1",
      "cumulativeGasUsed": "0xdf2a3b",
      "logs": [
        {
          "address": "0x1f9840a85d5af5bf1d1762f925bdaddc4201f984",
          "topics": [
            "0x8c5be1e5ebec7d5bd14f71427d1e84f3dd0314c0f7b2291e5b200ac8c7c3b925",
            "0x000000000000000000000000eff3521fb13228c767ad6dc3b934f9efac9c56ad",
            "0x0000000000000000000000005deb5e322da6ec413363aef0399f3a5d24c8c1cb"
          ],
          "data": "0x0000000000000000000000000000000000000000000000000000000000000000",
          "blockHash": "0x58b34cdec09fa817352265306e92314edf55bb8ccb6451af1ee5ba37e30f225d",
          "blockNumber": "0x90a442",
          "blockTimestamp": "0x68fb4868",
          "transactionHash": "0xfe7829fb677f7f97ae526a3946c89fe39df6ecf17a0ccd56298e1e73ba63008a",
          "transactionIndex": "0x4f",
          "logIndex": "0x74",
          "removed": false
        },
        {
          "address": "0x1f9840a85d5af5bf1d1762f925bdaddc4201f984",
          "topics": [
            "0xddf252ad1be2c89b69c2b068fc378daa952ba7f163c4a11628f55a4df523b3ef",
            "0x000000000000000000000000eff3521fb13228c767ad6dc3b934f9efac9c56ad",
            "0x0000000000000000000000005deb5e322da6ec413363aef0399f3a5d24c8c1cb"
          ],
          "data": "0x000000000000000000000000000000000000000000000000000402b3aea02a25",
          "blockHash": "0x58b34cdec09fa817352265306e92314edf55bb8ccb6451af1ee5ba37e30f225d",
          "blockNumber": "0x90a442",
          "blockTimestamp": "0x68fb4868",
          "transactionHash": "0xfe7829fb677f7f97ae526a3946c89fe39df6ecf17a0ccd56298e1e73ba63008a",
          "transactionIndex": "0x4f",
          "logIndex": "0x75",
          "removed": false
        },
        {
          "address": "0x1f9840a85d5af5bf1d1762f925bdaddc4201f984",
          "topics": [
            "0x8c5be1e5ebec7d5bd14f71427d1e84f3dd0314c0f7b2291e5b200ac8c7c3b925",
            "0x0000000000000000000000005deb5e322da6ec413363aef0399f3a5d24c8c1cb",
            "0x000000000000000000000000ee567fe1712faf6149d80da1e6934e354124cfe3"
          ],
          "data": "0x000000000000000000000000000000000000000000000000000402b3aea02a25",
          "blockHash": "0x58b34cdec09fa817352265306e92314edf55bb8ccb6451af1ee5ba37e30f225d",
          "blockNumber": "0x90a442",
          "blockTimestamp": "0x68fb4868",
          "transactionHash": "0xfe7829fb677f7f97ae526a3946c89fe39df6ecf17a0ccd56298e1e73ba63008a",
          "transactionIndex": "0x4f",
          "logIndex": "0x76",
          "removed": false
        },
        {
          "address": "0x1f9840a85d5af5bf1d1762f925bdaddc4201f984",
          "topics": [
            "0x8c5be1e5ebec7d5bd14f71427d1e84f3dd0314c0f7b2291e5b200ac8c7c3b925",
            "0x0000000000000000000000005deb5e322da6ec413363aef0399f3a5d24c8c1cb",
            "0x000000000000000000000000ee567fe1712faf6149d80da1e6934e354124cfe3"
          ],
          "data": "0x0000000000000000000000000000000000000000000000000000000000000000",
          "blockHash": "0x58b34cdec09fa817352265306e92314edf55bb8ccb6451af1ee5ba37e30f225d",
          "blockNumber": "0x90a442",
          "blockTimestamp": "0x68fb4868",
          "transactionHash": "0xfe7829fb677f7f97ae526a3946c89fe39df6ecf17a0ccd56298e1e73ba63008a",
          "transactionIndex": "0x4f",
          "logIndex": "0x77",
          "removed": false
        },
        {
          "address": "0x1f9840a85d5af5bf1d1762f925bdaddc4201f984",
          "topics": [
            "0xddf252ad1be2c89b69c2b068fc378daa952ba7f163c4a11628f55a4df523b3ef",
            "0x0000000000000000000000005deb5e322da6ec413363aef0399f3a5d24c8c1cb",
            "0x000000000000000000000000e8aa2fa3963bad64ff66cfc458fda9f19a8e7024"
          ],
          "data": "0x000000000000000000000000000000000000000000000000000402b3aea02a25",
          "blockHash": "0x58b34cdec09fa817352265306e92314edf55bb8ccb6451af1ee5ba37e30f225d",
          "blockNumber": "0x90a442",
          "blockTimestamp": "0x68fb4868",
          "transactionHash": "0xfe7829fb677f7f97ae526a3946c89fe39df6ecf17a0ccd56298e1e73ba63008a",
          "transactionIndex": "0x4f",
          "logIndex": "0x78",
          "removed": false
        },
        {
          "address": "0xfff9976782d46cc05630d1f6ebab18b2324d6b14",
          "topics": [
            "0xddf252ad1be2c89b69c2b068fc378daa952ba7f163c4a11628f55a4df523b3ef",
            "0x000000000000000000000000e8aa2fa3963bad64ff66cfc458fda9f19a8e7024",
            "0x000000000000000000000000ee567fe1712faf6149d80da1e6934e354124cfe3"
          ],
          "data": "0x0000000000000000000000000000000000000000000000000069f2cdf1971ac7",
          "blockHash": "0x58b34cdec09fa817352265306e92314edf55bb8ccb6451af1ee5ba37e30f225d",
          "blockNumber": "0x90a442",
          "blockTimestamp": "0x68fb4868",
          "transactionHash": "0xfe7829fb677f7f97ae526a3946c89fe39df6ecf17a0ccd56298e1e73ba63008a",
          "transactionIndex": "0x4f",
          "logIndex": "0x79",
          "removed": false
        },
        {
          "address": "0xe8aa2fa3963bad64ff66cfc458fda9f19a8e7024",
          "topics": [
            "0x1c411e9a96e071241c2f21f7726b17ae89e3cab4c78be50e062b03a9fffbbad1"
          ],
          "data": "0x000000000000000000000000000000000000000000000000017dfa538006fb5f000000000000000000000000000000000000000000000000271ef624efc2db96",
          "blockHash": "0x58b34cdec09fa817352265306e92314edf55bb8ccb6451af1ee5ba37e30f225d",
          "blockNumber": "0x90a442",
          "blockTimestamp": "0x68fb4868",
          "transactionHash": "0xfe7829fb677f7f97ae526a3946c89fe39df6ecf17a0ccd56298e1e73ba63008a",
          "transactionIndex": "0x4f",
          "logIndex": "0x7a",
          "removed": false
        },
        {
          "address": "0xe8aa2fa3963bad64ff66cfc458fda9f19a8e7024",
          "topics": [
            "0xd78ad95fa46c994b6551d0da85fc275fe613ce37657fb8d5e3d130840159d822",
            "0x000000000000000000000000ee567fe1712faf6149d80da1e6934e354124cfe3",
            "0x000000000000000000000000ee567fe1712faf6149d80da1e6934e354124cfe3"
          ],
          "data": "0x000000000000000000000000000000000000000000000000000402b3aea02a25000000000000000000000000000000000000000000000000000000000000000000000000000000000000000000000000000000000000000000000000000000000000000000000000000000000000000000000000000000000069f2cdf1971ac7",
          "blockHash": "0x58b34cdec09fa817352265306e92314edf55bb8ccb6451af1ee5ba37e30f225d",
          "blockNumber": "0x90a442",
          "blockTimestamp": "0x68fb4868",
          "transactionHash": "0xfe7829fb677f7f97ae526a3946c89fe39df6ecf17a0ccd56298e1e73ba63008a",
          "transactionIndex": "0x4f",
          "logIndex": "0x7b",
          "removed": false
        },
        {
          "address": "0xfff9976782d46cc05630d1f6ebab18b2324d6b14",
          "topics": [
            "0x7fcf532c15f0a6db0bd6d0e038bea71d30d808c7d98cb3bf7268a95bf5081b65",
            "0x000000000000000000000000ee567fe1712faf6149d80da1e6934e354124cfe3"
          ],
          "data": "0x0000000000000000000000000000000000000000000000000069f2cdf1971ac7",
          "blockHash": "0x58b34cdec09fa817352265306e92314edf55bb8ccb6451af1ee5ba37e30f225d",
          "blockNumber": "0x90a442",
          "blockTimestamp": "0x68fb4868",
          "transactionHash": "0xfe7829fb677f7f97ae526a3946c89fe39df6ecf17a0ccd56298e1e73ba63008a",
          "transactionIndex": "0x4f",
          "logIndex": "0x7c",
          "removed": false
        },
        {
          "address": "0x5deb5e322da6ec413363aef0399f3a5d24c8c1cb",
          "topics": [
            "0x6782190c91d4a7e8ad2a867deed6ec0a970cab8ff137ae2bd4abd92b3810f4d3",
            "0x000000000000000000000000eff3521fb13228c767ad6dc3b934f9efac9c56ad"
          ],
          "data": "0x0000000000000000000000001f9840a85d5af5bf1d1762f925bdaddc4201f9840000000000000000000000000000000000000000000000000000000000000000000000000000000000000000000000000000000000000000000402b3aea02a250000000000000000000000000000000000000000000000000069f2cdf1971ac7",
          "blockHash": "0x58b34cdec09fa817352265306e92314edf55bb8ccb6451af1ee5ba37e30f225d",
          "blockNumber": "0x90a442",
          "blockTimestamp": "0x68fb4868",
          "transactionHash": "0xfe7829fb677f7f97ae526a3946c89fe39df6ecf17a0ccd56298e1e73ba63008a",
          "transactionIndex": "0x4f",
          "logIndex": "0x7d",
          "removed": false
        }
      ],
      "logsBloom": "0x00200000000000000000000080000008100000000100000800000000000000020400000000000000000000000000001000000000000000000000000048200000000000200000000000000008100000200000000000400000002000000000000008000000000000000008000000000000000000000000040000000010002000000040000000000000000000002000000000000000001000080000004000000000020020000000010000000000000000000000100000040000000000800000000000000002000000000002100000000000000000000000001000000002000000000010002000000000000000000000000000000000000000000080000000000000",
      "type": "0x2",
      "transactionHash": "0xfe7829fb677f7f97ae526a3946c89fe39df6ecf17a0ccd56298e1e73ba63008a",
      "transactionIndex": "0x4f",
      "blockHash": "0x58b34cdec09fa817352265306e92314edf55bb8ccb6451af1ee5ba37e30f225d",
      "blockNumber": "0x90a442",
      "gasUsed": "0x2c5a8",
      "effectiveGasPrice": "0xf424a",
      "from": "0xeff3521fb13228c767ad6dc3b934f9efac9c56ad",
      "to": "0x5deb5e322da6ec413363aef0399f3a5d24c8c1cb",
      "contractAddress": null
    }
  ],
  "libraries": [],
  "pending": [],
  "returns": {},
  "timestamp": 1761298538,
  "chain": 11155111,
  "commit": null
}