{
  "transactions": [
    {
      "hash": "0xe639b613d064dfb6fb321a261bc631a084eb880b9179f13008acf3152eff327b",
      "transactionType": "CALL",
      "contractName": null,
      "contractAddress": "0x0a672fd301bc5a3efbbe56682a65254a2c135679",
      "function": "approve(address,uint256)",
      "arguments": [
        "0xbFd4c35D5dD72dEEf603Dd7EdD85B2BE9C14e9Cd",
        "2499999999999999500"
      ],
      "transaction": {
        "from": "0xeff3521fb13228c767ad6dc3b934f9efac9c56ad",
        "to": "0x0a672fd301bc5a3efbbe56682a65254a2c135679",
        "gas": "0x1075a",
        "value": "0x0",
        "input": "0x095ea7b3000000000000000000000000bfd4c35d5dd72deef603dd7edd85b2be9c14e9cd00000000000000000000000000000000000000000000000022b1c8c12279fe0c",
        "nonce": "0x100",
        "chainId": "0xaa36a7"
      },
      "additionalContracts": [],
      "isFixedGasLimit": false
    },
    {
      "hash": "0x63b3d5ee93579dd25bcf0095bc13d613be9808d17f489217b187e4be757ff971",
      "transactionType": "CALL",
      "contractName": null,
      "contractAddress": "0xbfd4c35d5dd72deef603dd7edd85b2be9c14e9cd",
      "function": "removeLiquidityETH(address,uint256)",
      "arguments": [
        "0x0E1Efea9F52f99bAAC1ca663D41119C037258D54",
        "2499999999999999500"
      ],
      "transaction": {
        "from": "0xeff3521fb13228c767ad6dc3b934f9efac9c56ad",
        "to": "0xbfd4c35d5dd72deef603dd7edd85b2be9c14e9cd",
        "gas": "0x4db74",
        "value": "0x0",
        "input": "0x129bd67a0000000000000000000000000e1efea9f52f99baac1ca663d41119c037258d5400000000000000000000000000000000000000000000000022b1c8c12279fe0c",
        "nonce": "0x101",
        "chainId": "0xaa36a7"
      },
      "additionalContracts": [],
      "isFixedGasLimit": false
    }
  ],
  "receipts": [
    {
      "status": "0x1",
      "cumulativeGasUsed": "0x2f3aaf",
      "logs": [
        {
          "address": "0x0a672fd301bc5a3efbbe56682a65254a2c135679",
          "topics": [
            "0x8c5be1e5ebec7d5bd14f71427d1e84f3dd0314c0f7b2291e5b200ac8c7c3b925",
            "0x000000000000000000000000eff3521fb13228c767ad6dc3b934f9efac9c56ad",
            "0x000000000000000000000000bfd4c35d5dd72deef603dd7edd85b2be9c14e9cd"
          ],
          "data": "0x00000000000000000000000000000000000000000000000022b1c8c12279fe0c",
          "blockHash": "0x4bfe2cf85121c20fbaec940bff83b8da9ba97c0932d69850e88c615726e1e93f",
          "blockNumber": "0x90f164",
          "blockTimestamp": "0x68feeeb8",
          "transactionHash": "0xe639b613d064dfb6fb321a261bc631a084eb880b9179f13008acf3152eff327b",
          "transactionIndex": "0x25",
          "logIndex": "0x34",
          "removed": false
        }
      ],
      "logsBloom": "0x00000000000000000000000000000000000000000000000000000000000000020000000000000000000000000000000000000000000000000000000000200000000000000000000000000000000000000000000000000000002000000080000000000000000000800000000000000000000000000000000000000000000000000000000000000000000000000000000000000000000000000000000000000000020000000000000000000000000000000000100000000000000000000000000000000000000000000000000000000000000000000000000010800000000000000010000000200000000000000200000000000000000000000000000000000000",
      "type": "0x2",
      "transactionHash": "0xe639b613d064dfb6fb321a261bc631a084eb880b9179f13008acf3152eff327b",
      "transactionIndex": "0x25",
      "blockHash": "0x4bfe2cf85121c20fbaec940bff83b8da9ba97c0932d69850e88c615726e1e93f",
      "blockNumber": "0x90f164",
      "gasUsed": "0xb412",
      "effectiveGasPrice": "0xf424d",
      "from": "0xeff3521fb13228c767ad6dc3b934f9efac9c56ad",
      "to": "0x0a672fd301bc5a3efbbe56682a65254a2c135679",
      "contractAddress": null
    },
    {
      "status": "0x1",
      "cumulativeGasUsed": "0x328ce9",
      "logs": [
        {
          "address": "0x0a672fd301bc5a3efbbe56682a65254a2c135679",
          "topics": [
            "0xddf252ad1be2c89b69c2b068fc378daa952ba7f163c4a11628f55a4df523b3ef",
            "0x000000000000000000000000eff3521fb13228c767ad6dc3b934f9efac9c56ad",
            "0x000000000000000000000000bfd4c35d5dd72deef603dd7edd85b2be9c14e9cd"
          ],
          "data": "0x00000000000000000000000000000000000000000000000022b1c8c12279fe0c",
          "blockHash": "0x4bfe2cf85121c20fbaec940bff83b8da9ba97c0932d69850e88c615726e1e93f",
          "blockNumber": "0x90f164",
          "blockTimestamp": "0x68feeeb8",
          "transactionHash": "0x63b3d5ee93579dd25bcf0095bc13d613be9808d17f489217b187e4be757ff971",
          "transactionIndex": "0x26",
          "logIndex": "0x35",
          "removed": false
        },
        {
          "address": "0x0a672fd301bc5a3efbbe56682a65254a2c135679",
          "topics": [
            "0x8c5be1e5ebec7d5bd14f71427d1e84f3dd0314c0f7b2291e5b200ac8c7c3b925",
            "0x000000000000000000000000bfd4c35d5dd72deef603dd7edd85b2be9c14e9cd",
            "0x000000000000000000000000ee567fe1712faf6149d80da1e6934e354124cfe3"
          ],
          "data": "0x00000000000000000000000000000000000000000000000022b1c8c12279fe0c",
          "blockHash": "0x4bfe2cf85121c20fbaec940bff83b8da9ba97c0932d69850e88c615726e1e93f",
          "blockNumber": "0x90f164",
          "blockTimestamp": "0x68feeeb8",
          "transactionHash": "0x63b3d5ee93579dd25bcf0095bc13d613be9808d17f489217b187e4be757ff971",
          "transactionIndex": "0x26",
          "logIndex": "0x36",
          "removed": false
        },
        {
          "address": "0x0a672fd301bc5a3efbbe56682a65254a2c135679",
          "topics": [
            "0xddf252ad1be2c89b69c2b068fc378daa952ba7f163c4a11628f55a4df523b3ef",
            "0x000000000000000000000000bfd4c35d5dd72deef603dd7edd85b2be9c14e9cd",
            "0x0000000000000000000000000a672fd301bc5a3efbbe56682a65254a2c135679"
          ],
          "data": "0x00000000000000000000000000000000000000000000000022b1c8c12279fe0c",
          "blockHash": "0x4bfe2cf85121c20fbaec940bff83b8da9ba97c0932d69850e88c615726e1e93f",
          "blockNumber": "0x90f164",
          "blockTimestamp": "0x68feeeb8",
          "transactionHash": "0x63b3d5ee93579dd25bcf0095bc13d613be9808d17f489217b187e4be757ff971",
          "transactionIndex": "0x26",
          "logIndex": "0x37",
          "removed": false
        },
        {
          "address": "0x0a672fd301bc5a3efbbe56682a65254a2c135679",
          "topics": [
            "0xddf252ad1be2c89b69c2b068fc378daa952ba7f163c4a11628f55a4df523b3ef",
            "0x0000000000000000000000000a672fd301bc5a3efbbe56682a65254a2c135679",
            "0x0000000000000000000000000000000000000000000000000000000000000000"
          ],
          "data": "0x00000000000000000000000000000000000000000000000022b1c8c12279fe0c",
          "blockHash": "0x4bfe2cf85121c20fbaec940bff83b8da9ba97c0932d69850e88c615726e1e93f",
          "blockNumber": "0x90f164",
          "blockTimestamp": "0x68feeeb8",
          "transactionHash": "0x63b3d5ee93579dd25bcf0095bc13d613be9808d17f489217b187e4be757ff971",
          "transactionIndex": "0x26",
          "logIndex": "0x38",
          "removed": false
        },
        {
          "address": "0x0e1efea9f52f99baac1ca663d41119c037258d54",
          "topics": [
            "0xddf252ad1be2c89b69c2b068fc378daa952ba7f163c4a11628f55a4df523b3ef",
            "0x0000000000000000000000000a672fd301bc5a3efbbe56682a65254a2c135679",
            "0x000000000000000000000000ee567fe1712faf6149d80da1e6934e354124cfe3"
          ],
          "data": "0x0000000000000000000000000000000000000000000000878678326eac885ee0",
          "blockHash": "0x4bfe2cf85121c20fbaec940bff83b8da9ba97c0932d69850e88c615726e1e93f",
          "blockNumber": "0x90f164",
          "blockTimestamp": "0x68feeeb8",
          "transactionHash": "0x63b3d5ee93579dd25bcf0095bc13d613be9808d17f489217b187e4be757ff971",
          "transactionIndex": "0x26",
          "logIndex": "0x39",
          "removed": false
        },
        {
          "address": "0xfff9976782d46cc05630d1f6ebab18b2324d6b14",
          "topics": [
            "0xddf252ad1be2c89b69c2b068fc378daa952ba7f163c4a11628f55a4df523b3ef",
            "0x0000000000000000000000000a672fd301bc5a3efbbe56682a65254a2c135679",
            "0x000000000000000000000000ee567fe1712faf6149d80da1e6934e354124cfe3"
          ],
          "data": "0x0000000000000000000000000000000000000000000000000008e1bc9bf03fff",
          "blockHash": "0x4bfe2cf85121c20fbaec940bff83b8da9ba97c0932d69850e88c615726e1e93f",
          "blockNumber": "0x90f164",
          "blockTimestamp": "0x68feeeb8",
          "transactionHash": "0x63b3d5ee93579dd25bcf0095bc13d613be9808d17f489217b187e4be757ff971",
          "transactionIndex": "0x26",
          "logIndex": "0x3a",
          "removed": false
        },
        {
          "address": "0x0a672fd301bc5a3efbbe56682a65254a2c135679",
          "topics": [
            "0x1c411e9a96e071241c2f21f7726b17ae89e3cab4c78be50e062b03a9fffbbad1"
          ],
          "data": "0x00000000000000000000000000000000000000000000000000000000000f42400000000000000000000000000000000000000000000000000000000000000002",
          "blockHash": "0x4bfe2cf85121c20fbaec940bff83b8da9ba97c0932d69850e88c615726e1e93f",
          "blockNumber": "0x90f164",
          "blockTimestamp": "0x68feeeb8",
          "transactionHash": "0x63b3d5ee93579dd25bcf0095bc13d613be9808d17f489217b187e4be757ff971",
          "transactionIndex": "0x26",
          "logIndex": "0x3b",
          "removed": false
        },
        {
          "address": "0x0a672fd301bc5a3efbbe56682a65254a2c135679",
          "topics": [
            "0xdccd412f0b1252819cb1fd330b93224ca42612892bb3f4f789976e6d81936496",
            "0x000000000000000000000000ee567fe1712faf6149d80da1e6934e354124cfe3",
            "0x000000000000000000000000ee567fe1712faf6149d80da1e6934e354124cfe3"
          ],
          "data": "0x0000000000000000000000000000000000000000000000878678326eac885ee00000000000000000000000000000000000000000000000000008e1bc9bf03fff",
          "blockHash": "0x4bfe2cf85121c20fbaec940bff83b8da9ba97c0932d69850e88c615726e1e93f",
          "blockNumber": "0x90f164",
          "blockTimestamp": "0x68feeeb8",
          "transactionHash": "0x63b3d5ee93579dd25bcf0095bc13d613be9808d17f489217b187e4be757ff971",
          "transactionIndex": "0x26",
          "logIndex": "0x3c",
          "removed": false
        },
        {
          "address": "0x0e1efea9f52f99baac1ca663d41119c037258d54",
          "topics": [
            "0xddf252ad1be2c89b69c2b068fc378daa952ba7f163c4a11628f55a4df523b3ef",
            "0x000000000000000000000000ee567fe1712faf6149d80da1e6934e354124cfe3",
            "0x000000000000000000000000eff3521fb13228c767ad6dc3b934f9efac9c56ad"
          ],
          "data": "0x0000000000000000000000000000000000000000000000878678326eac885ee0",
          "blockHash": "0x4bfe2cf85121c20fbaec940bff83b8da9ba97c0932d69850e88c615726e1e93f",
          "blockNumber": "0x90f164",
          "blockTimestamp": "0x68feeeb8",
          "transactionHash": "0x63b3d5ee93579dd25bcf0095bc13d613be9808d17f489217b187e4be757ff971",
          "transactionIndex": "0x26",
          "logIndex": "0x3d",
          "removed": false
        },
        {
          "address": "0xfff9976782d46cc05630d1f6ebab18b2324d6b14",
          "topics": [
            "0x7fcf532c15f0a6db0bd6d0e038bea71d30d808c7d98cb3bf7268a95bf5081b65",
            "0x000000000000000000000000ee567fe1712faf6149d80da1e6934e354124cfe3"
          ],
          "data": "0x0000000000000000000000000000000000000000000000000008e1bc9bf03fff",
          "blockHash": "0x4bfe2cf85121c20fbaec940bff83b8da9ba97c0932d69850e88c615726e1e93f",
          "blockNumber": "0x90f164",
          "blockTimestamp": "0x68feeeb8",
          "transactionHash": "0x63b3d5ee93579dd25bcf0095bc13d613be9808d17f489217b187e4be757ff971",
          "transactionIndex": "0x26",
          "logIndex": "0x3e",
          "removed": false
        }
      ],
      "logsBloom": "0x00000100000000000000000080000000000000000000000000000000000000020000000000020000000000000000000000000000000000000000000008200000000000000000002000000008000000000000000000400000002000000080000000000004020000800000000000000800000000000000040000000010000000000040000000000000000000000000080000000000000000080000000000000000020020000000004000000000000000000000100000000000000000800000000000000002000000000002000000000004000000000000001210800002000020000010000000200000000000000200000000000000000000000080000000400000",
      "type": "0x2",
      "transactionHash": "0x63b3d5ee93579dd25bcf0095bc13d613be9808d17f489217b187e4be757ff971",
      "transactionIndex": "0x26",
      "blockHash": "0x4bfe2cf85121c20fbaec940bff83b8da9ba97c0932d69850e88c615726e1e93f",
      "blockNumber": "0x90f164",
      "gasUsed": "0x3523a",
      "effectiveGasPrice": "0xf424d",
      "from": "0xeff3521fb13228c767ad6dc3b934f9efac9c56ad",
      "to": "0xbfd4c35d5dd72deef603dd7edd85b2be9c14e9cd",
      "contractAddress": null
    }
  ],
  "libraries": [],
  "pending": [],
  "returns": {},
  "timestamp": 1761537723,
  "chain": 11155111,
  "commit": "b9ab932"
}