{
  "transactions": [
    {
      "hash": "0xd7b6861b6eb468603f540d377800f9728453b5fc40c1130faa5463964014ad3c",
      "transactionType": "CALL",
      "contractName": null,
      "contractAddress": "0xf19ef33379cfcc00648db052be5a22c93d08c6d4",
      "function": "approve(address,uint256)",
      "arguments": [
        "0xbFd4c35D5dD72dEEf603Dd7EdD85B2BE9C14e9Cd",
        "3794733192202054196"
      ],
      "transaction": {
        "from": "0xeff3521fb13228c767ad6dc3b934f9efac9c56ad",
        "to": "0xf19ef33379cfcc00648db052be5a22c93d08c6d4",
        "gas": "0x1075a",
        "value": "0x0",
        "input": "0x095ea7b3000000000000000000000000bfd4c35d5dd72deef603dd7edd85b2be9c14e9cd00000000000000000000000000000000000000000000000034a999bba2966a34",
        "nonce": "0x102",
        "chainId": "0xaa36a7"
      },
      "additionalContracts": [],
      "isFixedGasLimit": false
    },
    {
      "hash": "0x518f2c42f9decb1c008e2f7cafb3986a4f8dce39ac96135d157389e4ca089b49",
      "transactionType": "CALL",
      "contractName": null,
      "contractAddress": "0xbfd4c35d5dd72deef603dd7edd85b2be9c14e9cd",
      "function": "removeLiquidityETH(address,uint256)",
      "arguments": [
        "0x6c64E8278B7d5513143D59Bf1484B0e6972e4505",
        "3794733192202054196"
      ],
      "transaction": {
        "from": "0xeff3521fb13228c767ad6dc3b934f9efac9c56ad",
        "to": "0xbfd4c35d5dd72deef603dd7edd85b2be9c14e9cd",
        "gas": "0x4e32d",
        "value": "0x0",
        "input": "0x129bd67a0000000000000000000000006c64e8278b7d5513143d59bf1484b0e6972e450500000000000000000000000000000000000000000000000034a999bba2966a34",
        "nonce": "0x103",
        "chainId": "0xaa36a7"
      },
      "additionalContracts": [],
      "isFixedGasLimit": false
    }
  ],
  "receipts": [
    {
      "status": "0x1",
      "cumulativeGasUsed": "0x3851836",
      "logs": [
        {
          "address": "0xf19ef33379cfcc00648db052be5a22c93d08c6d4",
          "topics": [
            "0x8c5be1e5ebec7d5bd14f71427d1e84f3dd0314c0f7b2291e5b200ac8c7c3b925",
            "0x000000000000000000000000eff3521fb13228c767ad6dc3b934f9efac9c56ad",
            "0x000000000000000000000000bfd4c35d5dd72deef603dd7edd85b2be9c14e9cd"
          ],
          "data": "0x00000000000000000000000000000000000000000000000034a999bba2966a34",
          "blockHash": "0xc5eb7ef752c0dec588a617e751a1540b0cf0af80f5c208811677ec4428178028",
          "blockNumber": "0x90f179",
          "blockTimestamp": "0x68feefb4",
          "transactionHash": "0xd7b6861b6eb468603f540d377800f9728453b5fc40c1130faa5463964014ad3c",
          "transactionIndex": "0x66",
          "logIndex": "0xb6",
          "removed": false
        }
      ],
      "logsBloom": "0x00000000000000000000000000000000000000000000000000000000000000020000000000000000000000000000000000000000000000000000000000200000000000000000000000000000000000000800000000000000002000000000000000000000000000800000000000000000000000000000000000000000000000000000000004000000000000000000000000000000000000000100000000000000020000000000000000000000000000000000100000000000000000000000000000000000000000000000000000000000000000000000000000000000000000000010000000200000000000000200000000000000000000000000000000000000",
      "type": "0x2",
      "transactionHash": "0xd7b6861b6eb468603f540d377800f9728453b5fc40c1130faa5463964014ad3c",
      "transactionIndex": "0x66",
      "blockHash": "0xc5eb7ef752c0dec588a617e751a1540b0cf0af80f5c208811677ec4428178028",
      "blockNumber": "0x90f179",
      "gasUsed": "0xb412",
      "effectiveGasPrice": "0xf424d",
      "from": "0xeff3521fb13228c767ad6dc3b934f9efac9c56ad",
      "to": "0xf19ef33379cfcc00648db052be5a22c93d08c6d4",
      "contractAddress": null
    },
    {
      "status": "0x1",
      "cumulativeGasUsed": "0x3886fb8",
      "logs": [
        {
          "address": "0xf19ef33379cfcc00648db052be5a22c93d08c6d4",
          "topics": [
            "0xddf252ad1be2c89b69c2b068fc378daa952ba7f163c4a11628f55a4df523b3ef",
            "0x000000000000000000000000eff3521fb13228c767ad6dc3b934f9efac9c56ad",
            "0x000000000000000000000000bfd4c35d5dd72deef603dd7edd85b2be9c14e9cd"
          ],
          "data": "0x00000000000000000000000000000000000000000000000034a999bba2966a34",
          "blockHash": "0xc5eb7ef752c0dec588a617e751a1540b0cf0af80f5c208811677ec4428178028",
          "blockNumber": "0x90f179",
          "blockTimestamp": "0x68feefb4",
          "transactionHash": "0x518f2c42f9decb1c008e2f7cafb3986a4f8dce39ac96135d157389e4ca089b49",
          "transactionIndex": "0x67",
          "logIndex": "0xb7",
          "removed": false
        },
        {
          "address": "0xf19ef33379cfcc00648db052be5a22c93d08c6d4",
          "topics": [
            "0x8c5be1e5ebec7d5bd14f71427d1e84f3dd0314c0f7b2291e5b200ac8c7c3b925",
            "0x000000000000000000000000bfd4c35d5dd72deef603dd7edd85b2be9c14e9cd",
            "0x000000000000000000000000ee567fe1712faf6149d80da1e6934e354124cfe3"
          ],
          "data": "0x00000000000000000000000000000000000000000000000034a999bba2966a34",
          "blockHash": "0xc5eb7ef752c0dec588a617e751a1540b0cf0af80f5c208811677ec4428178028",
          "blockNumber": "0x90f179",
          "blockTimestamp": "0x68feefb4",
          "transactionHash": "0x518f2c42f9decb1c008e2f7cafb3986a4f8dce39ac96135d157389e4ca089b49",
          "transactionIndex": "0x67",
          "logIndex": "0xb8",
          "removed": false
        },
        {
          "address": "0xf19ef33379cfcc00648db052be5a22c93d08c6d4",
          "topics": [
            "0xddf252ad1be2c89b69c2b068fc378daa952ba7f163c4a11628f55a4df523b3ef",
            "0x000000000000000000000000bfd4c35d5dd72deef603dd7edd85b2be9c14e9cd",
            "0x000000000000000000000000f19ef33379cfcc00648db052be5a22c93d08c6d4"
          ],
          "data": "0x00000000000000000000000000000000000000000000000034a999bba2966a34",
          "blockHash": "0xc5eb7ef752c0dec588a617e751a1540b0cf0af80f5c208811677ec4428178028",
          "blockNumber": "0x90f179",
          "blockTimestamp": "0x68feefb4",
          "transactionHash": "0x518f2c42f9decb1c008e2f7cafb3986a4f8dce39ac96135d157389e4ca089b49",
          "transactionIndex": "0x67",
          "logIndex": "0xb9",
          "removed": false
        },
        {
          "address": "0xf19ef33379cfcc00648db052be5a22c93d08c6d4",
          "topics": [
            "0xddf252ad1be2c89b69c2b068fc378daa952ba7f163c4a11628f55a4df523b3ef",
            "0x000000000000000000000000f19ef33379cfcc00648db052be5a22c93d08c6d4",
            "0x0000000000000000000000000000000000000000000000000000000000000000"
          ],
          "data": "0x00000000000000000000000000000000000000000000000034a999bba2966a34",
          "blockHash": "0xc5eb7ef752c0dec588a617e751a1540b0cf0af80f5c208811677ec4428178028",
          "blockNumber": "0x90f179",
          "blockTimestamp": "0x68feefb4",
          "transactionHash": "0x518f2c42f9decb1c008e2f7cafb3986a4f8dce39ac96135d157389e4ca089b49",
          "transactionIndex": "0x67",
          "logIndex": "0xba",
          "removed": false
        },
        {
          "address": "0x6c64e8278b7d5513143d59bf1484b0e6972e4505",
          "topics": [
            "0xddf252ad1be2c89b69c2b068fc378daa952ba7f163c4a11628f55a4df523b3ef",
            "0x000000000000000000000000f19ef33379cfcc00648db052be5a22c93d08c6d4",
            "0x000000000000000000000000ee567fe1712faf6149d80da1e6934e354124cfe3"
          ],
          "data": "0x00000000000000000000000000000000000000000000028a857425466f4fbf5a",
          "blockHash": "0xc5eb7ef752c0dec588a617e751a1540b0cf0af80f5c208811677ec4428178028",
          "blockNumber": "0x90f179",
          "blockTimestamp": "0x68feefb4",
          "transactionHash": "0x518f2c42f9decb1c008e2f7cafb3986a4f8dce39ac96135d157389e4ca089b49",
          "transactionIndex": "0x67",
          "logIndex": "0xbb",
          "removed": false
        },
        {
          "address": "0xfff9976782d46cc05630d1f6ebab18b2324d6b14",
          "topics": [
            "0xddf252ad1be2c89b69c2b068fc378daa952ba7f163c4a11628f55a4df523b3ef",
            "0x000000000000000000000000f19ef33379cfcc00648db052be5a22c93d08c6d4",
            "0x000000000000000000000000ee567fe1712faf6149d80da1e6934e354124cfe3"
          ],
          "data": "0x00000000000000000000000000000000000000000000000000044364c5baffff",
          "blockHash": "0xc5eb7ef752c0dec588a617e751a1540b0cf0af80f5c208811677ec4428178028",
          "blockNumber": "0x90f179",
          "blockTimestamp": "0x68feefb4",
          "transactionHash": "0x518f2c42f9decb1c008e2f7cafb3986a4f8dce39ac96135d157389e4ca089b49",
          "transactionIndex": "0x67",
          "logIndex": "0xbc",
          "removed": false
        },
        {
          "address": "0xf19ef33379cfcc00648db052be5a22c93d08c6d4",
          "topics": [
            "0x1c411e9a96e071241c2f21f7726b17ae89e3cab4c78be50e062b03a9fffbbad1"
          ],
          "data": "0x00000000000000000000000000000000000000000000000000000000003040a60000000000000000000000000000000000000000000000000000000000000001",
          "blockHash": "0xc5eb7ef752c0dec588a617e751a1540b0cf0af80f5c208811677ec4428178028",
          "blockNumber": "0x90f179",
          "blockTimestamp": "0x68feefb4",
          "transactionHash": "0x518f2c42f9decb1c008e2f7cafb3986a4f8dce39ac96135d157389e4ca089b49",
          "transactionIndex": "0x67",
          "logIndex": "0xbd",
          "removed": false
        },
        {
          "address": "0xf19ef33379cfcc00648db052be5a22c93d08c6d4",
          "topics": [
            "0xdccd412f0b1252819cb1fd330b93224ca42612892bb3f4f789976e6d81936496",
            "0x000000000000000000000000ee567fe1712faf6149d80da1e6934e354124cfe3",
            "0x000000000000000000000000ee567fe1712faf6149d80da1e6934e354124cfe3"
          ],
          "data": "0x00000000000000000000000000000000000000000000028a857425466f4fbf5a00000000000000000000000000000000000000000000000000044364c5baffff",
          "blockHash": "0xc5eb7ef752c0dec588a617e751a1540b0cf0af80f5c208811677ec4428178028",
          "blockNumber": "0x90f179",
          "blockTimestamp": "0x68feefb4",
          "transactionHash": "0x518f2c42f9decb1c008e2f7cafb3986a4f8dce39ac96135d157389e4ca089b49",
          "transactionIndex": "0x67",
          "logIndex": "0xbe",
          "removed": false
        },
        {
          "address": "0x6c64e8278b7d5513143d59bf1484b0e6972e4505",
          "topics": [
            "0xddf252ad1be2c89b69c2b068fc378daa952ba7f163c4a11628f55a4df523b3ef",
            "0x000000000000000000000000ee567fe1712faf6149d80da1e6934e354124cfe3",
            "0x000000000000000000000000eff3521fb13228c767ad6dc3b934f9efac9c56ad"
          ],
          "data": "0x00000000000000000000000000000000000000000000028a857425466f4fbf5a",
          "blockHash": "0xc5eb7ef752c0dec588a617e751a1540b0cf0af80f5c208811677ec4428178028",
          "blockNumber": "0x90f179",
          "blockTimestamp": "0x68feefb4",
          "transactionHash": "0x518f2c42f9decb1c008e2f7cafb3986a4f8dce39ac96135d157389e4ca089b49",
          "transactionIndex": "0x67",
          "logIndex": "0xbf",
          "removed": false
        },
        {
          "address": "0xfff9976782d46cc05630d1f6ebab18b2324d6b14",
          "topics": [
            "0x7fcf532c15f0a6db0bd6d0e038bea71d30d808c7d98cb3bf7268a95bf5081b65",
            "0x000000000000000000000000ee567fe1712faf6149d80da1e6934e354124cfe3"
          ],
          "data": "0x00000000000000000000000000000000000000000000000000044364c5baffff",
          "blockHash": "0xc5eb7ef752c0dec588a617e751a1540b0cf0af80f5c208811677ec4428178028",
          "blockNumber": "0x90f179",
          "blockTimestamp": "0x68feefb4",
          "transactionHash": "0x518f2c42f9decb1c008e2f7cafb3986a4f8dce39ac96135d157389e4ca089b49",
          "transactionIndex": "0x67",
          "logIndex": "0xc0",
          "removed": false
        }
      ],
      "logsBloom": "0x00000000000000000000000080000000000000000000000000000000000000020000000000000000000000000000000000000000000000000000000008200000000000000000000000000048000000000800000000400000002000000000000000000004020000800040000000000800000000000000040000000010000000000040000004000000000000000000480000000000000000080100000000000000020020000000004000000000000000000000100000000040000000800000100000000002000000000002000000000000000000000010001000000002000020000010000000200000000000000200000000000000000000000080000000000000",
      "type": "0x2",
      "transactionHash": "0x518f2c42f9decb1c008e2f7cafb3986a4f8dce39ac96135d157389e4ca089b49",
      "transactionIndex": "0x67",
      "blockHash": "0xc5eb7ef752c0dec588a617e751a1540b0cf0af80f5c208811677ec4428178028",
      "blockNumber": "0x90f179",
      "gasUsed": "0x35782",
      "effectiveGasPrice": "0xf424d",
      "from": "0xeff3521fb13228c767ad6dc3b934f9efac9c56ad",
      "to": "0xbfd4c35d5dd72deef603dd7edd85b2be9c14e9cd",
      "contractAddress": null
    }
  ],
  "libraries": [],
  "pending": [],
  "returns": {},
  "timestamp": 1761537974,
  "chain": 11155111,
  "commit": "b9ab932"
}