{
  "transactions": [
    {
      "hash": "0x6edb0f732ec0c9f9d6fca8cd5c9bf3b9bf584d6d0f023913c33335d5118d2c49",
      "transactionType": "CALL",
      "contractName": null,
      "contractAddress": "0x284af8b3d00dbbafa46c93633b365d4291e8bd74",
      "function": "swapETHForToken(address)",
      "arguments": [
        "0x1c7D4B196Cb0C7B01d743Fbc6116a902379C7238"
      ],
      "transaction": {
        "from": "0xeff3521fb13228c767ad6dc3b934f9efac9c56ad",
        "to": "0x284af8b3d00dbbafa46c93633b365d4291e8bd74",
        "gas": "0x36b0e",
        "value": "0xb1a2bc2ec50000",
        "input": "0x8a4c10d60000000000000000000000001c7d4b196cb0c7b01d743fbc6116a902379c7238",
        "nonce": "0x149",
        "chainId": "0xaa36a7"
      },
      "additionalContracts": [],
      "isFixedGasLimit": false
    }
  ],
  "receipts": [
    {
      "status": "0x1",
      "cumulativeGasUsed": "0x65f0de",
      "logs": [
        {
          "address": "0xfff9976782d46cc05630d1f6ebab18b2324d6b14",
          "topics": [
            "0xe1fffcc4923d04b559f4d29a8bfc6cda04eb5b0d3c460751c2402c5c5cc9109c",
            "0x000000000000000000000000ee567fe1712faf6149d80da1e6934e354124cfe3"
          ],
          "data": "0x00000000000000000000000000000000000000000000000000b1a2bc2ec50000",
          "blockHash": "0x73f9589740bbd4dd9319fdca5e9474633ba4bb52be44849d426426c7ac2de82c",
          "blockNumber": "0x912749",
          "blockTimestamp": "0x690180d8",
          "transactionHash": "0x6edb0f732ec0c9f9d6fca8cd5c9bf3b9bf584d6d0f023913c33335d5118d2c49",
          "transactionIndex": "0x2d",
          "logIndex": "0x5a",
          "removed": false
        },
        {
          "address": "0xfff9976782d46cc05630d1f6ebab18b2324d6b14",
          "topics": [
            "0xddf252ad1be2c89b69c2b068fc378daa952ba7f163c4a11628f55a4df523b3ef",
            "0x000000000000000000000000ee567fe1712faf6149d80da1e6934e354124cfe3",
            "0x00000000000000000000000072e46e15ef83c896de44b1874b4af7ddab5b4f74"
          ],
          "data": "0x00000000000000000000000000000000000000000000000000b1a2bc2ec50000",
          "blockHash": "0x73f9589740bbd4dd9319fdca5e9474633ba4bb52be44849d426426c7ac2de82c",
          "blockNumber": "0x912749",
          "blockTimestamp": "0x690180d8",
          "transactionHash": "0x6edb0f732ec0c9f9d6fca8cd5c9bf3b9bf584d6d0f023913c33335d5118d2c49",
          "transactionIndex": "0x2d",
          "logIndex": "0x5b",
          "removed": false
        },
        {
          "address": "0x1c7d4b196cb0c7b01d743fbc6116a902379c7238",
          "topics": [
            "0xddf252ad1be2c89b69c2b068fc378daa952ba7f163c4a11628f55a4df523b3ef",
            "0x00000000000000000000000072e46e15ef83c896de44b1874b4af7ddab5b4f74",
            "0x000000000000000000000000eff3521fb13228c767ad6dc3b934f9efac9c56ad"
          ],
          "data": "0x000000000000000000000000000000000000000000000000000000002a7ebb98",
          "blockHash": "0x73f9589740bbd4dd9319fdca5e9474633ba4bb52be44849d426426c7ac2de82c",
          "blockNumber": "0x912749",
          "blockTimestamp": "0x690180d8",
          "transactionHash": "0x6edb0f732ec0c9f9d6fca8cd5c9bf3b9bf584d6d0f023913c33335d5118d2c49",
          "transactionIndex": "0x2d",
          "logIndex": "0x5c",
          "removed": false
        },
        {
          "address": "0x72e46e15ef83c896de44b1874b4af7ddab5b4f74",
          "topics": [
            "0x1c411e9a96e071241c2f21f7726b17ae89e3cab4c78be50e062b03a9fffbbad1"
          ],
          "data": "0x00000000000000000000000000000000000000000000000000000043902a121a0000000000000000000000000000000000000000000000011a454bae91086826",
          "blockHash": "0x73f9589740bbd4dd9319fdca5e9474633ba4bb52be44849d426426c7ac2de82c",
          "blockNumber": "0x912749",
          "blockTimestamp": "0x690180d8",
          "transactionHash": "0x6edb0f732ec0c9f9d6fca8cd5c9bf3b9bf584d6d0f023913c33335d5118d2c49",
          "transactionIndex": "0x2d",
          "logIndex": "0x5d",
          "removed": false
        },
        {
          "address": "0x72e46e15ef83c896de44b1874b4af7ddab5b4f74",
          "topics": [
            "0xd78ad95fa46c994b6551d0da85fc275fe613ce37657fb8d5e3d130840159d822",
            "0x000000000000000000000000ee567fe1712faf6149d80da1e6934e354124cfe3",
            "0x000000000000000000000000eff3521fb13228c767ad6dc3b934f9efac9c56ad"
          ],
          "data": "0x000000000000000000000000000000000000000000000000000000000000000000000000000000000000000000000000000000000000000000b1a2bc2ec50000000000000000000000000000000000000000000000000000000000002a7ebb980000000000000000000000000000000000000000000000000000000000000000",
          "blockHash": "0x73f9589740bbd4dd9319fdca5e9474633ba4bb52be44849d426426c7ac2de82c",
          "blockNumber": "0x912749",
          "blockTimestamp": "0x690180d8",
          "transactionHash": "0x6edb0f732ec0c9f9d6fca8cd5c9bf3b9bf584d6d0f023913c33335d5118d2c49",
          "transactionIndex": "0x2d",
          "logIndex": "0x5e",
          "removed": false
        },
        {
          "address": "0x284af8b3d00dbbafa46c93633b365d4291e8bd74",
          "topics": [
            "0x6782190c91d4a7e8ad2a867deed6ec0a970cab8ff137ae2bd4abd92b3810f4d3",
            "0x000000000000000000000000eff3521fb13228c767ad6dc3b934f9efac9c56ad"
          ],
          "data": "0x00000000000000000000000000000000000000000000000000000000000000000000000000000000000000001c7d4b196cb0c7b01d743fbc6116a902379c723800000000000000000000000000000000000000000000000000b1a2bc2ec5000000000000000000000000000000000000000000000000000000000000263edc08",
          "blockHash": "0x73f9589740bbd4dd9319fdca5e9474633ba4bb52be44849d426426c7ac2de82c",
          "blockNumber": "0x912749",
          "blockTimestamp": "0x690180d8",
          "transactionHash": "0x6edb0f732ec0c9f9d6fca8cd5c9bf3b9bf584d6d0f023913c33335d5118d2c49",
          "transactionIndex": "0x2d",
          "logIndex": "0x5f",
          "removed": false
        }
      ],
      "logsBloom": "0x00200000000000000000000080000008000200000100000000000000000200020000000000000000000000000000000000000000000000000000000008000000000000000000000000000008000000200000000000000000002000008008000000000000000000000800000000000000000000000000000000000410200000000041000000100000000000000000000000000001000000080000004000000000000020000000000000000000000000000000100000000000000000800000000200000002000004000002000000000000000000000000001000000000010000000000002000000000000010000000000000000000000000400080000000000000",
      "type": "0x2",
      "transactionHash": "0x6edb0f732ec0c9f9d6fca8cd5c9bf3b9bf584d6d0f023913c33335d5118d2c49",
      "transactionIndex": "0x2d",
      "blockHash": "0x73f9589740bbd4dd9319fdca5e9474633ba4bb52be44849d426426c7ac2de82c",
      "blockNumber": "0x912749",
      "gasUsed": "0x27987",
      "effectiveGasPrice": "0xf424a",
      "from": "0xeff3521fb13228c767ad6dc3b934f9efac9c56ad",
      "to": "0x284af8b3d00dbbafa46c93633b365d4291e8bd74",
      "contractAddress": null
    }
  ],
  "libraries": [],
  "pending": [],
  "returns": {},
  "timestamp": 1761706201,
  "chain": 11155111,
  "commit": "6735a57"
}