{
  "transactions": [
    {
      "hash": "0x5af2db9606fa173484387df8b12c9ec72b0b535510721f131bce10473b6535e8",
      "transactionType": "CALL",
      "contractName": null,
      "contractAddress": "0x3b0fb17f3e9ec286e99e719ab7acf79fa5117e96",
      "function": "swapETHForToken(address)",
      "arguments": [
        "0x1f9840a85d5aF5bf1D1762F925BDADdC4201F984"
      ],
      "transaction": {
        "from": "0xeff3521fb13228c767ad6dc3b934f9efac9c56ad",
        "to": "0x3b0fb17f3e9ec286e99e719ab7acf79fa5117e96",
        "gas": "0x2ef48",
        "value": "0x2c68af0bb140000",
        "input": "0x8a4c10d60000000000000000000000001f9840a85d5af5bf1d1762f925bdaddc4201f984",
        "nonce": "0xcb",
        "chainId": "0xaa36a7"
      },
      "additionalContracts": [],
      "isFixedGasLimit": false
    }
  ],
  "receipts": [
    {
      "status": "0x1",
      "cumulativeGasUsed": "0x8ad923",
      "logs": [
        {
          "address": "0xfff9976782d46cc05630d1f6ebab18b2324d6b14",
          "topics": [
            "0xe1fffcc4923d04b559f4d29a8bfc6cda04eb5b0d3c460751c2402c5c5cc9109c",
            "0x000000000000000000000000ee567fe1712faf6149d80da1e6934e354124cfe3"
          ],
          "data": "0x00000000000000000000000000000000000000000000000002c68af0bb140000",
          "blockHash": "0xa46e4e2a713a782655fd384f7f225dd0f57de8c012a7640df5a94f9f92e2c1ce",
          "blockNumber": "0x90d798",
          "blockTimestamp": "0x68fdb8b0",
          "transactionHash": "0x5af2db9606fa173484387df8b12c9ec72b0b535510721f131bce10473b6535e8",
          "transactionIndex": "0x33",
          "logIndex": "0x61",
          "removed": false
        },
        {
          "address": "0xfff9976782d46cc05630d1f6ebab18b2324d6b14",
          "topics": [
            "0xddf252ad1be2c89b69c2b068fc378daa952ba7f163c4a11628f55a4df523b3ef",
            "0x000000000000000000000000ee567fe1712faf6149d80da1e6934e354124cfe3",
            "0x000000000000000000000000e8aa2fa3963bad64ff66cfc458fda9f19a8e7024"
          ],
          "data": "0x00000000000000000000000000000000000000000000000002c68af0bb140000",
          "blockHash": "0xa46e4e2a713a782655fd384f7f225dd0f57de8c012a7640df5a94f9f92e2c1ce",
          "blockNumber": "0x90d798",
          "blockTimestamp": "0x68fdb8b0",
          "transactionHash": "0x5af2db9606fa173484387df8b12c9ec72b0b535510721f131bce10473b6535e8",
          "transactionIndex": "0x33",
          "logIndex": "0x62",
          "removed": false
        },
        {
          "address": "0x1f9840a85d5af5bf1d1762f925bdaddc4201f984",
          "topics": [
            "0xddf252ad1be2c89b69c2b068fc378daa952ba7f163c4a11628f55a4df523b3ef",
            "0x000000000000000000000000e8aa2fa3963bad64ff66cfc458fda9f19a8e7024",
            "0x000000000000000000000000eff3521fb13228c767ad6dc3b934f9efac9c56ad"
          ],
          "data": "0x0000000000000000000000000000000000000000000000000018c9601ca058ef",
          "blockHash": "0xa46e4e2a713a782655fd384f7f225dd0f57de8c012a7640df5a94f9f92e2c1ce",
          "blockNumber": "0x90d798",
          "blockTimestamp": "0x68fdb8b0",
          "transactionHash": "0x5af2db9606fa173484387df8b12c9ec72b0b535510721f131bce10473b6535e8",
          "transactionIndex": "0x33",
          "logIndex": "0x63",
          "removed": false
        },
        {
          "address": "0xe8aa2fa3963bad64ff66cfc458fda9f19a8e7024",
          "topics": [
            "0x1c411e9a96e071241c2f21f7726b17ae89e3cab4c78be50e062b03a9fffbbad1"
          ],
          "data": "0x0000000000000000000000000000000000000000000000000161be04ee7405e50000000000000000000000000000000000000000000000002a44a1936cb446f7",
          "blockHash": "0xa46e4e2a713a782655fd384f7f225dd0f57de8c012a7640df5a94f9f92e2c1ce",
          "blockNumber": "0x90d798",
          "blockTimestamp": "0x68fdb8b0",
          "transactionHash": "0x5af2db9606fa173484387df8b12c9ec72b0b535510721f131bce10473b6535e8",
          "transactionIndex": "0x33",
          "logIndex": "0x64",
          "removed": false
        },
        {
          "address": "0xe8aa2fa3963bad64ff66cfc458fda9f19a8e7024",
          "topics": [
            "0xd78ad95fa46c994b6551d0da85fc275fe613ce37657fb8d5e3d130840159d822",
            "0x000000000000000000000000ee567fe1712faf6149d80da1e6934e354124cfe3",
            "0x000000000000000000000000eff3521fb13228c767ad6dc3b934f9efac9c56ad"
          ],
          "data": "0x000000000000000000000000000000000000000000000000000000000000000000000000000000000000000000000000000000000000000002c68af0bb1400000000000000000000000000000000000000000000000000000018c9601ca058ef0000000000000000000000000000000000000000000000000000000000000000",
          "blockHash": "0xa46e4e2a713a782655fd384f7f225dd0f57de8c012a7640df5a94f9f92e2c1ce",
          "blockNumber": "0x90d798",
          "blockTimestamp": "0x68fdb8b0",
          "transactionHash": "0x5af2db9606fa173484387df8b12c9ec72b0b535510721f131bce10473b6535e8",
          "transactionIndex": "0x33",
          "logIndex": "0x65",
          "removed": false
        },
        {
          "address": "0x3b0fb17f3e9ec286e99e719ab7acf79fa5117e96",
          "topics": [
            "0x6782190c91d4a7e8ad2a867deed6ec0a970cab8ff137ae2bd4abd92b3810f4d3",
            "0x000000000000000000000000eff3521fb13228c767ad6dc3b934f9efac9c56ad"
          ],
          "data": "0x00000000000000000000000000000000000000000000000000000000000000000000000000000000000000001f9840a85d5af5bf1d1762f925bdaddc4201f98400000000000000000000000000000000000000000000000002c68af0bb140000000000000000000000000000000000000000000000000000001889ebf3614dcd",
          "blockHash": "0xa46e4e2a713a782655fd384f7f225dd0f57de8c012a7640df5a94f9f92e2c1ce",
          "blockNumber": "0x90d798",
          "blockTimestamp": "0x68fdb8b0",
          "transactionHash": "0x5af2db9606fa173484387df8b12c9ec72b0b535510721f131bce10473b6535e8",
          "transactionIndex": "0x33",
          "logIndex": "0x66",
          "removed": false
        }
      ],
      "logsBloom": "0x00200000000000004000000080000008000000000100000000000000000000020400000000000000000000000000001000000000000000000000000048000000000000000000000000000008100000200000000000000800002000008000000008000000000000000008000000000000000000000000000000000010002000000040000000000080000000002000000000000001000000080000004000000000000020000000000000000000000000000000100000040000000000800000000000000002000000000002000000000000000000000000001000000000000000000000002000000000000000000000000000000000000000400080000000000000",
      "type": "0x2",
      "transactionHash": "0x5af2db9606fa173484387df8b12c9ec72b0b535510721f131bce10473b6535e8",
      "transactionIndex": "0x33",
      "blockHash": "0xa46e4e2a713a782655fd384f7f225dd0f57de8c012a7640df5a94f9f92e2c1ce",
      "blockNumber": "0x90d798",
      "gasUsed": "0x201b3",
      "effectiveGasPrice": "0xf4240",
      "from": "0xeff3521fb13228c767ad6dc3b934f9efac9c56ad",
      "to": "0x3b0fb17f3e9ec286e99e719ab7acf79fa5117e96",
      "contractAddress": null
    }
  ],
  "libraries": [],
  "pending": [],
  "returns": {},
  "timestamp": 1761458352,
  "chain": 11155111,
  "commit": "0754351"
}