{
  "transactions": [
    {
      "hash": "0x1255ac0fd8a15ab003213c1a5662fb03a5702757df0557834131f37adbf08c44",
      "transactionType": "CALL",
      "contractName": null,
      "contractAddress": "0x31feb94712a8252532aaf35a0d61a1300bd2d12b",
      "function": "approve(address,uint256)",
      "arguments": [
        "0x284af8B3d00dBbaFA46c93633b365d4291E8Bd74",
        "80602613287"
      ],
      "transaction": {
        "from": "0xeff3521fb13228c767ad6dc3b934f9efac9c56ad",
        "to": "0x31feb94712a8252532aaf35a0d61a1300bd2d12b",
        "gas": "0xf886",
        "value": "0x0",
        "input": "0x095ea7b3000000000000000000000000284af8b3d00dbbafa46c93633b365d4291e8bd7400000000000000000000000000000000000000000000000000000012c44a4627",
        "nonce": "0x145",
        "chainId": "0xaa36a7"
      },
      "additionalContracts": [],
      "isFixedGasLimit": false
    },
    {
      "hash": "0xbf57ac90757b2c4cbe973d0405ae8b8f40c7d8844af8c98c892722cb2994ab9d",
      "transactionType": "CALL",
      "contractName": null,
      "contractAddress": "0x284af8b3d00dbbafa46c93633b365d4291e8bd74",
      "function": "zapOut(address,address,address,uint256)",
      "arguments": [
        "0x1f9840a85d5aF5bf1D1762F925BDADdC4201F984",
        "0x1f9840a85d5aF5bf1D1762F925BDADdC4201F984",
        "0x1c7D4B196Cb0C7B01d743Fbc6116a902379C7238",
        "80602613287"
      ],
      "transaction": {
        "from": "0xeff3521fb13228c767ad6dc3b934f9efac9c56ad",
        "to": "0x284af8b3d00dbbafa46c93633b365d4291e8bd74",
        "gas": "0x5f10f",
        "value": "0x0",
        "input": "0xf2d3e3210000000000000000000000001f9840a85d5af5bf1d1762f925bdaddc4201f9840000000000000000000000001f9840a85d5af5bf1d1762f925bdaddc4201f9840000000000000000000000001c7d4b196cb0c7b01d743fbc6116a902379c723800000000000000000000000000000000000000000000000000000012c44a4627",
        "nonce": "0x146",
        "chainId": "0xaa36a7"
      },
      "additionalContracts": [],
      "isFixedGasLimit": false
    }
  ],
  "receipts": [
    {
      "status": "0x1",
      "cumulativeGasUsed": "0x6f2a08",
      "logs": [
        {
          "address": "0x31feb94712a8252532aaf35a0d61a1300bd2d12b",
          "topics": [
            "0x8c5be1e5ebec7d5bd14f71427d1e84f3dd0314c0f7b2291e5b200ac8c7c3b925",
            "0x000000000000000000000000eff3521fb13228c767ad6dc3b934f9efac9c56ad",
            "0x000000000000000000000000284af8b3d00dbbafa46c93633b365d4291e8bd74"
          ],
          "data": "0x00000000000000000000000000000000000000000000000000000012c44a4627",
          "blockHash": "0x9e0b17db94c38ef624889fcffbe2c786a23349c1190bcf1bd36f8349d22c8b18",
          "blockNumber": "0x9126d4",
          "blockTimestamp": "0x69017b5c",
          "transactionHash": "0x1255ac0fd8a15ab003213c1a5662fb03a5702757df0557834131f37adbf08c44",
          "transactionIndex": "0x3e",
          "logIndex": "0x6e",
          "removed": false
        }
      ],
      "logsBloom": "0x00000000000000200000000000000000000000000000000000000000000000020002000000000000000000000010000000000000000000000000000000200000000000000000000000000000000000000000000000000000002000000000000000000000000000000000000000000000000000000000000000000000000000000000000000000000000000000000000000000000000000000000000000000000020000000000000000000000000000000000100001000000000000000000000000000000000000000000000000000200000000000000000000000000000000000010000000000080000000000000000000000000000000000000000000000000",
      "type": "0x2",
      "transactionHash": "0x1255ac0fd8a15ab003213c1a5662fb03a5702757df0557834131f37adbf08c44",
      "transactionIndex": "0x3e",
      "blockHash": "0x9e0b17db94c38ef624889fcffbe2c786a23349c1190bcf1bd36f8349d22c8b18",
      "blockNumber": "0x9126d4",
      "gasUsed": "0xb3ee",
      "effectiveGasPrice": "0xf4249",
      "from": "0xeff3521fb13228c767ad6dc3b934f9efac9c56ad",
      "to": "0x31feb94712a8252532aaf35a0d61a1300bd2d12b",
      "contractAddress": null
    },
    {
      "status": "0x1",
      "cumulativeGasUsed": "0x733a13",
      "logs": [
        {
          "address": "0x31feb94712a8252532aaf35a0d61a1300bd2d12b",
          "topics": [
            "0xddf252ad1be2c89b69c2b068fc378daa952ba7f163c4a11628f55a4df523b3ef",
            "0x000000000000000000000000eff3521fb13228c767ad6dc3b934f9efac9c56ad",
            "0x000000000000000000000000284af8b3d00dbbafa46c93633b365d4291e8bd74"
          ],
          "data": "0x00000000000000000000000000000000000000000000000000000012c44a4627",
          "blockHash": "0x9e0b17db94c38ef624889fcffbe2c786a23349c1190bcf1bd36f8349d22c8b18",
          "blockNumber": "0x9126d4",
          "blockTimestamp": "0x69017b5c",
          "transactionHash": "0xbf57ac90757b2c4cbe973d0405ae8b8f40c7d8844af8c98c892722cb2994ab9d",
          "transactionIndex": "0x3f",
          "logIndex": "0x6f",
          "removed": false
        },
        {
          "address": "0x31feb94712a8252532aaf35a0d61a1300bd2d12b",
          "topics": [
            "0x8c5be1e5ebec7d5bd14f71427d1e84f3dd0314c0f7b2291e5b200ac8c7c3b925",
            "0x000000000000000000000000284af8b3d00dbbafa46c93633b365d4291e8bd74",
            "0x000000000000000000000000ee567fe1712faf6149d80da1e6934e354124cfe3"
          ],
          "data": "0x00000000000000000000000000000000000000000000000000000012c44a4627",
          "blockHash": "0x9e0b17db94c38ef624889fcffbe2c786a23349c1190bcf1bd36f8349d22c8b18",
          "blockNumber": "0x9126d4",
          "blockTimestamp": "0x69017b5c",
          "transactionHash": "0xbf57ac90757b2c4cbe973d0405ae8b8f40c7d8844af8c98c892722cb2994ab9d",
          "transactionIndex": "0x3f",
          "logIndex": "0x70",
          "removed": false
        },
        {
          "address": "0x31feb94712a8252532aaf35a0d61a1300bd2d12b",
          "topics": [
            "0xddf252ad1be2c89b69c2b068fc378daa952ba7f163c4a11628f55a4df523b3ef",
            "0x000000000000000000000000284af8b3d00dbbafa46c93633b365d4291e8bd74",
            "0x00000000000000000000000031feb94712a8252532aaf35a0d61a1300bd2d12b"
          ],
          "data": "0x00000000000000000000000000000000000000000000000000000012c44a4627",
          "blockHash": "0x9e0b17db94c38ef624889fcffbe2c786a23349c1190bcf1bd36f8349d22c8b18",
          "blockNumber": "0x9126d4",
          "blockTimestamp": "0x69017b5c",
          "transactionHash": "0xbf57ac90757b2c4cbe973d0405ae8b8f40c7d8844af8c98c892722cb2994ab9d",
          "transactionIndex": "0x3f",
          "logIndex": "0x71",
          "removed": false
        },
        {
          "address": "0x31feb94712a8252532aaf35a0d61a1300bd2d12b",
          "topics": [
            "0xddf252ad1be2c89b69c2b068fc378daa952ba7f163c4a11628f55a4df523b3ef",
            "0x00000000000000000000000031feb94712a8252532aaf35a0d61a1300bd2d12b",
            "0x0000000000000000000000000000000000000000000000000000000000000000"
          ],
          "data": "0x00000000000000000000000000000000000000000000000000000012c44a4627",
          "blockHash": "0x9e0b17db94c38ef624889fcffbe2c786a23349c1190bcf1bd36f8349d22c8b18",
          "blockNumber": "0x9126d4",
          "blockTimestamp": "0x69017b5c",
          "transactionHash": "0xbf57ac90757b2c4cbe973d0405ae8b8f40c7d8844af8c98c892722cb2994ab9d",
          "transactionIndex": "0x3f",
          "logIndex": "0x72",
          "removed": false
        },
        {
          "address": "0x1c7d4b196cb0c7b01d743fbc6116a902379c7238",
          "topics": [
            "0xddf252ad1be2c89b69c2b068fc378daa952ba7f163c4a11628f55a4df523b3ef",
            "0x00000000000000000000000031feb94712a8252532aaf35a0d61a1300bd2d12b",
            "0x000000000000000000000000284af8b3d00dbbafa46c93633b365d4291e8bd74"
          ],
          "data": "0x00000000000000000000000000000000000000000000000000000000041cf8c9",
          "blockHash": "0x9e0b17db94c38ef624889fcffbe2c786a23349c1190bcf1bd36f8349d22c8b18",
          "blockNumber": "0x9126d4",
          "blockTimestamp": "0x69017b5c",
          "transactionHash": "0xbf57ac90757b2c4cbe973d0405ae8b8f40c7d8844af8c98c892722cb2994ab9d",
          "transactionIndex": "0x3f",
          "logIndex": "0x73",
          "removed": false
        },
        {
          "address": "0x1f9840a85d5af5bf1d1762f925bdaddc4201f984",
          "topics": [
            "0xddf252ad1be2c89b69c2b068fc378daa952ba7f163c4a11628f55a4df523b3ef",
            "0x00000000000000000000000031feb94712a8252532aaf35a0d61a1300bd2d12b",
            "0x000000000000000000000000284af8b3d00dbbafa46c93633b365d4291e8bd74"
          ],
          "data": "0x0000000000000000000000000000000000000000000000000000b5e620d223c7",
          "blockHash": "0x9e0b17db94c38ef624889fcffbe2c786a23349c1190bcf1bd36f8349d22c8b18",
          "blockNumber": "0x9126d4",
          "blockTimestamp": "0x69017b5c",
          "transactionHash": "0xbf57ac90757b2c4cbe973d0405ae8b8f40c7d8844af8c98c892722cb2994ab9d",
          "transactionIndex": "0x3f",
          "logIndex": "0x74",
          "removed": false
        },
        {
          "address": "0x31feb94712a8252532aaf35a0d61a1300bd2d12b",
          "topics": [
            "0x1c411e9a96e071241c2f21f7726b17ae89e3cab4c78be50e062b03a9fffbbad1"
          ],
          "data": "0x00000000000000000000000000000000000000000000000000000000357fe21200000000000000000000000000000000000000000000000000093df04112bc89",
          "blockHash": "0x9e0b17db94c38ef624889fcffbe2c786a23349c1190bcf1bd36f8349d22c8b18",
          "blockNumber": "0x9126d4",
          "blockTimestamp": "0x69017b5c",
          "transactionHash": "0xbf57ac90757b2c4cbe973d0405ae8b8f40c7d8844af8c98c892722cb2994ab9d",
          "transactionIndex": "0x3f",
          "logIndex": "0x75",
          "removed": false
        },
        {
          "address": "0x31feb94712a8252532aaf35a0d61a1300bd2d12b",
          "topics": [
            "0xdccd412f0b1252819cb1fd330b93224ca42612892bb3f4f789976e6d81936496",
            "0x000000000000000000000000ee567fe1712faf6149d80da1e6934e354124cfe3",
            "0x000000000000000000000000284af8b3d00dbbafa46c93633b365d4291e8bd74"
          ],
          "data": "0x00000000000000000000000000000000000000000000000000000000041cf8c90000000000000000000000000000000000000000000000000000b5e620d223c7",
          "blockHash": "0x9e0b17db94c38ef624889fcffbe2c786a23349c1190bcf1bd36f8349d22c8b18",
          "blockNumber": "0x9126d4",
          "blockTimestamp": "0x69017b5c",
          "transactionHash": "0xbf57ac90757b2c4cbe973d0405ae8b8f40c7d8844af8c98c892722cb2994ab9d",
          "transactionIndex": "0x3f",
          "logIndex": "0x76",
          "removed": false
        },
        {
          "address": "0x1c7d4b196cb0c7b01d743fbc6116a902379c7238",
          "topics": [
            "0x8c5be1e5ebec7d5bd14f71427d1e84f3dd0314c0f7b2291e5b200ac8c7c3b925",
            "0x000000000000000000000000284af8b3d00dbbafa46c93633b365d4291e8bd74",
            "0x000000000000000000000000ee567fe1712faf6149d80da1e6934e354124cfe3"
          ],
          "data": "0x00000000000000000000000000000000000000000000000000000000041cf8c9",
          "blockHash": "0x9e0b17db94c38ef624889fcffbe2c786a23349c1190bcf1bd36f8349d22c8b18",
          "blockNumber": "0x9126d4",
          "blockTimestamp": "0x69017b5c",
          "transactionHash": "0xbf57ac90757b2c4cbe973d0405ae8b8f40c7d8844af8c98c892722cb2994ab9d",
          "transactionIndex": "0x3f",
          "logIndex": "0x77",
          "removed": false
        },
        {
          "address": "0x1c7d4b196cb0c7b01d743fbc6116a902379c7238",
          "topics": [
            "0xddf252ad1be2c89b69c2b068fc378daa952ba7f163c4a11628f55a4df523b3ef",
            "0x000000000000000000000000284af8b3d00dbbafa46c93633b365d4291e8bd74",
            "0x00000000000000000000000031feb94712a8252532aaf35a0d61a1300bd2d12b"
          ],
          "data": "0x00000000000000000000000000000000000000000000000000000000041cf8c9",
          "blockHash": "0x9e0b17db94c38ef624889fcffbe2c786a23349c1190bcf1bd36f8349d22c8b18",
          "blockNumber": "0x9126d4",
          "blockTimestamp": "0x69017b5c",
          "transactionHash": "0xbf57ac90757b2c4cbe973d0405ae8b8f40c7d8844af8c98c892722cb2994ab9d",
          "transactionIndex": "0x3f",
          "logIndex": "0x78",
          "removed": false
        },
        {
          "address": "0x1f9840a85d5af5bf1d1762f925bdaddc4201f984",
          "topics": [
            "0xddf252ad1be2c89b69c2b068fc378daa952ba7f163c4a11628f55a4df523b3ef",
            "0x00000000000000000000000031feb94712a8252532aaf35a0d61a1300bd2d12b",
            "0x000000000000000000000000eff3521fb13228c767ad6dc3b934f9efac9c56ad"
          ],
          "data": "0x0000000000000000000000000000000000000000000000000000a8711f0c2591",
          "blockHash": "0x9e0b17db94c38ef624889fcffbe2c786a23349c1190bcf1bd36f8349d22c8b18",
          "blockNumber": "0x9126d4",
          "blockTimestamp": "0x69017b5c",
          "transactionHash": "0xbf57ac90757b2c4cbe973d0405ae8b8f40c7d8844af8c98c892722cb2994ab9d",
          "transactionIndex": "0x3f",
          "logIndex": "0x79",
          "removed": false
        },
        {
          "address": "0x31feb94712a8252532aaf35a0d61a1300bd2d12b",
          "topics": [
            "0x1c411e9a96e071241c2f21f7726b17ae89e3cab4c78be50e062b03a9fffbbad1"
          ],
          "data": "0x00000000000000000000000000000000000000000000000000000000399cdadb0000000000000000000000000000000000000000000000000008957f220696f8",
          "blockHash": "0x9e0b17db94c38ef624889fcffbe2c786a23349c1190bcf1bd36f8349d22c8b18",
          "blockNumber": "0x9126d4",
          "blockTimestamp": "0x69017b5c",
          "transactionHash": "0xbf57ac90757b2c4cbe973d0405ae8b8f40c7d8844af8c98c892722cb2994ab9d",
          "transactionIndex": "0x3f",
          "logIndex": "0x7a",
          "removed": false
        },
        {
          "address": "0x31feb94712a8252532aaf35a0d61a1300bd2d12b",
          "topics": [
            "0xd78ad95fa46c994b6551d0da85fc275fe613ce37657fb8d5e3d130840159d822",
            "0x000000000000000000000000ee567fe1712faf6149d80da1e6934e354124cfe3",
            "0x000000000000000000000000eff3521fb13228c767ad6dc3b934f9efac9c56ad"
          ],
          "data": "0x00000000000000000000000000000000000000000000000000000000041cf8c9000000000000000000000000000000000000000000000000000000000000000000000000000000000000000000000000000000000000000000000000000000000000000000000000000000000000000000000000000000000000a8711f0c2591",
          "blockHash": "0x9e0b17db94c38ef624889fcffbe2c786a23349c1190bcf1bd36f8349d22c8b18",
          "blockNumber": "0x9126d4",
          "blockTimestamp": "0x69017b5c",
          "transactionHash": "0xbf57ac90757b2c4cbe973d0405ae8b8f40c7d8844af8c98c892722cb2994ab9d",
          "transactionIndex": "0x3f",
          "logIndex": "0x7b",
          "removed": false
        }
      ],
      "logsBloom": "0x00200000000000200000000080000000000000000000000000000000000200020002000000000000000000000010001000000000000000000000000008200000000000000000000000000008100000200000000000000000002000000000000008000804020000000000000000000800000000000000000000000010000000000000000000100000000000000000080000000000000000080000004000000000020000000000004000000000000000000000100001000000000000800000000000000002000000000000000000000200000800000000001000000000000020000010000000000080000010000000000000000000000000000082000000000000",
      "type": "0x2",
      "transactionHash": "0xbf57ac90757b2c4cbe973d0405ae8b8f40c7d8844af8c98c892722cb2994ab9d",
      "transactionIndex": "0x3f",
      "blockHash": "0x9e0b17db94c38ef624889fcffbe2c786a23349c1190bcf1bd36f8349d22c8b18",
      "blockNumber": "0x9126d4",
      "gasUsed": "0x4100b",
      "effectiveGasPrice": "0xf4249",
      "from": "0xeff3521fb13228c767ad6dc3b934f9efac9c56ad",
      "to": "0x284af8b3d00dbbafa46c93633b365d4291e8bd74",
      "contractAddress": null
    }
  ],
  "libraries": [],
  "pending": [],
  "returns": {},
  "timestamp": 1761704797,
  "chain": 11155111,
  "commit": "6735a57"
}