{
  "transactions": [
    {
      "hash": "0x1ac76cd8f8d0aee0cfa50020981ceb23d701ef49ed218faee9a926d0ae867b26",
      "transactionType": "CALL",
      "contractName": null,
      "contractAddress": "0x5deb5e322da6ec413363aef0399f3a5d24c8c1cb",
      "function": "swapETHForToken(address)",
      "arguments": [
        "0x1f9840a85d5aF5bf1D1762F925BDADdC4201F984"
      ],
      "transaction": {
        "from": "0xeff3521fb13228c767ad6dc3b934f9efac9c56ad",
        "to": "0x5deb5e322da6ec413363aef0399f3a5d24c8c1cb",
        "gas": "0x2db4f",
        "value": "0x2386f26fc10000",
        "input": "0x8a4c10d60000000000000000000000001f9840a85d5af5bf1d1762f925bdaddc4201f984",
        "nonce": "0xc1",
        "chainId": "0xaa36a7"
      },
      "additionalContracts": [],
      "isFixedGasLimit": false
    }
  ],
  "receipts": [
    {
      "status": "0x1",
      "cumulativeGasUsed": "0x524ffd",
      "logs": [
        {
          "address": "0xfff9976782d46cc05630d1f6ebab18b2324d6b14",
          "topics": [
            "0xe1fffcc4923d04b559f4d29a8bfc6cda04eb5b0d3c460751c2402c5c5cc9109c",
            "0x000000000000000000000000ee567fe1712faf6149d80da1e6934e354124cfe3"
          ],
          "data": "0x000000000000000000000000000000000000000000000000002386f26fc10000",
          "blockHash": "0x6c9732ff1d4ec8b9b64d75538658f867b86e903875087cf1c30d6529893657e1",
          "blockNumber": "0x90a3fb",
          "blockTimestamp": "0x68fb4508",
          "transactionHash": "0x1ac76cd8f8d0aee0cfa50020981ceb23d701ef49ed218faee9a926d0ae867b26",
          "transactionIndex": "0x34",
          "logIndex": "0x4a",
          "removed": false
        },
        {
          "address": "0xfff9976782d46cc05630d1f6ebab18b2324d6b14",
          "topics": [
            "0xddf252ad1be2c89b69c2b068fc378daa952ba7f163c4a11628f55a4df523b3ef",
            "0x000000000000000000000000ee567fe1712faf6149d80da1e6934e354124cfe3",
            "0x000000000000000000000000e8aa2fa3963bad64ff66cfc458fda9f19a8e7024"
          ],
          "data": "0x000000000000000000000000000000000000000000000000002386f26fc10000",
          "blockHash": "0x6c9732ff1d4ec8b9b64d75538658f867b86e903875087cf1c30d6529893657e1",
          "blockNumber": "0x90a3fb",
          "blockTimestamp": "0x68fb4508",
          "transactionHash": "0x1ac76cd8f8d0aee0cfa50020981ceb23d701ef49ed218faee9a926d0ae867b26",
          "transactionIndex": "0x34",
          "logIndex": "0x4b",
          "removed": false
        },
        {
          "address": "0x1f9840a85d5af5bf1d1762f925bdaddc4201f984",
          "topics": [
            "0xddf252ad1be2c89b69c2b068fc378daa952ba7f163c4a11628f55a4df523b3ef",
            "0x000000000000000000000000e8aa2fa3963bad64ff66cfc458fda9f19a8e7024",
            "0x000000000000000000000000eff3521fb13228c767ad6dc3b934f9efac9c56ad"
          ],
          "data": "0x000000000000000000000000000000000000000000000000000153d390dcf67b",
          "blockHash": "0x6c9732ff1d4ec8b9b64d75538658f867b86e903875087cf1c30d6529893657e1",
          "blockNumber": "0x90a3fb",
          "blockTimestamp": "0x68fb4508",
          "transactionHash": "0x1ac76cd8f8d0aee0cfa50020981ceb23d701ef49ed218faee9a926d0ae867b26",
          "transactionIndex": "0x34",
          "logIndex": "0x4c",
          "removed": false
        },
        {
          "address": "0xe8aa2fa3963bad64ff66cfc458fda9f19a8e7024",
          "topics": [
            "0x1c411e9a96e071241c2f21f7726b17ae89e3cab4c78be50e062b03a9fffbbad1"
          ],
          "data": "0x0000000000000000000000000000000000000000000000000179f79fd166d13a0000000000000000000000000000000000000000000000002788e8f2e159f65d",
          "blockHash": "0x6c9732ff1d4ec8b9b64d75538658f867b86e903875087cf1c30d6529893657e1",
          "blockNumber": "0x90a3fb",
          "blockTimestamp": "0x68fb4508",
          "transactionHash": "0x1ac76cd8f8d0aee0cfa50020981ceb23d701ef49ed218faee9a926d0ae867b26",
          "transactionIndex": "0x34",
          "logIndex": "0x4d",
          "removed": false
        },
        {
          "address": "0xe8aa2fa3963bad64ff66cfc458fda9f19a8e7024",
          "topics": [
            "0xd78ad95fa46c994b6551d0da85fc275fe613ce37657fb8d5e3d130840159d822",
            "0x000000000000000000000000ee567fe1712faf6149d80da1e6934e354124cfe3",
            "0x000000000000000000000000eff3521fb13228c767ad6dc3b934f9efac9c56ad"
          ],
          "data": "0x0000000000000000000000000000000000000000000000000000000000000000000000000000000000000000000000000000000000000000002386f26fc10000000000000000000000000000000000000000000000000000000153d390dcf67b0000000000000000000000000000000000000000000000000000000000000000",
          "blockHash": "0x6c9732ff1d4ec8b9b64d75538658f867b86e903875087cf1c30d6529893657e1",
          "blockNumber": "0x90a3fb",
          "blockTimestamp": "0x68fb4508",
          "transactionHash": "0x1ac76cd8f8d0aee0cfa50020981ceb23d701ef49ed218faee9a926d0ae867b26",
          "transactionIndex": "0x34",
          "logIndex": "0x4e",
          "removed": false
        },
        {
          "address": "0x5deb5e322da6ec413363aef0399f3a5d24c8c1cb",
          "topics": [
            "0x6782190c91d4a7e8ad2a867deed6ec0a970cab8ff137ae2bd4abd92b3810f4d3",
            "0x000000000000000000000000eff3521fb13228c767ad6dc3b934f9efac9c56ad"
          ],
          "data": "0x00000000000000000000000000000000000000000000000000000000000000000000000000000000000000001f9840a85d5af5bf1d1762f925bdaddc4201f984000000000000000000000000000000000000000000000000002386f26fc100000000000000000000000000000000000000000000000000000001506d9c36e9c6",
          "blockHash": "0x6c9732ff1d4ec8b9b64d75538658f867b86e903875087cf1c30d6529893657e1",
          "blockNumber": "0x90a3fb",
          "blockTimestamp": "0x68fb4508",
          "transactionHash": "0x1ac76cd8f8d0aee0cfa50020981ceb23d701ef49ed218faee9a926d0ae867b26",
          "transactionIndex": "0x34",
          "logIndex": "0x4f",
          "removed": false
        }
      ],
      "logsBloom": "0x00200000000000000000000080000008000000000100000800000000000000020400000000000000000000000000001000000000000000000000000048000000000000000000000000000008100000200000000000000000002000008000000008000000000000000008000000000000000000000000000000000010002000000040000000000000000000002000000000000001001000080000004000000000000020000000000000000000000000000000100000040000000000800000000000000002000000000002100000000000000000000000001000000000000000000000002000000000000000000000000000000000000000400080000000000000",
      "type": "0x2",
      "transactionHash": "0x1ac76cd8f8d0aee0cfa50020981ceb23d701ef49ed218faee9a926d0ae867b26",
      "transactionIndex": "0x34",
      "blockHash": "0x6c9732ff1d4ec8b9b64d75538658f867b86e903875087cf1c30d6529893657e1",
      "blockNumber": "0x90a3fb",
      "gasUsed": "0x21175",
      "effectiveGasPrice": "0x10673c",
      "from": "0xeff3521fb13228c767ad6dc3b934f9efac9c56ad",
      "to": "0x5deb5e322da6ec413363aef0399f3a5d24c8c1cb",
      "contractAddress": null
    }
  ],
  "libraries": [],
  "pending": [],
  "returns": {},
  "timestamp": 1761297675,
  "chain": 11155111,
  "commit": null
}