{
  "transactions": [
    {
      "hash": "0xc16f24d6349acc610e2d818cc822fc267dd072b9ea545bf4167cabf60ca8accb",
      "transactionType": "CALL",
      "contractName": null,
      "contractAddress": "0x421b152478f5370c4d28b11fdfab122d171b731b",
      "function": "approve(address,uint256)",
      "arguments": [
        "0xbFd4c35D5dD72dEEf603Dd7EdD85B2BE9C14e9Cd",
        "790569415042094332"
      ],
      "transaction": {
        "from": "0xeff3521fb13228c767ad6dc3b934f9efac9c56ad",
        "to": "0x421b152478f5370c4d28b11fdfab122d171b731b",
        "gas": "0x1075a",
        "value": "0x0",
        "input": "0x095ea7b3000000000000000000000000bfd4c35d5dd72deef603dd7edd85b2be9c14e9cd0000000000000000000000000000000000000000000000000af8aab1c1df54fc",
        "nonce": "0x104",
        "chainId": "0xaa36a7"
      },
      "additionalContracts": [],
      "isFixedGasLimit": false
    },
    {
      "hash": "0xb7e3acbf708e918b9b95e9711b9f6ff529c0d5167b4cfbc581b5af433012c03e",
      "transactionType": "CALL",
      "contractName": null,
      "contractAddress": "0xbfd4c35d5dd72deef603dd7edd85b2be9c14e9cd",
      "function": "removeLiquidity(address,address,uint256)",
      "arguments": [
        "0x1f9840a85d5aF5bf1D1762F925BDADdC4201F984",
        "0x6c64E8278B7d5513143D59Bf1484B0e6972e4505",
        "790569415042094332"
      ],
      "transaction": {
        "from": "0xeff3521fb13228c767ad6dc3b934f9efac9c56ad",
        "to": "0xbfd4c35d5dd72deef603dd7edd85b2be9c14e9cd",
        "gas": "0x3b197",
        "value": "0x0",
        "input": "0xd752fab20000000000000000000000001f9840a85d5af5bf1d1762f925bdaddc4201f9840000000000000000000000006c64e8278b7d5513143d59bf1484b0e6972e45050000000000000000000000000000000000000000000000000af8aab1c1df54fc",
        "nonce": "0x105",
        "chainId": "0xaa36a7"
      },
      "additionalContracts": [],
      "isFixedGasLimit": false
    }
  ],
  "receipts": [
    {
      "status": "0x1",
      "cumulativeGasUsed": "0xc3a8c2",
      "logs": [
        {
          "address": "0x421b152478f5370c4d28b11fdfab122d171b731b",
          "topics": [
            "0x8c5be1e5ebec7d5bd14f71427d1e84f3dd0314c0f7b2291e5b200ac8c7c3b925",
            "0x000000000000000000000000eff3521fb13228c767ad6dc3b934f9efac9c56ad",
            "0x000000000000000000000000bfd4c35d5dd72deef603dd7edd85b2be9c14e9cd"
          ],
          "data": "0x0000000000000000000000000000000000000000000000000af8aab1c1df54fc",
          "blockHash": "0x9f38e7c88ab1e604508ac1249b45c983f8a0227fbafa43e1ee83c38fdf1a6088",
          "blockNumber": "0x90f180",
          "blockTimestamp": "0x68fef008",
          "transactionHash": "0xc16f24d6349acc610e2d818cc822fc267dd072b9ea545bf4167cabf60ca8accb",
          "transactionIndex": "0x6e",
          "logIndex": "0x7f",
          "removed": false
        }
      ],
      "logsBloom": "0x00000000000000000000000000000000020000000000000000000000000000020000000000000000000002000000000000000008000000000000000000200000000000000000000000000000000000000000000000000000002000000000000000000000000000800000000000000000000000000000000000000000000000000000000000000000000000000000000000000000000000000000000000000000020000000000000000000000000000000000100000000000000000000000000000000000000000000000000000000000000000000000000000000000000000000010000000200000000000000200000000000000000000000000000000000000",
      "type": "0x2",
      "transactionHash": "0xc16f24d6349acc610e2d818cc822fc267dd072b9ea545bf4167cabf60ca8accb",
      "transactionIndex": "0x6e",
      "blockHash": "0x9f38e7c88ab1e604508ac1249b45c983f8a0227fbafa43e1ee83c38fdf1a6088",
      "blockNumber": "0x90f180",
      "gasUsed": "0xb412",
      "effectiveGasPrice": "0xf424c",
      "from": "0xeff3521fb13228c767ad6dc3b934f9efac9c56ad",
      "to": "0x421b152478f5370c4d28b11fdfab122d171b731b",
      "contractAddress": null
    },
    {
      "status": "0x1",
      "cumulativeGasUsed": "0xc6555a",
      "logs": [
        {
          "address": "0x421b152478f5370c4d28b11fdfab122d171b731b",
          "topics": [
            "0xddf252ad1be2c89b69c2b068fc378daa952ba7f163c4a11628f55a4df523b3ef",
            "0x000000000000000000000000eff3521fb13228c767ad6dc3b934f9efac9c56ad",
            "0x000000000000000000000000bfd4c35d5dd72deef603dd7edd85b2be9c14e9cd"
          ],
          "data": "0x0000000000000000000000000000000000000000000000000af8aab1c1df54fc",
          "blockHash": "0x9f38e7c88ab1e604508ac1249b45c983f8a0227fbafa43e1ee83c38fdf1a6088",
          "blockNumber": "0x90f180",
          "blockTimestamp": "0x68fef008",
          "transactionHash": "0xb7e3acbf708e918b9b95e9711b9f6ff529c0d5167b4cfbc581b5af433012c03e",
          "transactionIndex": "0x6f",
          "logIndex": "0x80",
          "removed": false
        },
        {
          "address": "0x421b152478f5370c4d28b11fdfab122d171b731b",
          "topics": [
            "0x8c5be1e5ebec7d5bd14f71427d1e84f3dd0314c0f7b2291e5b200ac8c7c3b925",
            "0x000000000000000000000000bfd4c35d5dd72deef603dd7edd85b2be9c14e9cd",
            "0x000000000000000000000000ee567fe1712faf6149d80da1e6934e354124cfe3"
          ],
          "data": "0x0000000000000000000000000000000000000000000000000af8aab1c1df54fc",
          "blockHash": "0x9f38e7c88ab1e604508ac1249b45c983f8a0227fbafa43e1ee83c38fdf1a6088",
          "blockNumber": "0x90f180",
          "blockTimestamp": "0x68fef008",
          "transactionHash": "0xb7e3acbf708e918b9b95e9711b9f6ff529c0d5167b4cfbc581b5af433012c03e",
          "transactionIndex": "0x6f",
          "logIndex": "0x81",
          "removed": false
        },
        {
          "address": "0x421b152478f5370c4d28b11fdfab122d171b731b",
          "topics": [
            "0xddf252ad1be2c89b69c2b068fc378daa952ba7f163c4a11628f55a4df523b3ef",
            "0x000000000000000000000000bfd4c35d5dd72deef603dd7edd85b2be9c14e9cd",
            "0x000000000000000000000000421b152478f5370c4d28b11fdfab122d171b731b"
          ],
          "data": "0x0000000000000000000000000000000000000000000000000af8aab1c1df54fc",
          "blockHash": "0x9f38e7c88ab1e604508ac1249b45c983f8a0227fbafa43e1ee83c38fdf1a6088",
          "blockNumber": "0x90f180",
          "blockTimestamp": "0x68fef008",
          "transactionHash": "0xb7e3acbf708e918b9b95e9711b9f6ff529c0d5167b4cfbc581b5af433012c03e",
          "transactionIndex": "0x6f",
          "logIndex": "0x82",
          "removed": false
        },
        {
          "address": "0x421b152478f5370c4d28b11fdfab122d171b731b",
          "topics": [
            "0xddf252ad1be2c89b69c2b068fc378daa952ba7f163c4a11628f55a4df523b3ef",
            "0x000000000000000000000000421b152478f5370c4d28b11fdfab122d171b731b",
            "0x0000000000000000000000000000000000000000000000000000000000000000"
          ],
          "data": "0x0000000000000000000000000000000000000000000000000af8aab1c1df54fc",
          "blockHash": "0x9f38e7c88ab1e604508ac1249b45c983f8a0227fbafa43e1ee83c38fdf1a6088",
          "blockNumber": "0x90f180",
          "blockTimestamp": "0x68fef008",
          "transactionHash": "0xb7e3acbf708e918b9b95e9711b9f6ff529c0d5167b4cfbc581b5af433012c03e",
          "transactionIndex": "0x6f",
          "logIndex": "0x83",
          "removed": false
        },
        {
          "address": "0x1f9840a85d5af5bf1d1762f925bdaddc4201f984",
          "topics": [
            "0xddf252ad1be2c89b69c2b068fc378daa952ba7f163c4a11628f55a4df523b3ef",
            "0x000000000000000000000000421b152478f5370c4d28b11fdfab122d171b731b",
            "0x000000000000000000000000eff3521fb13228c767ad6dc3b934f9efac9c56ad"
          ],
          "data": "0x0000000000000000000000000000000000000000000000000000e35fa9319fff",
          "blockHash": "0x9f38e7c88ab1e604508ac1249b45c983f8a0227fbafa43e1ee83c38fdf1a6088",
          "blockNumber": "0x90f180",
          "blockTimestamp": "0x68fef008",
          "transactionHash": "0xb7e3acbf708e918b9b95e9711b9f6ff529c0d5167b4cfbc581b5af433012c03e",
          "transactionIndex": "0x6f",
          "logIndex": "0x84",
          "removed": false
        },
        {
          "address": "0x6c64e8278b7d5513143d59bf1484b0e6972e4505",
          "topics": [
            "0xddf252ad1be2c89b69c2b068fc378daa952ba7f163c4a11628f55a4df523b3ef",
            "0x000000000000000000000000421b152478f5370c4d28b11fdfab122d171b731b",
            "0x000000000000000000000000eff3521fb13228c767ad6dc3b934f9efac9c56ad"
          ],
          "data": "0x0000000000000000000000000000000000000000000000878678326eac77d980",
          "blockHash": "0x9f38e7c88ab1e604508ac1249b45c983f8a0227fbafa43e1ee83c38fdf1a6088",
          "blockNumber": "0x90f180",
          "blockTimestamp": "0x68fef008",
          "transactionHash": "0xb7e3acbf708e918b9b95e9711b9f6ff529c0d5167b4cfbc581b5af433012c03e",
          "transactionIndex": "0x6f",
          "logIndex": "0x85",
          "removed": false
        },
        {
          "address": "0x421b152478f5370c4d28b11fdfab122d171b731b",
          "topics": [
            "0x1c411e9a96e071241c2f21f7726b17ae89e3cab4c78be50e062b03a9fffbbad1"
          ],
          "data": "0x0000000000000000000000000000000000000000000000000000e35fa931a0010000000000000000000000000000000000000000000000878678326eaca82680",
          "blockHash": "0x9f38e7c88ab1e604508ac1249b45c983f8a0227fbafa43e1ee83c38fdf1a6088",
          "blockNumber": "0x90f180",
          "blockTimestamp": "0x68fef008",
          "transactionHash": "0xb7e3acbf708e918b9b95e9711b9f6ff529c0d5167b4cfbc581b5af433012c03e",
          "transactionIndex": "0x6f",
          "logIndex": "0x86",
          "removed": false
        },
        {
          "address": "0x421b152478f5370c4d28b11fdfab122d171b731b",
          "topics": [
            "0xdccd412f0b1252819cb1fd330b93224ca42612892bb3f4f789976e6d81936496",
            "0x000000000000000000000000ee567fe1712faf6149d80da1e6934e354124cfe3",
            "0x000000000000000000000000eff3521fb13228c767ad6dc3b934f9efac9c56ad"
          ],
          "data": "0x0000000000000000000000000000000000000000000000000000e35fa9319fff0000000000000000000000000000000000000000000000878678326eac77d980",
          "blockHash": "0x9f38e7c88ab1e604508ac1249b45c983f8a0227fbafa43e1ee83c38fdf1a6088",
          "blockNumber": "0x90f180",
          "blockTimestamp": "0x68fef008",
          "transactionHash": "0xb7e3acbf708e918b9b95e9711b9f6ff529c0d5167b4cfbc581b5af433012c03e",
          "transactionIndex": "0x6f",
          "logIndex": "0x87",
          "removed": false
        }
      ],
      "logsBloom": "0x0000000000000000000000008000000002000000000000000000000000000002000080000000000000000200000000100000000800000000000000000820000000000000000000000000000810000000000000000000000000200000000000000a000004020000800000000000000800000000000000000000000010000000000000000000000000000000000000080000000000000000080000000000000000020000000000004000000000000000000000100000000040000000800000180000000002000000000000000000000000000000000010001000000000000020000010000000200000000000000200000000000000000000000080000000000000",
      "type": "0x2",
      "transactionHash": "0xb7e3acbf708e918b9b95e9711b9f6ff529c0d5167b4cfbc581b5af433012c03e",
      "transactionIndex": "0x6f",
      "blockHash": "0x9f38e7c88ab1e604508ac1249b45c983f8a0227fbafa43e1ee83c38fdf1a6088",
      "blockNumber": "0x90f180",
      "gasUsed": "0x2ac98",
      "effectiveGasPrice": "0xf424c",
      "from": "0xeff3521fb13228c767ad6dc3b934f9efac9c56ad",
      "to": "0xbfd4c35d5dd72deef603dd7edd85b2be9c14e9cd",
      "contractAddress": null
    }
  ],
  "libraries": [],
  "pending": [],
  "returns": {},
  "timestamp": 1761538059,
  "chain": 11155111,
  "commit": "b9ab932"
}