{
  "transactions": [
    {
      "hash": "0xdad5c76a5e37185c4ca1ae12deb15574258aade8fd402b23dc6d0b8cff0fc671",
      "transactionType": "CALL",
      "contractName": null,
      "contractAddress": "0x421b152478f5370c4d28b11fdfab122d171b731b",
      "function": "approve(address,uint256)",
      "arguments": [
        "0xbFd4c35D5dD72dEEf603Dd7EdD85B2BE9C14e9Cd",
        "790569415042094333"
      ],
      "transaction": {
        "from": "0xeff3521fb13228c767ad6dc3b934f9efac9c56ad",
        "to": "0x421b152478f5370c4d28b11fdfab122d171b731b",
        "gas": "0x1075a",
        "value": "0x0",
        "input": "0x095ea7b3000000000000000000000000bfd4c35d5dd72deef603dd7edd85b2be9c14e9cd0000000000000000000000000000000000000000000000000af8aab1c1df54fd",
        "nonce": "0x106",
        "chainId": "0xaa36a7"
      },
      "additionalContracts": [],
      "isFixedGasLimit": false
    },
    {
      "hash": "0x13cb91d66fdb7467dd8304e3cdab0b73cd161ed41f7ad6ae6fc0c527e6cb27f7",
      "transactionType": "CALL",
      "contractName": null,
      "contractAddress": "0xbfd4c35d5dd72deef603dd7edd85b2be9c14e9cd",
      "function": "removeLiquidity(address,address,uint256)",
      "arguments": [
        "0x1f9840a85d5aF5bf1D1762F925BDADdC4201F984",
        "0x6c64E8278B7d5513143D59Bf1484B0e6972e4505",
        "790569415042094333"
      ],
      "transaction": {
        "from": "0xeff3521fb13228c767ad6dc3b934f9efac9c56ad",
        "to": "0xbfd4c35d5dd72deef603dd7edd85b2be9c14e9cd",
        "gas": "0x3b197",
        "value": "0x0",
        "input": "0xd752fab20000000000000000000000001f9840a85d5af5bf1d1762f925bdaddc4201f9840000000000000000000000006c64e8278b7d5513143d59bf1484b0e6972e45050000000000000000000000000000000000000000000000000af8aab1c1df54fd",
        "nonce": "0x107",
        "chainId": "0xaa36a7"
      },
      "additionalContracts": [],
      "isFixedGasLimit": false
    }
  ],
  "receipts": [
    {
      "status": "0x1",
      "cumulativeGasUsed": "0x732095",
      "logs": [
        {
          "address": "0x421b152478f5370c4d28b11fdfab122d171b731b",
          "topics": [
            "0x8c5be1e5ebec7d5bd14f71427d1e84f3dd0314c0f7b2291e5b200ac8c7c3b925",
            "0x000000000000000000000000eff3521fb13228c767ad6dc3b934f9efac9c56ad",
            "0x000000000000000000000000bfd4c35d5dd72deef603dd7edd85b2be9c14e9cd"
          ],
          "data": "0x0000000000000000000000000000000000000000000000000af8aab1c1df54fd",
          "blockHash": "0x49fb53bac350906c780ed8946391529a45ff093e8f9287c8c53c7dbd7c5b4623",
          "blockNumber": "0x90f188",
          "blockTimestamp": "0x68fef068",
          "transactionHash": "0xdad5c76a5e37185c4ca1ae12deb15574258aade8fd402b23dc6d0b8cff0fc671",
          "transactionIndex": "0x38",
          "logIndex": "0x3e",
          "removed": false
        }
      ],
      "logsBloom": "0x00000000000000000000000000000000020000000000000000000000000000020000000000000000000002000000000000000008000000000000000000200000000000000000000000000000000000000000000000000000002000000000000000000000000000800000000000000000000000000000000000000000000000000000000000000000000000000000000000000000000000000000000000000000020000000000000000000000000000000000100000000000000000000000000000000000000000000000000000000000000000000000000000000000000000000010000000200000000000000200000000000000000000000000000000000000",
      "type": "0x2",
      "transactionHash": "0xdad5c76a5e37185c4ca1ae12deb15574258aade8fd402b23dc6d0b8cff0fc671",
      "transactionIndex": "0x38",
      "blockHash": "0x49fb53bac350906c780ed8946391529a45ff093e8f9287c8c53c7dbd7c5b4623",
      "blockNumber": "0x90f188",
      "gasUsed": "0xb412",
      "effectiveGasPrice": "0xf424d",
      "from": "0xeff3521fb13228c767ad6dc3b934f9efac9c56ad",
      "to": "0x421b152478f5370c4d28b11fdfab122d171b731b",
      "contractAddress": null
    },
    {
      "status": "0x1",
      "cumulativeGasUsed": "0x75cd2d",
      "logs": [
        {
          "address": "0x421b152478f5370c4d28b11fdfab122d171b731b",
          "topics": [
            "0xddf252ad1be2c89b69c2b068fc378daa952ba7f163c4a11628f55a4df523b3ef",
            "0x000000000000000000000000eff3521fb13228c767ad6dc3b934f9efac9c56ad",
            "0x000000000000000000000000bfd4c35d5dd72deef603dd7edd85b2be9c14e9cd"
          ],
          "data": "0x0000000000000000000000000000000000000000000000000af8aab1c1df54fd",
          "blockHash": "0x49fb53bac350906c780ed8946391529a45ff093e8f9287c8c53c7dbd7c5b4623",
          "blockNumber": "0x90f188",
          "blockTimestamp": "0x68fef068",
          "transactionHash": "0x13cb91d66fdb7467dd8304e3cdab0b73cd161ed41f7ad6ae6fc0c527e6cb27f7",
          "transactionIndex": "0x39",
          "logIndex": "0x3f",
          "removed": false
        },
        {
          "address": "0x421b152478f5370c4d28b11fdfab122d171b731b",
          "topics": [
            "0x8c5be1e5ebec7d5bd14f71427d1e84f3dd0314c0f7b2291e5b200ac8c7c3b925",
            "0x000000000000000000000000bfd4c35d5dd72deef603dd7edd85b2be9c14e9cd",
            "0x000000000000000000000000ee567fe1712faf6149d80da1e6934e354124cfe3"
          ],
          "data": "0x0000000000000000000000000000000000000000000000000af8aab1c1df54fd",
          "blockHash": "0x49fb53bac350906c780ed8946391529a45ff093e8f9287c8c53c7dbd7c5b4623",
          "blockNumber": "0x90f188",
          "blockTimestamp": "0x68fef068",
          "transactionHash": "0x13cb91d66fdb7467dd8304e3cdab0b73cd161ed41f7ad6ae6fc0c527e6cb27f7",
          "transactionIndex": "0x39",
          "logIndex": "0x40",
          "removed": false
        },
        {
          "address": "0x421b152478f5370c4d28b11fdfab122d171b731b",
          "topics": [
            "0xddf252ad1be2c89b69c2b068fc378daa952ba7f163c4a11628f55a4df523b3ef",
            "0x000000000000000000000000bfd4c35d5dd72deef603dd7edd85b2be9c14e9cd",
            "0x000000000000000000000000421b152478f5370c4d28b11fdfab122d171b731b"
          ],
          "data": "0x0000000000000000000000000000000000000000000000000af8aab1c1df54fd",
          "blockHash": "0x49fb53bac350906c780ed8946391529a45ff093e8f9287c8c53c7dbd7c5b4623",
          "blockNumber": "0x90f188",
          "blockTimestamp": "0x68fef068",
          "transactionHash": "0x13cb91d66fdb7467dd8304e3cdab0b73cd161ed41f7ad6ae6fc0c527e6cb27f7",
          "transactionIndex": "0x39",
          "logIndex": "0x41",
          "removed": false
        },
        {
          "address": "0x421b152478f5370c4d28b11fdfab122d171b731b",
          "topics": [
            "0xddf252ad1be2c89b69c2b068fc378daa952ba7f163c4a11628f55a4df523b3ef",
            "0x000000000000000000000000421b152478f5370c4d28b11fdfab122d171b731b",
            "0x0000000000000000000000000000000000000000000000000000000000000000"
          ],
          "data": "0x0000000000000000000000000000000000000000000000000af8aab1c1df54fd",
          "blockHash": "0x49fb53bac350906c780ed8946391529a45ff093e8f9287c8c53c7dbd7c5b4623",
          "blockNumber": "0x90f188",
          "blockTimestamp": "0x68fef068",
          "transactionHash": "0x13cb91d66fdb7467dd8304e3cdab0b73cd161ed41f7ad6ae6fc0c527e6cb27f7",
          "transactionIndex": "0x39",
          "logIndex": "0x42",
          "removed": false
        },
        {
          "address": "0x1f9840a85d5af5bf1d1762f925bdaddc4201f984",
          "topics": [
            "0xddf252ad1be2c89b69c2b068fc378daa952ba7f163c4a11628f55a4df523b3ef",
            "0x000000000000000000000000421b152478f5370c4d28b11fdfab122d171b731b",
            "0x000000000000000000000000eff3521fb13228c767ad6dc3b934f9efac9c56ad"
          ],
          "data": "0x0000000000000000000000000000000000000000000000000000e35fa931a000",
          "blockHash": "0x49fb53bac350906c780ed8946391529a45ff093e8f9287c8c53c7dbd7c5b4623",
          "blockNumber": "0x90f188",
          "blockTimestamp": "0x68fef068",
          "transactionHash": "0x13cb91d66fdb7467dd8304e3cdab0b73cd161ed41f7ad6ae6fc0c527e6cb27f7",
          "transactionIndex": "0x39",
          "logIndex": "0x43",
          "removed": false
        },
        {
          "address": "0x6c64e8278b7d5513143d59bf1484b0e6972e4505",
          "topics": [
            "0xddf252ad1be2c89b69c2b068fc378daa952ba7f163c4a11628f55a4df523b3ef",
            "0x000000000000000000000000421b152478f5370c4d28b11fdfab122d171b731b",
            "0x000000000000000000000000eff3521fb13228c767ad6dc3b934f9efac9c56ad"
          ],
          "data": "0x0000000000000000000000000000000000000000000000878678326eac77e5da",
          "blockHash": "0x49fb53bac350906c780ed8946391529a45ff093e8f9287c8c53c7dbd7c5b4623",
          "blockNumber": "0x90f188",
          "blockTimestamp": "0x68fef068",
          "transactionHash": "0x13cb91d66fdb7467dd8304e3cdab0b73cd161ed41f7ad6ae6fc0c527e6cb27f7",
          "transactionIndex": "0x39",
          "logIndex": "0x44",
          "removed": false
        },
        {
          "address": "0x421b152478f5370c4d28b11fdfab122d171b731b",
          "topics": [
            "0x1c411e9a96e071241c2f21f7726b17ae89e3cab4c78be50e062b03a9fffbbad1"
          ],
          "data": "0x000000000000000000000000000000000000000000000000000000000000000100000000000000000000000000000000000000000000000000000000003040a6",
          "blockHash": "0x49fb53bac350906c780ed8946391529a45ff093e8f9287c8c53c7dbd7c5b4623",
          "blockNumber": "0x90f188",
          "blockTimestamp": "0x68fef068",
          "transactionHash": "0x13cb91d66fdb7467dd8304e3cdab0b73cd161ed41f7ad6ae6fc0c527e6cb27f7",
          "transactionIndex": "0x39",
          "logIndex": "0x45",
          "removed": false
        },
        {
          "address": "0x421b152478f5370c4d28b11fdfab122d171b731b",
          "topics": [
            "0xdccd412f0b1252819cb1fd330b93224ca42612892bb3f4f789976e6d81936496",
            "0x000000000000000000000000ee567fe1712faf6149d80da1e6934e354124cfe3",
            "0x000000000000000000000000eff3521fb13228c767ad6dc3b934f9efac9c56ad"
          ],
          "data": "0x0000000000000000000000000000000000000000000000000000e35fa931a0000000000000000000000000000000000000000000000000878678326eac77e5da",
          "blockHash": "0x49fb53bac350906c780ed8946391529a45ff093e8f9287c8c53c7dbd7c5b4623",
          "blockNumber": "0x90f188",
          "blockTimestamp": "0x68fef068",
          "transactionHash": "0x13cb91d66fdb7467dd8304e3cdab0b73cd161ed41f7ad6ae6fc0c527e6cb27f7",
          "transactionIndex": "0x39",
          "logIndex": "0x46",
          "removed": false
        }
      ],
      "logsBloom": "0x0000000000000000000000008000000002000000000000000000000000000002000080000000000000000200000000100000000800000000000000000820000000000000000000000000000810000000000000000000000000200000000000000a000004020000800000000000000800000000000000000000000010000000000000000000000000000000000000080000000000000000080000000000000000020000000000004000000000000000000000100000000040000000800000180000000002000000000000000000000000000000000010001000000000000020000010000000200000000000000200000000000000000000000080000000000000",
      "type": "0x2",
      "transactionHash": "0x13cb91d66fdb7467dd8304e3cdab0b73cd161ed41f7ad6ae6fc0c527e6cb27f7",
      "transactionIndex": "0x39",
      "blockHash": "0x49fb53bac350906c780ed8946391529a45ff093e8f9287c8c53c7dbd7c5b4623",
      "blockNumber": "0x90f188",
      "gasUsed": "0x2ac98",
      "effectiveGasPrice": "0xf424d",
      "from": "0xeff3521fb13228c767ad6dc3b934f9efac9c56ad",
      "to": "0xbfd4c35d5dd72deef603dd7edd85b2be9c14e9cd",
      "contractAddress": null
    }
  ],
  "libraries": [],
  "pending": [],
  "returns": {},
  "timestamp": 1761538158,
  "chain": 11155111,
  "commit": "b9ab932"
}