{
  "transactions": [
    {
      "hash": "0x62fa6ab4e559945edb671aa1cb82372e175f4b717b1b4a821fe24df1ed6cc4c2",
      "transactionType": "CALL",
      "contractName": null,
      "contractAddress": "0xf8d80ca3b525456711fce0456ee96b1caccf38ab",
      "function": "approve(address,uint256)",
      "arguments": [
        "0xbFd4c35D5dD72dEEf603Dd7EdD85B2BE9C14e9Cd",
        "2849999999999999440"
      ],
      "transaction": {
        "from": "0xeff3521fb13228c767ad6dc3b934f9efac9c56ad",
        "to": "0xf8d80ca3b525456711fce0456ee96b1caccf38ab",
        "gas": "0x1075a",
        "value": "0x0",
        "input": "0x095ea7b3000000000000000000000000bfd4c35d5dd72deef603dd7edd85b2be9c14e9cd000000000000000000000000000000000000000000000000278d3be669dcfdd0",
        "nonce": "0x108",
        "chainId": "0xaa36a7"
      },
      "additionalContracts": [],
      "isFixedGasLimit": false
    },
    {
      "hash": "0xf105a474dbe4a5bdbaf5572e0c7c10c09d6483eed0bc1ddc75fd092ff9262665",
      "transactionType": "CALL",
      "contractName": null,
      "contractAddress": "0xbfd4c35d5dd72deef603dd7edd85b2be9c14e9cd",
      "function": "removeLiquidity(address,address,uint256)",
      "arguments": [
        "0x1f9840a85d5aF5bf1D1762F925BDADdC4201F984",
        "0x0E1Efea9F52f99bAAC1ca663D41119C037258D54",
        "2849999999999999440"
      ],
      "transaction": {
        "from": "0xeff3521fb13228c767ad6dc3b934f9efac9c56ad",
        "to": "0xbfd4c35d5dd72deef603dd7edd85b2be9c14e9cd",
        "gas": "0x3acd5",
        "value": "0x0",
        "input": "0xd752fab20000000000000000000000001f9840a85d5af5bf1d1762f925bdaddc4201f9840000000000000000000000000e1efea9f52f99baac1ca663d41119c037258d54000000000000000000000000000000000000000000000000278d3be669dcfdd0",
        "nonce": "0x109",
        "chainId": "0xaa36a7"
      },
      "additionalContracts": [],
      "isFixedGasLimit": false
    }
  ],
  "receipts": [
    {
      "status": "0x1",
      "cumulativeGasUsed": "0xd5438d",
      "logs": [
        {
          "address": "0xf8d80ca3b525456711fce0456ee96b1caccf38ab",
          "topics": [
            "0x8c5be1e5ebec7d5bd14f71427d1e84f3dd0314c0f7b2291e5b200ac8c7c3b925",
            "0x000000000000000000000000eff3521fb13228c767ad6dc3b934f9efac9c56ad",
            "0x000000000000000000000000bfd4c35d5dd72deef603dd7edd85b2be9c14e9cd"
          ],
          "data": "0x000000000000000000000000000000000000000000000000278d3be669dcfdd0",
          "blockHash": "0x9142c4482c85a80a546fb77297ab5c9a393a634d2bec4218d5686206497b3b16",
          "blockNumber": "0x90f19b",
          "blockTimestamp": "0x68fef14c",
          "transactionHash": "0x62fa6ab4e559945edb671aa1cb82372e175f4b717b1b4a821fe24df1ed6cc4c2",
          "transactionIndex": "0x7a",
          "logIndex": "0x50",
          "removed": false
        }
      ],
      "logsBloom": "0x00000000000000000000000000000000000000000000000000000000000000020000000000000000000000000000000000000000000000000000000000200000000000000000000000000000000000000000000000000000002000000000000000000000000000800000000000000000000000000000000000010000000000000000000000000000000000000000000000000000000000000000000000000000020000000000000000000000000000000000100000000000000000000000000000000000000000000000004000000000000000000000000000000000000000000010000000200000000000000200000010000000000000000000000000000000",
      "type": "0x2",
      "transactionHash": "0x62fa6ab4e559945edb671aa1cb82372e175f4b717b1b4a821fe24df1ed6cc4c2",
      "transactionIndex": "0x7a",
      "blockHash": "0x9142c4482c85a80a546fb77297ab5c9a393a634d2bec4218d5686206497b3b16",
      "blockNumber": "0x90f19b",
      "gasUsed": "0xb412",
      "effectiveGasPrice": "0xf4249",
      "from": "0xeff3521fb13228c767ad6dc3b934f9efac9c56ad",
      "to": "0xf8d80ca3b525456711fce0456ee96b1caccf38ab",
      "contractAddress": null
    },
    {
      "status": "0x1",
      "cumulativeGasUsed": "0xd87454",
      "logs": [
        {
          "address": "0xf8d80ca3b525456711fce0456ee96b1caccf38ab",
          "topics": [
            "0xddf252ad1be2c89b69c2b068fc378daa952ba7f163c4a11628f55a4df523b3ef",
            "0x000000000000000000000000eff3521fb13228c767ad6dc3b934f9efac9c56ad",
            "0x000000000000000000000000bfd4c35d5dd72deef603dd7edd85b2be9c14e9cd"
          ],
          "data": "0x000000000000000000000000000000000000000000000000278d3be669dcfdd0",
          "blockHash": "0x9142c4482c85a80a546fb77297ab5c9a393a634d2bec4218d5686206497b3b16",
          "blockNumber": "0x90f19b",
          "blockTimestamp": "0x68fef14c",
          "transactionHash": "0xf105a474dbe4a5bdbaf5572e0c7c10c09d6483eed0bc1ddc75fd092ff9262665",
          "transactionIndex": "0x7c",
          "logIndex": "0x52",
          "removed": false
        },
        {
          "address": "0xf8d80ca3b525456711fce0456ee96b1caccf38ab",
          "topics": [
            "0x8c5be1e5ebec7d5bd14f71427d1e84f3dd0314c0f7b2291e5b200ac8c7c3b925",
            "0x000000000000000000000000bfd4c35d5dd72deef603dd7edd85b2be9c14e9cd",
            "0x000000000000000000000000ee567fe1712faf6149d80da1e6934e354124cfe3"
          ],
          "data": "0x000000000000000000000000000000000000000000000000278d3be669dcfdd0",
          "blockHash": "0x9142c4482c85a80a546fb77297ab5c9a393a634d2bec4218d5686206497b3b16",
          "blockNumber": "0x90f19b",
          "blockTimestamp": "0x68fef14c",
          "transactionHash": "0xf105a474dbe4a5bdbaf5572e0c7c10c09d6483eed0bc1ddc75fd092ff9262665",
          "transactionIndex": "0x7c",
          "logIndex": "0x53",
          "removed": false
        },
        {
          "address": "0xf8d80ca3b525456711fce0456ee96b1caccf38ab",
          "topics": [
            "0xddf252ad1be2c89b69c2b068fc378daa952ba7f163c4a11628f55a4df523b3ef",
            "0x000000000000000000000000bfd4c35d5dd72deef603dd7edd85b2be9c14e9cd",
            "0x000000000000000000000000f8d80ca3b525456711fce0456ee96b1caccf38ab"
          ],
          "data": "0x000000000000000000000000000000000000000000000000278d3be669dcfdd0",
          "blockHash": "0x9142c4482c85a80a546fb77297ab5c9a393a634d2bec4218d5686206497b3b16",
          "blockNumber": "0x90f19b",
          "blockTimestamp": "0x68fef14c",
          "transactionHash": "0xf105a474dbe4a5bdbaf5572e0c7c10c09d6483eed0bc1ddc75fd092ff9262665",
          "transactionIndex": "0x7c",
          "logIndex": "0x54",
          "removed": false
        },
        {
          "address": "0xf8d80ca3b525456711fce0456ee96b1caccf38ab",
          "topics": [
            "0xddf252ad1be2c89b69c2b068fc378daa952ba7f163c4a11628f55a4df523b3ef",
            "0x000000000000000000000000f8d80ca3b525456711fce0456ee96b1caccf38ab",
            "0x0000000000000000000000000000000000000000000000000000000000000000"
          ],
          "data": "0x000000000000000000000000000000000000000000000000278d3be669dcfdd0",
          "blockHash": "0x9142c4482c85a80a546fb77297ab5c9a393a634d2bec4218d5686206497b3b16",
          "blockNumber": "0x90f19b",
          "blockTimestamp": "0x68fef14c",
          "transactionHash": "0xf105a474dbe4a5bdbaf5572e0c7c10c09d6483eed0bc1ddc75fd092ff9262665",
          "transactionIndex": "0x7c",
          "logIndex": "0x55",
          "removed": false
        },
        {
          "address": "0x0e1efea9f52f99baac1ca663d41119c037258d54",
          "topics": [
            "0xddf252ad1be2c89b69c2b068fc378daa952ba7f163c4a11628f55a4df523b3ef",
            "0x000000000000000000000000f8d80ca3b525456711fce0456ee96b1caccf38ab",
            "0x000000000000000000000000eff3521fb13228c767ad6dc3b934f9efac9c56ad"
          ],
          "data": "0x00000000000000000000000000000000000000000000009a7fb1fc0d873f7917",
          "blockHash": "0x9142c4482c85a80a546fb77297ab5c9a393a634d2bec4218d5686206497b3b16",
          "blockNumber": "0x90f19b",
          "blockTimestamp": "0x68fef14c",
          "transactionHash": "0xf105a474dbe4a5bdbaf5572e0c7c10c09d6483eed0bc1ddc75fd092ff9262665",
          "transactionIndex": "0x7c",
          "logIndex": "0x56",
          "removed": false
        },
        {
          "address": "0x1f9840a85d5af5bf1d1762f925bdaddc4201f984",
          "topics": [
            "0xddf252ad1be2c89b69c2b068fc378daa952ba7f163c4a11628f55a4df523b3ef",
            "0x000000000000000000000000f8d80ca3b525456711fce0456ee96b1caccf38ab",
            "0x000000000000000000000000eff3521fb13228c767ad6dc3b934f9efac9c56ad"
          ],
          "data": "0x000000000000000000000000000000000000000000000000000a200f559c1fff",
          "blockHash": "0x9142c4482c85a80a546fb77297ab5c9a393a634d2bec4218d5686206497b3b16",
          "blockNumber": "0x90f19b",
          "blockTimestamp": "0x68fef14c",
          "transactionHash": "0xf105a474dbe4a5bdbaf5572e0c7c10c09d6483eed0bc1ddc75fd092ff9262665",
          "transactionIndex": "0x7c",
          "logIndex": "0x57",
          "removed": false
        },
        {
          "address": "0xf8d80ca3b525456711fce0456ee96b1caccf38ab",
          "topics": [
            "0x1c411e9a96e071241c2f21f7726b17ae89e3cab4c78be50e062b03a9fffbbad1"
          ],
          "data": "0x00000000000000000000000000000000000000000000000000000000000f42410000000000000000000000000000000000000000000000000000000000000002",
          "blockHash": "0x9142c4482c85a80a546fb77297ab5c9a393a634d2bec4218d5686206497b3b16",
          "blockNumber": "0x90f19b",
          "blockTimestamp": "0x68fef14c",
          "transactionHash": "0xf105a474dbe4a5bdbaf5572e0c7c10c09d6483eed0bc1ddc75fd092ff9262665",
          "transactionIndex": "0x7c",
          "logIndex": "0x58",
          "removed": false
        },
        {
          "address": "0xf8d80ca3b525456711fce0456ee96b1caccf38ab",
          "topics": [
            "0xdccd412f0b1252819cb1fd330b93224ca42612892bb3f4f789976e6d81936496",
            "0x000000000000000000000000ee567fe1712faf6149d80da1e6934e354124cfe3",
            "0x000000000000000000000000eff3521fb13228c767ad6dc3b934f9efac9c56ad"
          ],
          "data": "0x00000000000000000000000000000000000000000000009a7fb1fc0d873f7917000000000000000000000000000000000000000000000000000a200f559c1fff",
          "blockHash": "0x9142c4482c85a80a546fb77297ab5c9a393a634d2bec4218d5686206497b3b16",
          "blockNumber": "0x90f19b",
          "blockTimestamp": "0x68fef14c",
          "transactionHash": "0xf105a474dbe4a5bdbaf5572e0c7c10c09d6483eed0bc1ddc75fd092ff9262665",
          "transactionIndex": "0x7c",
          "logIndex": "0x59",
          "removed": false
        }
      ],
      "logsBloom": "0x00000100000000000000000080000000000000000000000000000000000000020000000000020000000000000000001000000000000000000000000008200000000000000000000000000008100000000000000000000000002000000000000008000004020000800000000000000800000000000000000000010010000000000000000000000000000000000000080001000000000000080000000000000000024000000080004000000000000000000000100000000000000000800000000000000002000000000000004000000004000000000000001000000000000020000010000000200000000000000200000010000000000000000080000000000000",
      "type": "0x2",
      "transactionHash": "0xf105a474dbe4a5bdbaf5572e0c7c10c09d6483eed0bc1ddc75fd092ff9262665",
      "transactionIndex": "0x7c",
      "blockHash": "0x9142c4482c85a80a546fb77297ab5c9a393a634d2bec4218d5686206497b3b16",
      "blockNumber": "0x90f19b",
      "gasUsed": "0x2a926",
      "effectiveGasPrice": "0xf4249",
      "from": "0xeff3521fb13228c767ad6dc3b934f9efac9c56ad",
      "to": "0xbfd4c35d5dd72deef603dd7edd85b2be9c14e9cd",
      "contractAddress": null
    }
  ],
  "libraries": [],
  "pending": [],
  "returns": {},
  "timestamp": 1761538385,
  "chain": 11155111,
  "commit": "b9ab932"
}