{
  "transactions": [
    {
      "hash": "0x35b7e40838b360d62249b9e31e8682f474ef73d7d0665e148a06d4e1a751e6c4",
      "transactionType": "CALL",
      "contractName": null,
      "contractAddress": "0xf8d80ca3b525456711fce0456ee96b1caccf38ab",
      "function": "approve(address,uint256)",
      "arguments": [
        "0xD452F4925Fc63A00ea03982Ab4E4D27bE79DA0B8",
        "2549999999999999500"
      ],
      "transaction": {
        "from": "0xeff3521fb13228c767ad6dc3b934f9efac9c56ad",
        "to": "0xf8d80ca3b525456711fce0456ee96b1caccf38ab",
        "gas": "0xf8a7",
        "value": "0x0",
        "input": "0x095ea7b3000000000000000000000000d452f4925fc63a00ea03982ab4e4d27be79da0b800000000000000000000000000000000000000000000000023636b7d513efe0c",
        "nonce": "0xdb",
        "chainId": "0xaa36a7"
      },
      "additionalContracts": [],
      "isFixedGasLimit": false
    },
    {
      "hash": "0x13508c6c1d081fbe6778d85dd9f2c871d7a3fc90c7de0ce194e0a223c65d0a56",
      "transactionType": "CALL",
      "contractName": null,
      "contractAddress": "0xd452f4925fc63a00ea03982ab4e4d27be79da0b8",
      "function": "removeLiquidity(address,address,uint256)",
      "arguments": [
        "0x1f9840a85d5aF5bf1D1762F925BDADdC4201F984",
        "0x0E1Efea9F52f99bAAC1ca663D41119C037258D54",
        "2549999999999999500"
      ],
      "transaction": {
        "from": "0xeff3521fb13228c767ad6dc3b934f9efac9c56ad",
        "to": "0xd452f4925fc63a00ea03982ab4e4d27be79da0b8",
        "gas": "0x39ec5",
        "value": "0x0",
        "input": "0xd752fab20000000000000000000000001f9840a85d5af5bf1d1762f925bdaddc4201f9840000000000000000000000000e1efea9f52f99baac1ca663d41119c037258d5400000000000000000000000000000000000000000000000023636b7d513efe0c",
        "nonce": "0xdc",
        "chainId": "0xaa36a7"
      },
      "additionalContracts": [],
      "isFixedGasLimit": false
    }
  ],
  "receipts": [
    {
      "status": "0x1",
      "cumulativeGasUsed": "0x11a7939",
      "logs": [
        {
          "address": "0xf8d80ca3b525456711fce0456ee96b1caccf38ab",
          "topics": [
            "0x8c5be1e5ebec7d5bd14f71427d1e84f3dd0314c0f7b2291e5b200ac8c7c3b925",
            "0x000000000000000000000000eff3521fb13228c767ad6dc3b934f9efac9c56ad",
            "0x000000000000000000000000d452f4925fc63a00ea03982ab4e4d27be79da0b8"
          ],
          "data": "0x00000000000000000000000000000000000000000000000023636b7d513efe0c",
          "blockHash": "0x0ed1f0db582dc5133173414a66efe7a95502f8757b32a92ddfa40ac106e263e5",
          "blockNumber": "0x90d8b5",
          "blockTimestamp": "0x68fdc618",
          "transactionHash": "0x35b7e40838b360d62249b9e31e8682f474ef73d7d0665e148a06d4e1a751e6c4",
          "transactionIndex": "0x48",
          "logIndex": "0x78",
          "removed": false
        }
      ],
      "logsBloom": "0x00000000000000000000000000000000000000000000000000000000000000020000000000000000000000000000000000000000000000000000000000200000000800000000000000000000000000000000000000000000002000000000000000000000000000000000000000000000000000000000000000010000000000000000000000000001000000000000000000000000000000000000000000000000020000000000000000000000000000000000100000000000000000000000000000000000000000000000004000004000000000000000000000000000000000000010000000000000000000000000000010000000000000000000000000000000",
      "type": "0x2",
      "transactionHash": "0x35b7e40838b360d62249b9e31e8682f474ef73d7d0665e148a06d4e1a751e6c4",
      "transactionIndex": "0x48",
      "blockHash": "0x0ed1f0db582dc5133173414a66efe7a95502f8757b32a92ddfa40ac106e263e5",
      "blockNumber": "0x90d8b5",
      "gasUsed": "0xb406",
      "effectiveGasPrice": "0xf4248",
      "from": "0xeff3521fb13228c767ad6dc3b934f9efac9c56ad",
      "to": "0xf8d80ca3b525456711fce0456ee96b1caccf38ab",
      "contractAddress": null
    },
    {
      "status": "0x1",
      "cumulativeGasUsed": "0x11d1831",
      "logs": [
        {
          "address": "0xf8d80ca3b525456711fce0456ee96b1caccf38ab",
          "topics": [
            "0xddf252ad1be2c89b69c2b068fc378daa952ba7f163c4a11628f55a4df523b3ef",
            "0x000000000000000000000000eff3521fb13228c767ad6dc3b934f9efac9c56ad",
            "0x000000000000000000000000d452f4925fc63a00ea03982ab4e4d27be79da0b8"
          ],
          "data": "0x00000000000000000000000000000000000000000000000023636b7d513efe0c",
          "blockHash": "0x0ed1f0db582dc5133173414a66efe7a95502f8757b32a92ddfa40ac106e263e5",
          "blockNumber": "0x90d8b5",
          "blockTimestamp": "0x68fdc618",
          "transactionHash": "0x13508c6c1d081fbe6778d85dd9f2c871d7a3fc90c7de0ce194e0a223c65d0a56",
          "transactionIndex": "0x49",
          "logIndex": "0x79",
          "removed": false
        },
        {
          "address": "0xf8d80ca3b525456711fce0456ee96b1caccf38ab",
          "topics": [
            "0x8c5be1e5ebec7d5bd14f71427d1e84f3dd0314c0f7b2291e5b200ac8c7c3b925",
            "0x000000000000000000000000d452f4925fc63a00ea03982ab4e4d27be79da0b8",
            "0x000000000000000000000000ee567fe1712faf6149d80da1e6934e354124cfe3"
          ],
          "data": "0x00000000000000000000000000000000000000000000000023636b7d513efe0c",
          "blockHash": "0x0ed1f0db582dc5133173414a66efe7a95502f8757b32a92ddfa40ac106e263e5",
          "blockNumber": "0x90d8b5",
          "blockTimestamp": "0x68fdc618",
          "transactionHash": "0x13508c6c1d081fbe6778d85dd9f2c871d7a3fc90c7de0ce194e0a223c65d0a56",
          "transactionIndex": "0x49",
          "logIndex": "0x7a",
          "removed": false
        },
        {
          "address": "0xf8d80ca3b525456711fce0456ee96b1caccf38ab",
          "topics": [
            "0xddf252ad1be2c89b69c2b068fc378daa952ba7f163c4a11628f55a4df523b3ef",
            "0x000000000000000000000000d452f4925fc63a00ea03982ab4e4d27be79da0b8",
            "0x000000000000000000000000f8d80ca3b525456711fce0456ee96b1caccf38ab"
          ],
          "data": "0x00000000000000000000000000000000000000000000000023636b7d513efe0c",
          "blockHash": "0x0ed1f0db582dc5133173414a66efe7a95502f8757b32a92ddfa40ac106e263e5",
          "blockNumber": "0x90d8b5",
          "blockTimestamp": "0x68fdc618",
          "transactionHash": "0x13508c6c1d081fbe6778d85dd9f2c871d7a3fc90c7de0ce194e0a223c65d0a56",
          "transactionIndex": "0x49",
          "logIndex": "0x7b",
          "removed": false
        },
        {
          "address": "0xf8d80ca3b525456711fce0456ee96b1caccf38ab",
          "topics": [
            "0xddf252ad1be2c89b69c2b068fc378daa952ba7f163c4a11628f55a4df523b3ef",
            "0x000000000000000000000000f8d80ca3b525456711fce0456ee96b1caccf38ab",
            "0x0000000000000000000000000000000000000000000000000000000000000000"
          ],
          "data": "0x00000000000000000000000000000000000000000000000023636b7d513efe0c",
          "blockHash": "0x0ed1f0db582dc5133173414a66efe7a95502f8757b32a92ddfa40ac106e263e5",
          "blockNumber": "0x90d8b5",
          "blockTimestamp": "0x68fdc618",
          "transactionHash": "0x13508c6c1d081fbe6778d85dd9f2c871d7a3fc90c7de0ce194e0a223c65d0a56",
          "transactionIndex": "0x49",
          "logIndex": "0x7c",
          "removed": false
        },
        {
          "address": "0x0e1efea9f52f99baac1ca663d41119c037258d54",
          "topics": [
            "0xddf252ad1be2c89b69c2b068fc378daa952ba7f163c4a11628f55a4df523b3ef",
            "0x000000000000000000000000f8d80ca3b525456711fce0456ee96b1caccf38ab",
            "0x000000000000000000000000eff3521fb13228c767ad6dc3b934f9efac9c56ad"
          ],
          "data": "0x00000000000000000000000000000000000000000000008a3c5be1855e105ee0",
          "blockHash": "0x0ed1f0db582dc5133173414a66efe7a95502f8757b32a92ddfa40ac106e263e5",
          "blockNumber": "0x90d8b5",
          "blockTimestamp": "0x68fdc618",
          "transactionHash": "0x13508c6c1d081fbe6778d85dd9f2c871d7a3fc90c7de0ce194e0a223c65d0a56",
          "transactionIndex": "0x49",
          "logIndex": "0x7d",
          "removed": false
        },
        {
          "address": "0x1f9840a85d5af5bf1d1762f925bdaddc4201f984",
          "topics": [
            "0xddf252ad1be2c89b69c2b068fc378daa952ba7f163c4a11628f55a4df523b3ef",
            "0x000000000000000000000000f8d80ca3b525456711fce0456ee96b1caccf38ab",
            "0x000000000000000000000000eff3521fb13228c767ad6dc3b934f9efac9c56ad"
          ],
          "data": "0x00000000000000000000000000000000000000000000000000090f36242d5fff",
          "blockHash": "0x0ed1f0db582dc5133173414a66efe7a95502f8757b32a92ddfa40ac106e263e5",
          "blockNumber": "0x90d8b5",
          "blockTimestamp": "0x68fdc618",
          "transactionHash": "0x13508c6c1d081fbe6778d85dd9f2c871d7a3fc90c7de0ce194e0a223c65d0a56",
          "transactionIndex": "0x49",
          "logIndex": "0x7e",
          "removed": false
        },
        {
          "address": "0xf8d80ca3b525456711fce0456ee96b1caccf38ab",
          "topics": [
            "0x1c411e9a96e071241c2f21f7726b17ae89e3cab4c78be50e062b03a9fffbbad1"
          ],
          "data": "0x00000000000000000000000000000000000000000000008a3c5be1855e1fa12000000000000000000000000000000000000000000000000000090f36242d6001",
          "blockHash": "0x0ed1f0db582dc5133173414a66efe7a95502f8757b32a92ddfa40ac106e263e5",
          "blockNumber": "0x90d8b5",
          "blockTimestamp": "0x68fdc618",
          "transactionHash": "0x13508c6c1d081fbe6778d85dd9f2c871d7a3fc90c7de0ce194e0a223c65d0a56",
          "transactionIndex": "0x49",
          "logIndex": "0x7f",
          "removed": false
        },
        {
          "address": "0xf8d80ca3b525456711fce0456ee96b1caccf38ab",
          "topics": [
            "0xdccd412f0b1252819cb1fd330b93224ca42612892bb3f4f789976e6d81936496",
            "0x000000000000000000000000ee567fe1712faf6149d80da1e6934e354124cfe3",
            "0x000000000000000000000000eff3521fb13228c767ad6dc3b934f9efac9c56ad"
          ],
          "data": "0x00000000000000000000000000000000000000000000008a3c5be1855e105ee000000000000000000000000000000000000000000000000000090f36242d5fff",
          "blockHash": "0x0ed1f0db582dc5133173414a66efe7a95502f8757b32a92ddfa40ac106e263e5",
          "blockNumber": "0x90d8b5",
          "blockTimestamp": "0x68fdc618",
          "transactionHash": "0x13508c6c1d081fbe6778d85dd9f2c871d7a3fc90c7de0ce194e0a223c65d0a56",
          "transactionIndex": "0x49",
          "logIndex": "0x80",
          "removed": false
        }
      ],
      "logsBloom": "0x00000100000000000000000080000000000000000000000000000000000000020000000000020000000000000000001000000000000000000000000008200000000800000000000000000008100000000000000000000000002000000000000008000004020000000000000000000800000000000000000000010010000000000000000000000001000000000000080001000000000000080000000000000000024000000080004000000000000000000000100000000000000000800000000000000002000000000000004000004004000000000000001000000000000020000010000000000000000000000000000010000000000000000080000000000000",
      "type": "0x2",
      "transactionHash": "0x13508c6c1d081fbe6778d85dd9f2c871d7a3fc90c7de0ce194e0a223c65d0a56",
      "transactionIndex": "0x49",
      "blockHash": "0x0ed1f0db582dc5133173414a66efe7a95502f8757b32a92ddfa40ac106e263e5",
      "blockNumber": "0x90d8b5",
      "gasUsed": "0x29ef8",
      "effectiveGasPrice": "0xf4248",
      "from": "0xeff3521fb13228c767ad6dc3b934f9efac9c56ad",
      "to": "0xd452f4925fc63a00ea03982ab4e4d27be79da0b8",
      "contractAddress": null
    }
  ],
  "libraries": [],
  "pending": [],
  "returns": {},
  "timestamp": 1761461792,
  "chain": 11155111,
  "commit": "0754351"
}