{
  "transactions": [
    {
      "hash": "0xa10935cfb0ae8c5c65ff08d608ac50b82123086b96e4d512941cb47d0f263af3",
      "transactionType": "CALL",
      "contractName": null,
      "contractAddress": "0x6c64e8278b7d5513143d59bf1484b0e6972e4505",
      "function": "approve(address,uint256)",
      "arguments": [
        "0xE8240Fdb32C607c7adaC21888873F1DfF72cdFA8",
        "7000000000000000000000"
      ],
      "transaction": {
        "from": "0xeff3521fb13228c767ad6dc3b934f9efac9c56ad",
        "to": "0x6c64e8278b7d5513143d59bf1484b0e6972e4505",
        "gas": "0xfd73",
        "value": "0x0",
        "input": "0x095ea7b3000000000000000000000000e8240fdb32c607c7adac21888873f1dff72cdfa800000000000000000000000000000000000000000000017b7883c06916600000",
        "nonce": "0x114",
        "chainId": "0xaa36a7"
      },
      "additionalContracts": [],
      "isFixedGasLimit": false
    },
    {
      "hash": "0x85743e78dfe73ca0e11624cedc7e4610d973e0ea75c5f50a9aeab50adaab9c31",
      "transactionType": "CALL",
      "contractName": null,
      "contractAddress": "0xe8240fdb32c607c7adac21888873f1dff72cdfa8",
      "function": "addLiquidityETH(address,uint256)",
      "arguments": [
        "0x6c64E8278B7d5513143D59Bf1484B0e6972e4505",
        "7000000000000000000000"
      ],
      "transaction": {
        "from": "0xeff3521fb13228c767ad6dc3b934f9efac9c56ad",
        "to": "0xe8240fdb32c607c7adac21888873f1dff72cdfa8",
        "gas": "0x411bd",
        "value": "0x7dd408b73b3ec",
        "input": "0x7282d5480000000000000000000000006c64e8278b7d5513143d59bf1484b0e6972e450500000000000000000000000000000000000000000000017b7883c06916600000",
        "nonce": "0x115",
        "chainId": "0xaa36a7"
      },
      "additionalContracts": [],
      "isFixedGasLimit": false
    }
  ],
  "receipts": [
    {
      "status": "0x1",
      "cumulativeGasUsed": "0x1505c40",
      "logs": [
        {
          "address": "0x6c64e8278b7d5513143d59bf1484b0e6972e4505",
          "topics": [
            "0x8c5be1e5ebec7d5bd14f71427d1e84f3dd0314c0f7b2291e5b200ac8c7c3b925",
            "0x000000000000000000000000eff3521fb13228c767ad6dc3b934f9efac9c56ad",
            "0x000000000000000000000000e8240fdb32c607c7adac21888873f1dff72cdfa8"
          ],
          "data": "0x00000000000000000000000000000000000000000000017b7883c06916600000",
          "blockHash": "0x9750686f248c257f6382fb235096768c26fcf2c8cf90c9dfd92c17bddf1b629e",
          "blockNumber": "0x910d94",
          "blockTimestamp": "0x69004530",
          "transactionHash": "0xa10935cfb0ae8c5c65ff08d608ac50b82123086b96e4d512941cb47d0f263af3",
          "transactionIndex": "0x58",
          "logIndex": "0x98",
          "removed": false
        }
      ],
      "logsBloom": "0x00000000000000000000000000000000000000000000000000000000000000020000000000000000000000000000000000000000000000100000000000200000000000000000000000000000000000000000000000000000002000000000000000000000000000000000000000000000000000000000000000000000000000000000000010000000000000000000000000000000000000000000000000000000020000000000000000000000000000000000100000000040000000000000100000000000000000000000000000000000000000000010000000000000000000000010000000000000040000000000000000000000000000000000000000000000",
      "type": "0x2",
      "transactionHash": "0xa10935cfb0ae8c5c65ff08d608ac50b82123086b96e4d512941cb47d0f263af3",
      "transactionIndex": "0x58",
      "blockHash": "0x9750686f248c257f6382fb235096768c26fcf2c8cf90c9dfd92c17bddf1b629e",
      "blockNumber": "0x910d94",
      "gasUsed": "0xb77f",
      "effectiveGasPrice": "0xf4249",
      "from": "0xeff3521fb13228c767ad6dc3b934f9efac9c56ad",
      "to": "0x6c64e8278b7d5513143d59bf1484b0e6972e4505",
      "contractAddress": null
    },
    {
      "status": "0x1",
      "cumulativeGasUsed": "0x1534e74",
      "logs": [
        {
          "address": "0x6c64e8278b7d5513143d59bf1484b0e6972e4505",
          "topics": [
            "0xddf252ad1be2c89b69c2b068fc378daa952ba7f163c4a11628f55a4df523b3ef",
            "0x000000000000000000000000eff3521fb13228c767ad6dc3b934f9efac9c56ad",
            "0x000000000000000000000000e8240fdb32c607c7adac21888873f1dff72cdfa8"
          ],
          "data": "0x00000000000000000000000000000000000000000000017b7883c06916600000",
          "blockHash": "0x9750686f248c257f6382fb235096768c26fcf2c8cf90c9dfd92c17bddf1b629e",
          "blockNumber": "0x910d94",
          "blockTimestamp": "0x69004530",
          "transactionHash": "0x85743e78dfe73ca0e11624cedc7e4610d973e0ea75c5f50a9aeab50adaab9c31",
          "transactionIndex": "0x59",
          "logIndex": "0x99",
          "removed": false
        },
        {
          "address": "0x6c64e8278b7d5513143d59bf1484b0e6972e4505",
          "topics": [
            "0x8c5be1e5ebec7d5bd14f71427d1e84f3dd0314c0f7b2291e5b200ac8c7c3b925",
            "0x000000000000000000000000e8240fdb32c607c7adac21888873f1dff72cdfa8",
            "0x000000000000000000000000ee567fe1712faf6149d80da1e6934e354124cfe3"
          ],
          "data": "0x00000000000000000000000000000000000000000000017b7883c06916600000",
          "blockHash": "0x9750686f248c257f6382fb235096768c26fcf2c8cf90c9dfd92c17bddf1b629e",
          "blockNumber": "0x910d94",
          "blockTimestamp": "0x69004530",
          "transactionHash": "0x85743e78dfe73ca0e11624cedc7e4610d973e0ea75c5f50a9aeab50adaab9c31",
          "transactionIndex": "0x59",
          "logIndex": "0x9a",
          "removed": false
        },
        {
          "address": "0x6c64e8278b7d5513143d59bf1484b0e6972e4505",
          "topics": [
            "0xddf252ad1be2c89b69c2b068fc378daa952ba7f163c4a11628f55a4df523b3ef",
            "0x000000000000000000000000e8240fdb32c607c7adac21888873f1dff72cdfa8",
            "0x000000000000000000000000f19ef33379cfcc00648db052be5a22c93d08c6d4"
          ],
          "data": "0x00000000000000000000000000000000000000000000017b7883c06916600000",
          "blockHash": "0x9750686f248c257f6382fb235096768c26fcf2c8cf90c9dfd92c17bddf1b629e",
          "blockNumber": "0x910d94",
          "blockTimestamp": "0x69004530",
          "transactionHash": "0x85743e78dfe73ca0e11624cedc7e4610d973e0ea75c5f50a9aeab50adaab9c31",
          "transactionIndex": "0x59",
          "logIndex": "0x9b",
          "removed": false
        },
        {
          "address": "0xfff9976782d46cc05630d1f6ebab18b2324d6b14",
          "topics": [
            "0xe1fffcc4923d04b559f4d29a8bfc6cda04eb5b0d3c460751c2402c5c5cc9109c",
            "0x000000000000000000000000ee567fe1712faf6149d80da1e6934e354124cfe3"
          ],
          "data": "0x0000000000000000000000000000000000000000000000000007dd408b73b3ec",
          "blockHash": "0x9750686f248c257f6382fb235096768c26fcf2c8cf90c9dfd92c17bddf1b629e",
          "blockNumber": "0x910d94",
          "blockTimestamp": "0x69004530",
          "transactionHash": "0x85743e78dfe73ca0e11624cedc7e4610d973e0ea75c5f50a9aeab50adaab9c31",
          "transactionIndex": "0x59",
          "logIndex": "0x9c",
          "removed": false
        },
        {
          "address": "0xfff9976782d46cc05630d1f6ebab18b2324d6b14",
          "topics": [
            "0xddf252ad1be2c89b69c2b068fc378daa952ba7f163c4a11628f55a4df523b3ef",
            "0x000000000000000000000000ee567fe1712faf6149d80da1e6934e354124cfe3",
            "0x000000000000000000000000f19ef33379cfcc00648db052be5a22c93d08c6d4"
          ],
          "data": "0x0000000000000000000000000000000000000000000000000007dd408b73b3ec",
          "blockHash": "0x9750686f248c257f6382fb235096768c26fcf2c8cf90c9dfd92c17bddf1b629e",
          "blockNumber": "0x910d94",
          "blockTimestamp": "0x69004530",
          "transactionHash": "0x85743e78dfe73ca0e11624cedc7e4610d973e0ea75c5f50a9aeab50adaab9c31",
          "transactionIndex": "0x59",
          "logIndex": "0x9d",
          "removed": false
        },
        {
          "address": "0xf19ef33379cfcc00648db052be5a22c93d08c6d4",
          "topics": [
            "0xddf252ad1be2c89b69c2b068fc378daa952ba7f163c4a11628f55a4df523b3ef",
            "0x0000000000000000000000000000000000000000000000000000000000000000",
            "0x000000000000000000000000eff3521fb13228c767ad6dc3b934f9efac9c56ad"
          ],
          "data": "0x0000000000000000000000000000000000000000000000001eb84420bbf6d1e0",
          "blockHash": "0x9750686f248c257f6382fb235096768c26fcf2c8cf90c9dfd92c17bddf1b629e",
          "blockNumber": "0x910d94",
          "blockTimestamp": "0x69004530",
          "transactionHash": "0x85743e78dfe73ca0e11624cedc7e4610d973e0ea75c5f50a9aeab50adaab9c31",
          "transactionIndex": "0x59",
          "logIndex": "0x9e",
          "removed": false
        },
        {
          "address": "0xf19ef33379cfcc00648db052be5a22c93d08c6d4",
          "topics": [
            "0x1c411e9a96e071241c2f21f7726b17ae89e3cab4c78be50e062b03a9fffbbad1"
          ],
          "data": "0x00000000000000000000000000000000000000000000017b7883c069169040a60000000000000000000000000000000000000000000000000007dd408b73b3ed",
          "blockHash": "0x9750686f248c257f6382fb235096768c26fcf2c8cf90c9dfd92c17bddf1b629e",
          "blockNumber": "0x910d94",
          "blockTimestamp": "0x69004530",
          "transactionHash": "0x85743e78dfe73ca0e11624cedc7e4610d973e0ea75c5f50a9aeab50adaab9c31",
          "transactionIndex": "0x59",
          "logIndex": "0x9f",
          "removed": false
        },
        {
          "address": "0xf19ef33379cfcc00648db052be5a22c93d08c6d4",
          "topics": [
            "0x4c209b5fc8ad50758f13e2e1088ba56a560dff690a1c6fef26394f4c03821c4f",
            "0x000000000000000000000000ee567fe1712faf6149d80da1e6934e354124cfe3"
          ],
          "data": "0x00000000000000000000000000000000000000000000017b7883c069166000000000000000000000000000000000000000000000000000000007dd408b73b3ec",
          "blockHash": "0x9750686f248c257f6382fb235096768c26fcf2c8cf90c9dfd92c17bddf1b629e",
          "blockNumber": "0x910d94",
          "blockTimestamp": "0x69004530",
          "transactionHash": "0x85743e78dfe73ca0e11624cedc7e4610d973e0ea75c5f50a9aeab50adaab9c31",
          "transactionIndex": "0x59",
          "logIndex": "0xa0",
          "removed": false
        },
        {
          "address": "0xe8240fdb32c607c7adac21888873f1dff72cdfa8",
          "topics": [
            "0x4a1a2a6176e9646d9e3157f7c2ab3c499f18337c0b0828cfb28e0a61de4a11f7"
          ],
          "data": "0x0000000000000000000000006c64e8278b7d5513143d59bf1484b0e6972e4505000000000000000000000000000000000000000000000000000000000000000000000000000000000000000000000000000000000000017b7883c069166000000000000000000000000000000000000000000000000000000007dd408b73b3ec0000000000000000000000000000000000000000000000001eb84420bbf6d1e0",
          "blockHash": "0x9750686f248c257f6382fb235096768c26fcf2c8cf90c9dfd92c17bddf1b629e",
          "blockNumber": "0x910d94",
          "blockTimestamp": "0x69004530",
          "transactionHash": "0x85743e78dfe73ca0e11624cedc7e4610d973e0ea75c5f50a9aeab50adaab9c31",
          "transactionIndex": "0x59",
          "logIndex": "0xa1",
          "removed": false
        }
      ],
      "logsBloom": "0x00000000000000000000000080000000000000000000000000000000000001020000000000000000000000000000000000000000000000100000000008200000000000000000000000000048000000000800000000000000002000008000000000000000020000000040800000000800000000000008000000400010000000000040000014000000000000000000400000000001000000080101000000010000020020000000000000000000000000000000100000000040000000800000100000000002000000000002000000020000040000000010001000000000000028000010000000000000040000000000000000000000000000400080000000000000",
      "type": "0x2",
      "transactionHash": "0x85743e78dfe73ca0e11624cedc7e4610d973e0ea75c5f50a9aeab50adaab9c31",
      "transactionIndex": "0x59",
      "blockHash": "0x9750686f248c257f6382fb235096768c26fcf2c8cf90c9dfd92c17bddf1b629e",
      "blockNumber": "0x910d94",
      "gasUsed": "0x2f234",
      "effectiveGasPrice": "0xf4249",
      "from": "0xeff3521fb13228c767ad6dc3b934f9efac9c56ad",
      "to": "0xe8240fdb32c607c7adac21888873f1dff72cdfa8",
      "contractAddress": null
    }
  ],
  "libraries": [],
  "pending": [],
  "returns": {},
  "timestamp": 1761625394,
  "chain": 11155111,
  "commit": "4457f8a"
}