{
  "transactions": [
    {
      "hash": "0x1a235ebadbdb79808b8d9bd13a3f4d17f2d89620019f294e565d92bd36f72d9a",
      "transactionType": "CALL",
      "contractName": null,
      "contractAddress": "0x1f9840a85d5af5bf1d1762f925bdaddc4201f984",
      "function": "approve(address,uint256)",
      "arguments": [
        "0x1BF7B1CaE8bf95A77734dc477c1Dda67418A1cf0",
        "6000000000000000"
      ],
      "transaction": {
        "from": "0xeff3521fb13228c767ad6dc3b934f9efac9c56ad",
        "to": "0x1f9840a85d5af5bf1d1762f925bdaddc4201f984",
        "gas": "0x10ba5",
        "value": "0x0",
        "input": "0x095ea7b30000000000000000000000001bf7b1cae8bf95a77734dc477c1dda67418a1cf0000000000000000000000000000000000000000000000000001550f7dca70000",
        "nonce": "0x12d",
        "chainId": "0xaa36a7"
      },
      "additionalContracts": [],
      "isFixedGasLimit": false
    },
    {
      "hash": "0xd5f621256f63e5412e4bdcb1c1ab741794b2851c2f6ff622a7ca4d4ff661cc4b",
      "transactionType": "CALL",
      "contractName": null,
      "contractAddress": "0x1bf7b1cae8bf95a77734dc477c1dda67418a1cf0",
      "function": "addLiquidityETH(address,uint256)",
      "arguments": [
        "0x1f9840a85d5aF5bf1D1762F925BDADdC4201F984",
        "6000000000000000"
      ],
      "transaction": {
        "from": "0xeff3521fb13228c767ad6dc3b934f9efac9c56ad",
        "to": "0x1bf7b1cae8bf95a77734dc477c1dda67418a1cf0",
        "gas": "0x44443",
        "value": "0x2299aefe1873a47",
        "input": "0x7282d5480000000000000000000000001f9840a85d5af5bf1d1762f925bdaddc4201f984000000000000000000000000000000000000000000000000001550f7dca70000",
        "nonce": "0x12e",
        "chainId": "0xaa36a7"
      },
      "additionalContracts": [],
      "isFixedGasLimit": false
    }
  ],
  "receipts": [
    {
      "status": "0x1",
      "cumulativeGasUsed": "0x19a92c9",
      "logs": [
        {
          "address": "0x1f9840a85d5af5bf1d1762f925bdaddc4201f984",
          "topics": [
            "0x8c5be1e5ebec7d5bd14f71427d1e84f3dd0314c0f7b2291e5b200ac8c7c3b925",
            "0x000000000000000000000000eff3521fb13228c767ad6dc3b934f9efac9c56ad",
            "0x0000000000000000000000001bf7b1cae8bf95a77734dc477c1dda67418a1cf0"
          ],
          "data": "0x000000000000000000000000000000000000000000000000001550f7dca70000",
          "blockHash": "0xed299c01a66d8cfb18b893ebe447c3945201c65eefa6417c58175a607373cf3c",
          "blockNumber": "0x9113b8",
          "blockTimestamp": "0x690092dc",
          "transactionHash": "0x1a235ebadbdb79808b8d9bd13a3f4d17f2d89620019f294e565d92bd36f72d9a",
          "transactionIndex": "0x92",
          "logIndex": "0x98",
          "removed": false
        }
      ],
      "logsBloom": "0x00000000000000000000000000000000000000000000000000000000000000020000000000000000000000000000001000000000000000000000000000200000000000000000000800000000100000000000000000000000002000000000000008000000000000000000000000000000000000000000000000000000000000000000000000000000000000000000000000000000000000000000000000000000020000000000000000000000000008200000100000000000000000000000000000000000000000000000000000000000000000000000000000000000000000000010000000000000000000000000000000000000000000000000000000000000",
      "type": "0x2",
      "transactionHash": "0x1a235ebadbdb79808b8d9bd13a3f4d17f2d89620019f294e565d92bd36f72d9a",
      "transactionIndex": "0x92",
      "blockHash": "0xed299c01a66d8cfb18b893ebe447c3945201c65eefa6417c58175a607373cf3c",
      "blockNumber": "0x9113b8",
      "gasUsed": "0xb702",
      "effectiveGasPrice": "0xf424f",
      "from": "0xeff3521fb13228c767ad6dc3b934f9efac9c56ad",
      "to": "0x1f9840a85d5af5bf1d1762f925bdaddc4201f984",
      "contractAddress": null
    },
    {
      "status": "0x1",
      "cumulativeGasUsed": "0x19da991",
      "logs": [
        {
          "address": "0x1f9840a85d5af5bf1d1762f925bdaddc4201f984",
          "topics": [
            "0x8c5be1e5ebec7d5bd14f71427d1e84f3dd0314c0f7b2291e5b200ac8c7c3b925",
            "0x000000000000000000000000eff3521fb13228c767ad6dc3b934f9efac9c56ad",
            "0x0000000000000000000000001bf7b1cae8bf95a77734dc477c1dda67418a1cf0"
          ],
          "data": "0x0000000000000000000000000000000000000000000000000000000000000000",
          "blockHash": "0xed299c01a66d8cfb18b893ebe447c3945201c65eefa6417c58175a607373cf3c",
          "blockNumber": "0x9113b8",
          "blockTimestamp": "0x690092dc",
          "transactionHash": "0xd5f621256f63e5412e4bdcb1c1ab741794b2851c2f6ff622a7ca4d4ff661cc4b",
          "transactionIndex": "0x93",
          "logIndex": "0x99",
          "removed": false
        },
        {
          "address": "0x1f9840a85d5af5bf1d1762f925bdaddc4201f984",
          "topics": [
            "0xddf252ad1be2c89b69c2b068fc378daa952ba7f163c4a11628f55a4df523b3ef",
            "0x000000000000000000000000eff3521fb13228c767ad6dc3b934f9efac9c56ad",
            "0x0000000000000000000000001bf7b1cae8bf95a77734dc477c1dda67418a1cf0"
          ],
          "data": "0x000000000000000000000000000000000000000000000000001550f7dca70000",
          "blockHash": "0xed299c01a66d8cfb18b893ebe447c3945201c65eefa6417c58175a607373cf3c",
          "blockNumber": "0x9113b8",
          "blockTimestamp": "0x690092dc",
          "transactionHash": "0xd5f621256f63e5412e4bdcb1c1ab741794b2851c2f6ff622a7ca4d4ff661cc4b",
          "transactionIndex": "0x93",
          "logIndex": "0x9a",
          "removed": false
        },
        {
          "address": "0x1f9840a85d5af5bf1d1762f925bdaddc4201f984",
          "topics": [
            "0x8c5be1e5ebec7d5bd14f71427d1e84f3dd0314c0f7b2291e5b200ac8c7c3b925",
            "0x0000000000000000000000001bf7b1cae8bf95a77734dc477c1dda67418a1cf0",
            "0x000000000000000000000000ee567fe1712faf6149d80da1e6934e354124cfe3"
          ],
          "data": "0x000000000000000000000000000000000000000000000000001550f7dca70000",
          "blockHash": "0xed299c01a66d8cfb18b893ebe447c3945201c65eefa6417c58175a607373cf3c",
          "blockNumber": "0x9113b8",
          "blockTimestamp": "0x690092dc",
          "transactionHash": "0xd5f621256f63e5412e4bdcb1c1ab741794b2851c2f6ff622a7ca4d4ff661cc4b",
          "transactionIndex": "0x93",
          "logIndex": "0x9b",
          "removed": false
        },
        {
          "address": "0x1f9840a85d5af5bf1d1762f925bdaddc4201f984",
          "topics": [
            "0x8c5be1e5ebec7d5bd14f71427d1e84f3dd0314c0f7b2291e5b200ac8c7c3b925",
            "0x0000000000000000000000001bf7b1cae8bf95a77734dc477c1dda67418a1cf0",
            "0x000000000000000000000000ee567fe1712faf6149d80da1e6934e354124cfe3"
          ],
          "data": "0x0000000000000000000000000000000000000000000000000000000000000000",
          "blockHash": "0xed299c01a66d8cfb18b893ebe447c3945201c65eefa6417c58175a607373cf3c",
          "blockNumber": "0x9113b8",
          "blockTimestamp": "0x690092dc",
          "transactionHash": "0xd5f621256f63e5412e4bdcb1c1ab741794b2851c2f6ff622a7ca4d4ff661cc4b",
          "transactionIndex": "0x93",
          "logIndex": "0x9c",
          "removed": false
        },
        {
          "address": "0x1f9840a85d5af5bf1d1762f925bdaddc4201f984",
          "topics": [
            "0xddf252ad1be2c89b69c2b068fc378daa952ba7f163c4a11628f55a4df523b3ef",
            "0x0000000000000000000000001bf7b1cae8bf95a77734dc477c1dda67418a1cf0",
            "0x000000000000000000000000e8aa2fa3963bad64ff66cfc458fda9f19a8e7024"
          ],
          "data": "0x000000000000000000000000000000000000000000000000001550f7dca70000",
          "blockHash": "0xed299c01a66d8cfb18b893ebe447c3945201c65eefa6417c58175a607373cf3c",
          "blockNumber": "0x9113b8",
          "blockTimestamp": "0x690092dc",
          "transactionHash": "0xd5f621256f63e5412e4bdcb1c1ab741794b2851c2f6ff622a7ca4d4ff661cc4b",
          "transactionIndex": "0x93",
          "logIndex": "0x9d",
          "removed": false
        },
        {
          "address": "0xfff9976782d46cc05630d1f6ebab18b2324d6b14",
          "topics": [
            "0xe1fffcc4923d04b559f4d29a8bfc6cda04eb5b0d3c460751c2402c5c5cc9109c",
            "0x000000000000000000000000ee567fe1712faf6149d80da1e6934e354124cfe3"
          ],
          "data": "0x00000000000000000000000000000000000000000000000002299aefe1873a47",
          "blockHash": "0xed299c01a66d8cfb18b893ebe447c3945201c65eefa6417c58175a607373cf3c",
          "blockNumber": "0x9113b8",
          "blockTimestamp": "0x690092dc",
          "transactionHash": "0xd5f621256f63e5412e4bdcb1c1ab741794b2851c2f6ff622a7ca4d4ff661cc4b",
          "transactionIndex": "0x93",
          "logIndex": "0x9e",
          "removed": false
        },
        {
          "address": "0xfff9976782d46cc05630d1f6ebab18b2324d6b14",
          "topics": [
            "0xddf252ad1be2c89b69c2b068fc378daa952ba7f163c4a11628f55a4df523b3ef",
            "0x000000000000000000000000ee567fe1712faf6149d80da1e6934e354124cfe3",
            "0x000000000000000000000000e8aa2fa3963bad64ff66cfc458fda9f19a8e7024"
          ],
          "data": "0x00000000000000000000000000000000000000000000000002299aefe1873a47",
          "blockHash": "0xed299c01a66d8cfb18b893ebe447c3945201c65eefa6417c58175a607373cf3c",
          "blockNumber": "0x9113b8",
          "blockTimestamp": "0x690092dc",
          "transactionHash": "0xd5f621256f63e5412e4bdcb1c1ab741794b2851c2f6ff622a7ca4d4ff661cc4b",
          "transactionIndex": "0x93",
          "logIndex": "0x9f",
          "removed": false
        },
        {
          "address": "0xe8aa2fa3963bad64ff66cfc458fda9f19a8e7024",
          "topics": [
            "0xddf252ad1be2c89b69c2b068fc378daa952ba7f163c4a11628f55a4df523b3ef",
            "0x0000000000000000000000000000000000000000000000000000000000000000",
            "0x000000000000000000000000eff3521fb13228c767ad6dc3b934f9efac9c56ad"
          ],
          "data": "0x0000000000000000000000000000000000000000000000000062f25ce1d168d5",
          "blockHash": "0xed299c01a66d8cfb18b893ebe447c3945201c65eefa6417c58175a607373cf3c",
          "blockNumber": "0x9113b8",
          "blockTimestamp": "0x690092dc",
          "transactionHash": "0xd5f621256f63e5412e4bdcb1c1ab741794b2851c2f6ff622a7ca4d4ff661cc4b",
          "transactionIndex": "0x93",
          "logIndex": "0xa0",
          "removed": false
        },
        {
          "address": "0xe8aa2fa3963bad64ff66cfc458fda9f19a8e7024",
          "topics": [
            "0x1c411e9a96e071241c2f21f7726b17ae89e3cab4c78be50e062b03a9fffbbad1"
          ],
          "data": "0x00000000000000000000000000000000000000000000000001954966c5692592000000000000000000000000000000000000000000000000291db3e2e7d06c17",
          "blockHash": "0xed299c01a66d8cfb18b893ebe447c3945201c65eefa6417c58175a607373cf3c",
          "blockNumber": "0x9113b8",
          "blockTimestamp": "0x690092dc",
          "transactionHash": "0xd5f621256f63e5412e4bdcb1c1ab741794b2851c2f6ff622a7ca4d4ff661cc4b",
          "transactionIndex": "0x93",
          "logIndex": "0xa1",
          "removed": false
        },
        {
          "address": "0xe8aa2fa3963bad64ff66cfc458fda9f19a8e7024",
          "topics": [
            "0x4c209b5fc8ad50758f13e2e1088ba56a560dff690a1c6fef26394f4c03821c4f",
            "0x000000000000000000000000ee567fe1712faf6149d80da1e6934e354124cfe3"
          ],
          "data": "0x000000000000000000000000000000000000000000000000001550f7dca7000000000000000000000000000000000000000000000000000002299aefe1873a47",
          "blockHash": "0xed299c01a66d8cfb18b893ebe447c3945201c65eefa6417c58175a607373cf3c",
          "blockNumber": "0x9113b8",
          "blockTimestamp": "0x690092dc",
          "transactionHash": "0xd5f621256f63e5412e4bdcb1c1ab741794b2851c2f6ff622a7ca4d4ff661cc4b",
          "transactionIndex": "0x93",
          "logIndex": "0xa2",
          "removed": false
        },
        {
          "address": "0x1bf7b1cae8bf95a77734dc477c1dda67418a1cf0",
          "topics": [
            "0x4a1a2a6176e9646d9e3157f7c2ab3c499f18337c0b0828cfb28e0a61de4a11f7"
          ],
          "data": "0x0000000000000000000000001f9840a85d5af5bf1d1762f925bdaddc4201f9840000000000000000000000000000000000000000000000000000000000000000000000000000000000000000000000000000000000000000001550f7dca7000000000000000000000000000000000000000000000000000002299aefe1873a470000000000000000000000000000000000000000000000000062f25ce1d168d5",
          "blockHash": "0xed299c01a66d8cfb18b893ebe447c3945201c65eefa6417c58175a607373cf3c",
          "blockNumber": "0x9113b8",
          "blockTimestamp": "0x690092dc",
          "transactionHash": "0xd5f621256f63e5412e4bdcb1c1ab741794b2851c2f6ff622a7ca4d4ff661cc4b",
          "transactionIndex": "0x93",
          "logIndex": "0xa3",
          "removed": false
        }
      ],
      "logsBloom": "0x00000000000100000000000080000000000000000000000000000000000001020400000000000000000000000000001000000000000000000000000048200000000000020000000800000008100000000000000000000000002000008000000008000000020000000008800000000800000000000008000000000010002000000040000000000000000000002000000000000001000000080000000000010000020020000000000000000000000008204000100000040000000000800000000000000002000000000002000000020000000000000000001000000000000028000010000000000000000000000000000000000000000000400080000000000000",
      "type": "0x2",
      "transactionHash": "0xd5f621256f63e5412e4bdcb1c1ab741794b2851c2f6ff622a7ca4d4ff661cc4b",
      "transactionIndex": "0x93",
      "blockHash": "0xed299c01a66d8cfb18b893ebe447c3945201c65eefa6417c58175a607373cf3c",
      "blockNumber": "0x9113b8",
      "gasUsed": "0x316c8",
      "effectiveGasPrice": "0xf424f",
      "from": "0xeff3521fb13228c767ad6dc3b934f9efac9c56ad",
      "to": "0x1bf7b1cae8bf95a77734dc477c1dda67418a1cf0",
      "contractAddress": null
    }
  ],
  "libraries": [],
  "pending": [],
  "returns": {},
  "timestamp": 1761645277,
  "chain": 11155111,
  "commit": "4457f8a"
}