{
  "transactions": [
    {
      "hash": "0x4bd68a5c08d03c4d0f0a73e2018356484386d628ef88c7153a502a6656b79824",
      "transactionType": "CALL",
      "contractName": null,
      "contractAddress": "0x6c64e8278b7d5513143d59bf1484b0e6972e4505",
      "function": "approve(address,uint256)",
      "arguments": [
        "0xbFd4c35D5dD72dEEf603Dd7EdD85B2BE9C14e9Cd",
        "7000000000000000000000"
      ],
      "transaction": {
        "from": "0xeff3521fb13228c767ad6dc3b934f9efac9c56ad",
        "to": "0x6c64e8278b7d5513143d59bf1484b0e6972e4505",
        "gas": "0xfd73",
        "value": "0x0",
        "input": "0x095ea7b3000000000000000000000000bfd4c35d5dd72deef603dd7edd85b2be9c14e9cd00000000000000000000000000000000000000000000017b7883c06916600000",
        "nonce": "0xfe",
        "chainId": "0xaa36a7"
      },
      "additionalContracts": [],
      "isFixedGasLimit": false
    },
    {
      "hash": "0x9f93d7cd752e39e9d17145ee7661598ad6a966a05fa0a8aadede7609d8d34824",
      "transactionType": "CALL",
      "contractName": null,
      "contractAddress": "0xbfd4c35d5dd72deef603dd7edd85b2be9c14e9cd",
      "function": "addLiquidityETH(address,uint256)",
      "arguments": [
        "0x6c64E8278B7d5513143D59Bf1484B0e6972e4505",
        "7000000000000000000000"
      ],
      "transaction": {
        "from": "0xeff3521fb13228c767ad6dc3b934f9efac9c56ad",
        "to": "0xbfd4c35d5dd72deef603dd7edd85b2be9c14e9cd",
        "gas": "0x45bbd",
        "value": "0x27ca57357c000",
        "input": "0x7282d5480000000000000000000000006c64e8278b7d5513143d59bf1484b0e6972e450500000000000000000000000000000000000000000000017b7883c06916600000",
        "nonce": "0xff",
        "chainId": "0xaa36a7"
      },
      "additionalContracts": [],
      "isFixedGasLimit": false
    }
  ],
  "receipts": [
    {
      "status": "0x1",
      "cumulativeGasUsed": "0xfe0398",
      "logs": [
        {
          "address": "0x6c64e8278b7d5513143d59bf1484b0e6972e4505",
          "topics": [
            "0x8c5be1e5ebec7d5bd14f71427d1e84f3dd0314c0f7b2291e5b200ac8c7c3b925",
            "0x000000000000000000000000eff3521fb13228c767ad6dc3b934f9efac9c56ad",
            "0x000000000000000000000000bfd4c35d5dd72deef603dd7edd85b2be9c14e9cd"
          ],
          "data": "0x00000000000000000000000000000000000000000000017b7883c06916600000",
          "blockHash": "0xd789a666d0a0f188dff821dd99bab36a372b86784c9437f7d24a43c791dbec70",
          "blockNumber": "0x90efeb",
          "blockTimestamp": "0x68fedd0c",
          "transactionHash": "0x4bd68a5c08d03c4d0f0a73e2018356484386d628ef88c7153a502a6656b79824",
          "transactionIndex": "0x39",
          "logIndex": "0x5a",
          "removed": false
        }
      ],
      "logsBloom": "0x00000000000000000000000000000000000000000000000000000000000000020000000000000000000000000000000000000000000000000000000000200000000000000000000000000000000000000000000000000000002000000000000000000000000000800000000000000000000000000000000000000000000000000000000000000000000000000000000000000000000000000000000000000000020000000000000000000000000000000000100000000040000000000000100000000000000000000000000000000000000000000010000000000000000000000010000000200000000000000200000000000000000000000000000000000000",
      "type": "0x2",
      "transactionHash": "0x4bd68a5c08d03c4d0f0a73e2018356484386d628ef88c7153a502a6656b79824",
      "transactionIndex": "0x39",
      "blockHash": "0xd789a666d0a0f188dff821dd99bab36a372b86784c9437f7d24a43c791dbec70",
      "blockNumber": "0x90efeb",
      "gasUsed": "0xb77f",
      "effectiveGasPrice": "0xf424a",
      "from": "0xeff3521fb13228c767ad6dc3b934f9efac9c56ad",
      "to": "0x6c64e8278b7d5513143d59bf1484b0e6972e4505",
      "contractAddress": null
    },
    {
      "status": "0x1",
      "cumulativeGasUsed": "0x1012b5f",
      "logs": [
        {
          "address": "0x6c64e8278b7d5513143d59bf1484b0e6972e4505",
          "topics": [
            "0xddf252ad1be2c89b69c2b068fc378daa952ba7f163c4a11628f55a4df523b3ef",
            "0x000000000000000000000000eff3521fb13228c767ad6dc3b934f9efac9c56ad",
            "0x000000000000000000000000bfd4c35d5dd72deef603dd7edd85b2be9c14e9cd"
          ],
          "data": "0x00000000000000000000000000000000000000000000017b7883c06916600000",
          "blockHash": "0xd789a666d0a0f188dff821dd99bab36a372b86784c9437f7d24a43c791dbec70",
          "blockNumber": "0x90efeb",
          "blockTimestamp": "0x68fedd0c",
          "transactionHash": "0x9f93d7cd752e39e9d17145ee7661598ad6a966a05fa0a8aadede7609d8d34824",
          "transactionIndex": "0x3a",
          "logIndex": "0x5b",
          "removed": false
        },
        {
          "address": "0x6c64e8278b7d5513143d59bf1484b0e6972e4505",
          "topics": [
            "0x8c5be1e5ebec7d5bd14f71427d1e84f3dd0314c0f7b2291e5b200ac8c7c3b925",
            "0x000000000000000000000000bfd4c35d5dd72deef603dd7edd85b2be9c14e9cd",
            "0x000000000000000000000000ee567fe1712faf6149d80da1e6934e354124cfe3"
          ],
          "data": "0x00000000000000000000000000000000000000000000017b7883c06916600000",
          "blockHash": "0xd789a666d0a0f188dff821dd99bab36a372b86784c9437f7d24a43c791dbec70",
          "blockNumber": "0x90efeb",
          "blockTimestamp": "0x68fedd0c",
          "transactionHash": "0x9f93d7cd752e39e9d17145ee7661598ad6a966a05fa0a8aadede7609d8d34824",
          "transactionIndex": "0x3a",
          "logIndex": "0x5c",
          "removed": false
        },
        {
          "address": "0x6c64e8278b7d5513143d59bf1484b0e6972e4505",
          "topics": [
            "0xddf252ad1be2c89b69c2b068fc378daa952ba7f163c4a11628f55a4df523b3ef",
            "0x000000000000000000000000bfd4c35d5dd72deef603dd7edd85b2be9c14e9cd",
            "0x000000000000000000000000f19ef33379cfcc00648db052be5a22c93d08c6d4"
          ],
          "data": "0x00000000000000000000000000000000000000000000017b7883c06916600000",
          "blockHash": "0xd789a666d0a0f188dff821dd99bab36a372b86784c9437f7d24a43c791dbec70",
          "blockNumber": "0x90efeb",
          "blockTimestamp": "0x68fedd0c",
          "transactionHash": "0x9f93d7cd752e39e9d17145ee7661598ad6a966a05fa0a8aadede7609d8d34824",
          "transactionIndex": "0x3a",
          "logIndex": "0x5d",
          "removed": false
        },
        {
          "address": "0xfff9976782d46cc05630d1f6ebab18b2324d6b14",
          "topics": [
            "0xe1fffcc4923d04b559f4d29a8bfc6cda04eb5b0d3c460751c2402c5c5cc9109c",
            "0x000000000000000000000000ee567fe1712faf6149d80da1e6934e354124cfe3"
          ],
          "data": "0x00000000000000000000000000000000000000000000000000027ca57357c000",
          "blockHash": "0xd789a666d0a0f188dff821dd99bab36a372b86784c9437f7d24a43c791dbec70",
          "blockNumber": "0x90efeb",
          "blockTimestamp": "0x68fedd0c",
          "transactionHash": "0x9f93d7cd752e39e9d17145ee7661598ad6a966a05fa0a8aadede7609d8d34824",
          "transactionIndex": "0x3a",
          "logIndex": "0x5e",
          "removed": false
        },
        {
          "address": "0xfff9976782d46cc05630d1f6ebab18b2324d6b14",
          "topics": [
            "0xddf252ad1be2c89b69c2b068fc378daa952ba7f163c4a11628f55a4df523b3ef",
            "0x000000000000000000000000ee567fe1712faf6149d80da1e6934e354124cfe3",
            "0x000000000000000000000000f19ef33379cfcc00648db052be5a22c93d08c6d4"
          ],
          "data": "0x00000000000000000000000000000000000000000000000000027ca57357c000",
          "blockHash": "0xd789a666d0a0f188dff821dd99bab36a372b86784c9437f7d24a43c791dbec70",
          "blockNumber": "0x90efeb",
          "blockTimestamp": "0x68fedd0c",
          "transactionHash": "0x9f93d7cd752e39e9d17145ee7661598ad6a966a05fa0a8aadede7609d8d34824",
          "transactionIndex": "0x3a",
          "logIndex": "0x5f",
          "removed": false
        },
        {
          "address": "0xf19ef33379cfcc00648db052be5a22c93d08c6d4",
          "topics": [
            "0xddf252ad1be2c89b69c2b068fc378daa952ba7f163c4a11628f55a4df523b3ef",
            "0x0000000000000000000000000000000000000000000000000000000000000000",
            "0x000000000000000000000000eff3521fb13228c767ad6dc3b934f9efac9c56ad"
          ],
          "data": "0x0000000000000000000000000000000000000000000000001eb844581ed7c03b",
          "blockHash": "0xd789a666d0a0f188dff821dd99bab36a372b86784c9437f7d24a43c791dbec70",
          "blockNumber": "0x90efeb",
          "blockTimestamp": "0x68fedd0c",
          "transactionHash": "0x9f93d7cd752e39e9d17145ee7661598ad6a966a05fa0a8aadede7609d8d34824",
          "transactionIndex": "0x3a",
          "logIndex": "0x60",
          "removed": false
        },
        {
          "address": "0xf19ef33379cfcc00648db052be5a22c93d08c6d4",
          "topics": [
            "0x1c411e9a96e071241c2f21f7726b17ae89e3cab4c78be50e062b03a9fffbbad1"
          ],
          "data": "0x00000000000000000000000000000000000000000000028a857425466f80000000000000000000000000000000000000000000000000000000044364c5bb0000",
          "blockHash": "0xd789a666d0a0f188dff821dd99bab36a372b86784c9437f7d24a43c791dbec70",
          "blockNumber": "0x90efeb",
          "blockTimestamp": "0x68fedd0c",
          "transactionHash": "0x9f93d7cd752e39e9d17145ee7661598ad6a966a05fa0a8aadede7609d8d34824",
          "transactionIndex": "0x3a",
          "logIndex": "0x61",
          "removed": false
        },
        {
          "address": "0xf19ef33379cfcc00648db052be5a22c93d08c6d4",
          "topics": [
            "0x4c209b5fc8ad50758f13e2e1088ba56a560dff690a1c6fef26394f4c03821c4f",
            "0x000000000000000000000000ee567fe1712faf6149d80da1e6934e354124cfe3"
          ],
          "data": "0x00000000000000000000000000000000000000000000017b7883c0691660000000000000000000000000000000000000000000000000000000027ca57357c000",
          "blockHash": "0xd789a666d0a0f188dff821dd99bab36a372b86784c9437f7d24a43c791dbec70",
          "blockNumber": "0x90efeb",
          "blockTimestamp": "0x68fedd0c",
          "transactionHash": "0x9f93d7cd752e39e9d17145ee7661598ad6a966a05fa0a8aadede7609d8d34824",
          "transactionIndex": "0x3a",
          "logIndex": "0x62",
          "removed": false
        },
        {
          "address": "0xbfd4c35d5dd72deef603dd7edd85b2be9c14e9cd",
          "topics": [
            "0x4a1a2a6176e9646d9e3157f7c2ab3c499f18337c0b0828cfb28e0a61de4a11f7"
          ],
          "data": "0x0000000000000000000000006c64e8278b7d5513143d59bf1484b0e6972e4505000000000000000000000000000000000000000000000000000000000000000000000000000000000000000000000000000000000000017b7883c0691660000000000000000000000000000000000000000000000000000000027ca57357c0000000000000000000000000000000000000000000000000001eb844581ed7c03b",
          "blockHash": "0xd789a666d0a0f188dff821dd99bab36a372b86784c9437f7d24a43c791dbec70",
          "blockNumber": "0x90efeb",
          "blockTimestamp": "0x68fedd0c",
          "transactionHash": "0x9f93d7cd752e39e9d17145ee7661598ad6a966a05fa0a8aadede7609d8d34824",
          "transactionIndex": "0x3a",
          "logIndex": "0x63",
          "removed": false
        }
      ],
      "logsBloom": "0x00000000000000000000000080000000000000000000000000000000000001020000000000000000000000000000000000000000000000000000000008204000000000000000000000000048000000000800000000000000002000008000000000000000020000808040800000000800000000000008000000000010000000000040000004000000000000000000400000000001000000080100000000010000020020000000000000000000000000000000100000000040000000800000100000000002000000000002000000020000000000000010001000000000000028000010000000200000000000000200000000000000000000440080000000000000",
      "type": "0x2",
      "transactionHash": "0x9f93d7cd752e39e9d17145ee7661598ad6a966a05fa0a8aadede7609d8d34824",
      "transactionIndex": "0x3a",
      "blockHash": "0xd789a666d0a0f188dff821dd99bab36a372b86784c9437f7d24a43c791dbec70",
      "blockNumber": "0x90efeb",
      "gasUsed": "0x327c7",
      "effectiveGasPrice": "0xf424a",
      "from": "0xeff3521fb13228c767ad6dc3b934f9efac9c56ad",
      "to": "0xbfd4c35d5dd72deef603dd7edd85b2be9c14e9cd",
      "contractAddress": null
    }
  ],
  "libraries": [],
  "pending": [],
  "returns": {},
  "timestamp": 1761533199,
  "chain": 11155111,
  "commit": "b9ab932"
}