{
  "transactions": [
    {
      "hash": "0xff9544bc2254bb03efc7804df7646134c86c988ddc96319c1b051f4bbebc7586",
      "transactionType": "CALL",
      "contractName": null,
      "contractAddress": "0x0e1efea9f52f99baac1ca663d41119c037258d54",
      "function": "approve(address,uint256)",
      "arguments": [
        "0xD452F4925Fc63A00ea03982Ab4E4D27bE79DA0B8",
        "5000000000000000000000"
      ],
      "transaction": {
        "from": "0xeff3521fb13228c767ad6dc3b934f9efac9c56ad",
        "to": "0x0e1efea9f52f99baac1ca663d41119c037258d54",
        "gas": "0xfa61",
        "value": "0x0",
        "input": "0x095ea7b3000000000000000000000000d452f4925fc63a00ea03982ab4e4d27be79da0b800000000000000000000000000000000000000000000010f0cf064dd59200000",
        "nonce": "0xdf",
        "chainId": "0xaa36a7"
      },
      "additionalContracts": [],
      "isFixedGasLimit": false
    },
    {
      "hash": "0x1d061c85a88147707bc577a581796bf7020a9458a5f003eb3c9b3942a7e6c1ee",
      "transactionType": "CALL",
      "contractName": null,
      "contractAddress": "0xd452f4925fc63a00ea03982ab4e4d27be79da0b8",
      "function": "addLiquidityETH(address,uint256)",
      "arguments": [
        "0x0E1Efea9F52f99bAAC1ca663D41119C037258D54",
        "5000000000000000000000"
      ],
      "transaction": {
        "from": "0xeff3521fb13228c767ad6dc3b934f9efac9c56ad",
        "to": "0xd452f4925fc63a00ea03982ab4e4d27be79da0b8",
        "gas": "0x579c5",
        "value": "0x11c37937e08000",
        "input": "0x7282d5480000000000000000000000000e1efea9f52f99baac1ca663d41119c037258d5400000000000000000000000000000000000000000000010f0cf064dd59200000",
        "nonce": "0xe0",
        "chainId": "0xaa36a7"
      },
      "additionalContracts": [],
      "isFixedGasLimit": false
    }
  ],
  "receipts": [
    {
      "status": "0x1",
      "cumulativeGasUsed": "0xaafcf2",
      "logs": [
        {
          "address": "0x0e1efea9f52f99baac1ca663d41119c037258d54",
          "topics": [
            "0x8c5be1e5ebec7d5bd14f71427d1e84f3dd0314c0f7b2291e5b200ac8c7c3b925",
            "0x000000000000000000000000eff3521fb13228c767ad6dc3b934f9efac9c56ad",
            "0x000000000000000000000000d452f4925fc63a00ea03982ab4e4d27be79da0b8"
          ],
          "data": "0x00000000000000000000000000000000000000000000010f0cf064dd59200000",
          "blockHash": "0xc7c4d872a4ab498c8e9079ffaf9d3e35340cb335ead0f64d44066933bf7f9a59",
          "blockNumber": "0x90d8f2",
          "blockTimestamp": "0x68fdc8f4",
          "transactionHash": "0xff9544bc2254bb03efc7804df7646134c86c988ddc96319c1b051f4bbebc7586",
          "transactionIndex": "0x56",
          "logIndex": "0x73",
          "removed": false
        }
      ],
      "logsBloom": "0x00000100000000000000000000000000000000000000000000000000000000020000000000020000000000000000000000000000000000000000000000200000000800000000000000000000000000000000000000000000002000000000000000000000000000000000000000000000000000000000000000000000000000000000000000000001000000000000000000000000000000000000000000000000020000000000000000000000000000000000100000000000000000000000000000000000000000000000000000004004000000000000000000000000000000000010000000000000000000000000000000000000000000000000000000000000",
      "type": "0x2",
      "transactionHash": "0xff9544bc2254bb03efc7804df7646134c86c988ddc96319c1b051f4bbebc7586",
      "transactionIndex": "0x56",
      "blockHash": "0xc7c4d872a4ab498c8e9079ffaf9d3e35340cb335ead0f64d44066933bf7f9a59",
      "blockNumber": "0x90d8f2",
      "gasUsed": "0xb546",
      "effectiveGasPrice": "0xf4240",
      "from": "0xeff3521fb13228c767ad6dc3b934f9efac9c56ad",
      "to": "0x0e1efea9f52f99baac1ca663d41119c037258d54",
      "contractAddress": null
    },
    {
      "status": "0x1",
      "cumulativeGasUsed": "0xaef3ce",
      "logs": [
        {
          "address": "0x0e1efea9f52f99baac1ca663d41119c037258d54",
          "topics": [
            "0xddf252ad1be2c89b69c2b068fc378daa952ba7f163c4a11628f55a4df523b3ef",
            "0x000000000000000000000000eff3521fb13228c767ad6dc3b934f9efac9c56ad",
            "0x000000000000000000000000d452f4925fc63a00ea03982ab4e4d27be79da0b8"
          ],
          "data": "0x00000000000000000000000000000000000000000000010f0cf064dd59200000",
          "blockHash": "0xc7c4d872a4ab498c8e9079ffaf9d3e35340cb335ead0f64d44066933bf7f9a59",
          "blockNumber": "0x90d8f2",
          "blockTimestamp": "0x68fdc8f4",
          "transactionHash": "0x1d061c85a88147707bc577a581796bf7020a9458a5f003eb3c9b3942a7e6c1ee",
          "transactionIndex": "0x57",
          "logIndex": "0x74",
          "removed": false
        },
        {
          "address": "0x0e1efea9f52f99baac1ca663d41119c037258d54",
          "topics": [
            "0x8c5be1e5ebec7d5bd14f71427d1e84f3dd0314c0f7b2291e5b200ac8c7c3b925",
            "0x000000000000000000000000d452f4925fc63a00ea03982ab4e4d27be79da0b8",
            "0x000000000000000000000000ee567fe1712faf6149d80da1e6934e354124cfe3"
          ],
          "data": "0x00000000000000000000000000000000000000000000010f0cf064dd59200000",
          "blockHash": "0xc7c4d872a4ab498c8e9079ffaf9d3e35340cb335ead0f64d44066933bf7f9a59",
          "blockNumber": "0x90d8f2",
          "blockTimestamp": "0x68fdc8f4",
          "transactionHash": "0x1d061c85a88147707bc577a581796bf7020a9458a5f003eb3c9b3942a7e6c1ee",
          "transactionIndex": "0x57",
          "logIndex": "0x75",
          "removed": false
        },
        {
          "address": "0x0e1efea9f52f99baac1ca663d41119c037258d54",
          "topics": [
            "0xddf252ad1be2c89b69c2b068fc378daa952ba7f163c4a11628f55a4df523b3ef",
            "0x000000000000000000000000d452f4925fc63a00ea03982ab4e4d27be79da0b8",
            "0x0000000000000000000000000a672fd301bc5a3efbbe56682a65254a2c135679"
          ],
          "data": "0x00000000000000000000000000000000000000000000010f0cf064dd59200000",
          "blockHash": "0xc7c4d872a4ab498c8e9079ffaf9d3e35340cb335ead0f64d44066933bf7f9a59",
          "blockNumber": "0x90d8f2",
          "blockTimestamp": "0x68fdc8f4",
          "transactionHash": "0x1d061c85a88147707bc577a581796bf7020a9458a5f003eb3c9b3942a7e6c1ee",
          "transactionIndex": "0x57",
          "logIndex": "0x76",
          "removed": false
        },
        {
          "address": "0xfff9976782d46cc05630d1f6ebab18b2324d6b14",
          "topics": [
            "0xe1fffcc4923d04b559f4d29a8bfc6cda04eb5b0d3c460751c2402c5c5cc9109c",
            "0x000000000000000000000000ee567fe1712faf6149d80da1e6934e354124cfe3"
          ],
          "data": "0x0000000000000000000000000000000000000000000000000011c37937e08000",
          "blockHash": "0xc7c4d872a4ab498c8e9079ffaf9d3e35340cb335ead0f64d44066933bf7f9a59",
          "blockNumber": "0x90d8f2",
          "blockTimestamp": "0x68fdc8f4",
          "transactionHash": "0x1d061c85a88147707bc577a581796bf7020a9458a5f003eb3c9b3942a7e6c1ee",
          "transactionIndex": "0x57",
          "logIndex": "0x77",
          "removed": false
        },
        {
          "address": "0xfff9976782d46cc05630d1f6ebab18b2324d6b14",
          "topics": [
            "0xddf252ad1be2c89b69c2b068fc378daa952ba7f163c4a11628f55a4df523b3ef",
            "0x000000000000000000000000ee567fe1712faf6149d80da1e6934e354124cfe3",
            "0x0000000000000000000000000a672fd301bc5a3efbbe56682a65254a2c135679"
          ],
          "data": "0x0000000000000000000000000000000000000000000000000011c37937e08000",
          "blockHash": "0xc7c4d872a4ab498c8e9079ffaf9d3e35340cb335ead0f64d44066933bf7f9a59",
          "blockNumber": "0x90d8f2",
          "blockTimestamp": "0x68fdc8f4",
          "transactionHash": "0x1d061c85a88147707bc577a581796bf7020a9458a5f003eb3c9b3942a7e6c1ee",
          "transactionIndex": "0x57",
          "logIndex": "0x78",
          "removed": false
        },
        {
          "address": "0x0a672fd301bc5a3efbbe56682a65254a2c135679",
          "topics": [
            "0xddf252ad1be2c89b69c2b068fc378daa952ba7f163c4a11628f55a4df523b3ef",
            "0x0000000000000000000000000000000000000000000000000000000000000000",
            "0x0000000000000000000000000000000000000000000000000000000000000000"
          ],
          "data": "0x00000000000000000000000000000000000000000000000000000000000003e8",
          "blockHash": "0xc7c4d872a4ab498c8e9079ffaf9d3e35340cb335ead0f64d44066933bf7f9a59",
          "blockNumber": "0x90d8f2",
          "blockTimestamp": "0x68fdc8f4",
          "transactionHash": "0x1d061c85a88147707bc577a581796bf7020a9458a5f003eb3c9b3942a7e6c1ee",
          "transactionIndex": "0x57",
          "logIndex": "0x79",
          "removed": false
        },
        {
          "address": "0x0a672fd301bc5a3efbbe56682a65254a2c135679",
          "topics": [
            "0xddf252ad1be2c89b69c2b068fc378daa952ba7f163c4a11628f55a4df523b3ef",
            "0x0000000000000000000000000000000000000000000000000000000000000000",
            "0x000000000000000000000000eff3521fb13228c767ad6dc3b934f9efac9c56ad"
          ],
          "data": "0x0000000000000000000000000000000000000000000000004563918244f3fc18",
          "blockHash": "0xc7c4d872a4ab498c8e9079ffaf9d3e35340cb335ead0f64d44066933bf7f9a59",
          "blockNumber": "0x90d8f2",
          "blockTimestamp": "0x68fdc8f4",
          "transactionHash": "0x1d061c85a88147707bc577a581796bf7020a9458a5f003eb3c9b3942a7e6c1ee",
          "transactionIndex": "0x57",
          "logIndex": "0x7a",
          "removed": false
        },
        {
          "address": "0x0a672fd301bc5a3efbbe56682a65254a2c135679",
          "topics": [
            "0x1c411e9a96e071241c2f21f7726b17ae89e3cab4c78be50e062b03a9fffbbad1"
          ],
          "data": "0x00000000000000000000000000000000000000000000010f0cf064dd592000000000000000000000000000000000000000000000000000000011c37937e08000",
          "blockHash": "0xc7c4d872a4ab498c8e9079ffaf9d3e35340cb335ead0f64d44066933bf7f9a59",
          "blockNumber": "0x90d8f2",
          "blockTimestamp": "0x68fdc8f4",
          "transactionHash": "0x1d061c85a88147707bc577a581796bf7020a9458a5f003eb3c9b3942a7e6c1ee",
          "transactionIndex": "0x57",
          "logIndex": "0x7b",
          "removed": false
        },
        {
          "address": "0x0a672fd301bc5a3efbbe56682a65254a2c135679",
          "topics": [
            "0x4c209b5fc8ad50758f13e2e1088ba56a560dff690a1c6fef26394f4c03821c4f",
            "0x000000000000000000000000ee567fe1712faf6149d80da1e6934e354124cfe3"
          ],
          "data": "0x00000000000000000000000000000000000000000000010f0cf064dd592000000000000000000000000000000000000000000000000000000011c37937e08000",
          "blockHash": "0xc7c4d872a4ab498c8e9079ffaf9d3e35340cb335ead0f64d44066933bf7f9a59",
          "blockNumber": "0x90d8f2",
          "blockTimestamp": "0x68fdc8f4",
          "transactionHash": "0x1d061c85a88147707bc577a581796bf7020a9458a5f003eb3c9b3942a7e6c1ee",
          "transactionIndex": "0x57",
          "logIndex": "0x7c",
          "removed": false
        },
        {
          "address": "0xd452f4925fc63a00ea03982ab4e4d27be79da0b8",
          "topics": [
            "0x4a1a2a6176e9646d9e3157f7c2ab3c499f18337c0b0828cfb28e0a61de4a11f7"
          ],
          "data": "0x0000000000000000000000000e1efea9f52f99baac1ca663d41119c037258d54000000000000000000000000000000000000000000000000000000000000000000000000000000000000000000000000000000000000010f0cf064dd592000000000000000000000000000000000000000000000000000000011c37937e080000000000000000000000000000000000000000000000000004563918244f3fc18",
          "blockHash": "0xc7c4d872a4ab498c8e9079ffaf9d3e35340cb335ead0f64d44066933bf7f9a59",
          "blockNumber": "0x90d8f2",
          "blockTimestamp": "0x68fdc8f4",
          "transactionHash": "0x1d061c85a88147707bc577a581796bf7020a9458a5f003eb3c9b3942a7e6c1ee",
          "transactionIndex": "0x57",
          "logIndex": "0x7d",
          "removed": false
        }
      ],
      "logsBloom": "0x00000100000000000000000080000000000000000000000000000000000001020000000000020000000000000000000000000000000000000000000008200000000800000000002000000008000000000000000000000000002000008080000000000000020000000000800000000800000000000008000020000010000000000040000000000001000000000000000000000001000000080000000000010000020020000000000000000000000000000000100000000000000040800000000000000002000000000002000000024004000000000000001210800000000028000010000000000000000000000000000000000040000000400080000000400000",
      "type": "0x2",
      "transactionHash": "0x1d061c85a88147707bc577a581796bf7020a9458a5f003eb3c9b3942a7e6c1ee",
      "transactionIndex": "0x57",
      "blockHash": "0xc7c4d872a4ab498c8e9079ffaf9d3e35340cb335ead0f64d44066933bf7f9a59",
      "blockNumber": "0x90d8f2",
      "gasUsed": "0x3f6dc",
      "effectiveGasPrice": "0xf4240",
      "from": "0xeff3521fb13228c767ad6dc3b934f9efac9c56ad",
      "to": "0xd452f4925fc63a00ea03982ab4e4d27be79da0b8",
      "contractAddress": null
    }
  ],
  "libraries": [],
  "pending": [],
  "returns": {},
  "timestamp": 1761462521,
  "chain": 11155111,
  "commit": "0754351"
}