{
  "transactions": [
    {
      "hash": "0x0085b18885cc16eeb18b1a6d964778784e9fd9e750ad05ed3f9ae5dfecbb0a7b",
      "transactionType": "CALL",
      "contractName": null,
      "contractAddress": "0x1f9840a85d5af5bf1d1762f925bdaddc4201f984",
      "function": "approve(address,uint256)",
      "arguments": [
        "0x1BF7B1CaE8bf95A77734dc477c1Dda67418A1cf0",
        "6000000000000000"
      ],
      "transaction": {
        "from": "0xeff3521fb13228c767ad6dc3b934f9efac9c56ad",
        "to": "0x1f9840a85d5af5bf1d1762f925bdaddc4201f984",
        "gas": "0x10ba5",
        "value": "0x0",
        "input": "0x095ea7b30000000000000000000000001bf7b1cae8bf95a77734dc477c1dda67418a1cf0000000000000000000000000000000000000000000000000001550f7dca70000",
        "nonce": "0x132",
        "chainId": "0xaa36a7"
      },
      "additionalContracts": [],
      "isFixedGasLimit": false
    },
    {
      "hash": "0x2a271e24675b7abe918a30ee4f7c681e08d5dcfd11d4cfee6f2b704f0dd2dd3e",
      "transactionType": "CALL",
      "contractName": null,
      "contractAddress": "0x1bf7b1cae8bf95a77734dc477c1dda67418a1cf0",
      "function": "addLiquidityETH(address,uint256)",
      "arguments": [
        "0x1f9840a85d5aF5bf1D1762F925BDADdC4201F984",
        "6000000000000000"
      ],
      "transaction": {
        "from": "0xeff3521fb13228c767ad6dc3b934f9efac9c56ad",
        "to": "0x1bf7b1cae8bf95a77734dc477c1dda67418a1cf0",
        "gas": "0x454e9",
        "value": "0x27ac72350d04be8",
        "input": "0x7282d5480000000000000000000000001f9840a85d5af5bf1d1762f925bdaddc4201f984000000000000000000000000000000000000000000000000001550f7dca70000",
        "nonce": "0x133",
        "chainId": "0xaa36a7"
      },
      "additionalContracts": [],
      "isFixedGasLimit": false
    }
  ],
  "receipts": [
    {
      "status": "0x1",
      "cumulativeGasUsed": "0x17c5c68",
      "logs": [
        {
          "address": "0x1f9840a85d5af5bf1d1762f925bdaddc4201f984",
          "topics": [
            "0x8c5be1e5ebec7d5bd14f71427d1e84f3dd0314c0f7b2291e5b200ac8c7c3b925",
            "0x000000000000000000000000eff3521fb13228c767ad6dc3b934f9efac9c56ad",
            "0x0000000000000000000000001bf7b1cae8bf95a77734dc477c1dda67418a1cf0"
          ],
          "data": "0x000000000000000000000000000000000000000000000000001550f7dca70000",
          "blockHash": "0xabc0533c53849482fcc360f9b2efcfa924790308a3086599b88ca022ad19c5eb",
          "blockNumber": "0x9113cb",
          "blockTimestamp": "0x690093d8",
          "transactionHash": "0x0085b18885cc16eeb18b1a6d964778784e9fd9e750ad05ed3f9ae5dfecbb0a7b",
          "transactionIndex": "0x82",
          "logIndex": "0xf6",
          "removed": false
        }
      ],
      "logsBloom": "0x00000000000000000000000000000000000000000000000000000000000000020000000000000000000000000000001000000000000000000000000000200000000000000000000800000000100000000000000000000000002000000000000008000000000000000000000000000000000000000000000000000000000000000000000000000000000000000000000000000000000000000000000000000000020000000000000000000000000008200000100000000000000000000000000000000000000000000000000000000000000000000000000000000000000000000010000000000000000000000000000000000000000000000000000000000000",
      "type": "0x2",
      "transactionHash": "0x0085b18885cc16eeb18b1a6d964778784e9fd9e750ad05ed3f9ae5dfecbb0a7b",
      "transactionIndex": "0x82",
      "blockHash": "0xabc0533c53849482fcc360f9b2efcfa924790308a3086599b88ca022ad19c5eb",
      "blockNumber": "0x9113cb",
      "gasUsed": "0xb702",
      "effectiveGasPrice": "0xf424e",
      "from": "0xeff3521fb13228c767ad6dc3b934f9efac9c56ad",
      "to": "0x1f9840a85d5af5bf1d1762f925bdaddc4201f984",
      "contractAddress": null
    }
  ],
  "libraries": [],
  "pending": [],
  "returns": {},
  "timestamp": 1761645531,
  "chain": 11155111,
  "commit": "4457f8a"
}