{
  "transactions": [
    {
      "hash": "0x198c0e2227858268169a7e1478f4d0d599f3a97dedd60f50e6ec53b11746b2fb",
      "transactionType": "CALL",
      "contractName": null,
      "contractAddress": "0x1f9840a85d5af5bf1d1762f925bdaddc4201f984",
      "function": "approve(address,uint256)",
      "arguments": [
        "0x8Db4397C8809f5d4475314FCFCF77038C8aBbbca",
        "6000000000000000"
      ],
      "transaction": {
        "from": "0xeff3521fb13228c767ad6dc3b934f9efac9c56ad",
        "to": "0x1f9840a85d5af5bf1d1762f925bdaddc4201f984",
        "gas": "0x10ba5",
        "value": "0x0",
        "input": "0x095ea7b30000000000000000000000008db4397c8809f5d4475314fcfcf77038c8abbbca000000000000000000000000000000000000000000000000001550f7dca70000",
        "nonce": "0x13b",
        "chainId": "0xaa36a7"
      },
      "additionalContracts": [],
      "isFixedGasLimit": false
    },
    {
      "hash": "0xcd483832fb4e81c3d7125b2be6ea7fa22026cad9d5565be01b46611d7e2fdb30",
      "transactionType": "CALL",
      "contractName": null,
      "contractAddress": "0x8db4397c8809f5d4475314fcfcf77038c8abbbca",
      "function": "addLiquidityETH(address,uint256)",
      "arguments": [
        "0x1f9840a85d5aF5bf1D1762F925BDADdC4201F984",
        "6000000000000000"
      ],
      "transaction": {
        "from": "0xeff3521fb13228c767ad6dc3b934f9efac9c56ad",
        "to": "0x8db4397c8809f5d4475314fcfcf77038c8abbbca",
        "gas": "0x44443",
        "value": "0x22ef9a4f309c621",
        "input": "0x7282d5480000000000000000000000001f9840a85d5af5bf1d1762f925bdaddc4201f984000000000000000000000000000000000000000000000000001550f7dca70000",
        "nonce": "0x13c",
        "chainId": "0xaa36a7"
      },
      "additionalContracts": [],
      "isFixedGasLimit": false
    }
  ],
  "receipts": [
    {
      "status": "0x1",
      "cumulativeGasUsed": "0x14c9da1",
      "logs": [
        {
          "address": "0x1f9840a85d5af5bf1d1762f925bdaddc4201f984",
          "topics": [
            "0x8c5be1e5ebec7d5bd14f71427d1e84f3dd0314c0f7b2291e5b200ac8c7c3b925",
            "0x000000000000000000000000eff3521fb13228c767ad6dc3b934f9efac9c56ad",
            "0x0000000000000000000000008db4397c8809f5d4475314fcfcf77038c8abbbca"
          ],
          "data": "0x000000000000000000000000000000000000000000000000001550f7dca70000",
          "blockHash": "0x4f4d24260b55e72c169deb060a2cbbb409bf318a7b2beb4590836d2f41e30fa7",
          "blockNumber": "0x9113e0",
          "blockTimestamp": "0x690094ec",
          "transactionHash": "0x198c0e2227858268169a7e1478f4d0d599f3a97dedd60f50e6ec53b11746b2fb",
          "transactionIndex": "0x5f",
          "logIndex": "0xf0",
          "removed": false
        }
      ],
      "logsBloom": "0x00000000000000000000000000000000000000000080000000000000000000020000000000000000000000000000001000000000000000000000000000200000000000000000000000000000100000000000000000000000002000000000000008000000000000000000000000000000000000000000000000000200000000000000000000000000000000000000000000000000000000000000800000000000020000000000000000000000000000000000100000000000000000000000000000000000000000000000000000000000000000000000000000000000000000000010000000000000000000000000000000000000000000000000000000000000",
      "type": "0x2",
      "transactionHash": "0x198c0e2227858268169a7e1478f4d0d599f3a97dedd60f50e6ec53b11746b2fb",
      "transactionIndex": "0x5f",
      "blockHash": "0x4f4d24260b55e72c169deb060a2cbbb409bf318a7b2beb4590836d2f41e30fa7",
      "blockNumber": "0x9113e0",
      "gasUsed": "0xb702",
      "effectiveGasPrice": "0xf424f",
      "from": "0xeff3521fb13228c767ad6dc3b934f9efac9c56ad",
      "to": "0x1f9840a85d5af5bf1d1762f925bdaddc4201f984",
      "contractAddress": null
    },
    {
      "status": "0x1",
      "cumulativeGasUsed": "0x14fb469",
      "logs": [
        {
          "address": "0x1f9840a85d5af5bf1d1762f925bdaddc4201f984",
          "topics": [
            "0x8c5be1e5ebec7d5bd14f71427d1e84f3dd0314c0f7b2291e5b200ac8c7c3b925",
            "0x000000000000000000000000eff3521fb13228c767ad6dc3b934f9efac9c56ad",
            "0x0000000000000000000000008db4397c8809f5d4475314fcfcf77038c8abbbca"
          ],
          "data": "0x0000000000000000000000000000000000000000000000000000000000000000",
          "blockHash": "0x4f4d24260b55e72c169deb060a2cbbb409bf318a7b2beb4590836d2f41e30fa7",
          "blockNumber": "0x9113e0",
          "blockTimestamp": "0x690094ec",
          "transactionHash": "0xcd483832fb4e81c3d7125b2be6ea7fa22026cad9d5565be01b46611d7e2fdb30",
          "transactionIndex": "0x60",
          "logIndex": "0xf1",
          "removed": false
        },
        {
          "address": "0x1f9840a85d5af5bf1d1762f925bdaddc4201f984",
          "topics": [
            "0xddf252ad1be2c89b69c2b068fc378daa952ba7f163c4a11628f55a4df523b3ef",
            "0x000000000000000000000000eff3521fb13228c767ad6dc3b934f9efac9c56ad",
            "0x0000000000000000000000008db4397c8809f5d4475314fcfcf77038c8abbbca"
          ],
          "data": "0x000000000000000000000000000000000000000000000000001550f7dca70000",
          "blockHash": "0x4f4d24260b55e72c169deb060a2cbbb409bf318a7b2beb4590836d2f41e30fa7",
          "blockNumber": "0x9113e0",
          "blockTimestamp": "0x690094ec",
          "transactionHash": "0xcd483832fb4e81c3d7125b2be6ea7fa22026cad9d5565be01b46611d7e2fdb30",
          "transactionIndex": "0x60",
          "logIndex": "0xf2",
          "removed": false
        },
        {
          "address": "0x1f9840a85d5af5bf1d1762f925bdaddc4201f984",
          "topics": [
            "0x8c5be1e5ebec7d5bd14f71427d1e84f3dd0314c0f7b2291e5b200ac8c7c3b925",
            "0x0000000000000000000000008db4397c8809f5d4475314fcfcf77038c8abbbca",
            "0x000000000000000000000000ee567fe1712faf6149d80da1e6934e354124cfe3"
          ],
          "data": "0x000000000000000000000000000000000000000000000000001550f7dca70000",
          "blockHash": "0x4f4d24260b55e72c169deb060a2cbbb409bf318a7b2beb4590836d2f41e30fa7",
          "blockNumber": "0x9113e0",
          "blockTimestamp": "0x690094ec",
          "transactionHash": "0xcd483832fb4e81c3d7125b2be6ea7fa22026cad9d5565be01b46611d7e2fdb30",
          "transactionIndex": "0x60",
          "logIndex": "0xf3",
          "removed": false
        },
        {
          "address": "0x1f9840a85d5af5bf1d1762f925bdaddc4201f984",
          "topics": [
            "0x8c5be1e5ebec7d5bd14f71427d1e84f3dd0314c0f7b2291e5b200ac8c7c3b925",
            "0x0000000000000000000000008db4397c8809f5d4475314fcfcf77038c8abbbca",
            "0x000000000000000000000000ee567fe1712faf6149d80da1e6934e354124cfe3"
          ],
          "data": "0x0000000000000000000000000000000000000000000000000000000000000000",
          "blockHash": "0x4f4d24260b55e72c169deb060a2cbbb409bf318a7b2beb4590836d2f41e30fa7",
          "blockNumber": "0x9113e0",
          "blockTimestamp": "0x690094ec",
          "transactionHash": "0xcd483832fb4e81c3d7125b2be6ea7fa22026cad9d5565be01b46611d7e2fdb30",
          "transactionIndex": "0x60",
          "logIndex": "0xf4",
          "removed": false
        },
        {
          "address": "0x1f9840a85d5af5bf1d1762f925bdaddc4201f984",
          "topics": [
            "0xddf252ad1be2c89b69c2b068fc378daa952ba7f163c4a11628f55a4df523b3ef",
            "0x0000000000000000000000008db4397c8809f5d4475314fcfcf77038c8abbbca",
            "0x000000000000000000000000e8aa2fa3963bad64ff66cfc458fda9f19a8e7024"
          ],
          "data": "0x000000000000000000000000000000000000000000000000001550f7dca70000",
          "blockHash": "0x4f4d24260b55e72c169deb060a2cbbb409bf318a7b2beb4590836d2f41e30fa7",
          "blockNumber": "0x9113e0",
          "blockTimestamp": "0x690094ec",
          "transactionHash": "0xcd483832fb4e81c3d7125b2be6ea7fa22026cad9d5565be01b46611d7e2fdb30",
          "transactionIndex": "0x60",
          "logIndex": "0xf5",
          "removed": false
        },
        {
          "address": "0xfff9976782d46cc05630d1f6ebab18b2324d6b14",
          "topics": [
            "0xe1fffcc4923d04b559f4d29a8bfc6cda04eb5b0d3c460751c2402c5c5cc9109c",
            "0x000000000000000000000000ee567fe1712faf6149d80da1e6934e354124cfe3"
          ],
          "data": "0x000000000000000000000000000000000000000000000000022ef9a4f309c621",
          "blockHash": "0x4f4d24260b55e72c169deb060a2cbbb409bf318a7b2beb4590836d2f41e30fa7",
          "blockNumber": "0x9113e0",
          "blockTimestamp": "0x690094ec",
          "transactionHash": "0xcd483832fb4e81c3d7125b2be6ea7fa22026cad9d5565be01b46611d7e2fdb30",
          "transactionIndex": "0x60",
          "logIndex": "0xf6",
          "removed": false
        },
        {
          "address": "0xfff9976782d46cc05630d1f6ebab18b2324d6b14",
          "topics": [
            "0xddf252ad1be2c89b69c2b068fc378daa952ba7f163c4a11628f55a4df523b3ef",
            "0x000000000000000000000000ee567fe1712faf6149d80da1e6934e354124cfe3",
            "0x000000000000000000000000e8aa2fa3963bad64ff66cfc458fda9f19a8e7024"
          ],
          "data": "0x000000000000000000000000000000000000000000000000022ef9a4f309c621",
          "blockHash": "0x4f4d24260b55e72c169deb060a2cbbb409bf318a7b2beb4590836d2f41e30fa7",
          "blockNumber": "0x9113e0",
          "blockTimestamp": "0x690094ec",
          "transactionHash": "0xcd483832fb4e81c3d7125b2be6ea7fa22026cad9d5565be01b46611d7e2fdb30",
          "transactionIndex": "0x60",
          "logIndex": "0xf7",
          "removed": false
        },
        {
          "address": "0xe8aa2fa3963bad64ff66cfc458fda9f19a8e7024",
          "topics": [
            "0xddf252ad1be2c89b69c2b068fc378daa952ba7f163c4a11628f55a4df523b3ef",
            "0x0000000000000000000000000000000000000000000000000000000000000000",
            "0x000000000000000000000000eff3521fb13228c767ad6dc3b934f9efac9c56ad"
          ],
          "data": "0x00000000000000000000000000000000000000000000000000635b3f341d1011",
          "blockHash": "0x4f4d24260b55e72c169deb060a2cbbb409bf318a7b2beb4590836d2f41e30fa7",
          "blockNumber": "0x9113e0",
          "blockTimestamp": "0x690094ec",
          "transactionHash": "0xcd483832fb4e81c3d7125b2be6ea7fa22026cad9d5565be01b46611d7e2fdb30",
          "transactionIndex": "0x60",
          "logIndex": "0xf8",
          "removed": false
        },
        {
          "address": "0xe8aa2fa3963bad64ff66cfc458fda9f19a8e7024",
          "topics": [
            "0x1c411e9a96e071241c2f21f7726b17ae89e3cab4c78be50e062b03a9fffbbad1"
          ],
          "data": "0x0000000000000000000000000000000000000000000000000193b411acdf3758000000000000000000000000000000000000000000000000295a48368a37d279",
          "blockHash": "0x4f4d24260b55e72c169deb060a2cbbb409bf318a7b2beb4590836d2f41e30fa7",
          "blockNumber": "0x9113e0",
          "blockTimestamp": "0x690094ec",
          "transactionHash": "0xcd483832fb4e81c3d7125b2be6ea7fa22026cad9d5565be01b46611d7e2fdb30",
          "transactionIndex": "0x60",
          "logIndex": "0xf9",
          "removed": false
        },
        {
          "address": "0xe8aa2fa3963bad64ff66cfc458fda9f19a8e7024",
          "topics": [
            "0x4c209b5fc8ad50758f13e2e1088ba56a560dff690a1c6fef26394f4c03821c4f",
            "0x000000000000000000000000ee567fe1712faf6149d80da1e6934e354124cfe3"
          ],
          "data": "0x000000000000000000000000000000000000000000000000001550f7dca70000000000000000000000000000000000000000000000000000022ef9a4f309c621",
          "blockHash": "0x4f4d24260b55e72c169deb060a2cbbb409bf318a7b2beb4590836d2f41e30fa7",
          "blockNumber": "0x9113e0",
          "blockTimestamp": "0x690094ec",
          "transactionHash": "0xcd483832fb4e81c3d7125b2be6ea7fa22026cad9d5565be01b46611d7e2fdb30",
          "transactionIndex": "0x60",
          "logIndex": "0xfa",
          "removed": false
        },
        {
          "address": "0x8db4397c8809f5d4475314fcfcf77038c8abbbca",
          "topics": [
            "0x4a1a2a6176e9646d9e3157f7c2ab3c499f18337c0b0828cfb28e0a61de4a11f7"
          ],
          "data": "0x0000000000000000000000001f9840a85d5af5bf1d1762f925bdaddc4201f9840000000000000000000000000000000000000000000000000000000000000000000000000000000000000000000000000000000000000000001550f7dca70000000000000000000000000000000000000000000000000000022ef9a4f309c62100000000000000000000000000000000000000000000000000635b3f341d1011",
          "blockHash": "0x4f4d24260b55e72c169deb060a2cbbb409bf318a7b2beb4590836d2f41e30fa7",
          "blockNumber": "0x9113e0",
          "blockTimestamp": "0x690094ec",
          "transactionHash": "0xcd483832fb4e81c3d7125b2be6ea7fa22026cad9d5565be01b46611d7e2fdb30",
          "transactionIndex": "0x60",
          "logIndex": "0xfb",
          "removed": false
        }
      ],
      "logsBloom": "0x00000000000000000000000080000000000000000080000000000000000001020400000000000000000000000000001000000000000000000000000048200000000000000000000000000008100000000000000000000000002000008000000008000000020000000008800000000800000000000808000000000210002000000040000000000000000000002000000000000005000000080000800000010000020020000000000000000000000000000000100000040000000000800000000000000002000000000002000000020000000000000000001000000000000028000010000000000000000000000000000000000000000000400080000000000000",
      "type": "0x2",
      "transactionHash": "0xcd483832fb4e81c3d7125b2be6ea7fa22026cad9d5565be01b46611d7e2fdb30",
      "transactionIndex": "0x60",
      "blockHash": "0x4f4d24260b55e72c169deb060a2cbbb409bf318a7b2beb4590836d2f41e30fa7",
      "blockNumber": "0x9113e0",
      "gasUsed": "0x316c8",
      "effectiveGasPrice": "0xf424f",
      "from": "0xeff3521fb13228c767ad6dc3b934f9efac9c56ad",
      "to": "0x8db4397c8809f5d4475314fcfcf77038c8abbbca",
      "contractAddress": null
    }
  ],
  "libraries": [],
  "pending": [],
  "returns": {},
  "timestamp": 1761645812,
  "chain": 11155111,
  "commit": "4457f8a"
}