{
  "transactions": [
    {
      "hash": "0x5a4f36bca977e1cb6889cd039bc73e24585f760f6562d75a3f8780cbf22a884e",
      "transactionType": "CALL",
      "contractName": null,
      "contractAddress": "0x3b0fb17f3e9ec286e99e719ab7acf79fa5117e96",
      "function": "createPool(address,address)",
      "arguments": [
        "0x1f9840a85d5aF5bf1D1762F925BDADdC4201F984",
        "0x5044b7093c4428aeFFf1C333FA56244D5E549FA8"
      ],
      "transaction": {
        "from": "0xeff3521fb13228c767ad6dc3b934f9efac9c56ad",
        "to": "0x3b0fb17f3e9ec286e99e719ab7acf79fa5117e96",
        "gas": "0x350041",
        "value": "0x0",
        "input": "0xe34336150000000000000000000000001f9840a85d5af5bf1d1762f925bdaddc4201f9840000000000000000000000005044b7093c4428aefff1c333fa56244d5e549fa8",
        "nonce": "0xc9",
        "chainId": "0xaa36a7"
      },
      "additionalContracts": [],
      "isFixedGasLimit": false
    }
  ],
  "receipts": [
    {
      "status": "0x1",
      "cumulativeGasUsed": "0x71692b",
      "logs": [
        {
          "address": "0xf62c03e08ada871a0beb309762e260a7a6a880e6",
          "topics": [
            "0x0d3648bd0f6ba80134a33ba9275ac585d9d315f0ad8355cddefde31afa28d0e9",
            "0x0000000000000000000000001f9840a85d5af5bf1d1762f925bdaddc4201f984",
            "0x0000000000000000000000005044b7093c4428aefff1c333fa56244d5e549fa8"
          ],
          "data": "0x0000000000000000000000001984e59074b1173666e478b0b36788cf3ec1cc1e0000000000000000000000000000000000000000000000000000000000002d29",
          "blockHash": "0x7953dc69e21ecb008c71d7a4297623cfd4c4e58a9ba729e9294c0c90e36dbd36",
          "blockNumber": "0x90d755",
          "blockTimestamp": "0x68fdb58c",
          "transactionHash": "0x5a4f36bca977e1cb6889cd039bc73e24585f760f6562d75a3f8780cbf22a884e",
          "transactionIndex": "0x2a",
          "logIndex": "0x48",
          "removed": false
        },
        {
          "address": "0x3b0fb17f3e9ec286e99e719ab7acf79fa5117e96",
          "topics": [
            "0x9c5d829b9b23efc461f9aeef91979ec04bb903feb3bee4f26d22114abfc7335b"
          ],
          "data": "0x0000000000000000000000001f9840a85d5af5bf1d1762f925bdaddc4201f9840000000000000000000000005044b7093c4428aefff1c333fa56244d5e549fa80000000000000000000000001984e59074b1173666e478b0b36788cf3ec1cc1e",
          "blockHash": "0x7953dc69e21ecb008c71d7a4297623cfd4c4e58a9ba729e9294c0c90e36dbd36",
          "blockNumber": "0x90d755",
          "blockTimestamp": "0x68fdb58c",
          "transactionHash": "0x5a4f36bca977e1cb6889cd039bc73e24585f760f6562d75a3f8780cbf22a884e",
          "transactionIndex": "0x2a",
          "logIndex": "0x49",
          "removed": false
        }
      ],
      "logsBloom": "0x00000000000000004000000000000040000000000000000000000000000000000000000000000000000000000000000000000000000000000000090000000000000000040000000000000000000000000000000000000810000040000000000000000000001000000000000000000000000000000000000000000000000000000000000000000080000000000000000000000000000000000000000000000000020000000800000000000000000000000000000000000200000000000000000000000000000000000800000000000040000000000000000000000000000000000000000000000000080000000000100080000000000000000000000000000000",
      "type": "0x2",
      "transactionHash": "0x5a4f36bca977e1cb6889cd039bc73e24585f760f6562d75a3f8780cbf22a884e",
      "transactionIndex": "0x2a",
      "blockHash": "0x7953dc69e21ecb008c71d7a4297623cfd4c4e58a9ba729e9294c0c90e36dbd36",
      "blockNumber": "0x90d755",
      "gasUsed": "0x266205",
      "effectiveGasPrice": "0xfa910",
      "from": "0xeff3521fb13228c767ad6dc3b934f9efac9c56ad",
      "to": "0x3b0fb17f3e9ec286e99e719ab7acf79fa5117e96",
      "contractAddress": null
    }
  ],
  "libraries": [],
  "pending": [],
  "returns": {},
  "timestamp": 1761457549,
  "chain": 11155111,
  "commit": "0754351"
}