{
  "transactions": [
    {
      "hash": "0x6b09cf36cc9a50e06b8f3564b55f2198a23851819800f68091b4815bd5bd740b",
      "transactionType": "CALL",
      "contractName": null,
      "contractAddress": "0x3b0fb17f3e9ec286e99e719ab7acf79fa5117e96",
      "function": "createPool(address,address)",
      "arguments": [
        "0x1f9840a85d5aF5bf1D1762F925BDADdC4201F984",
        "0x0E1Efea9F52f99bAAC1ca663D41119C037258D54"
      ],
      "transaction": {
        "from": "0xeff3521fb13228c767ad6dc3b934f9efac9c56ad",
        "to": "0x3b0fb17f3e9ec286e99e719ab7acf79fa5117e96",
        "gas": "0x350050",
        "value": "0x0",
        "input": "0xe34336150000000000000000000000001f9840a85d5af5bf1d1762f925bdaddc4201f9840000000000000000000000000e1efea9f52f99baac1ca663d41119c037258d54",
        "nonce": "0xcf",
        "chainId": "0xaa36a7"
      },
      "additionalContracts": [],
      "isFixedGasLimit": false
    }
  ],
  "receipts": [
    {
      "status": "0x1",
      "cumulativeGasUsed": "0xc9c3bb",
      "logs": [
        {
          "address": "0xf62c03e08ada871a0beb309762e260a7a6a880e6",
          "topics": [
            "0x0d3648bd0f6ba80134a33ba9275ac585d9d315f0ad8355cddefde31afa28d0e9",
            "0x0000000000000000000000000e1efea9f52f99baac1ca663d41119c037258d54",
            "0x0000000000000000000000001f9840a85d5af5bf1d1762f925bdaddc4201f984"
          ],
          "data": "0x000000000000000000000000f8d80ca3b525456711fce0456ee96b1caccf38ab0000000000000000000000000000000000000000000000000000000000002d2c",
          "blockHash": "0xbebd63255a14c10631bfafd709a80e1b16cc3e936f04e555d873d5408003907e",
          "blockNumber": "0x90d7d5",
          "blockTimestamp": "0x68fdbb8c",
          "transactionHash": "0x6b09cf36cc9a50e06b8f3564b55f2198a23851819800f68091b4815bd5bd740b",
          "transactionIndex": "0x4d",
          "logIndex": "0x50",
          "removed": false
        },
        {
          "address": "0x3b0fb17f3e9ec286e99e719ab7acf79fa5117e96",
          "topics": [
            "0x9c5d829b9b23efc461f9aeef91979ec04bb903feb3bee4f26d22114abfc7335b"
          ],
          "data": "0x0000000000000000000000001f9840a85d5af5bf1d1762f925bdaddc4201f9840000000000000000000000000e1efea9f52f99baac1ca663d41119c037258d54000000000000000000000000f8d80ca3b525456711fce0456ee96b1caccf38ab",
          "blockHash": "0xbebd63255a14c10631bfafd709a80e1b16cc3e936f04e555d873d5408003907e",
          "blockNumber": "0x90d7d5",
          "blockTimestamp": "0x68fdbb8c",
          "transactionHash": "0x6b09cf36cc9a50e06b8f3564b55f2198a23851819800f68091b4815bd5bd740b",
          "transactionIndex": "0x4d",
          "logIndex": "0x51",
          "removed": false
        }
      ],
      "logsBloom": "0x00000000000000004000000000000000000000000000000100000000000000000000000000000000000000000000000000000000000000000000080000000000000000040000000000000000000020000000000000000810000040000000000000000000001000000000000000000000000000000000000000000000000000000000000004000080000000000000000000000000000000000000000000000000020000000800000000000000000000000000000000000200000000000000000000000000000000000800000000000040000000000000000000000000000000000000000000000000080000000000000080000000000000000000000000000000",
      "type": "0x2",
      "transactionHash": "0x6b09cf36cc9a50e06b8f3564b55f2198a23851819800f68091b4815bd5bd740b",
      "transactionIndex": "0x4d",
      "blockHash": "0xbebd63255a14c10631bfafd709a80e1b16cc3e936f04e555d873d5408003907e",
      "blockNumber": "0x90d7d5",
      "gasUsed": "0x26620f",
      "effectiveGasPrice": "0xf424a",
      "from": "0xeff3521fb13228c767ad6dc3b934f9efac9c56ad",
      "to": "0x3b0fb17f3e9ec286e99e719ab7acf79fa5117e96",
      "contractAddress": null
    }
  ],
  "libraries": [],
  "pending": [],
  "returns": {},
  "timestamp": 1761459085,
  "chain": 11155111,
  "commit": "0754351"
}