{
  "transactions": [
    {
      "hash": "0xda6e10de3162fb58aa732b562395841e58b6585f93009a72f5b52735efdba6be",
      "transactionType": "CALL",
      "contractName": null,
      "contractAddress": "0x3b0fb17f3e9ec286e99e719ab7acf79fa5117e96",
      "function": "createPool(address,address)",
      "arguments": [
        "0x1f9840a85d5aF5bf1D1762F925BDADdC4201F984",
        "0x5044b7093c4428aeFFf1C333FA56244D5E549FA8"
      ],
      "transaction": {
        "from": "0xeff3521fb13228c767ad6dc3b934f9efac9c56ad",
        "to": "0x3b0fb17f3e9ec286e99e719ab7acf79fa5117e96",
        "gas": "0xaaeb",
        "value": "0x0",
        "input": "0xe34336150000000000000000000000001f9840a85d5af5bf1d1762f925bdaddc4201f9840000000000000000000000005044b7093c4428aefff1c333fa56244d5e549fa8",
        "nonce": "0xca",
        "chainId": "0xaa36a7"
      },
      "additionalContracts": [],
      "isFixedGasLimit": false
    }
  ],
  "receipts": [
    {
      "status": "0x1",
      "cumulativeGasUsed": "0xea6428",
      "logs": [
        {
          "address": "0x3b0fb17f3e9ec286e99e719ab7acf79fa5117e96",
          "topics": [
            "0x9c5d829b9b23efc461f9aeef91979ec04bb903feb3bee4f26d22114abfc7335b"
          ],
          "data": "0x0000000000000000000000001f9840a85d5af5bf1d1762f925bdaddc4201f9840000000000000000000000005044b7093c4428aefff1c333fa56244d5e549fa80000000000000000000000001984e59074b1173666e478b0b36788cf3ec1cc1e",
          "blockHash": "0x0b3a17a62e9cac831b6e72e3c774a75b4b8c6a2c4ef399094d95817fe135785a",
          "blockNumber": "0x90d77b",
          "blockTimestamp": "0x68fdb754",
          "transactionHash": "0xda6e10de3162fb58aa732b562395841e58b6585f93009a72f5b52735efdba6be",
          "transactionIndex": "0x6e",
          "logIndex": "0xa0",
          "removed": false
        }
      ],
      "logsBloom": "0x00000000000000004000000000000000000000000000000000000000000000000000000000000000000000000000000000000000000000000000000000000000000000040000000000000000000000000000000000000800000000000000000000000000000000000000000000000000000000000000000000000000000000000000000000000080000000000000000000000000000000000000000000000000020000000000000000000000000000000000000000000000000000000000000000000000000000000800000000000000000000000000000000000000000000000000000000000000000000000000000000000000000000000000000000000000",
      "type": "0x2",
      "transactionHash": "0xda6e10de3162fb58aa732b562395841e58b6585f93009a72f5b52735efdba6be",
      "transactionIndex": "0x6e",
      "blockHash": "0x0b3a17a62e9cac831b6e72e3c774a75b4b8c6a2c4ef399094d95817fe135785a",
      "blockNumber": "0x90d77b",
      "gasUsed": "0x7bbf",
      "effectiveGasPrice": "0xf4249",
      "from": "0xeff3521fb13228c767ad6dc3b934f9efac9c56ad",
      "to": "0x3b0fb17f3e9ec286e99e719ab7acf79fa5117e96",
      "contractAddress": null
    }
  ],
  "libraries": [],
  "pending": [],
  "returns": {},
  "timestamp": 1761458008,
  "chain": 11155111,
  "commit": "0754351"
}