{
  "transactions": [
    {
      "hash": "0x64ea85e74411d41536133551cb56fe9a89c1d525870496b2f50079d55a914aef",
      "transactionType": "CALL",
      "contractName": null,
      "contractAddress": "0xd452f4925fc63a00ea03982ab4e4d27be79da0b8",
      "function": "createPool(address,address)",
      "arguments": [
        "0x0E1Efea9F52f99bAAC1ca663D41119C037258D54",
        "0xfFf9976782d46CC05630D1f6eBAb18b2324d6B14"
      ],
      "transaction": {
        "from": "0xeff3521fb13228c767ad6dc3b934f9efac9c56ad",
        "to": "0xd452f4925fc63a00ea03982ab4e4d27be79da0b8",
        "gas": "0x350041",
        "value": "0x0",
        "input": "0xe34336150000000000000000000000000e1efea9f52f99baac1ca663d41119c037258d54000000000000000000000000fff9976782d46cc05630d1f6ebab18b2324d6b14",
        "nonce": "0xde",
        "chainId": "0xaa36a7"
      },
      "additionalContracts": [],
      "isFixedGasLimit": false
    }
  ],
  "receipts": [
    {
      "status": "0x1",
      "cumulativeGasUsed": "0x85a173",
      "logs": [
        {
          "address": "0xf62c03e08ada871a0beb309762e260a7a6a880e6",
          "topics": [
            "0x0d3648bd0f6ba80134a33ba9275ac585d9d315f0ad8355cddefde31afa28d0e9",
            "0x0000000000000000000000000e1efea9f52f99baac1ca663d41119c037258d54",
            "0x000000000000000000000000fff9976782d46cc05630d1f6ebab18b2324d6b14"
          ],
          "data": "0x0000000000000000000000000a672fd301bc5a3efbbe56682a65254a2c1356790000000000000000000000000000000000000000000000000000000000002d2d",
          "blockHash": "0x15025318334b850f1a7939ad402798b63422ec52a091bcb1fcc0a67e0c5462b3",
          "blockNumber": "0x90d8e0",
          "blockTimestamp": "0x68fdc81c",
          "transactionHash": "0x64ea85e74411d41536133551cb56fe9a89c1d525870496b2f50079d55a914aef",
          "transactionIndex": "0x3b",
          "logIndex": "0x49",
          "removed": false
        },
        {
          "address": "0xd452f4925fc63a00ea03982ab4e4d27be79da0b8",
          "topics": [
            "0x9c5d829b9b23efc461f9aeef91979ec04bb903feb3bee4f26d22114abfc7335b"
          ],
          "data": "0x0000000000000000000000000e1efea9f52f99baac1ca663d41119c037258d54000000000000000000000000fff9976782d46cc05630d1f6ebab18b2324d6b140000000000000000000000000a672fd301bc5a3efbbe56682a65254a2c135679",
          "blockHash": "0x15025318334b850f1a7939ad402798b63422ec52a091bcb1fcc0a67e0c5462b3",
          "blockNumber": "0x90d8e0",
          "blockTimestamp": "0x68fdc81c",
          "transactionHash": "0x64ea85e74411d41536133551cb56fe9a89c1d525870496b2f50079d55a914aef",
          "transactionIndex": "0x3b",
          "logIndex": "0x4a",
          "removed": false
        }
      ],
      "logsBloom": "0x00000000001000000000000000000000000000000000000100000000000000000000000000000000000000000000000000000800000000000000000000000000000000040000000000000000000020000000000000000000000040000000000000000000001000000000000000000000000000000000000020000000000000000000000004000000000000000000000000000000000000000000000000000000020000000800000000000000000000000000000000000200000040000000000000000000000000000800000001000040000000000000000000000000000000000000000000000000080000000000000000000040000000000000000000000000",
      "type": "0x2",
      "transactionHash": "0x64ea85e74411d41536133551cb56fe9a89c1d525870496b2f50079d55a914aef",
      "transactionIndex": "0x3b",
      "blockHash": "0x15025318334b850f1a7939ad402798b63422ec52a091bcb1fcc0a67e0c5462b3",
      "blockNumber": "0x90d8e0",
      "gasUsed": "0x266205",
      "effectiveGasPrice": "0xf4249",
      "from": "0xeff3521fb13228c767ad6dc3b934f9efac9c56ad",
      "to": "0xd452f4925fc63a00ea03982ab4e4d27be79da0b8",
      "contractAddress": null
    }
  ],
  "libraries": [],
  "pending": [],
  "returns": {},
  "timestamp": 1761462305,
  "chain": 11155111,
  "commit": "0754351"
}