{
  "transactions": [
    {
      "hash": "0xaca5579c579e7166fceb4ca06d5ac3f07d53489cbf43af5c2caf80975da9009f",
      "transactionType": "CALL",
      "contractName": null,
      "contractAddress": "0x9d4eb64290887536cabc9b9e841132145ee55f07",
      "function": "createPool(address,address)",
      "arguments": [
        "0x1f9840a85d5aF5bf1D1762F925BDADdC4201F984",
        "0x0E1Efea9F52f99bAAC1ca663D41119C037258D54"
      ],
      "transaction": {
        "from": "0xeff3521fb13228c767ad6dc3b934f9efac9c56ad",
        "to": "0x9d4eb64290887536cabc9b9e841132145ee55f07",
        "gas": "0xaaeb",
        "value": "0x0",
        "input": "0xe34336150000000000000000000000001f9840a85d5af5bf1d1762f925bdaddc4201f9840000000000000000000000000e1efea9f52f99baac1ca663d41119c037258d54",
        "nonce": "0xd1",
        "chainId": "0xaa36a7"
      },
      "additionalContracts": [],
      "isFixedGasLimit": false
    }
  ],
  "receipts": [
    {
      "status": "0x1",
      "cumulativeGasUsed": "0x85a19f",
      "logs": [
        {
          "address": "0x9d4eb64290887536cabc9b9e841132145ee55f07",
          "topics": [
            "0x9c5d829b9b23efc461f9aeef91979ec04bb903feb3bee4f26d22114abfc7335b"
          ],
          "data": "0x0000000000000000000000001f9840a85d5af5bf1d1762f925bdaddc4201f9840000000000000000000000000e1efea9f52f99baac1ca663d41119c037258d54000000000000000000000000f8d80ca3b525456711fce0456ee96b1caccf38ab",
          "blockHash": "0xd3d74d4238cc862928872383bccc3666f59283c82f7f6c5ca67ba0b8cd0cfff9",
          "blockNumber": "0x90d7fe",
          "blockTimestamp": "0x68fdbd78",
          "transactionHash": "0xaca5579c579e7166fceb4ca06d5ac3f07d53489cbf43af5c2caf80975da9009f",
          "transactionIndex": "0x77",
          "logIndex": "0x83",
          "removed": false
        }
      ],
      "logsBloom": "0x00000000000000000000000000000000000000000000000000000000000000000000000000000000000000000000000000000000000000000000000000000000000000040000000000000000000000000000000000000000000000000000000000000000000000000000000400000000000000000000000000000000000000000000000000000000000000000000000000000000000000000000000000000000020000000000000000000400000000000000000000000000000000000000000000000000000000000800000000000000000000000000000000010000000000000000000000000000000000000000000000000000000000000000000000000000",
      "type": "0x2",
      "transactionHash": "0xaca5579c579e7166fceb4ca06d5ac3f07d53489cbf43af5c2caf80975da9009f",
      "transactionIndex": "0x77",
      "blockHash": "0xd3d74d4238cc862928872383bccc3666f59283c82f7f6c5ca67ba0b8cd0cfff9",
      "blockNumber": "0x90d7fe",
      "gasUsed": "0x7bbf",
      "effectiveGasPrice": "0xf4249",
      "from": "0xeff3521fb13228c767ad6dc3b934f9efac9c56ad",
      "to": "0x9d4eb64290887536cabc9b9e841132145ee55f07",
      "contractAddress": null
    }
  ],
  "libraries": [],
  "pending": [],
  "returns": {},
  "timestamp": 1761459581,
  "chain": 11155111,
  "commit": "0754351"
}