{
  "transactions": [
    {
      "hash": "0xa765276f321b9dc745ec5be68bda40de1a635d50a30c60e5b082bc384a3e5b1c",
      "transactionType": "CALL",
      "contractName": null,
      "contractAddress": "0xbfd4c35d5dd72deef603dd7edd85b2be9c14e9cd",
      "function": "createPool(address,address)",
      "arguments": [
        "0x6c64E8278B7d5513143D59Bf1484B0e6972e4505",
        "0xfFf9976782d46CC05630D1f6eBAb18b2324d6B14"
      ],
      "transaction": {
        "from": "0xeff3521fb13228c767ad6dc3b934f9efac9c56ad",
        "to": "0xbfd4c35d5dd72deef603dd7edd85b2be9c14e9cd",
        "gas": "0xb1ca",
        "value": "0x0",
        "input": "0xe34336150000000000000000000000006c64e8278b7d5513143d59bf1484b0e6972e4505000000000000000000000000fff9976782d46cc05630d1f6ebab18b2324d6b14",
        "nonce": "0xfb",
        "chainId": "0xaa36a7"
      },
      "additionalContracts": [],
      "isFixedGasLimit": false
    }
  ],
  "receipts": [
    {
      "status": "0x1",
      "cumulativeGasUsed": "0xdb3cfc",
      "logs": [
        {
          "address": "0xbfd4c35d5dd72deef603dd7edd85b2be9c14e9cd",
          "topics": [
            "0x9c5d829b9b23efc461f9aeef91979ec04bb903feb3bee4f26d22114abfc7335b"
          ],
          "data": "0x0000000000000000000000006c64e8278b7d5513143d59bf1484b0e6972e4505000000000000000000000000fff9976782d46cc05630d1f6ebab18b2324d6b14000000000000000000000000f19ef33379cfcc00648db052be5a22c93d08c6d4",
          "blockHash": "0x9474057daed4e8dcf67505288892f0e72e4825c2ea00f238f8295ee520e66380",
          "blockNumber": "0x90efdc",
          "blockTimestamp": "0x68fedc58",
          "transactionHash": "0xa765276f321b9dc745ec5be68bda40de1a635d50a30c60e5b082bc384a3e5b1c",
          "transactionIndex": "0x62",
          "logIndex": "0x84",
          "removed": false
        }
      ],
      "logsBloom": "0x00000000000000000000000000000000000000000000000000000000000000000000000000000000000000000000000000000000000000000000000000004000000000040000000000000000000000000000000000000000000000000000000000000000000000008000000000000000000000000000000000000000000000000000000000000000000000000000000000000000000000000000000000000000020000000000000000000000000000000000000000000000000000000000000000000000000000000800000000000000000000000000000000000000000000000000000000000000000000000000000000000000000000040000000000000000",
      "type": "0x2",
      "transactionHash": "0xa765276f321b9dc745ec5be68bda40de1a635d50a30c60e5b082bc384a3e5b1c",
      "transactionIndex": "0x62",
      "blockHash": "0x9474057daed4e8dcf67505288892f0e72e4825c2ea00f238f8295ee520e66380",
      "blockNumber": "0x90efdc",
      "gasUsed": "0x80b8",
      "effectiveGasPrice": "0xfa910",
      "from": "0xeff3521fb13228c767ad6dc3b934f9efac9c56ad",
      "to": "0xbfd4c35d5dd72deef603dd7edd85b2be9c14e9cd",
      "contractAddress": null
    }
  ],
  "libraries": [],
  "pending": [],
  "returns": {},
  "timestamp": 1761533019,
  "chain": 11155111,
  "commit": "b9ab932"
}