{
  "transactions": [
    {
      "hash": "0x055853ba5caeff02f66109153d3c68e731c3a9571e417a75a74a735fa7b1edb0",
      "transactionType": "CALL",
      "contractName": null,
      "contractAddress": "0xe8aa2fa3963bad64ff66cfc458fda9f19a8e7024",
      "function": "approve(address,uint256)",
      "arguments": [
        "0x1BF7B1CaE8bf95A77734dc477c1Dda67418A1cf0",
        "27851028457154773"
      ],
      "transaction": {
        "from": "0xeff3521fb13228c767ad6dc3b934f9efac9c56ad",
        "to": "0xe8aa2fa3963bad64ff66cfc458fda9f19a8e7024",
        "gas": "0xf8a7",
        "value": "0x0",
        "input": "0x095ea7b30000000000000000000000001bf7b1cae8bf95a77734dc477c1dda67418a1cf00000000000000000000000000000000000000000000000000062f25ce1d168d5",
        "nonce": "0x12f",
        "chainId": "0xaa36a7"
      },
      "additionalContracts": [],
      "isFixedGasLimit": false
    },
    {
      "hash": "0x15f65d48bbb0cf8b6d8fef16c8b526a77f4f0fd0ce41e6764bcf47e70fb00d7f",
      "transactionType": "CALL",
      "contractName": null,
      "contractAddress": "0x1bf7b1cae8bf95a77734dc477c1dda67418a1cf0",
      "function": "zapOutEth(address,uint256)",
      "arguments": [
        "0x1f9840a85d5aF5bf1D1762F925BDADdC4201F984",
        "27851028457154773"
      ],
      "transaction": {
        "from": "0xeff3521fb13228c767ad6dc3b934f9efac9c56ad",
        "to": "0x1bf7b1cae8bf95a77734dc477c1dda67418a1cf0",
        "gas": "0x6ccef",
        "value": "0x0",
        "input": "0x1b8f671d0000000000000000000000001f9840a85d5af5bf1d1762f925bdaddc4201f9840000000000000000000000000000000000000000000000000062f25ce1d168d5",
        "nonce": "0x130",
        "chainId": "0xaa36a7"
      },
      "additionalContracts": [],
      "isFixedGasLimit": false
    }
  ],
  "receipts": [
    {
      "status": "0x1",
      "cumulativeGasUsed": "0x9ca363",
      "logs": [
        {
          "address": "0xe8aa2fa3963bad64ff66cfc458fda9f19a8e7024",
          "topics": [
            "0x8c5be1e5ebec7d5bd14f71427d1e84f3dd0314c0f7b2291e5b200ac8c7c3b925",
            "0x000000000000000000000000eff3521fb13228c767ad6dc3b934f9efac9c56ad",
            "0x0000000000000000000000001bf7b1cae8bf95a77734dc477c1dda67418a1cf0"
          ],
          "data": "0x0000000000000000000000000000000000000000000000000062f25ce1d168d5",
          "blockHash": "0x76def6abde02d4403d8e93884820a3f7b6f195c0e0138b4640eda2a73a82dc14",
          "blockNumber": "0x9113bb",
          "blockTimestamp": "0x69009300",
          "transactionHash": "0x055853ba5caeff02f66109153d3c68e731c3a9571e417a75a74a735fa7b1edb0",
          "transactionIndex": "0x58",
          "logIndex": "0x6e",
          "removed": false
        }
      ],
      "logsBloom": "0x00000000000000000000000000000000000000000000000000000000000000020400000000000000000000000000000000000000000000000000000000200000000000000000000800000000000000000000000000000000002000000000000000000000000000000000000000000000000000000000000000000000000000000000000000000000000000002000000000000000000000000000000000000000020000000000000000000000000008200000100000040000000000000000000000000000000000000000000000000000000000000000000000000000000000000010000000000000000000000000000000000000000000000000000000000000",
      "type": "0x2",
      "transactionHash": "0x055853ba5caeff02f66109153d3c68e731c3a9571e417a75a74a735fa7b1edb0",
      "transactionIndex": "0x58",
      "blockHash": "0x76def6abde02d4403d8e93884820a3f7b6f195c0e0138b4640eda2a73a82dc14",
      "blockNumber": "0x9113bb",
      "gasUsed": "0xb406",
      "effectiveGasPrice": "0xf424e",
      "from": "0xeff3521fb13228c767ad6dc3b934f9efac9c56ad",
      "to": "0xe8aa2fa3963bad64ff66cfc458fda9f19a8e7024",
      "contractAddress": null
    },
    {
      "status": "0x1",
      "cumulativeGasUsed": "0xa18fcb",
      "logs": [
        {
          "address": "0xe8aa2fa3963bad64ff66cfc458fda9f19a8e7024",
          "topics": [
            "0xddf252ad1be2c89b69c2b068fc378daa952ba7f163c4a11628f55a4df523b3ef",
            "0x000000000000000000000000eff3521fb13228c767ad6dc3b934f9efac9c56ad",
            "0x0000000000000000000000001bf7b1cae8bf95a77734dc477c1dda67418a1cf0"
          ],
          "data": "0x0000000000000000000000000000000000000000000000000062f25ce1d168d5",
          "blockHash": "0x76def6abde02d4403d8e93884820a3f7b6f195c0e0138b4640eda2a73a82dc14",
          "blockNumber": "0x9113bb",
          "blockTimestamp": "0x69009300",
          "transactionHash": "0x15f65d48bbb0cf8b6d8fef16c8b526a77f4f0fd0ce41e6764bcf47e70fb00d7f",
          "transactionIndex": "0x59",
          "logIndex": "0x6f",
          "removed": false
        },
        {
          "address": "0xe8aa2fa3963bad64ff66cfc458fda9f19a8e7024",
          "topics": [
            "0x8c5be1e5ebec7d5bd14f71427d1e84f3dd0314c0f7b2291e5b200ac8c7c3b925",
            "0x0000000000000000000000001bf7b1cae8bf95a77734dc477c1dda67418a1cf0",
            "0x000000000000000000000000ee567fe1712faf6149d80da1e6934e354124cfe3"
          ],
          "data": "0x0000000000000000000000000000000000000000000000000062f25ce1d168d5",
          "blockHash": "0x76def6abde02d4403d8e93884820a3f7b6f195c0e0138b4640eda2a73a82dc14",
          "blockNumber": "0x9113bb",
          "blockTimestamp": "0x69009300",
          "transactionHash": "0x15f65d48bbb0cf8b6d8fef16c8b526a77f4f0fd0ce41e6764bcf47e70fb00d7f",
          "transactionIndex": "0x59",
          "logIndex": "0x70",
          "removed": false
        },
        {
          "address": "0xe8aa2fa3963bad64ff66cfc458fda9f19a8e7024",
          "topics": [
            "0xddf252ad1be2c89b69c2b068fc378daa952ba7f163c4a11628f55a4df523b3ef",
            "0x0000000000000000000000001bf7b1cae8bf95a77734dc477c1dda67418a1cf0",
            "0x000000000000000000000000e8aa2fa3963bad64ff66cfc458fda9f19a8e7024"
          ],
          "data": "0x0000000000000000000000000000000000000000000000000062f25ce1d168d5",
          "blockHash": "0x76def6abde02d4403d8e93884820a3f7b6f195c0e0138b4640eda2a73a82dc14",
          "blockNumber": "0x9113bb",
          "blockTimestamp": "0x69009300",
          "transactionHash": "0x15f65d48bbb0cf8b6d8fef16c8b526a77f4f0fd0ce41e6764bcf47e70fb00d7f",
          "transactionIndex": "0x59",
          "logIndex": "0x71",
          "removed": false
        },
        {
          "address": "0xe8aa2fa3963bad64ff66cfc458fda9f19a8e7024",
          "topics": [
            "0xddf252ad1be2c89b69c2b068fc378daa952ba7f163c4a11628f55a4df523b3ef",
            "0x000000000000000000000000e8aa2fa3963bad64ff66cfc458fda9f19a8e7024",
            "0x0000000000000000000000000000000000000000000000000000000000000000"
          ],
          "data": "0x0000000000000000000000000000000000000000000000000062f25ce1d168d5",
          "blockHash": "0x76def6abde02d4403d8e93884820a3f7b6f195c0e0138b4640eda2a73a82dc14",
          "blockNumber": "0x9113bb",
          "blockTimestamp": "0x69009300",
          "transactionHash": "0x15f65d48bbb0cf8b6d8fef16c8b526a77f4f0fd0ce41e6764bcf47e70fb00d7f",
          "transactionIndex": "0x59",
          "logIndex": "0x72",
          "removed": false
        },
        {
          "address": "0x1f9840a85d5af5bf1d1762f925bdaddc4201f984",
          "topics": [
            "0xddf252ad1be2c89b69c2b068fc378daa952ba7f163c4a11628f55a4df523b3ef",
            "0x000000000000000000000000e8aa2fa3963bad64ff66cfc458fda9f19a8e7024",
            "0x000000000000000000000000ee567fe1712faf6149d80da1e6934e354124cfe3"
          ],
          "data": "0x000000000000000000000000000000000000000000000000001550f7dca6ffff",
          "blockHash": "0x76def6abde02d4403d8e93884820a3f7b6f195c0e0138b4640eda2a73a82dc14",
          "blockNumber": "0x9113bb",
          "blockTimestamp": "0x69009300",
          "transactionHash": "0x15f65d48bbb0cf8b6d8fef16c8b526a77f4f0fd0ce41e6764bcf47e70fb00d7f",
          "transactionIndex": "0x59",
          "logIndex": "0x73",
          "removed": false
        },
        {
          "address": "0xfff9976782d46cc05630d1f6ebab18b2324d6b14",
          "topics": [
            "0xddf252ad1be2c89b69c2b068fc378daa952ba7f163c4a11628f55a4df523b3ef",
            "0x000000000000000000000000e8aa2fa3963bad64ff66cfc458fda9f19a8e7024",
            "0x000000000000000000000000ee567fe1712faf6149d80da1e6934e354124cfe3"
          ],
          "data": "0x00000000000000000000000000000000000000000000000002299aefe1873a43",
          "blockHash": "0x76def6abde02d4403d8e93884820a3f7b6f195c0e0138b4640eda2a73a82dc14",
          "blockNumber": "0x9113bb",
          "blockTimestamp": "0x69009300",
          "transactionHash": "0x15f65d48bbb0cf8b6d8fef16c8b526a77f4f0fd0ce41e6764bcf47e70fb00d7f",
          "transactionIndex": "0x59",
          "logIndex": "0x74",
          "removed": false
        },
        {
          "address": "0xe8aa2fa3963bad64ff66cfc458fda9f19a8e7024",
          "topics": [
            "0x1c411e9a96e071241c2f21f7726b17ae89e3cab4c78be50e062b03a9fffbbad1"
          ],
          "data": "0x000000000000000000000000000000000000000000000000017ff86ee8c2259300000000000000000000000000000000000000000000000026f418f3064931d4",
          "blockHash": "0x76def6abde02d4403d8e93884820a3f7b6f195c0e0138b4640eda2a73a82dc14",
          "blockNumber": "0x9113bb",
          "blockTimestamp": "0x69009300",
          "transactionHash": "0x15f65d48bbb0cf8b6d8fef16c8b526a77f4f0fd0ce41e6764bcf47e70fb00d7f",
          "transactionIndex": "0x59",
          "logIndex": "0x75",
          "removed": false
        },
        {
          "address": "0xe8aa2fa3963bad64ff66cfc458fda9f19a8e7024",
          "topics": [
            "0xdccd412f0b1252819cb1fd330b93224ca42612892bb3f4f789976e6d81936496",
            "0x000000000000000000000000ee567fe1712faf6149d80da1e6934e354124cfe3",
            "0x000000000000000000000000ee567fe1712faf6149d80da1e6934e354124cfe3"
          ],
          "data": "0x000000000000000000000000000000000000000000000000001550f7dca6ffff00000000000000000000000000000000000000000000000002299aefe1873a43",
          "blockHash": "0x76def6abde02d4403d8e93884820a3f7b6f195c0e0138b4640eda2a73a82dc14",
          "blockNumber": "0x9113bb",
          "blockTimestamp": "0x69009300",
          "transactionHash": "0x15f65d48bbb0cf8b6d8fef16c8b526a77f4f0fd0ce41e6764bcf47e70fb00d7f",
          "transactionIndex": "0x59",
          "logIndex": "0x76",
          "removed": false
        },
        {
          "address": "0x1f9840a85d5af5bf1d1762f925bdaddc4201f984",
          "topics": [
            "0xddf252ad1be2c89b69c2b068fc378daa952ba7f163c4a11628f55a4df523b3ef",
            "0x000000000000000000000000ee567fe1712faf6149d80da1e6934e354124cfe3",
            "0x0000000000000000000000001bf7b1cae8bf95a77734dc477c1dda67418a1cf0"
          ],
          "data": "0x000000000000000000000000000000000000000000000000001550f7dca6ffff",
          "blockHash": "0x76def6abde02d4403d8e93884820a3f7b6f195c0e0138b4640eda2a73a82dc14",
          "blockNumber": "0x9113bb",
          "blockTimestamp": "0x69009300",
          "transactionHash": "0x15f65d48bbb0cf8b6d8fef16c8b526a77f4f0fd0ce41e6764bcf47e70fb00d7f",
          "transactionIndex": "0x59",
          "logIndex": "0x77",
          "removed": false
        },
        {
          "address": "0xfff9976782d46cc05630d1f6ebab18b2324d6b14",
          "topics": [
            "0x7fcf532c15f0a6db0bd6d0e038bea71d30d808c7d98cb3bf7268a95bf5081b65",
            "0x000000000000000000000000ee567fe1712faf6149d80da1e6934e354124cfe3"
          ],
          "data": "0x00000000000000000000000000000000000000000000000002299aefe1873a43",
          "blockHash": "0x76def6abde02d4403d8e93884820a3f7b6f195c0e0138b4640eda2a73a82dc14",
          "blockNumber": "0x9113bb",
          "blockTimestamp": "0x69009300",
          "transactionHash": "0x15f65d48bbb0cf8b6d8fef16c8b526a77f4f0fd0ce41e6764bcf47e70fb00d7f",
          "transactionIndex": "0x59",
          "logIndex": "0x78",
          "removed": false
        },
        {
          "address": "0x1bf7b1cae8bf95a77734dc477c1dda67418a1cf0",
          "topics": [
            "0x88a5966d370b9919b20f3e2c13ff65706f196a4e32cc2c12bf57088f88525874"
          ],
          "data": "0x000000000000000000000000ee567fe1712faf6149d80da1e6934e354124cfe300000000000000000000000000000000000000000000000002299aefe1873a43",
          "blockHash": "0x76def6abde02d4403d8e93884820a3f7b6f195c0e0138b4640eda2a73a82dc14",
          "blockNumber": "0x9113bb",
          "blockTimestamp": "0x69009300",
          "transactionHash": "0x15f65d48bbb0cf8b6d8fef16c8b526a77f4f0fd0ce41e6764bcf47e70fb00d7f",
          "transactionIndex": "0x59",
          "logIndex": "0x79",
          "removed": false
        },
        {
          "address": "0x1f9840a85d5af5bf1d1762f925bdaddc4201f984",
          "topics": [
            "0x8c5be1e5ebec7d5bd14f71427d1e84f3dd0314c0f7b2291e5b200ac8c7c3b925",
            "0x0000000000000000000000001bf7b1cae8bf95a77734dc477c1dda67418a1cf0",
            "0x000000000000000000000000ee567fe1712faf6149d80da1e6934e354124cfe3"
          ],
          "data": "0x000000000000000000000000000000000000000000000000001550f7dca6ffff",
          "blockHash": "0x76def6abde02d4403d8e93884820a3f7b6f195c0e0138b4640eda2a73a82dc14",
          "blockNumber": "0x9113bb",
          "blockTimestamp": "0x69009300",
          "transactionHash": "0x15f65d48bbb0cf8b6d8fef16c8b526a77f4f0fd0ce41e6764bcf47e70fb00d7f",
          "transactionIndex": "0x59",
          "logIndex": "0x7a",
          "removed": false
        },
        {
          "address": "0x1f9840a85d5af5bf1d1762f925bdaddc4201f984",
          "topics": [
            "0x8c5be1e5ebec7d5bd14f71427d1e84f3dd0314c0f7b2291e5b200ac8c7c3b925",
            "0x0000000000000000000000001bf7b1cae8bf95a77734dc477c1dda67418a1cf0",
            "0x000000000000000000000000ee567fe1712faf6149d80da1e6934e354124cfe3"
          ],
          "data": "0x0000000000000000000000000000000000000000000000000000000000000000",
          "blockHash": "0x76def6abde02d4403d8e93884820a3f7b6f195c0e0138b4640eda2a73a82dc14",
          "blockNumber": "0x9113bb",
          "blockTimestamp": "0x69009300",
          "transactionHash": "0x15f65d48bbb0cf8b6d8fef16c8b526a77f4f0fd0ce41e6764bcf47e70fb00d7f",
          "transactionIndex": "0x59",
          "logIndex": "0x7b",
          "removed": false
        },
        {
          "address": "0x1f9840a85d5af5bf1d1762f925bdaddc4201f984",
          "topics": [
            "0xddf252ad1be2c89b69c2b068fc378daa952ba7f163c4a11628f55a4df523b3ef",
            "0x0000000000000000000000001bf7b1cae8bf95a77734dc477c1dda67418a1cf0",
            "0x000000000000000000000000e8aa2fa3963bad64ff66cfc458fda9f19a8e7024"
          ],
          "data": "0x000000000000000000000000000000000000000000000000001550f7dca6ffff",
          "blockHash": "0x76def6abde02d4403d8e93884820a3f7b6f195c0e0138b4640eda2a73a82dc14",
          "blockNumber": "0x9113bb",
          "blockTimestamp": "0x69009300",
          "transactionHash": "0x15f65d48bbb0cf8b6d8fef16c8b526a77f4f0fd0ce41e6764bcf47e70fb00d7f",
          "transactionIndex": "0x59",
          "logIndex": "0x7c",
          "removed": false
        },
        {
          "address": "0xfff9976782d46cc05630d1f6ebab18b2324d6b14",
          "topics": [
            "0xddf252ad1be2c89b69c2b068fc378daa952ba7f163c4a11628f55a4df523b3ef",
            "0x000000000000000000000000e8aa2fa3963bad64ff66cfc458fda9f19a8e7024",
            "0x000000000000000000000000ee567fe1712faf6149d80da1e6934e354124cfe3"
          ],
          "data": "0x000000000000000000000000000000000000000000000000020aff42377197ce",
          "blockHash": "0x76def6abde02d4403d8e93884820a3f7b6f195c0e0138b4640eda2a73a82dc14",
          "blockNumber": "0x9113bb",
          "blockTimestamp": "0x69009300",
          "transactionHash": "0x15f65d48bbb0cf8b6d8fef16c8b526a77f4f0fd0ce41e6764bcf47e70fb00d7f",
          "transactionIndex": "0x59",
          "logIndex": "0x7d",
          "removed": false
        },
        {
          "address": "0xe8aa2fa3963bad64ff66cfc458fda9f19a8e7024",
          "topics": [
            "0x1c411e9a96e071241c2f21f7726b17ae89e3cab4c78be50e062b03a9fffbbad1"
          ],
          "data": "0x00000000000000000000000000000000000000000000000001954966c569259200000000000000000000000000000000000000000000000024e919b0ced79a06",
          "blockHash": "0x76def6abde02d4403d8e93884820a3f7b6f195c0e0138b4640eda2a73a82dc14",
          "blockNumber": "0x9113bb",
          "blockTimestamp": "0x69009300",
          "transactionHash": "0x15f65d48bbb0cf8b6d8fef16c8b526a77f4f0fd0ce41e6764bcf47e70fb00d7f",
          "transactionIndex": "0x59",
          "logIndex": "0x7e",
          "removed": false
        },
        {
          "address": "0xe8aa2fa3963bad64ff66cfc458fda9f19a8e7024",
          "topics": [
            "0xd78ad95fa46c994b6551d0da85fc275fe613ce37657fb8d5e3d130840159d822",
            "0x000000000000000000000000ee567fe1712faf6149d80da1e6934e354124cfe3",
            "0x000000000000000000000000ee567fe1712faf6149d80da1e6934e354124cfe3"
          ],
          "data": "0x000000000000000000000000000000000000000000000000001550f7dca6ffff00000000000000000000000000000000000000000000000000000000000000000000000000000000000000000000000000000000000000000000000000000000000000000000000000000000000000000000000000000000020aff42377197ce",
          "blockHash": "0x76def6abde02d4403d8e93884820a3f7b6f195c0e0138b4640eda2a73a82dc14",
          "blockNumber": "0x9113bb",
          "blockTimestamp": "0x69009300",
          "transactionHash": "0x15f65d48bbb0cf8b6d8fef16c8b526a77f4f0fd0ce41e6764bcf47e70fb00d7f",
          "transactionIndex": "0x59",
          "logIndex": "0x7f",
          "removed": false
        },
        {
          "address": "0xfff9976782d46cc05630d1f6ebab18b2324d6b14",
          "topics": [
            "0x7fcf532c15f0a6db0bd6d0e038bea71d30d808c7d98cb3bf7268a95bf5081b65",
            "0x000000000000000000000000ee567fe1712faf6149d80da1e6934e354124cfe3"
          ],
          "data": "0x000000000000000000000000000000000000000000000000020aff42377197ce",
          "blockHash": "0x76def6abde02d4403d8e93884820a3f7b6f195c0e0138b4640eda2a73a82dc14",
          "blockNumber": "0x9113bb",
          "blockTimestamp": "0x69009300",
          "transactionHash": "0x15f65d48bbb0cf8b6d8fef16c8b526a77f4f0fd0ce41e6764bcf47e70fb00d7f",
          "transactionIndex": "0x59",
          "logIndex": "0x80",
          "removed": false
        },
        {
          "address": "0x1bf7b1cae8bf95a77734dc477c1dda67418a1cf0",
          "topics": [
            "0x88a5966d370b9919b20f3e2c13ff65706f196a4e32cc2c12bf57088f88525874"
          ],
          "data": "0x000000000000000000000000ee567fe1712faf6149d80da1e6934e354124cfe3000000000000000000000000000000000000000000000000020aff42377197ce",
          "blockHash": "0x76def6abde02d4403d8e93884820a3f7b6f195c0e0138b4640eda2a73a82dc14",
          "blockNumber": "0x9113bb",
          "blockTimestamp": "0x69009300",
          "transactionHash": "0x15f65d48bbb0cf8b6d8fef16c8b526a77f4f0fd0ce41e6764bcf47e70fb00d7f",
          "transactionIndex": "0x59",
          "logIndex": "0x81",
          "removed": false
        }
      ],
      "logsBloom": "0x00200000000100000000000080000000000000000000000000000000000000020400000000000000000000000000001000000000000000000000000048200000000000020000000800000008100000200000000000400000002000000000000008000004020000000008000000000800000000000000040000000010002000000040000000000000000000002000080000000000000000080000004000000000020020000000004000000000000008204000100000040000000400800000000000000002000000000002000000000000000000000000001000000002000020000010000000000000040000000000000000000000000000000080000000000000",
      "type": "0x2",
      "transactionHash": "0x15f65d48bbb0cf8b6d8fef16c8b526a77f4f0fd0ce41e6764bcf47e70fb00d7f",
      "transactionIndex": "0x59",
      "blockHash": "0x76def6abde02d4403d8e93884820a3f7b6f195c0e0138b4640eda2a73a82dc14",
      "blockNumber": "0x9113bb",
      "gasUsed": "0x4ec68",
      "effectiveGasPrice": "0xf424e",
      "from": "0xeff3521fb13228c767ad6dc3b934f9efac9c56ad",
      "to": "0x1bf7b1cae8bf95a77734dc477c1dda67418a1cf0",
      "contractAddress": null
    }
  ],
  "libraries": [],
  "pending": [],
  "returns": {},
  "timestamp": 1761645314,
  "chain": 11155111,
  "commit": "4457f8a"
}