{
  "transactions": [
    {
      "hash": "0x9ddf42895843da7d192397fd7e1be82c90086d5dc709d54ed4973f9bf70acfcb",
      "transactionType": "CALL",
      "contractName": null,
      "contractAddress": "0xe8aa2fa3963bad64ff66cfc458fda9f19a8e7024",
      "function": "approve(address,uint256)",
      "arguments": [
        "0x1BF7B1CaE8bf95A77734dc477c1Dda67418A1cf0",
        "930088757642911"
      ],
      "transaction": {
        "from": "0xeff3521fb13228c767ad6dc3b934f9efac9c56ad",
        "to": "0xe8aa2fa3963bad64ff66cfc458fda9f19a8e7024",
        "gas": "0xf8a7",
        "value": "0x0",
        "input": "0x095ea7b30000000000000000000000001bf7b1cae8bf95a77734dc477c1dda67418a1cf000000000000000000000000000000000000000000000000000034de92a02469f",
        "nonce": "0x12b",
        "chainId": "0xaa36a7"
      },
      "additionalContracts": [],
      "isFixedGasLimit": false
    },
    {
      "hash": "0xde6620378be81db6ec52aa59658c0e611dc5890202b6375a60dea268eea9575d",
      "transactionType": "CALL",
      "contractName": null,
      "contractAddress": "0x1bf7b1cae8bf95a77734dc477c1dda67418a1cf0",
      "function": "zapOutEth(address,uint256)",
      "arguments": [
        "0x1f9840a85d5aF5bf1D1762F925BDADdC4201F984",
        "930088757642911"
      ],
      "transaction": {
        "from": "0xeff3521fb13228c767ad6dc3b934f9efac9c56ad",
        "to": "0x1bf7b1cae8bf95a77734dc477c1dda67418a1cf0",
        "gas": "0x6ccef",
        "value": "0x0",
        "input": "0x1b8f671d0000000000000000000000001f9840a85d5af5bf1d1762f925bdaddc4201f98400000000000000000000000000000000000000000000000000034de92a02469f",
        "nonce": "0x12c",
        "chainId": "0xaa36a7"
      },
      "additionalContracts": [],
      "isFixedGasLimit": false
    }
  ],
  "receipts": [
    {
      "status": "0x1",
      "cumulativeGasUsed": "0x10bce37",
      "logs": [
        {
          "address": "0xe8aa2fa3963bad64ff66cfc458fda9f19a8e7024",
          "topics": [
            "0x8c5be1e5ebec7d5bd14f71427d1e84f3dd0314c0f7b2291e5b200ac8c7c3b925",
            "0x000000000000000000000000eff3521fb13228c767ad6dc3b934f9efac9c56ad",
            "0x0000000000000000000000001bf7b1cae8bf95a77734dc477c1dda67418a1cf0"
          ],
          "data": "0x00000000000000000000000000000000000000000000000000034de92a02469f",
          "blockHash": "0x513378f5080be5e9fb8c54eef4ac50fca1ef061e6c679161b21c0d3234d39655",
          "blockNumber": "0x9113b5",
          "blockTimestamp": "0x690092ac",
          "transactionHash": "0x9ddf42895843da7d192397fd7e1be82c90086d5dc709d54ed4973f9bf70acfcb",
          "transactionIndex": "0x49",
          "logIndex": "0xab",
          "removed": false
        }
      ],
      "logsBloom": "0x00000000000000000000000000000000000000000000000000000000000000020400000000000000000000000000000000000000000000000000000000200000000000000000000800000000000000000000000000000000002000000000000000000000000000000000000000000000000000000000000000000000000000000000000000000000000000002000000000000000000000000000000000000000020000000000000000000000000008200000100000040000000000000000000000000000000000000000000000000000000000000000000000000000000000000010000000000000000000000000000000000000000000000000000000000000",
      "type": "0x2",
      "transactionHash": "0x9ddf42895843da7d192397fd7e1be82c90086d5dc709d54ed4973f9bf70acfcb",
      "transactionIndex": "0x49",
      "blockHash": "0x513378f5080be5e9fb8c54eef4ac50fca1ef061e6c679161b21c0d3234d39655",
      "blockNumber": "0x9113b5",
      "gasUsed": "0xb406",
      "effectiveGasPrice": "0xf4250",
      "from": "0xeff3521fb13228c767ad6dc3b934f9efac9c56ad",
      "to": "0xe8aa2fa3963bad64ff66cfc458fda9f19a8e7024",
      "contractAddress": null
    },
    {
      "status": "0x1",
      "cumulativeGasUsed": "0x110ba9f",
      "logs": [
        {
          "address": "0xe8aa2fa3963bad64ff66cfc458fda9f19a8e7024",
          "topics": [
            "0xddf252ad1be2c89b69c2b068fc378daa952ba7f163c4a11628f55a4df523b3ef",
            "0x000000000000000000000000eff3521fb13228c767ad6dc3b934f9efac9c56ad",
            "0x0000000000000000000000001bf7b1cae8bf95a77734dc477c1dda67418a1cf0"
          ],
          "data": "0x00000000000000000000000000000000000000000000000000034de92a02469f",
          "blockHash": "0x513378f5080be5e9fb8c54eef4ac50fca1ef061e6c679161b21c0d3234d39655",
          "blockNumber": "0x9113b5",
          "blockTimestamp": "0x690092ac",
          "transactionHash": "0xde6620378be81db6ec52aa59658c0e611dc5890202b6375a60dea268eea9575d",
          "transactionIndex": "0x4a",
          "logIndex": "0xac",
          "removed": false
        },
        {
          "address": "0xe8aa2fa3963bad64ff66cfc458fda9f19a8e7024",
          "topics": [
            "0x8c5be1e5ebec7d5bd14f71427d1e84f3dd0314c0f7b2291e5b200ac8c7c3b925",
            "0x0000000000000000000000001bf7b1cae8bf95a77734dc477c1dda67418a1cf0",
            "0x000000000000000000000000ee567fe1712faf6149d80da1e6934e354124cfe3"
          ],
          "data": "0x00000000000000000000000000000000000000000000000000034de92a02469f",
          "blockHash": "0x513378f5080be5e9fb8c54eef4ac50fca1ef061e6c679161b21c0d3234d39655",
          "blockNumber": "0x9113b5",
          "blockTimestamp": "0x690092ac",
          "transactionHash": "0xde6620378be81db6ec52aa59658c0e611dc5890202b6375a60dea268eea9575d",
          "transactionIndex": "0x4a",
          "logIndex": "0xad",
          "removed": false
        },
        {
          "address": "0xe8aa2fa3963bad64ff66cfc458fda9f19a8e7024",
          "topics": [
            "0xddf252ad1be2c89b69c2b068fc378daa952ba7f163c4a11628f55a4df523b3ef",
            "0x0000000000000000000000001bf7b1cae8bf95a77734dc477c1dda67418a1cf0",
            "0x000000000000000000000000e8aa2fa3963bad64ff66cfc458fda9f19a8e7024"
          ],
          "data": "0x00000000000000000000000000000000000000000000000000034de92a02469f",
          "blockHash": "0x513378f5080be5e9fb8c54eef4ac50fca1ef061e6c679161b21c0d3234d39655",
          "blockNumber": "0x9113b5",
          "blockTimestamp": "0x690092ac",
          "transactionHash": "0xde6620378be81db6ec52aa59658c0e611dc5890202b6375a60dea268eea9575d",
          "transactionIndex": "0x4a",
          "logIndex": "0xae",
          "removed": false
        },
        {
          "address": "0xe8aa2fa3963bad64ff66cfc458fda9f19a8e7024",
          "topics": [
            "0xddf252ad1be2c89b69c2b068fc378daa952ba7f163c4a11628f55a4df523b3ef",
            "0x000000000000000000000000e8aa2fa3963bad64ff66cfc458fda9f19a8e7024",
            "0x0000000000000000000000000000000000000000000000000000000000000000"
          ],
          "data": "0x00000000000000000000000000000000000000000000000000034de92a02469f",
          "blockHash": "0x513378f5080be5e9fb8c54eef4ac50fca1ef061e6c679161b21c0d3234d39655",
          "blockNumber": "0x9113b5",
          "blockTimestamp": "0x690092ac",
          "transactionHash": "0xde6620378be81db6ec52aa59658c0e611dc5890202b6375a60dea268eea9575d",
          "transactionIndex": "0x4a",
          "logIndex": "0xaf",
          "removed": false
        },
        {
          "address": "0x1f9840a85d5af5bf1d1762f925bdaddc4201f984",
          "topics": [
            "0xddf252ad1be2c89b69c2b068fc378daa952ba7f163c4a11628f55a4df523b3ef",
            "0x000000000000000000000000e8aa2fa3963bad64ff66cfc458fda9f19a8e7024",
            "0x000000000000000000000000ee567fe1712faf6149d80da1e6934e354124cfe3"
          ],
          "data": "0x0000000000000000000000000000000000000000000000000000b5e620f47fff",
          "blockHash": "0x513378f5080be5e9fb8c54eef4ac50fca1ef061e6c679161b21c0d3234d39655",
          "blockNumber": "0x9113b5",
          "blockTimestamp": "0x690092ac",
          "transactionHash": "0xde6620378be81db6ec52aa59658c0e611dc5890202b6375a60dea268eea9575d",
          "transactionIndex": "0x4a",
          "logIndex": "0xb0",
          "removed": false
        },
        {
          "address": "0xfff9976782d46cc05630d1f6ebab18b2324d6b14",
          "topics": [
            "0xddf252ad1be2c89b69c2b068fc378daa952ba7f163c4a11628f55a4df523b3ef",
            "0x000000000000000000000000e8aa2fa3963bad64ff66cfc458fda9f19a8e7024",
            "0x000000000000000000000000ee567fe1712faf6149d80da1e6934e354124cfe3"
          ],
          "data": "0x0000000000000000000000000000000000000000000000000012859ab017d1be",
          "blockHash": "0x513378f5080be5e9fb8c54eef4ac50fca1ef061e6c679161b21c0d3234d39655",
          "blockNumber": "0x9113b5",
          "blockTimestamp": "0x690092ac",
          "transactionHash": "0xde6620378be81db6ec52aa59658c0e611dc5890202b6375a60dea268eea9575d",
          "transactionIndex": "0x4a",
          "logIndex": "0xb1",
          "removed": false
        },
        {
          "address": "0xe8aa2fa3963bad64ff66cfc458fda9f19a8e7024",
          "topics": [
            "0x1c411e9a96e071241c2f21f7726b17ae89e3cab4c78be50e062b03a9fffbbad1"
          ],
          "data": "0x000000000000000000000000000000000000000000000000017f4288c7cda5930000000000000000000000000000000000000000000000002706879b5b7bdf93",
          "blockHash": "0x513378f5080be5e9fb8c54eef4ac50fca1ef061e6c679161b21c0d3234d39655",
          "blockNumber": "0x9113b5",
          "blockTimestamp": "0x690092ac",
          "transactionHash": "0xde6620378be81db6ec52aa59658c0e611dc5890202b6375a60dea268eea9575d",
          "transactionIndex": "0x4a",
          "logIndex": "0xb2",
          "removed": false
        },
        {
          "address": "0xe8aa2fa3963bad64ff66cfc458fda9f19a8e7024",
          "topics": [
            "0xdccd412f0b1252819cb1fd330b93224ca42612892bb3f4f789976e6d81936496",
            "0x000000000000000000000000ee567fe1712faf6149d80da1e6934e354124cfe3",
            "0x000000000000000000000000ee567fe1712faf6149d80da1e6934e354124cfe3"
          ],
          "data": "0x0000000000000000000000000000000000000000000000000000b5e620f47fff0000000000000000000000000000000000000000000000000012859ab017d1be",
          "blockHash": "0x513378f5080be5e9fb8c54eef4ac50fca1ef061e6c679161b21c0d3234d39655",
          "blockNumber": "0x9113b5",
          "blockTimestamp": "0x690092ac",
          "transactionHash": "0xde6620378be81db6ec52aa59658c0e611dc5890202b6375a60dea268eea9575d",
          "transactionIndex": "0x4a",
          "logIndex": "0xb3",
          "removed": false
        },
        {
          "address": "0x1f9840a85d5af5bf1d1762f925bdaddc4201f984",
          "topics": [
            "0xddf252ad1be2c89b69c2b068fc378daa952ba7f163c4a11628f55a4df523b3ef",
            "0x000000000000000000000000ee567fe1712faf6149d80da1e6934e354124cfe3",
            "0x0000000000000000000000001bf7b1cae8bf95a77734dc477c1dda67418a1cf0"
          ],
          "data": "0x0000000000000000000000000000000000000000000000000000b5e620f47fff",
          "blockHash": "0x513378f5080be5e9fb8c54eef4ac50fca1ef061e6c679161b21c0d3234d39655",
          "blockNumber": "0x9113b5",
          "blockTimestamp": "0x690092ac",
          "transactionHash": "0xde6620378be81db6ec52aa59658c0e611dc5890202b6375a60dea268eea9575d",
          "transactionIndex": "0x4a",
          "logIndex": "0xb4",
          "removed": false
        },
        {
          "address": "0xfff9976782d46cc05630d1f6ebab18b2324d6b14",
          "topics": [
            "0x7fcf532c15f0a6db0bd6d0e038bea71d30d808c7d98cb3bf7268a95bf5081b65",
            "0x000000000000000000000000ee567fe1712faf6149d80da1e6934e354124cfe3"
          ],
          "data": "0x0000000000000000000000000000000000000000000000000012859ab017d1be",
          "blockHash": "0x513378f5080be5e9fb8c54eef4ac50fca1ef061e6c679161b21c0d3234d39655",
          "blockNumber": "0x9113b5",
          "blockTimestamp": "0x690092ac",
          "transactionHash": "0xde6620378be81db6ec52aa59658c0e611dc5890202b6375a60dea268eea9575d",
          "transactionIndex": "0x4a",
          "logIndex": "0xb5",
          "removed": false
        },
        {
          "address": "0x1bf7b1cae8bf95a77734dc477c1dda67418a1cf0",
          "topics": [
            "0x88a5966d370b9919b20f3e2c13ff65706f196a4e32cc2c12bf57088f88525874"
          ],
          "data": "0x000000000000000000000000ee567fe1712faf6149d80da1e6934e354124cfe30000000000000000000000000000000000000000000000000012859ab017d1be",
          "blockHash": "0x513378f5080be5e9fb8c54eef4ac50fca1ef061e6c679161b21c0d3234d39655",
          "blockNumber": "0x9113b5",
          "blockTimestamp": "0x690092ac",
          "transactionHash": "0xde6620378be81db6ec52aa59658c0e611dc5890202b6375a60dea268eea9575d",
          "transactionIndex": "0x4a",
          "logIndex": "0xb6",
          "removed": false
        },
        {
          "address": "0x1f9840a85d5af5bf1d1762f925bdaddc4201f984",
          "topics": [
            "0x8c5be1e5ebec7d5bd14f71427d1e84f3dd0314c0f7b2291e5b200ac8c7c3b925",
            "0x0000000000000000000000001bf7b1cae8bf95a77734dc477c1dda67418a1cf0",
            "0x000000000000000000000000ee567fe1712faf6149d80da1e6934e354124cfe3"
          ],
          "data": "0x0000000000000000000000000000000000000000000000000000b5e620f47fff",
          "blockHash": "0x513378f5080be5e9fb8c54eef4ac50fca1ef061e6c679161b21c0d3234d39655",
          "blockNumber": "0x9113b5",
          "blockTimestamp": "0x690092ac",
          "transactionHash": "0xde6620378be81db6ec52aa59658c0e611dc5890202b6375a60dea268eea9575d",
          "transactionIndex": "0x4a",
          "logIndex": "0xb7",
          "removed": false
        },
        {
          "address": "0x1f9840a85d5af5bf1d1762f925bdaddc4201f984",
          "topics": [
            "0x8c5be1e5ebec7d5bd14f71427d1e84f3dd0314c0f7b2291e5b200ac8c7c3b925",
            "0x0000000000000000000000001bf7b1cae8bf95a77734dc477c1dda67418a1cf0",
            "0x000000000000000000000000ee567fe1712faf6149d80da1e6934e354124cfe3"
          ],
          "data": "0x0000000000000000000000000000000000000000000000000000000000000000",
          "blockHash": "0x513378f5080be5e9fb8c54eef4ac50fca1ef061e6c679161b21c0d3234d39655",
          "blockNumber": "0x9113b5",
          "blockTimestamp": "0x690092ac",
          "transactionHash": "0xde6620378be81db6ec52aa59658c0e611dc5890202b6375a60dea268eea9575d",
          "transactionIndex": "0x4a",
          "logIndex": "0xb8",
          "removed": false
        },
        {
          "address": "0x1f9840a85d5af5bf1d1762f925bdaddc4201f984",
          "topics": [
            "0xddf252ad1be2c89b69c2b068fc378daa952ba7f163c4a11628f55a4df523b3ef",
            "0x0000000000000000000000001bf7b1cae8bf95a77734dc477c1dda67418a1cf0",
            "0x000000000000000000000000e8aa2fa3963bad64ff66cfc458fda9f19a8e7024"
          ],
          "data": "0x0000000000000000000000000000000000000000000000000000b5e620f47fff",
          "blockHash": "0x513378f5080be5e9fb8c54eef4ac50fca1ef061e6c679161b21c0d3234d39655",
          "blockNumber": "0x9113b5",
          "blockTimestamp": "0x690092ac",
          "transactionHash": "0xde6620378be81db6ec52aa59658c0e611dc5890202b6375a60dea268eea9575d",
          "transactionIndex": "0x4a",
          "logIndex": "0xb9",
          "removed": false
        },
        {
          "address": "0xfff9976782d46cc05630d1f6ebab18b2324d6b14",
          "topics": [
            "0xddf252ad1be2c89b69c2b068fc378daa952ba7f163c4a11628f55a4df523b3ef",
            "0x000000000000000000000000e8aa2fa3963bad64ff66cfc458fda9f19a8e7024",
            "0x000000000000000000000000ee567fe1712faf6149d80da1e6934e354124cfe3"
          ],
          "data": "0x00000000000000000000000000000000000000000000000000126ea85532adc3",
          "blockHash": "0x513378f5080be5e9fb8c54eef4ac50fca1ef061e6c679161b21c0d3234d39655",
          "blockNumber": "0x9113b5",
          "blockTimestamp": "0x690092ac",
          "transactionHash": "0xde6620378be81db6ec52aa59658c0e611dc5890202b6375a60dea268eea9575d",
          "transactionIndex": "0x4a",
          "logIndex": "0xba",
          "removed": false
        },
        {
          "address": "0xe8aa2fa3963bad64ff66cfc458fda9f19a8e7024",
          "topics": [
            "0x1c411e9a96e071241c2f21f7726b17ae89e3cab4c78be50e062b03a9fffbbad1"
          ],
          "data": "0x000000000000000000000000000000000000000000000000017ff86ee8c2259200000000000000000000000000000000000000000000000026f418f3064931d0",
          "blockHash": "0x513378f5080be5e9fb8c54eef4ac50fca1ef061e6c679161b21c0d3234d39655",
          "blockNumber": "0x9113b5",
          "blockTimestamp": "0x690092ac",
          "transactionHash": "0xde6620378be81db6ec52aa59658c0e611dc5890202b6375a60dea268eea9575d",
          "transactionIndex": "0x4a",
          "logIndex": "0xbb",
          "removed": false
        },
        {
          "address": "0xe8aa2fa3963bad64ff66cfc458fda9f19a8e7024",
          "topics": [
            "0xd78ad95fa46c994b6551d0da85fc275fe613ce37657fb8d5e3d130840159d822",
            "0x000000000000000000000000ee567fe1712faf6149d80da1e6934e354124cfe3",
            "0x000000000000000000000000ee567fe1712faf6149d80da1e6934e354124cfe3"
          ],
          "data": "0x0000000000000000000000000000000000000000000000000000b5e620f47fff0000000000000000000000000000000000000000000000000000000000000000000000000000000000000000000000000000000000000000000000000000000000000000000000000000000000000000000000000000000000126ea85532adc3",
          "blockHash": "0x513378f5080be5e9fb8c54eef4ac50fca1ef061e6c679161b21c0d3234d39655",
          "blockNumber": "0x9113b5",
          "blockTimestamp": "0x690092ac",
          "transactionHash": "0xde6620378be81db6ec52aa59658c0e611dc5890202b6375a60dea268eea9575d",
          "transactionIndex": "0x4a",
          "logIndex": "0xbc",
          "removed": false
        },
        {
          "address": "0xfff9976782d46cc05630d1f6ebab18b2324d6b14",
          "topics": [
            "0x7fcf532c15f0a6db0bd6d0e038bea71d30d808c7d98cb3bf7268a95bf5081b65",
            "0x000000000000000000000000ee567fe1712faf6149d80da1e6934e354124cfe3"
          ],
          "data": "0x00000000000000000000000000000000000000000000000000126ea85532adc3",
          "blockHash": "0x513378f5080be5e9fb8c54eef4ac50fca1ef061e6c679161b21c0d3234d39655",
          "blockNumber": "0x9113b5",
          "blockTimestamp": "0x690092ac",
          "transactionHash": "0xde6620378be81db6ec52aa59658c0e611dc5890202b6375a60dea268eea9575d",
          "transactionIndex": "0x4a",
          "logIndex": "0xbd",
          "removed": false
        },
        {
          "address": "0x1bf7b1cae8bf95a77734dc477c1dda67418a1cf0",
          "topics": [
            "0x88a5966d370b9919b20f3e2c13ff65706f196a4e32cc2c12bf57088f88525874"
          ],
          "data": "0x000000000000000000000000ee567fe1712faf6149d80da1e6934e354124cfe300000000000000000000000000000000000000000000000000126ea85532adc3",
          "blockHash": "0x513378f5080be5e9fb8c54eef4ac50fca1ef061e6c679161b21c0d3234d39655",
          "blockNumber": "0x9113b5",
          "blockTimestamp": "0x690092ac",
          "transactionHash": "0xde6620378be81db6ec52aa59658c0e611dc5890202b6375a60dea268eea9575d",
          "transactionIndex": "0x4a",
          "logIndex": "0xbe",
          "removed": false
        }
      ],
      "logsBloom": "0x00200000000100000000000080000000000000000000000000000000000000020400000000000000000000000000001000000000000000000000000048200000000000020000000800000008100000200000000000400000002000000000000008000004020000000008000000000800000000000000040000000010002000000040000000000000000000002000080000000000000000080000004000000000020020000000004000000000000008204000100000040000000400800000000000000002000000000002000000000000000000000000001000000002000020000010000000000000040000000000000000000000000000000080000000000000",
      "type": "0x2",
      "transactionHash": "0xde6620378be81db6ec52aa59658c0e611dc5890202b6375a60dea268eea9575d",
      "transactionIndex": "0x4a",
      "blockHash": "0x513378f5080be5e9fb8c54eef4ac50fca1ef061e6c679161b21c0d3234d39655",
      "blockNumber": "0x9113b5",
      "gasUsed": "0x4ec68",
      "effectiveGasPrice": "0xf4250",
      "from": "0xeff3521fb13228c767ad6dc3b934f9efac9c56ad",
      "to": "0x1bf7b1cae8bf95a77734dc477c1dda67418a1cf0",
      "contractAddress": null
    }
  ],
  "libraries": [],
  "pending": [],
  "returns": {},
  "timestamp": 1761645230,
  "chain": 11155111,
  "commit": "4457f8a"
}