{
  "transactions": [
    {
      "hash": "0x906309513f559d7c5705f4b47cfe8f42e21d17fcf8c0b1f5bf33b5f9165a4bfb",
      "transactionType": "CALL",
      "contractName": null,
      "contractAddress": "0xe8aa2fa3963bad64ff66cfc458fda9f19a8e7024",
      "function": "approve(address,uint256)",
      "arguments": [
        "0x8Db4397C8809f5d4475314FCFCF77038C8aBbbca",
        "27966349709742097"
      ],
      "transaction": {
        "from": "0xeff3521fb13228c767ad6dc3b934f9efac9c56ad",
        "to": "0xe8aa2fa3963bad64ff66cfc458fda9f19a8e7024",
        "gas": "0xf8a7",
        "value": "0x0",
        "input": "0x095ea7b30000000000000000000000008db4397c8809f5d4475314fcfcf77038c8abbbca00000000000000000000000000000000000000000000000000635b3f341d1011",
        "nonce": "0x13d",
        "chainId": "0xaa36a7"
      },
      "additionalContracts": [],
      "isFixedGasLimit": false
    },
    {
      "hash": "0xc34c1a8a3065734c9b4f76f2c43888688467ee3af2d5a3ba480968d4e6da0daf",
      "transactionType": "CALL",
      "contractName": null,
      "contractAddress": "0x8db4397c8809f5d4475314fcfcf77038c8abbbca",
      "function": "zapOutEth(address,uint256)",
      "arguments": [
        "0x1f9840a85d5aF5bf1D1762F925BDADdC4201F984",
        "27966349709742097"
      ],
      "transaction": {
        "from": "0xeff3521fb13228c767ad6dc3b934f9efac9c56ad",
        "to": "0x8db4397c8809f5d4475314fcfcf77038c8abbbca",
        "gas": "0x72bd0",
        "value": "0x0",
        "input": "0x1b8f671d0000000000000000000000001f9840a85d5af5bf1d1762f925bdaddc4201f98400000000000000000000000000000000000000000000000000635b3f341d1011",
        "nonce": "0x13e",
        "chainId": "0xaa36a7"
      },
      "additionalContracts": [],
      "isFixedGasLimit": false
    }
  ],
  "receipts": [
    {
      "status": "0x1",
      "cumulativeGasUsed": "0x12fe519",
      "logs": [
        {
          "address": "0xe8aa2fa3963bad64ff66cfc458fda9f19a8e7024",
          "topics": [
            "0x8c5be1e5ebec7d5bd14f71427d1e84f3dd0314c0f7b2291e5b200ac8c7c3b925",
            "0x000000000000000000000000eff3521fb13228c767ad6dc3b934f9efac9c56ad",
            "0x0000000000000000000000008db4397c8809f5d4475314fcfcf77038c8abbbca"
          ],
          "data": "0x00000000000000000000000000000000000000000000000000635b3f341d1011",
          "blockHash": "0x66aa9b933b452a145b339e2cf117001b46e48f519a1174d61fb4c50050dbe78e",
          "blockNumber": "0x9113e2",
          "blockTimestamp": "0x69009504",
          "transactionHash": "0x906309513f559d7c5705f4b47cfe8f42e21d17fcf8c0b1f5bf33b5f9165a4bfb",
          "transactionIndex": "0x4a",
          "logIndex": "0xd1",
          "removed": false
        }
      ],
      "logsBloom": "0x00000000000000000000000000000000000000000080000000000000000000020400000000000000000000000000000000000000000000000000000000200000000000000000000000000000000000000000000000000000002000000000000000000000000000000000000000000000000000000000000000000200000000000000000000000000000000002000000000000000000000000000800000000000020000000000000000000000000000000000100000040000000000000000000000000000000000000000000000000000000000000000000000000000000000000010000000000000000000000000000000000000000000000000000000000000",
      "type": "0x2",
      "transactionHash": "0x906309513f559d7c5705f4b47cfe8f42e21d17fcf8c0b1f5bf33b5f9165a4bfb",
      "transactionIndex": "0x4a",
      "blockHash": "0x66aa9b933b452a145b339e2cf117001b46e48f519a1174d61fb4c50050dbe78e",
      "blockNumber": "0x9113e2",
      "gasUsed": "0xb406",
      "effectiveGasPrice": "0xf4250",
      "from": "0xeff3521fb13228c767ad6dc3b934f9efac9c56ad",
      "to": "0xe8aa2fa3963bad64ff66cfc458fda9f19a8e7024",
      "contractAddress": null
    },
    {
      "status": "0x1",
      "cumulativeGasUsed": "0x134cc5b",
      "logs": [
        {
          "address": "0xe8aa2fa3963bad64ff66cfc458fda9f19a8e7024",
          "topics": [
            "0xddf252ad1be2c89b69c2b068fc378daa952ba7f163c4a11628f55a4df523b3ef",
            "0x000000000000000000000000eff3521fb13228c767ad6dc3b934f9efac9c56ad",
            "0x0000000000000000000000008db4397c8809f5d4475314fcfcf77038c8abbbca"
          ],
          "data": "0x00000000000000000000000000000000000000000000000000635b3f341d1011",
          "blockHash": "0x66aa9b933b452a145b339e2cf117001b46e48f519a1174d61fb4c50050dbe78e",
          "blockNumber": "0x9113e2",
          "blockTimestamp": "0x69009504",
          "transactionHash": "0xc34c1a8a3065734c9b4f76f2c43888688467ee3af2d5a3ba480968d4e6da0daf",
          "transactionIndex": "0x4b",
          "logIndex": "0xd2",
          "removed": false
        },
        {
          "address": "0xe8aa2fa3963bad64ff66cfc458fda9f19a8e7024",
          "topics": [
            "0x8c5be1e5ebec7d5bd14f71427d1e84f3dd0314c0f7b2291e5b200ac8c7c3b925",
            "0x0000000000000000000000008db4397c8809f5d4475314fcfcf77038c8abbbca",
            "0x000000000000000000000000ee567fe1712faf6149d80da1e6934e354124cfe3"
          ],
          "data": "0x00000000000000000000000000000000000000000000000000635b3f341d1011",
          "blockHash": "0x66aa9b933b452a145b339e2cf117001b46e48f519a1174d61fb4c50050dbe78e",
          "blockNumber": "0x9113e2",
          "blockTimestamp": "0x69009504",
          "transactionHash": "0xc34c1a8a3065734c9b4f76f2c43888688467ee3af2d5a3ba480968d4e6da0daf",
          "transactionIndex": "0x4b",
          "logIndex": "0xd3",
          "removed": false
        },
        {
          "address": "0xe8aa2fa3963bad64ff66cfc458fda9f19a8e7024",
          "topics": [
            "0xddf252ad1be2c89b69c2b068fc378daa952ba7f163c4a11628f55a4df523b3ef",
            "0x0000000000000000000000008db4397c8809f5d4475314fcfcf77038c8abbbca",
            "0x000000000000000000000000e8aa2fa3963bad64ff66cfc458fda9f19a8e7024"
          ],
          "data": "0x00000000000000000000000000000000000000000000000000635b3f341d1011",
          "blockHash": "0x66aa9b933b452a145b339e2cf117001b46e48f519a1174d61fb4c50050dbe78e",
          "blockNumber": "0x9113e2",
          "blockTimestamp": "0x69009504",
          "transactionHash": "0xc34c1a8a3065734c9b4f76f2c43888688467ee3af2d5a3ba480968d4e6da0daf",
          "transactionIndex": "0x4b",
          "logIndex": "0xd4",
          "removed": false
        },
        {
          "address": "0xe8aa2fa3963bad64ff66cfc458fda9f19a8e7024",
          "topics": [
            "0xddf252ad1be2c89b69c2b068fc378daa952ba7f163c4a11628f55a4df523b3ef",
            "0x000000000000000000000000e8aa2fa3963bad64ff66cfc458fda9f19a8e7024",
            "0x0000000000000000000000000000000000000000000000000000000000000000"
          ],
          "data": "0x00000000000000000000000000000000000000000000000000635b3f341d1011",
          "blockHash": "0x66aa9b933b452a145b339e2cf117001b46e48f519a1174d61fb4c50050dbe78e",
          "blockNumber": "0x9113e2",
          "blockTimestamp": "0x69009504",
          "transactionHash": "0xc34c1a8a3065734c9b4f76f2c43888688467ee3af2d5a3ba480968d4e6da0daf",
          "transactionIndex": "0x4b",
          "logIndex": "0xd5",
          "removed": false
        },
        {
          "address": "0x1f9840a85d5af5bf1d1762f925bdaddc4201f984",
          "topics": [
            "0xddf252ad1be2c89b69c2b068fc378daa952ba7f163c4a11628f55a4df523b3ef",
            "0x000000000000000000000000e8aa2fa3963bad64ff66cfc458fda9f19a8e7024",
            "0x000000000000000000000000ee567fe1712faf6149d80da1e6934e354124cfe3"
          ],
          "data": "0x000000000000000000000000000000000000000000000000001550f7dca6ffff",
          "blockHash": "0x66aa9b933b452a145b339e2cf117001b46e48f519a1174d61fb4c50050dbe78e",
          "blockNumber": "0x9113e2",
          "blockTimestamp": "0x69009504",
          "transactionHash": "0xc34c1a8a3065734c9b4f76f2c43888688467ee3af2d5a3ba480968d4e6da0daf",
          "transactionIndex": "0x4b",
          "logIndex": "0xd6",
          "removed": false
        },
        {
          "address": "0xfff9976782d46cc05630d1f6ebab18b2324d6b14",
          "topics": [
            "0xddf252ad1be2c89b69c2b068fc378daa952ba7f163c4a11628f55a4df523b3ef",
            "0x000000000000000000000000e8aa2fa3963bad64ff66cfc458fda9f19a8e7024",
            "0x000000000000000000000000ee567fe1712faf6149d80da1e6934e354124cfe3"
          ],
          "data": "0x000000000000000000000000000000000000000000000000022ef9a4f309c61c",
          "blockHash": "0x66aa9b933b452a145b339e2cf117001b46e48f519a1174d61fb4c50050dbe78e",
          "blockNumber": "0x9113e2",
          "blockTimestamp": "0x69009504",
          "transactionHash": "0xc34c1a8a3065734c9b4f76f2c43888688467ee3af2d5a3ba480968d4e6da0daf",
          "transactionIndex": "0x4b",
          "logIndex": "0xd7",
          "removed": false
        },
        {
          "address": "0xe8aa2fa3963bad64ff66cfc458fda9f19a8e7024",
          "topics": [
            "0x1c411e9a96e071241c2f21f7726b17ae89e3cab4c78be50e062b03a9fffbbad1"
          ],
          "data": "0x000000000000000000000000000000000000000000000000017e6319d0383759000000000000000000000000000000000000000000000000272b4e91972e0c5d",
          "blockHash": "0x66aa9b933b452a145b339e2cf117001b46e48f519a1174d61fb4c50050dbe78e",
          "blockNumber": "0x9113e2",
          "blockTimestamp": "0x69009504",
          "transactionHash": "0xc34c1a8a3065734c9b4f76f2c43888688467ee3af2d5a3ba480968d4e6da0daf",
          "transactionIndex": "0x4b",
          "logIndex": "0xd8",
          "removed": false
        },
        {
          "address": "0xe8aa2fa3963bad64ff66cfc458fda9f19a8e7024",
          "topics": [
            "0xdccd412f0b1252819cb1fd330b93224ca42612892bb3f4f789976e6d81936496",
            "0x000000000000000000000000ee567fe1712faf6149d80da1e6934e354124cfe3",
            "0x000000000000000000000000ee567fe1712faf6149d80da1e6934e354124cfe3"
          ],
          "data": "0x000000000000000000000000000000000000000000000000001550f7dca6ffff000000000000000000000000000000000000000000000000022ef9a4f309c61c",
          "blockHash": "0x66aa9b933b452a145b339e2cf117001b46e48f519a1174d61fb4c50050dbe78e",
          "blockNumber": "0x9113e2",
          "blockTimestamp": "0x69009504",
          "transactionHash": "0xc34c1a8a3065734c9b4f76f2c43888688467ee3af2d5a3ba480968d4e6da0daf",
          "transactionIndex": "0x4b",
          "logIndex": "0xd9",
          "removed": false
        },
        {
          "address": "0x1f9840a85d5af5bf1d1762f925bdaddc4201f984",
          "topics": [
            "0xddf252ad1be2c89b69c2b068fc378daa952ba7f163c4a11628f55a4df523b3ef",
            "0x000000000000000000000000ee567fe1712faf6149d80da1e6934e354124cfe3",
            "0x0000000000000000000000008db4397c8809f5d4475314fcfcf77038c8abbbca"
          ],
          "data": "0x000000000000000000000000000000000000000000000000001550f7dca6ffff",
          "blockHash": "0x66aa9b933b452a145b339e2cf117001b46e48f519a1174d61fb4c50050dbe78e",
          "blockNumber": "0x9113e2",
          "blockTimestamp": "0x69009504",
          "transactionHash": "0xc34c1a8a3065734c9b4f76f2c43888688467ee3af2d5a3ba480968d4e6da0daf",
          "transactionIndex": "0x4b",
          "logIndex": "0xda",
          "removed": false
        },
        {
          "address": "0xfff9976782d46cc05630d1f6ebab18b2324d6b14",
          "topics": [
            "0x7fcf532c15f0a6db0bd6d0e038bea71d30d808c7d98cb3bf7268a95bf5081b65",
            "0x000000000000000000000000ee567fe1712faf6149d80da1e6934e354124cfe3"
          ],
          "data": "0x000000000000000000000000000000000000000000000000022ef9a4f309c61c",
          "blockHash": "0x66aa9b933b452a145b339e2cf117001b46e48f519a1174d61fb4c50050dbe78e",
          "blockNumber": "0x9113e2",
          "blockTimestamp": "0x69009504",
          "transactionHash": "0xc34c1a8a3065734c9b4f76f2c43888688467ee3af2d5a3ba480968d4e6da0daf",
          "transactionIndex": "0x4b",
          "logIndex": "0xdb",
          "removed": false
        },
        {
          "address": "0x8db4397c8809f5d4475314fcfcf77038c8abbbca",
          "topics": [
            "0x88a5966d370b9919b20f3e2c13ff65706f196a4e32cc2c12bf57088f88525874"
          ],
          "data": "0x000000000000000000000000ee567fe1712faf6149d80da1e6934e354124cfe3000000000000000000000000000000000000000000000000022ef9a4f309c61c",
          "blockHash": "0x66aa9b933b452a145b339e2cf117001b46e48f519a1174d61fb4c50050dbe78e",
          "blockNumber": "0x9113e2",
          "blockTimestamp": "0x69009504",
          "transactionHash": "0xc34c1a8a3065734c9b4f76f2c43888688467ee3af2d5a3ba480968d4e6da0daf",
          "transactionIndex": "0x4b",
          "logIndex": "0xdc",
          "removed": false
        },
        {
          "address": "0x1f9840a85d5af5bf1d1762f925bdaddc4201f984",
          "topics": [
            "0x8c5be1e5ebec7d5bd14f71427d1e84f3dd0314c0f7b2291e5b200ac8c7c3b925",
            "0x0000000000000000000000008db4397c8809f5d4475314fcfcf77038c8abbbca",
            "0x000000000000000000000000ee567fe1712faf6149d80da1e6934e354124cfe3"
          ],
          "data": "0x000000000000000000000000000000000000000000000000001550f7dca6ffff",
          "blockHash": "0x66aa9b933b452a145b339e2cf117001b46e48f519a1174d61fb4c50050dbe78e",
          "blockNumber": "0x9113e2",
          "blockTimestamp": "0x69009504",
          "transactionHash": "0xc34c1a8a3065734c9b4f76f2c43888688467ee3af2d5a3ba480968d4e6da0daf",
          "transactionIndex": "0x4b",
          "logIndex": "0xdd",
          "removed": false
        },
        {
          "address": "0x1f9840a85d5af5bf1d1762f925bdaddc4201f984",
          "topics": [
            "0x8c5be1e5ebec7d5bd14f71427d1e84f3dd0314c0f7b2291e5b200ac8c7c3b925",
            "0x0000000000000000000000008db4397c8809f5d4475314fcfcf77038c8abbbca",
            "0x000000000000000000000000ee567fe1712faf6149d80da1e6934e354124cfe3"
          ],
          "data": "0x0000000000000000000000000000000000000000000000000000000000000000",
          "blockHash": "0x66aa9b933b452a145b339e2cf117001b46e48f519a1174d61fb4c50050dbe78e",
          "blockNumber": "0x9113e2",
          "blockTimestamp": "0x69009504",
          "transactionHash": "0xc34c1a8a3065734c9b4f76f2c43888688467ee3af2d5a3ba480968d4e6da0daf",
          "transactionIndex": "0x4b",
          "logIndex": "0xde",
          "removed": false
        },
        {
          "address": "0x1f9840a85d5af5bf1d1762f925bdaddc4201f984",
          "topics": [
            "0xddf252ad1be2c89b69c2b068fc378daa952ba7f163c4a11628f55a4df523b3ef",
            "0x0000000000000000000000008db4397c8809f5d4475314fcfcf77038c8abbbca",
            "0x000000000000000000000000e8aa2fa3963bad64ff66cfc458fda9f19a8e7024"
          ],
          "data": "0x000000000000000000000000000000000000000000000000001550f7dca6ffff",
          "blockHash": "0x66aa9b933b452a145b339e2cf117001b46e48f519a1174d61fb4c50050dbe78e",
          "blockNumber": "0x9113e2",
          "blockTimestamp": "0x69009504",
          "transactionHash": "0xc34c1a8a3065734c9b4f76f2c43888688467ee3af2d5a3ba480968d4e6da0daf",
          "transactionIndex": "0x4b",
          "logIndex": "0xdf",
          "removed": false
        },
        {
          "address": "0xfff9976782d46cc05630d1f6ebab18b2324d6b14",
          "topics": [
            "0xddf252ad1be2c89b69c2b068fc378daa952ba7f163c4a11628f55a4df523b3ef",
            "0x000000000000000000000000e8aa2fa3963bad64ff66cfc458fda9f19a8e7024",
            "0x000000000000000000000000ee567fe1712faf6149d80da1e6934e354124cfe3"
          ],
          "data": "0x000000000000000000000000000000000000000000000000020ff49c0719b2f9",
          "blockHash": "0x66aa9b933b452a145b339e2cf117001b46e48f519a1174d61fb4c50050dbe78e",
          "blockNumber": "0x9113e2",
          "blockTimestamp": "0x69009504",
          "transactionHash": "0xc34c1a8a3065734c9b4f76f2c43888688467ee3af2d5a3ba480968d4e6da0daf",
          "transactionIndex": "0x4b",
          "logIndex": "0xe0",
          "removed": false
        },
        {
          "address": "0xe8aa2fa3963bad64ff66cfc458fda9f19a8e7024",
          "topics": [
            "0x1c411e9a96e071241c2f21f7726b17ae89e3cab4c78be50e062b03a9fffbbad1"
          ],
          "data": "0x0000000000000000000000000000000000000000000000000193b411acdf3758000000000000000000000000000000000000000000000000251b59f590145964",
          "blockHash": "0x66aa9b933b452a145b339e2cf117001b46e48f519a1174d61fb4c50050dbe78e",
          "blockNumber": "0x9113e2",
          "blockTimestamp": "0x69009504",
          "transactionHash": "0xc34c1a8a3065734c9b4f76f2c43888688467ee3af2d5a3ba480968d4e6da0daf",
          "transactionIndex": "0x4b",
          "logIndex": "0xe1",
          "removed": false
        },
        {
          "address": "0xe8aa2fa3963bad64ff66cfc458fda9f19a8e7024",
          "topics": [
            "0xd78ad95fa46c994b6551d0da85fc275fe613ce37657fb8d5e3d130840159d822",
            "0x000000000000000000000000ee567fe1712faf6149d80da1e6934e354124cfe3",
            "0x000000000000000000000000ee567fe1712faf6149d80da1e6934e354124cfe3"
          ],
          "data": "0x000000000000000000000000000000000000000000000000001550f7dca6ffff00000000000000000000000000000000000000000000000000000000000000000000000000000000000000000000000000000000000000000000000000000000000000000000000000000000000000000000000000000000020ff49c0719b2f9",
          "blockHash": "0x66aa9b933b452a145b339e2cf117001b46e48f519a1174d61fb4c50050dbe78e",
          "blockNumber": "0x9113e2",
          "blockTimestamp": "0x69009504",
          "transactionHash": "0xc34c1a8a3065734c9b4f76f2c43888688467ee3af2d5a3ba480968d4e6da0daf",
          "transactionIndex": "0x4b",
          "logIndex": "0xe2",
          "removed": false
        },
        {
          "address": "0xfff9976782d46cc05630d1f6ebab18b2324d6b14",
          "topics": [
            "0x7fcf532c15f0a6db0bd6d0e038bea71d30d808c7d98cb3bf7268a95bf5081b65",
            "0x000000000000000000000000ee567fe1712faf6149d80da1e6934e354124cfe3"
          ],
          "data": "0x000000000000000000000000000000000000000000000000020ff49c0719b2f9",
          "blockHash": "0x66aa9b933b452a145b339e2cf117001b46e48f519a1174d61fb4c50050dbe78e",
          "blockNumber": "0x9113e2",
          "blockTimestamp": "0x69009504",
          "transactionHash": "0xc34c1a8a3065734c9b4f76f2c43888688467ee3af2d5a3ba480968d4e6da0daf",
          "transactionIndex": "0x4b",
          "logIndex": "0xe3",
          "removed": false
        }
      ],
      "logsBloom": "0x00200000000000000000000080000000000000000080000000000000000000020400000000000000000000000000001000000000000000000000000048200000000000000000000000000008100000200000000000400000002000000000000008000004020000000008000000000800000000000800040000000210002000000040000000000000000000002000080000000004000000080000804000000000020020000000004000000000000000000000100000040000000400800000000000000002000000000002000000000000000000000000001000000002000020000010000000000000040000000000000000000000000000400080000000000000",
      "type": "0x2",
      "transactionHash": "0xc34c1a8a3065734c9b4f76f2c43888688467ee3af2d5a3ba480968d4e6da0daf",
      "transactionIndex": "0x4b",
      "blockHash": "0x66aa9b933b452a145b339e2cf117001b46e48f519a1174d61fb4c50050dbe78e",
      "blockNumber": "0x9113e2",
      "gasUsed": "0x4e742",
      "effectiveGasPrice": "0xf4250",
      "from": "0xeff3521fb13228c767ad6dc3b934f9efac9c56ad",
      "to": "0x8db4397c8809f5d4475314fcfcf77038c8abbbca",
      "contractAddress": null
    }
  ],
  "libraries": [],
  "pending": [],
  "returns": {},
  "timestamp": 1761645837,
  "chain": 11155111,
  "commit": "4457f8a"
}