{
  "transactions": [
    {
      "hash": "0x4ab46b1376bd3a248394362b39db8f946e1de95719b37ef8a056645f69f8c0f7",
      "transactionType": "CALL",
      "contractName": null,
      "contractAddress": "0xe8aa2fa3963bad64ff66cfc458fda9f19a8e7024",
      "function": "approve(address,uint256)",
      "arguments": [
        "0xcfd3F87CEEf71A4149b454980AA01F7907945852",
        "27968311981584347"
      ],
      "transaction": {
        "from": "0xeff3521fb13228c767ad6dc3b934f9efac9c56ad",
        "to": "0xe8aa2fa3963bad64ff66cfc458fda9f19a8e7024",
        "gas": "0xf8a7",
        "value": "0x0",
        "input": "0x095ea7b3000000000000000000000000cfd3f87ceef71a4149b454980aa01f790794585200000000000000000000000000000000000000000000000000635d0814a12fdb",
        "nonce": "0x137",
        "chainId": "0xaa36a7"
      },
      "additionalContracts": [],
      "isFixedGasLimit": false
    },
    {
      "hash": "0xa95254b8526795b37daaf02d59f58bc3dcdec4fde8c5190985844c15499944e0",
      "transactionType": "CALL",
      "contractName": null,
      "contractAddress": "0xcfd3f87ceef71a4149b454980aa01f7907945852",
      "function": "zapOutEth(address,uint256)",
      "arguments": [
        "0x1f9840a85d5aF5bf1D1762F925BDADdC4201F984",
        "27968311981584347"
      ],
      "transaction": {
        "from": "0xeff3521fb13228c767ad6dc3b934f9efac9c56ad",
        "to": "0xcfd3f87ceef71a4149b454980aa01f7907945852",
        "gas": "0x6ccef",
        "value": "0x0",
        "input": "0x1b8f671d0000000000000000000000001f9840a85d5af5bf1d1762f925bdaddc4201f98400000000000000000000000000000000000000000000000000635d0814a12fdb",
        "nonce": "0x138",
        "chainId": "0xaa36a7"
      },
      "additionalContracts": [],
      "isFixedGasLimit": false
    }
  ],
  "receipts": [
    {
      "status": "0x1",
      "cumulativeGasUsed": "0x17b579b",
      "logs": [
        {
          "address": "0xe8aa2fa3963bad64ff66cfc458fda9f19a8e7024",
          "topics": [
            "0x8c5be1e5ebec7d5bd14f71427d1e84f3dd0314c0f7b2291e5b200ac8c7c3b925",
            "0x000000000000000000000000eff3521fb13228c767ad6dc3b934f9efac9c56ad",
            "0x000000000000000000000000cfd3f87ceef71a4149b454980aa01f7907945852"
          ],
          "data": "0x00000000000000000000000000000000000000000000000000635d0814a12fdb",
          "blockHash": "0x102b4da86e89efa0e8ba2f3234f91a97a75c8c64218ab460dce1efe2b9b1863f",
          "blockNumber": "0x9113d4",
          "blockTimestamp": "0x69009444",
          "transactionHash": "0x4ab46b1376bd3a248394362b39db8f946e1de95719b37ef8a056645f69f8c0f7",
          "transactionIndex": "0x4a",
          "logIndex": "0x92",
          "removed": false
        }
      ],
      "logsBloom": "0x00000000000000000000000000000000000000000000000000000000000000020400000000000000000000000000000000000000000000000000000000200000000000000000008000000000000000000000000000000000002000000200000000000000000000000000000000000000000000000000000000000000000000000000000000000000000000002000000000000000000000000000000000000000020000000000000000000000000000000000100000040000000000000000000000000000000000000000000000000000000000000000000000000000000000000010000000000000000200000000000000000000000000000000000000000000",
      "type": "0x2",
      "transactionHash": "0x4ab46b1376bd3a248394362b39db8f946e1de95719b37ef8a056645f69f8c0f7",
      "transactionIndex": "0x4a",
      "blockHash": "0x102b4da86e89efa0e8ba2f3234f91a97a75c8c64218ab460dce1efe2b9b1863f",
      "blockNumber": "0x9113d4",
      "gasUsed": "0xb406",
      "effectiveGasPrice": "0xf424d",
      "from": "0xeff3521fb13228c767ad6dc3b934f9efac9c56ad",
      "to": "0xe8aa2fa3963bad64ff66cfc458fda9f19a8e7024",
      "contractAddress": null
    },
    {
      "status": "0x1",
      "cumulativeGasUsed": "0x1804403",
      "logs": [
        {
          "address": "0xe8aa2fa3963bad64ff66cfc458fda9f19a8e7024",
          "topics": [
            "0xddf252ad1be2c89b69c2b068fc378daa952ba7f163c4a11628f55a4df523b3ef",
            "0x000000000000000000000000eff3521fb13228c767ad6dc3b934f9efac9c56ad",
            "0x000000000000000000000000cfd3f87ceef71a4149b454980aa01f7907945852"
          ],
          "data": "0x00000000000000000000000000000000000000000000000000635d0814a12fdb",
          "blockHash": "0x102b4da86e89efa0e8ba2f3234f91a97a75c8c64218ab460dce1efe2b9b1863f",
          "blockNumber": "0x9113d4",
          "blockTimestamp": "0x69009444",
          "transactionHash": "0xa95254b8526795b37daaf02d59f58bc3dcdec4fde8c5190985844c15499944e0",
          "transactionIndex": "0x4b",
          "logIndex": "0x93",
          "removed": false
        },
        {
          "address": "0xe8aa2fa3963bad64ff66cfc458fda9f19a8e7024",
          "topics": [
            "0x8c5be1e5ebec7d5bd14f71427d1e84f3dd0314c0f7b2291e5b200ac8c7c3b925",
            "0x000000000000000000000000cfd3f87ceef71a4149b454980aa01f7907945852",
            "0x000000000000000000000000ee567fe1712faf6149d80da1e6934e354124cfe3"
          ],
          "data": "0x00000000000000000000000000000000000000000000000000635d0814a12fdb",
          "blockHash": "0x102b4da86e89efa0e8ba2f3234f91a97a75c8c64218ab460dce1efe2b9b1863f",
          "blockNumber": "0x9113d4",
          "blockTimestamp": "0x69009444",
          "transactionHash": "0xa95254b8526795b37daaf02d59f58bc3dcdec4fde8c5190985844c15499944e0",
          "transactionIndex": "0x4b",
          "logIndex": "0x94",
          "removed": false
        },
        {
          "address": "0xe8aa2fa3963bad64ff66cfc458fda9f19a8e7024",
          "topics": [
            "0xddf252ad1be2c89b69c2b068fc378daa952ba7f163c4a11628f55a4df523b3ef",
            "0x000000000000000000000000cfd3f87ceef71a4149b454980aa01f7907945852",
            "0x000000000000000000000000e8aa2fa3963bad64ff66cfc458fda9f19a8e7024"
          ],
          "data": "0x00000000000000000000000000000000000000000000000000635d0814a12fdb",
          "blockHash": "0x102b4da86e89efa0e8ba2f3234f91a97a75c8c64218ab460dce1efe2b9b1863f",
          "blockNumber": "0x9113d4",
          "blockTimestamp": "0x69009444",
          "transactionHash": "0xa95254b8526795b37daaf02d59f58bc3dcdec4fde8c5190985844c15499944e0",
          "transactionIndex": "0x4b",
          "logIndex": "0x95",
          "removed": false
        },
        {
          "address": "0xe8aa2fa3963bad64ff66cfc458fda9f19a8e7024",
          "topics": [
            "0xddf252ad1be2c89b69c2b068fc378daa952ba7f163c4a11628f55a4df523b3ef",
            "0x000000000000000000000000e8aa2fa3963bad64ff66cfc458fda9f19a8e7024",
            "0x0000000000000000000000000000000000000000000000000000000000000000"
          ],
          "data": "0x00000000000000000000000000000000000000000000000000635d0814a12fdb",
          "blockHash": "0x102b4da86e89efa0e8ba2f3234f91a97a75c8c64218ab460dce1efe2b9b1863f",
          "blockNumber": "0x9113d4",
          "blockTimestamp": "0x69009444",
          "transactionHash": "0xa95254b8526795b37daaf02d59f58bc3dcdec4fde8c5190985844c15499944e0",
          "transactionIndex": "0x4b",
          "logIndex": "0x96",
          "removed": false
        },
        {
          "address": "0x1f9840a85d5af5bf1d1762f925bdaddc4201f984",
          "topics": [
            "0xddf252ad1be2c89b69c2b068fc378daa952ba7f163c4a11628f55a4df523b3ef",
            "0x000000000000000000000000e8aa2fa3963bad64ff66cfc458fda9f19a8e7024",
            "0x000000000000000000000000ee567fe1712faf6149d80da1e6934e354124cfe3"
          ],
          "data": "0x000000000000000000000000000000000000000000000000001550f7dca6ffff",
          "blockHash": "0x102b4da86e89efa0e8ba2f3234f91a97a75c8c64218ab460dce1efe2b9b1863f",
          "blockNumber": "0x9113d4",
          "blockTimestamp": "0x69009444",
          "transactionHash": "0xa95254b8526795b37daaf02d59f58bc3dcdec4fde8c5190985844c15499944e0",
          "transactionIndex": "0x4b",
          "logIndex": "0x97",
          "removed": false
        },
        {
          "address": "0xfff9976782d46cc05630d1f6ebab18b2324d6b14",
          "topics": [
            "0xddf252ad1be2c89b69c2b068fc378daa952ba7f163c4a11628f55a4df523b3ef",
            "0x000000000000000000000000e8aa2fa3963bad64ff66cfc458fda9f19a8e7024",
            "0x000000000000000000000000ee567fe1712faf6149d80da1e6934e354124cfe3"
          ],
          "data": "0x000000000000000000000000000000000000000000000000022eab2a6a243e77",
          "blockHash": "0x102b4da86e89efa0e8ba2f3234f91a97a75c8c64218ab460dce1efe2b9b1863f",
          "blockNumber": "0x9113d4",
          "blockTimestamp": "0x69009444",
          "transactionHash": "0xa95254b8526795b37daaf02d59f58bc3dcdec4fde8c5190985844c15499944e0",
          "transactionIndex": "0x4b",
          "logIndex": "0x98",
          "removed": false
        },
        {
          "address": "0xe8aa2fa3963bad64ff66cfc458fda9f19a8e7024",
          "topics": [
            "0x1c411e9a96e071241c2f21f7726b17ae89e3cab4c78be50e062b03a9fffbbad1"
          ],
          "data": "0x000000000000000000000000000000000000000000000000017e5c3b94eaa08400000000000000000000000000000000000000000000000027251ac2264f183f",
          "blockHash": "0x102b4da86e89efa0e8ba2f3234f91a97a75c8c64218ab460dce1efe2b9b1863f",
          "blockNumber": "0x9113d4",
          "blockTimestamp": "0x69009444",
          "transactionHash": "0xa95254b8526795b37daaf02d59f58bc3dcdec4fde8c5190985844c15499944e0",
          "transactionIndex": "0x4b",
          "logIndex": "0x99",
          "removed": false
        },
        {
          "address": "0xe8aa2fa3963bad64ff66cfc458fda9f19a8e7024",
          "topics": [
            "0xdccd412f0b1252819cb1fd330b93224ca42612892bb3f4f789976e6d81936496",
            "0x000000000000000000000000ee567fe1712faf6149d80da1e6934e354124cfe3",
            "0x000000000000000000000000ee567fe1712faf6149d80da1e6934e354124cfe3"
          ],
          "data": "0x000000000000000000000000000000000000000000000000001550f7dca6ffff000000000000000000000000000000000000000000000000022eab2a6a243e77",
          "blockHash": "0x102b4da86e89efa0e8ba2f3234f91a97a75c8c64218ab460dce1efe2b9b1863f",
          "blockNumber": "0x9113d4",
          "blockTimestamp": "0x69009444",
          "transactionHash": "0xa95254b8526795b37daaf02d59f58bc3dcdec4fde8c5190985844c15499944e0",
          "transactionIndex": "0x4b",
          "logIndex": "0x9a",
          "removed": false
        },
        {
          "address": "0x1f9840a85d5af5bf1d1762f925bdaddc4201f984",
          "topics": [
            "0xddf252ad1be2c89b69c2b068fc378daa952ba7f163c4a11628f55a4df523b3ef",
            "0x000000000000000000000000ee567fe1712faf6149d80da1e6934e354124cfe3",
            "0x000000000000000000000000cfd3f87ceef71a4149b454980aa01f7907945852"
          ],
          "data": "0x000000000000000000000000000000000000000000000000001550f7dca6ffff",
          "blockHash": "0x102b4da86e89efa0e8ba2f3234f91a97a75c8c64218ab460dce1efe2b9b1863f",
          "blockNumber": "0x9113d4",
          "blockTimestamp": "0x69009444",
          "transactionHash": "0xa95254b8526795b37daaf02d59f58bc3dcdec4fde8c5190985844c15499944e0",
          "transactionIndex": "0x4b",
          "logIndex": "0x9b",
          "removed": false
        },
        {
          "address": "0xfff9976782d46cc05630d1f6ebab18b2324d6b14",
          "topics": [
            "0x7fcf532c15f0a6db0bd6d0e038bea71d30d808c7d98cb3bf7268a95bf5081b65",
            "0x000000000000000000000000ee567fe1712faf6149d80da1e6934e354124cfe3"
          ],
          "data": "0x000000000000000000000000000000000000000000000000022eab2a6a243e77",
          "blockHash": "0x102b4da86e89efa0e8ba2f3234f91a97a75c8c64218ab460dce1efe2b9b1863f",
          "blockNumber": "0x9113d4",
          "blockTimestamp": "0x69009444",
          "transactionHash": "0xa95254b8526795b37daaf02d59f58bc3dcdec4fde8c5190985844c15499944e0",
          "transactionIndex": "0x4b",
          "logIndex": "0x9c",
          "removed": false
        },
        {
          "address": "0xcfd3f87ceef71a4149b454980aa01f7907945852",
          "topics": [
            "0x88a5966d370b9919b20f3e2c13ff65706f196a4e32cc2c12bf57088f88525874"
          ],
          "data": "0x000000000000000000000000ee567fe1712faf6149d80da1e6934e354124cfe3000000000000000000000000000000000000000000000000022eab2a6a243e77",
          "blockHash": "0x102b4da86e89efa0e8ba2f3234f91a97a75c8c64218ab460dce1efe2b9b1863f",
          "blockNumber": "0x9113d4",
          "blockTimestamp": "0x69009444",
          "transactionHash": "0xa95254b8526795b37daaf02d59f58bc3dcdec4fde8c5190985844c15499944e0",
          "transactionIndex": "0x4b",
          "logIndex": "0x9d",
          "removed": false
        },
        {
          "address": "0x1f9840a85d5af5bf1d1762f925bdaddc4201f984",
          "topics": [
            "0x8c5be1e5ebec7d5bd14f71427d1e84f3dd0314c0f7b2291e5b200ac8c7c3b925",
            "0x000000000000000000000000cfd3f87ceef71a4149b454980aa01f7907945852",
            "0x000000000000000000000000ee567fe1712faf6149d80da1e6934e354124cfe3"
          ],
          "data": "0x000000000000000000000000000000000000000000000000001550f7dca6ffff",
          "blockHash": "0x102b4da86e89efa0e8ba2f3234f91a97a75c8c64218ab460dce1efe2b9b1863f",
          "blockNumber": "0x9113d4",
          "blockTimestamp": "0x69009444",
          "transactionHash": "0xa95254b8526795b37daaf02d59f58bc3dcdec4fde8c5190985844c15499944e0",
          "transactionIndex": "0x4b",
          "logIndex": "0x9e",
          "removed": false
        },
        {
          "address": "0x1f9840a85d5af5bf1d1762f925bdaddc4201f984",
          "topics": [
            "0x8c5be1e5ebec7d5bd14f71427d1e84f3dd0314c0f7b2291e5b200ac8c7c3b925",
            "0x000000000000000000000000cfd3f87ceef71a4149b454980aa01f7907945852",
            "0x000000000000000000000000ee567fe1712faf6149d80da1e6934e354124cfe3"
          ],
          "data": "0x0000000000000000000000000000000000000000000000000000000000000000",
          "blockHash": "0x102b4da86e89efa0e8ba2f3234f91a97a75c8c64218ab460dce1efe2b9b1863f",
          "blockNumber": "0x9113d4",
          "blockTimestamp": "0x69009444",
          "transactionHash": "0xa95254b8526795b37daaf02d59f58bc3dcdec4fde8c5190985844c15499944e0",
          "transactionIndex": "0x4b",
          "logIndex": "0x9f",
          "removed": false
        },
        {
          "address": "0x1f9840a85d5af5bf1d1762f925bdaddc4201f984",
          "topics": [
            "0xddf252ad1be2c89b69c2b068fc378daa952ba7f163c4a11628f55a4df523b3ef",
            "0x000000000000000000000000cfd3f87ceef71a4149b454980aa01f7907945852",
            "0x000000000000000000000000e8aa2fa3963bad64ff66cfc458fda9f19a8e7024"
          ],
          "data": "0x000000000000000000000000000000000000000000000000001550f7dca6ffff",
          "blockHash": "0x102b4da86e89efa0e8ba2f3234f91a97a75c8c64218ab460dce1efe2b9b1863f",
          "blockNumber": "0x9113d4",
          "blockTimestamp": "0x69009444",
          "transactionHash": "0xa95254b8526795b37daaf02d59f58bc3dcdec4fde8c5190985844c15499944e0",
          "transactionIndex": "0x4b",
          "logIndex": "0xa0",
          "removed": false
        },
        {
          "address": "0xfff9976782d46cc05630d1f6ebab18b2324d6b14",
          "topics": [
            "0xddf252ad1be2c89b69c2b068fc378daa952ba7f163c4a11628f55a4df523b3ef",
            "0x000000000000000000000000e8aa2fa3963bad64ff66cfc458fda9f19a8e7024",
            "0x000000000000000000000000ee567fe1712faf6149d80da1e6934e354124cfe3"
          ],
          "data": "0x000000000000000000000000000000000000000000000000020fa9fca3c34c85",
          "blockHash": "0x102b4da86e89efa0e8ba2f3234f91a97a75c8c64218ab460dce1efe2b9b1863f",
          "blockNumber": "0x9113d4",
          "blockTimestamp": "0x69009444",
          "transactionHash": "0xa95254b8526795b37daaf02d59f58bc3dcdec4fde8c5190985844c15499944e0",
          "transactionIndex": "0x4b",
          "logIndex": "0xa1",
          "removed": false
        },
        {
          "address": "0xe8aa2fa3963bad64ff66cfc458fda9f19a8e7024",
          "topics": [
            "0x1c411e9a96e071241c2f21f7726b17ae89e3cab4c78be50e062b03a9fffbbad1"
          ],
          "data": "0x0000000000000000000000000000000000000000000000000193ad337191a083000000000000000000000000000000000000000000000000251570c5828bcbba",
          "blockHash": "0x102b4da86e89efa0e8ba2f3234f91a97a75c8c64218ab460dce1efe2b9b1863f",
          "blockNumber": "0x9113d4",
          "blockTimestamp": "0x69009444",
          "transactionHash": "0xa95254b8526795b37daaf02d59f58bc3dcdec4fde8c5190985844c15499944e0",
          "transactionIndex": "0x4b",
          "logIndex": "0xa2",
          "removed": false
        },
        {
          "address": "0xe8aa2fa3963bad64ff66cfc458fda9f19a8e7024",
          "topics": [
            "0xd78ad95fa46c994b6551d0da85fc275fe613ce37657fb8d5e3d130840159d822",
            "0x000000000000000000000000ee567fe1712faf6149d80da1e6934e354124cfe3",
            "0x000000000000000000000000ee567fe1712faf6149d80da1e6934e354124cfe3"
          ],
          "data": "0x000000000000000000000000000000000000000000000000001550f7dca6ffff00000000000000000000000000000000000000000000000000000000000000000000000000000000000000000000000000000000000000000000000000000000000000000000000000000000000000000000000000000000020fa9fca3c34c85",
          "blockHash": "0x102b4da86e89efa0e8ba2f3234f91a97a75c8c64218ab460dce1efe2b9b1863f",
          "blockNumber": "0x9113d4",
          "blockTimestamp": "0x69009444",
          "transactionHash": "0xa95254b8526795b37daaf02d59f58bc3dcdec4fde8c5190985844c15499944e0",
          "transactionIndex": "0x4b",
          "logIndex": "0xa3",
          "removed": false
        },
        {
          "address": "0xfff9976782d46cc05630d1f6ebab18b2324d6b14",
          "topics": [
            "0x7fcf532c15f0a6db0bd6d0e038bea71d30d808c7d98cb3bf7268a95bf5081b65",
            "0x000000000000000000000000ee567fe1712faf6149d80da1e6934e354124cfe3"
          ],
          "data": "0x000000000000000000000000000000000000000000000000020fa9fca3c34c85",
          "blockHash": "0x102b4da86e89efa0e8ba2f3234f91a97a75c8c64218ab460dce1efe2b9b1863f",
          "blockNumber": "0x9113d4",
          "blockTimestamp": "0x69009444",
          "transactionHash": "0xa95254b8526795b37daaf02d59f58bc3dcdec4fde8c5190985844c15499944e0",
          "transactionIndex": "0x4b",
          "logIndex": "0xa4",
          "removed": false
        },
        {
          "address": "0xcfd3f87ceef71a4149b454980aa01f7907945852",
          "topics": [
            "0x88a5966d370b9919b20f3e2c13ff65706f196a4e32cc2c12bf57088f88525874"
          ],
          "data": "0x000000000000000000000000ee567fe1712faf6149d80da1e6934e354124cfe3000000000000000000000000000000000000000000000000020fa9fca3c34c85",
          "blockHash": "0x102b4da86e89efa0e8ba2f3234f91a97a75c8c64218ab460dce1efe2b9b1863f",
          "blockNumber": "0x9113d4",
          "blockTimestamp": "0x69009444",
          "transactionHash": "0xa95254b8526795b37daaf02d59f58bc3dcdec4fde8c5190985844c15499944e0",
          "transactionIndex": "0x4b",
          "logIndex": "0xa5",
          "removed": false
        }
      ],
      "logsBloom": "0x00200000000000000000000080000000000000000000000000000000000000020400000000000000000000000000001000000000000000000000000048200000000000000000008000000008100000200000000000400000002000000200000008000004020000000008000000000800000000000000040000000010002000000040000000000000000000022000080000000000000000080000004000000000020020000000004000000000000000000000100000040000000400800000000000000002000000000002000000000000000000000000001000000002000020000410000000000000040200000000000000000000000000000080000000000000",
      "type": "0x2",
      "transactionHash": "0xa95254b8526795b37daaf02d59f58bc3dcdec4fde8c5190985844c15499944e0",
      "transactionIndex": "0x4b",
      "blockHash": "0x102b4da86e89efa0e8ba2f3234f91a97a75c8c64218ab460dce1efe2b9b1863f",
      "blockNumber": "0x9113d4",
      "gasUsed": "0x4ec68",
      "effectiveGasPrice": "0xf424d",
      "from": "0xeff3521fb13228c767ad6dc3b934f9efac9c56ad",
      "to": "0xcfd3f87ceef71a4149b454980aa01f7907945852",
      "contractAddress": null
    }
  ],
  "libraries": [],
  "pending": [],
  "returns": {},
  "timestamp": 1761645638,
  "chain": 11155111,
  "commit": "4457f8a"
}