{
  "transactions": [
    {
      "hash": "0x977121444a34934b820a4f23e870af5839dc4b20d07318533da067f6b3234af7",
      "transactionType": "CALL",
      "contractName": null,
      "contractAddress": "0x6c64e8278b7d5513143d59bf1484b0e6972e4505",
      "function": "approve(address,uint256)",
      "arguments": [
        "0xc66289b45a3d2c804c964609868D4718cE319c74",
        "100000000000000000000"
      ],
      "transaction": {
        "from": "0xeff3521fb13228c767ad6dc3b934f9efac9c56ad",
        "to": "0x6c64e8278b7d5513143d59bf1484b0e6972e4505",
        "gas": "0x10c4a",
        "value": "0x0",
        "input": "0x095ea7b3000000000000000000000000c66289b45a3d2c804c964609868d4718ce319c740000000000000000000000000000000000000000000000056bc75e2d63100000",
        "nonce": "0x125",
        "chainId": "0xaa36a7"
      },
      "additionalContracts": [],
      "isFixedGasLimit": false
    },
    {
      "hash": "0xa451069598cf9882baf2cf37ce57759d0a1d045d324c2d07ebc59deb9444ea88",
      "transactionType": "CALL",
      "contractName": null,
      "contractAddress": "0x1f9840a85d5af5bf1d1762f925bdaddc4201f984",
      "function": "approve(address,uint256)",
      "arguments": [
        "0xc66289b45a3d2c804c964609868D4718cE319c74",
        "100000000000000000000"
      ],
      "transaction": {
        "from": "0xeff3521fb13228c767ad6dc3b934f9efac9c56ad",
        "to": "0x1f9840a85d5af5bf1d1762f925bdaddc4201f984",
        "gas": "0x9188",
        "value": "0x0",
        "input": "0x095ea7b3000000000000000000000000c66289b45a3d2c804c964609868d4718ce319c740000000000000000000000000000000000000000000000056bc75e2d63100000",
        "nonce": "0x126",
        "chainId": "0xaa36a7"
      },
      "additionalContracts": [],
      "isFixedGasLimit": false
    },
    {
      "hash": "0x126a5579ebe8f0a6bf63479abb0763f78e7737fcf7677b69aa3ec247b7b97d4f",
      "transactionType": "CALL",
      "contractName": null,
      "contractAddress": "0xc66289b45a3d2c804c964609868d4718ce319c74",
      "function": "zapIn(address,address,address,uint256)",
      "arguments": [
        "0x6c64E8278B7d5513143D59Bf1484B0e6972e4505",
        "0x6c64E8278B7d5513143D59Bf1484B0e6972e4505",
        "0x1f9840a85d5aF5bf1D1762F925BDADdC4201F984",
        "100000000000000000000"
      ],
      "transaction": {
        "from": "0xeff3521fb13228c767ad6dc3b934f9efac9c56ad",
        "to": "0xc66289b45a3d2c804c964609868d4718ce319c74",
        "gas": "0x4a81a",
        "value": "0x0",
        "input": "0x931f26130000000000000000000000006c64e8278b7d5513143d59bf1484b0e6972e45050000000000000000000000006c64e8278b7d5513143d59bf1484b0e6972e45050000000000000000000000001f9840a85d5af5bf1d1762f925bdaddc4201f9840000000000000000000000000000000000000000000000056bc75e2d63100000",
        "nonce": "0x127",
        "chainId": "0xaa36a7"
      },
      "additionalContracts": [],
      "isFixedGasLimit": false
    }
  ],
  "receipts": [
    {
      "status": "0x1",
      "cumulativeGasUsed": "0x104243c",
      "logs": [
        {
          "address": "0x6c64e8278b7d5513143d59bf1484b0e6972e4505",
          "topics": [
            "0x8c5be1e5ebec7d5bd14f71427d1e84f3dd0314c0f7b2291e5b200ac8c7c3b925",
            "0x000000000000000000000000eff3521fb13228c767ad6dc3b934f9efac9c56ad",
            "0x000000000000000000000000c66289b45a3d2c804c964609868d4718ce319c74"
          ],
          "data": "0x0000000000000000000000000000000000000000000000056bc75e2d63100000",
          "blockHash": "0x674378cc7492b533cb4a8e7efa2c7fc46eab6aa33c7b816a3f30082132b5d913",
          "blockNumber": "0x911340",
          "blockTimestamp": "0x69008d00",
          "transactionHash": "0x977121444a34934b820a4f23e870af5839dc4b20d07318533da067f6b3234af7",
          "transactionIndex": "0x6e",
          "logIndex": "0x78",
          "removed": false
        }
      ],
      "logsBloom": "0x00000000000000000000000000000000000000000000000000000000000000020000000000000000000000008000000000000000000000000000000000200000000000000000000000000000000000000000000000000000002000000000000000000000000000000000000000000000000000000000000000000000000000000000000000000000000000000000000000000000000000008000000000000000020000000000000000000000000000000000100000000040000000000000100000000000000000000000000000000000000000000010000000000000000100000010000000000000000000000000000000000000000000000000000000000000",
      "type": "0x2",
      "transactionHash": "0x977121444a34934b820a4f23e870af5839dc4b20d07318533da067f6b3234af7",
      "transactionIndex": "0x6e",
      "blockHash": "0x674378cc7492b533cb4a8e7efa2c7fc46eab6aa33c7b816a3f30082132b5d913",
      "blockNumber": "0x911340",
      "gasUsed": "0xb773",
      "effectiveGasPrice": "0xf424e",
      "from": "0xeff3521fb13228c767ad6dc3b934f9efac9c56ad",
      "to": "0x6c64e8278b7d5513143d59bf1484b0e6972e4505",
      "contractAddress": null
    },
    {
      "status": "0x1",
      "cumulativeGasUsed": "0x1048d9a",
      "logs": [
        {
          "address": "0x1f9840a85d5af5bf1d1762f925bdaddc4201f984",
          "topics": [
            "0x8c5be1e5ebec7d5bd14f71427d1e84f3dd0314c0f7b2291e5b200ac8c7c3b925",
            "0x000000000000000000000000eff3521fb13228c767ad6dc3b934f9efac9c56ad",
            "0x000000000000000000000000c66289b45a3d2c804c964609868d4718ce319c74"
          ],
          "data": "0x0000000000000000000000000000000000000000000000056bc75e2d63100000",
          "blockHash": "0x674378cc7492b533cb4a8e7efa2c7fc46eab6aa33c7b816a3f30082132b5d913",
          "blockNumber": "0x911340",
          "blockTimestamp": "0x69008d00",
          "transactionHash": "0xa451069598cf9882baf2cf37ce57759d0a1d045d324c2d07ebc59deb9444ea88",
          "transactionIndex": "0x6f",
          "logIndex": "0x79",
          "removed": false
        }
      ],
      "logsBloom": "0x00000000000000000000000000000000000000000000000000000000000000020000000000000000000000008000001000000000000000000000000000200000000000000000000000000000100000000000000000000000002000000000000008000000000000000000000000000000000000000000000000000000000000000000000000000000000000000000000000000000000000008000000000000000020000000000000000000000000000000000100000000000000000000000000000000000000000000000000000000000000000000000000000000000000100000010000000000000000000000000000000000000000000000000000000000000",
      "type": "0x2",
      "transactionHash": "0xa451069598cf9882baf2cf37ce57759d0a1d045d324c2d07ebc59deb9444ea88",
      "transactionIndex": "0x6f",
      "blockHash": "0x674378cc7492b533cb4a8e7efa2c7fc46eab6aa33c7b816a3f30082132b5d913",
      "blockNumber": "0x911340",
      "gasUsed": "0x695e",
      "effectiveGasPrice": "0xf424e",
      "from": "0xeff3521fb13228c767ad6dc3b934f9efac9c56ad",
      "to": "0x1f9840a85d5af5bf1d1762f925bdaddc4201f984",
      "contractAddress": null
    },
    {
      "status": "0x1",
      "cumulativeGasUsed": "0x107ecaa",
      "logs": [
        {
          "address": "0x6c64e8278b7d5513143d59bf1484b0e6972e4505",
          "topics": [
            "0xddf252ad1be2c89b69c2b068fc378daa952ba7f163c4a11628f55a4df523b3ef",
            "0x000000000000000000000000eff3521fb13228c767ad6dc3b934f9efac9c56ad",
            "0x000000000000000000000000c66289b45a3d2c804c964609868d4718ce319c74"
          ],
          "data": "0x0000000000000000000000000000000000000000000000056bc75e2d63100000",
          "blockHash": "0x674378cc7492b533cb4a8e7efa2c7fc46eab6aa33c7b816a3f30082132b5d913",
          "blockNumber": "0x911340",
          "blockTimestamp": "0x69008d00",
          "transactionHash": "0x126a5579ebe8f0a6bf63479abb0763f78e7737fcf7677b69aa3ec247b7b97d4f",
          "transactionIndex": "0x70",
          "logIndex": "0x7a",
          "removed": false
        },
        {
          "address": "0x6c64e8278b7d5513143d59bf1484b0e6972e4505",
          "topics": [
            "0x8c5be1e5ebec7d5bd14f71427d1e84f3dd0314c0f7b2291e5b200ac8c7c3b925",
            "0x000000000000000000000000c66289b45a3d2c804c964609868d4718ce319c74",
            "0x000000000000000000000000ee567fe1712faf6149d80da1e6934e354124cfe3"
          ],
          "data": "0x000000000000000000000000000000000000000000000002b5e3af16b1880000",
          "blockHash": "0x674378cc7492b533cb4a8e7efa2c7fc46eab6aa33c7b816a3f30082132b5d913",
          "blockNumber": "0x911340",
          "blockTimestamp": "0x69008d00",
          "transactionHash": "0x126a5579ebe8f0a6bf63479abb0763f78e7737fcf7677b69aa3ec247b7b97d4f",
          "transactionIndex": "0x70",
          "logIndex": "0x7b",
          "removed": false
        },
        {
          "address": "0x6c64e8278b7d5513143d59bf1484b0e6972e4505",
          "topics": [
            "0xddf252ad1be2c89b69c2b068fc378daa952ba7f163c4a11628f55a4df523b3ef",
            "0x000000000000000000000000c66289b45a3d2c804c964609868d4718ce319c74",
            "0x000000000000000000000000421b152478f5370c4d28b11fdfab122d171b731b"
          ],
          "data": "0x000000000000000000000000000000000000000000000002b5e3af16b1880000",
          "blockHash": "0x674378cc7492b533cb4a8e7efa2c7fc46eab6aa33c7b816a3f30082132b5d913",
          "blockNumber": "0x911340",
          "blockTimestamp": "0x69008d00",
          "transactionHash": "0x126a5579ebe8f0a6bf63479abb0763f78e7737fcf7677b69aa3ec247b7b97d4f",
          "transactionIndex": "0x70",
          "logIndex": "0x7c",
          "removed": false
        },
        {
          "address": "0x1f9840a85d5af5bf1d1762f925bdaddc4201f984",
          "topics": [
            "0xddf252ad1be2c89b69c2b068fc378daa952ba7f163c4a11628f55a4df523b3ef",
            "0x000000000000000000000000421b152478f5370c4d28b11fdfab122d171b731b",
            "0x000000000000000000000000c66289b45a3d2c804c964609868d4718ce319c74"
          ],
          "data": "0x00000000000000000000000000000000000000000000000000000ccd33da2640",
          "blockHash": "0x674378cc7492b533cb4a8e7efa2c7fc46eab6aa33c7b816a3f30082132b5d913",
          "blockNumber": "0x911340",
          "blockTimestamp": "0x69008d00",
          "transactionHash": "0x126a5579ebe8f0a6bf63479abb0763f78e7737fcf7677b69aa3ec247b7b97d4f",
          "transactionIndex": "0x70",
          "logIndex": "0x7d",
          "removed": false
        },
        {
          "address": "0x421b152478f5370c4d28b11fdfab122d171b731b",
          "topics": [
            "0x1c411e9a96e071241c2f21f7726b17ae89e3cab4c78be50e062b03a9fffbbad1"
          ],
          "data": "0x00000000000000000000000000000000000000000000000000015e830092d17d00000000000000000000000000000000000000000000004cb3d65fe111de40a6",
          "blockHash": "0x674378cc7492b533cb4a8e7efa2c7fc46eab6aa33c7b816a3f30082132b5d913",
          "blockNumber": "0x911340",
          "blockTimestamp": "0x69008d00",
          "transactionHash": "0x126a5579ebe8f0a6bf63479abb0763f78e7737fcf7677b69aa3ec247b7b97d4f",
          "transactionIndex": "0x70",
          "logIndex": "0x7e",
          "removed": false
        },
        {
          "address": "0x421b152478f5370c4d28b11fdfab122d171b731b",
          "topics": [
            "0xd78ad95fa46c994b6551d0da85fc275fe613ce37657fb8d5e3d130840159d822",
            "0x000000000000000000000000ee567fe1712faf6149d80da1e6934e354124cfe3",
            "0x000000000000000000000000c66289b45a3d2c804c964609868d4718ce319c74"
          ],
          "data": "0x0000000000000000000000000000000000000000000000000000000000000000000000000000000000000000000000000000000000000002b5e3af16b188000000000000000000000000000000000000000000000000000000000ccd33da26400000000000000000000000000000000000000000000000000000000000000000",
          "blockHash": "0x674378cc7492b533cb4a8e7efa2c7fc46eab6aa33c7b816a3f30082132b5d913",
          "blockNumber": "0x911340",
          "blockTimestamp": "0x69008d00",
          "transactionHash": "0x126a5579ebe8f0a6bf63479abb0763f78e7737fcf7677b69aa3ec247b7b97d4f",
          "transactionIndex": "0x70",
          "logIndex": "0x7f",
          "removed": false
        },
        {
          "address": "0x6c64e8278b7d5513143d59bf1484b0e6972e4505",
          "topics": [
            "0x8c5be1e5ebec7d5bd14f71427d1e84f3dd0314c0f7b2291e5b200ac8c7c3b925",
            "0x000000000000000000000000c66289b45a3d2c804c964609868d4718ce319c74",
            "0x000000000000000000000000ee567fe1712faf6149d80da1e6934e354124cfe3"
          ],
          "data": "0x000000000000000000000000000000000000000000000002b5e3af16b1880000",
          "blockHash": "0x674378cc7492b533cb4a8e7efa2c7fc46eab6aa33c7b816a3f30082132b5d913",
          "blockNumber": "0x911340",
          "blockTimestamp": "0x69008d00",
          "transactionHash": "0x126a5579ebe8f0a6bf63479abb0763f78e7737fcf7677b69aa3ec247b7b97d4f",
          "transactionIndex": "0x70",
          "logIndex": "0x80",
          "removed": false
        },
        {
          "address": "0x1f9840a85d5af5bf1d1762f925bdaddc4201f984",
          "topics": [
            "0x8c5be1e5ebec7d5bd14f71427d1e84f3dd0314c0f7b2291e5b200ac8c7c3b925",
            "0x000000000000000000000000c66289b45a3d2c804c964609868d4718ce319c74",
            "0x000000000000000000000000ee567fe1712faf6149d80da1e6934e354124cfe3"
          ],
          "data": "0x00000000000000000000000000000000000000000000000000000ccd33da2640",
          "blockHash": "0x674378cc7492b533cb4a8e7efa2c7fc46eab6aa33c7b816a3f30082132b5d913",
          "blockNumber": "0x911340",
          "blockTimestamp": "0x69008d00",
          "transactionHash": "0x126a5579ebe8f0a6bf63479abb0763f78e7737fcf7677b69aa3ec247b7b97d4f",
          "transactionIndex": "0x70",
          "logIndex": "0x81",
          "removed": false
        },
        {
          "address": "0x6c64e8278b7d5513143d59bf1484b0e6972e4505",
          "topics": [
            "0xddf252ad1be2c89b69c2b068fc378daa952ba7f163c4a11628f55a4df523b3ef",
            "0x000000000000000000000000c66289b45a3d2c804c964609868d4718ce319c74",
            "0x000000000000000000000000421b152478f5370c4d28b11fdfab122d171b731b"
          ],
          "data": "0x000000000000000000000000000000000000000000000002b5e3af16b1880000",
          "blockHash": "0x674378cc7492b533cb4a8e7efa2c7fc46eab6aa33c7b816a3f30082132b5d913",
          "blockNumber": "0x911340",
          "blockTimestamp": "0x69008d00",
          "transactionHash": "0x126a5579ebe8f0a6bf63479abb0763f78e7737fcf7677b69aa3ec247b7b97d4f",
          "transactionIndex": "0x70",
          "logIndex": "0x82",
          "removed": false
        },
        {
          "address": "0x1f9840a85d5af5bf1d1762f925bdaddc4201f984",
          "topics": [
            "0x8c5be1e5ebec7d5bd14f71427d1e84f3dd0314c0f7b2291e5b200ac8c7c3b925",
            "0x000000000000000000000000c66289b45a3d2c804c964609868d4718ce319c74",
            "0x000000000000000000000000ee567fe1712faf6149d80da1e6934e354124cfe3"
          ],
          "data": "0x0000000000000000000000000000000000000000000000000000006a4bf87ff9",
          "blockHash": "0x674378cc7492b533cb4a8e7efa2c7fc46eab6aa33c7b816a3f30082132b5d913",
          "blockNumber": "0x911340",
          "blockTimestamp": "0x69008d00",
          "transactionHash": "0x126a5579ebe8f0a6bf63479abb0763f78e7737fcf7677b69aa3ec247b7b97d4f",
          "transactionIndex": "0x70",
          "logIndex": "0x83",
          "removed": false
        },
        {
          "address": "0x1f9840a85d5af5bf1d1762f925bdaddc4201f984",
          "topics": [
            "0xddf252ad1be2c89b69c2b068fc378daa952ba7f163c4a11628f55a4df523b3ef",
            "0x000000000000000000000000c66289b45a3d2c804c964609868d4718ce319c74",
            "0x000000000000000000000000421b152478f5370c4d28b11fdfab122d171b731b"
          ],
          "data": "0x00000000000000000000000000000000000000000000000000000c62e7e1a647",
          "blockHash": "0x674378cc7492b533cb4a8e7efa2c7fc46eab6aa33c7b816a3f30082132b5d913",
          "blockNumber": "0x911340",
          "blockTimestamp": "0x69008d00",
          "transactionHash": "0x126a5579ebe8f0a6bf63479abb0763f78e7737fcf7677b69aa3ec247b7b97d4f",
          "transactionIndex": "0x70",
          "logIndex": "0x84",
          "removed": false
        },
        {
          "address": "0x421b152478f5370c4d28b11fdfab122d171b731b",
          "topics": [
            "0xddf252ad1be2c89b69c2b068fc378daa952ba7f163c4a11628f55a4df523b3ef",
            "0x0000000000000000000000000000000000000000000000000000000000000000",
            "0x000000000000000000000000eff3521fb13228c767ad6dc3b934f9efac9c56ad"
          ],
          "data": "0x000000000000000000000000000000000000000000000000003420b452970e17",
          "blockHash": "0x674378cc7492b533cb4a8e7efa2c7fc46eab6aa33c7b816a3f30082132b5d913",
          "blockNumber": "0x911340",
          "blockTimestamp": "0x69008d00",
          "transactionHash": "0x126a5579ebe8f0a6bf63479abb0763f78e7737fcf7677b69aa3ec247b7b97d4f",
          "transactionIndex": "0x70",
          "logIndex": "0x85",
          "removed": false
        },
        {
          "address": "0x421b152478f5370c4d28b11fdfab122d171b731b",
          "topics": [
            "0x1c411e9a96e071241c2f21f7726b17ae89e3cab4c78be50e062b03a9fffbbad1"
          ],
          "data": "0x00000000000000000000000000000000000000000000000000016ae5e87477c400000000000000000000000000000000000000000000004f69ba0ef7c36640a6",
          "blockHash": "0x674378cc7492b533cb4a8e7efa2c7fc46eab6aa33c7b816a3f30082132b5d913",
          "blockNumber": "0x911340",
          "blockTimestamp": "0x69008d00",
          "transactionHash": "0x126a5579ebe8f0a6bf63479abb0763f78e7737fcf7677b69aa3ec247b7b97d4f",
          "transactionIndex": "0x70",
          "logIndex": "0x86",
          "removed": false
        },
        {
          "address": "0x421b152478f5370c4d28b11fdfab122d171b731b",
          "topics": [
            "0x4c209b5fc8ad50758f13e2e1088ba56a560dff690a1c6fef26394f4c03821c4f",
            "0x000000000000000000000000ee567fe1712faf6149d80da1e6934e354124cfe3"
          ],
          "data": "0x00000000000000000000000000000000000000000000000000000c62e7e1a647000000000000000000000000000000000000000000000002b5e3af16b1880000",
          "blockHash": "0x674378cc7492b533cb4a8e7efa2c7fc46eab6aa33c7b816a3f30082132b5d913",
          "blockNumber": "0x911340",
          "blockTimestamp": "0x69008d00",
          "transactionHash": "0x126a5579ebe8f0a6bf63479abb0763f78e7737fcf7677b69aa3ec247b7b97d4f",
          "transactionIndex": "0x70",
          "logIndex": "0x87",
          "removed": false
        },
        {
          "address": "0xc66289b45a3d2c804c964609868d4718ce319c74",
          "topics": [
            "0x4a1a2a6176e9646d9e3157f7c2ab3c499f18337c0b0828cfb28e0a61de4a11f7"
          ],
          "data": "0x0000000000000000000000006c64e8278b7d5513143d59bf1484b0e6972e45050000000000000000000000001f9840a85d5af5bf1d1762f925bdaddc4201f984000000000000000000000000000000000000000000000002b5e3af16b188000000000000000000000000000000000000000000000000000000000ccd33da2640000000000000000000000000000000000000000000000000003420b452970e17",
          "blockHash": "0x674378cc7492b533cb4a8e7efa2c7fc46eab6aa33c7b816a3f30082132b5d913",
          "blockNumber": "0x911340",
          "blockTimestamp": "0x69008d00",
          "transactionHash": "0x126a5579ebe8f0a6bf63479abb0763f78e7737fcf7677b69aa3ec247b7b97d4f",
          "transactionIndex": "0x70",
          "logIndex": "0x88",
          "removed": false
        }
      ],
      "logsBloom": "0x0020000000000000000000008000000002000000000000008000000000000102000080000000000000000200800000100000000800000000000000000820000000000000000000000020000810000020000000000000000000200000000000000a000000020000000000800000000800000000000008000000000010000000000000000000000000000000000000000000000000000000088000004000010000020000000000000000000000000000000000100000000040000000800000180000000002000000000000000000020000000000000010001000000000000128000010000000000000000000000000000000000000000000000080000000000000",
      "type": "0x2",
      "transactionHash": "0x126a5579ebe8f0a6bf63479abb0763f78e7737fcf7677b69aa3ec247b7b97d4f",
      "transactionIndex": "0x70",
      "blockHash": "0x674378cc7492b533cb4a8e7efa2c7fc46eab6aa33c7b816a3f30082132b5d913",
      "blockNumber": "0x911340",
      "gasUsed": "0x35f10",
      "effectiveGasPrice": "0xf424e",
      "from": "0xeff3521fb13228c767ad6dc3b934f9efac9c56ad",
      "to": "0xc66289b45a3d2c804c964609868d4718ce319c74",
      "contractAddress": null
    }
  ],
  "libraries": [],
  "pending": [],
  "returns": {},
  "timestamp": 1761643777,
  "chain": 11155111,
  "commit": "4457f8a"
}