{
  "transactions": [
    {
      "hash": "0x148e9073a13e14ab56e5439b20dbcaf1365b960d14947f6efcc6d87a9e8c02bc",
      "transactionType": "CALL",
      "contractName": null,
      "contractAddress": "0x6c64e8278b7d5513143d59bf1484b0e6972e4505",
      "function": "approve(address,uint256)",
      "arguments": [
        "0xc66289b45a3d2c804c964609868D4718cE319c74",
        "100000000000000000000"
      ],
      "transaction": {
        "from": "0xeff3521fb13228c767ad6dc3b934f9efac9c56ad",
        "to": "0x6c64e8278b7d5513143d59bf1484b0e6972e4505",
        "gas": "0x10c4a",
        "value": "0x0",
        "input": "0x095ea7b3000000000000000000000000c66289b45a3d2c804c964609868d4718ce319c740000000000000000000000000000000000000000000000056bc75e2d63100000",
        "nonce": "0x122",
        "chainId": "0xaa36a7"
      },
      "additionalContracts": [],
      "isFixedGasLimit": false
    },
    {
      "hash": "0x4d49088ffb45f7556871a6a31fddf4f784ee0af5f2f3edf00b3c0e011cb53111",
      "transactionType": "CALL",
      "contractName": null,
      "contractAddress": "0x1f9840a85d5af5bf1d1762f925bdaddc4201f984",
      "function": "approve(address,uint256)",
      "arguments": [
        "0xc66289b45a3d2c804c964609868D4718cE319c74",
        "100000000000000000000"
      ],
      "transaction": {
        "from": "0xeff3521fb13228c767ad6dc3b934f9efac9c56ad",
        "to": "0x1f9840a85d5af5bf1d1762f925bdaddc4201f984",
        "gas": "0x10bc8",
        "value": "0x0",
        "input": "0x095ea7b3000000000000000000000000c66289b45a3d2c804c964609868d4718ce319c740000000000000000000000000000000000000000000000056bc75e2d63100000",
        "nonce": "0x123",
        "chainId": "0xaa36a7"
      },
      "additionalContracts": [],
      "isFixedGasLimit": false
    },
    {
      "hash": "0x0241d35efeb4c4b4459a19a7b169f54c50b1fb6dd289b3b567e4ae96e183f572",
      "transactionType": "CALL",
      "contractName": null,
      "contractAddress": "0xc66289b45a3d2c804c964609868d4718ce319c74",
      "function": "zapIn(address,address,address,uint256)",
      "arguments": [
        "0x6c64E8278B7d5513143D59Bf1484B0e6972e4505",
        "0x6c64E8278B7d5513143D59Bf1484B0e6972e4505",
        "0x1f9840a85d5aF5bf1D1762F925BDADdC4201F984",
        "100000000000000000000"
      ],
      "transaction": {
        "from": "0xeff3521fb13228c767ad6dc3b934f9efac9c56ad",
        "to": "0xc66289b45a3d2c804c964609868d4718ce319c74",
        "gas": "0x53bb9",
        "value": "0x0",
        "input": "0x931f26130000000000000000000000006c64e8278b7d5513143d59bf1484b0e6972e45050000000000000000000000006c64e8278b7d5513143d59bf1484b0e6972e45050000000000000000000000001f9840a85d5af5bf1d1762f925bdaddc4201f9840000000000000000000000000000000000000000000000056bc75e2d63100000",
        "nonce": "0x124",
        "chainId": "0xaa36a7"
      },
      "additionalContracts": [],
      "isFixedGasLimit": false
    }
  ],
  "receipts": [
    {
      "status": "0x1",
      "cumulativeGasUsed": "0x1704feb",
      "logs": [
        {
          "address": "0x6c64e8278b7d5513143d59bf1484b0e6972e4505",
          "topics": [
            "0x8c5be1e5ebec7d5bd14f71427d1e84f3dd0314c0f7b2291e5b200ac8c7c3b925",
            "0x000000000000000000000000eff3521fb13228c767ad6dc3b934f9efac9c56ad",
            "0x000000000000000000000000c66289b45a3d2c804c964609868d4718ce319c74"
          ],
          "data": "0x0000000000000000000000000000000000000000000000056bc75e2d63100000",
          "blockHash": "0x439508226ca0543bbb074d73a45ab089ac82deb67fc1edda7b49b853f71721cf",
          "blockNumber": "0x91133a",
          "blockTimestamp": "0x69008cac",
          "transactionHash": "0x148e9073a13e14ab56e5439b20dbcaf1365b960d14947f6efcc6d87a9e8c02bc",
          "transactionIndex": "0xc3",
          "logIndex": "0x10a",
          "removed": false
        }
      ],
      "logsBloom": "0x00000000000000000000000000000000000000000000000000000000000000020000000000000000000000008000000000000000000000000000000000200000000000000000000000000000000000000000000000000000002000000000000000000000000000000000000000000000000000000000000000000000000000000000000000000000000000000000000000000000000000008000000000000000020000000000000000000000000000000000100000000040000000000000100000000000000000000000000000000000000000000010000000000000000100000010000000000000000000000000000000000000000000000000000000000000",
      "type": "0x2",
      "transactionHash": "0x148e9073a13e14ab56e5439b20dbcaf1365b960d14947f6efcc6d87a9e8c02bc",
      "transactionIndex": "0xc3",
      "blockHash": "0x439508226ca0543bbb074d73a45ab089ac82deb67fc1edda7b49b853f71721cf",
      "blockNumber": "0x91133a",
      "gasUsed": "0xb773",
      "effectiveGasPrice": "0xf424e",
      "from": "0xeff3521fb13228c767ad6dc3b934f9efac9c56ad",
      "to": "0x6c64e8278b7d5513143d59bf1484b0e6972e4505",
      "contractAddress": null
    },
    {
      "status": "0x1",
      "cumulativeGasUsed": "0x1710705",
      "logs": [
        {
          "address": "0x1f9840a85d5af5bf1d1762f925bdaddc4201f984",
          "topics": [
            "0x8c5be1e5ebec7d5bd14f71427d1e84f3dd0314c0f7b2291e5b200ac8c7c3b925",
            "0x000000000000000000000000eff3521fb13228c767ad6dc3b934f9efac9c56ad",
            "0x000000000000000000000000c66289b45a3d2c804c964609868d4718ce319c74"
          ],
          "data": "0x0000000000000000000000000000000000000000000000056bc75e2d63100000",
          "blockHash": "0x439508226ca0543bbb074d73a45ab089ac82deb67fc1edda7b49b853f71721cf",
          "blockNumber": "0x91133a",
          "blockTimestamp": "0x69008cac",
          "transactionHash": "0x4d49088ffb45f7556871a6a31fddf4f784ee0af5f2f3edf00b3c0e011cb53111",
          "transactionIndex": "0xc4",
          "logIndex": "0x10b",
          "removed": false
        }
      ],
      "logsBloom": "0x00000000000000000000000000000000000000000000000000000000000000020000000000000000000000008000001000000000000000000000000000200000000000000000000000000000100000000000000000000000002000000000000008000000000000000000000000000000000000000000000000000000000000000000000000000000000000000000000000000000000000008000000000000000020000000000000000000000000000000000100000000000000000000000000000000000000000000000000000000000000000000000000000000000000100000010000000000000000000000000000000000000000000000000000000000000",
      "type": "0x2",
      "transactionHash": "0x4d49088ffb45f7556871a6a31fddf4f784ee0af5f2f3edf00b3c0e011cb53111",
      "transactionIndex": "0xc4",
      "blockHash": "0x439508226ca0543bbb074d73a45ab089ac82deb67fc1edda7b49b853f71721cf",
      "blockNumber": "0x91133a",
      "gasUsed": "0xb71a",
      "effectiveGasPrice": "0xf424e",
      "from": "0xeff3521fb13228c767ad6dc3b934f9efac9c56ad",
      "to": "0x1f9840a85d5af5bf1d1762f925bdaddc4201f984",
      "contractAddress": null
    },
    {
      "status": "0x1",
      "cumulativeGasUsed": "0x174d0f5",
      "logs": [
        {
          "address": "0x6c64e8278b7d5513143d59bf1484b0e6972e4505",
          "topics": [
            "0xddf252ad1be2c89b69c2b068fc378daa952ba7f163c4a11628f55a4df523b3ef",
            "0x000000000000000000000000eff3521fb13228c767ad6dc3b934f9efac9c56ad",
            "0x000000000000000000000000c66289b45a3d2c804c964609868d4718ce319c74"
          ],
          "data": "0x0000000000000000000000000000000000000000000000056bc75e2d63100000",
          "blockHash": "0x439508226ca0543bbb074d73a45ab089ac82deb67fc1edda7b49b853f71721cf",
          "blockNumber": "0x91133a",
          "blockTimestamp": "0x69008cac",
          "transactionHash": "0x0241d35efeb4c4b4459a19a7b169f54c50b1fb6dd289b3b567e4ae96e183f572",
          "transactionIndex": "0xc5",
          "logIndex": "0x10c",
          "removed": false
        },
        {
          "address": "0x6c64e8278b7d5513143d59bf1484b0e6972e4505",
          "topics": [
            "0x8c5be1e5ebec7d5bd14f71427d1e84f3dd0314c0f7b2291e5b200ac8c7c3b925",
            "0x000000000000000000000000c66289b45a3d2c804c964609868d4718ce319c74",
            "0x000000000000000000000000ee567fe1712faf6149d80da1e6934e354124cfe3"
          ],
          "data": "0x000000000000000000000000000000000000000000000002b5e3af16b1880000",
          "blockHash": "0x439508226ca0543bbb074d73a45ab089ac82deb67fc1edda7b49b853f71721cf",
          "blockNumber": "0x91133a",
          "blockTimestamp": "0x69008cac",
          "transactionHash": "0x0241d35efeb4c4b4459a19a7b169f54c50b1fb6dd289b3b567e4ae96e183f572",
          "transactionIndex": "0xc5",
          "logIndex": "0x10d",
          "removed": false
        },
        {
          "address": "0x6c64e8278b7d5513143d59bf1484b0e6972e4505",
          "topics": [
            "0xddf252ad1be2c89b69c2b068fc378daa952ba7f163c4a11628f55a4df523b3ef",
            "0x000000000000000000000000c66289b45a3d2c804c964609868d4718ce319c74",
            "0x000000000000000000000000421b152478f5370c4d28b11fdfab122d171b731b"
          ],
          "data": "0x000000000000000000000000000000000000000000000002b5e3af16b1880000",
          "blockHash": "0x439508226ca0543bbb074d73a45ab089ac82deb67fc1edda7b49b853f71721cf",
          "blockNumber": "0x91133a",
          "blockTimestamp": "0x69008cac",
          "transactionHash": "0x0241d35efeb4c4b4459a19a7b169f54c50b1fb6dd289b3b567e4ae96e183f572",
          "transactionIndex": "0xc5",
          "logIndex": "0x10e",
          "removed": false
        },
        {
          "address": "0x1f9840a85d5af5bf1d1762f925bdaddc4201f984",
          "topics": [
            "0xddf252ad1be2c89b69c2b068fc378daa952ba7f163c4a11628f55a4df523b3ef",
            "0x000000000000000000000000421b152478f5370c4d28b11fdfab122d171b731b",
            "0x000000000000000000000000c66289b45a3d2c804c964609868d4718ce319c74"
          ],
          "data": "0x00000000000000000000000000000000000000000000000000000dcb2b13dca5",
          "blockHash": "0x439508226ca0543bbb074d73a45ab089ac82deb67fc1edda7b49b853f71721cf",
          "blockNumber": "0x91133a",
          "blockTimestamp": "0x69008cac",
          "transactionHash": "0x0241d35efeb4c4b4459a19a7b169f54c50b1fb6dd289b3b567e4ae96e183f572",
          "transactionIndex": "0xc5",
          "logIndex": "0x10f",
          "removed": false
        },
        {
          "address": "0x421b152478f5370c4d28b11fdfab122d171b731b",
          "topics": [
            "0x1c411e9a96e071241c2f21f7726b17ae89e3cab4c78be50e062b03a9fffbbad1"
          ],
          "data": "0x00000000000000000000000000000000000000000000000000015e0116d5235c000000000000000000000000000000000000000000000047480f01b3aece40a6",
          "blockHash": "0x439508226ca0543bbb074d73a45ab089ac82deb67fc1edda7b49b853f71721cf",
          "blockNumber": "0x91133a",
          "blockTimestamp": "0x69008cac",
          "transactionHash": "0x0241d35efeb4c4b4459a19a7b169f54c50b1fb6dd289b3b567e4ae96e183f572",
          "transactionIndex": "0xc5",
          "logIndex": "0x110",
          "removed": false
        },
        {
          "address": "0x421b152478f5370c4d28b11fdfab122d171b731b",
          "topics": [
            "0xd78ad95fa46c994b6551d0da85fc275fe613ce37657fb8d5e3d130840159d822",
            "0x000000000000000000000000ee567fe1712faf6149d80da1e6934e354124cfe3",
            "0x000000000000000000000000c66289b45a3d2c804c964609868d4718ce319c74"
          ],
          "data": "0x0000000000000000000000000000000000000000000000000000000000000000000000000000000000000000000000000000000000000002b5e3af16b188000000000000000000000000000000000000000000000000000000000dcb2b13dca50000000000000000000000000000000000000000000000000000000000000000",
          "blockHash": "0x439508226ca0543bbb074d73a45ab089ac82deb67fc1edda7b49b853f71721cf",
          "blockNumber": "0x91133a",
          "blockTimestamp": "0x69008cac",
          "transactionHash": "0x0241d35efeb4c4b4459a19a7b169f54c50b1fb6dd289b3b567e4ae96e183f572",
          "transactionIndex": "0xc5",
          "logIndex": "0x111",
          "removed": false
        },
        {
          "address": "0x6c64e8278b7d5513143d59bf1484b0e6972e4505",
          "topics": [
            "0x8c5be1e5ebec7d5bd14f71427d1e84f3dd0314c0f7b2291e5b200ac8c7c3b925",
            "0x000000000000000000000000c66289b45a3d2c804c964609868d4718ce319c74",
            "0x000000000000000000000000ee567fe1712faf6149d80da1e6934e354124cfe3"
          ],
          "data": "0x000000000000000000000000000000000000000000000002b5e3af16b1880000",
          "blockHash": "0x439508226ca0543bbb074d73a45ab089ac82deb67fc1edda7b49b853f71721cf",
          "blockNumber": "0x91133a",
          "blockTimestamp": "0x69008cac",
          "transactionHash": "0x0241d35efeb4c4b4459a19a7b169f54c50b1fb6dd289b3b567e4ae96e183f572",
          "transactionIndex": "0xc5",
          "logIndex": "0x112",
          "removed": false
        },
        {
          "address": "0x1f9840a85d5af5bf1d1762f925bdaddc4201f984",
          "topics": [
            "0x8c5be1e5ebec7d5bd14f71427d1e84f3dd0314c0f7b2291e5b200ac8c7c3b925",
            "0x000000000000000000000000c66289b45a3d2c804c964609868d4718ce319c74",
            "0x000000000000000000000000ee567fe1712faf6149d80da1e6934e354124cfe3"
          ],
          "data": "0x00000000000000000000000000000000000000000000000000000dcb2b13dca5",
          "blockHash": "0x439508226ca0543bbb074d73a45ab089ac82deb67fc1edda7b49b853f71721cf",
          "blockNumber": "0x91133a",
          "blockTimestamp": "0x69008cac",
          "transactionHash": "0x0241d35efeb4c4b4459a19a7b169f54c50b1fb6dd289b3b567e4ae96e183f572",
          "transactionIndex": "0xc5",
          "logIndex": "0x113",
          "removed": false
        },
        {
          "address": "0x6c64e8278b7d5513143d59bf1484b0e6972e4505",
          "topics": [
            "0xddf252ad1be2c89b69c2b068fc378daa952ba7f163c4a11628f55a4df523b3ef",
            "0x000000000000000000000000c66289b45a3d2c804c964609868d4718ce319c74",
            "0x000000000000000000000000421b152478f5370c4d28b11fdfab122d171b731b"
          ],
          "data": "0x000000000000000000000000000000000000000000000002b5e3af16b1880000",
          "blockHash": "0x439508226ca0543bbb074d73a45ab089ac82deb67fc1edda7b49b853f71721cf",
          "blockNumber": "0x91133a",
          "blockTimestamp": "0x69008cac",
          "transactionHash": "0x0241d35efeb4c4b4459a19a7b169f54c50b1fb6dd289b3b567e4ae96e183f572",
          "transactionIndex": "0xc5",
          "logIndex": "0x114",
          "removed": false
        },
        {
          "address": "0x1f9840a85d5af5bf1d1762f925bdaddc4201f984",
          "topics": [
            "0x8c5be1e5ebec7d5bd14f71427d1e84f3dd0314c0f7b2291e5b200ac8c7c3b925",
            "0x000000000000000000000000c66289b45a3d2c804c964609868d4718ce319c74",
            "0x000000000000000000000000ee567fe1712faf6149d80da1e6934e354124cfe3"
          ],
          "data": "0x0000000000000000000000000000000000000000000000000000007c0d7c0844",
          "blockHash": "0x439508226ca0543bbb074d73a45ab089ac82deb67fc1edda7b49b853f71721cf",
          "blockNumber": "0x91133a",
          "blockTimestamp": "0x69008cac",
          "transactionHash": "0x0241d35efeb4c4b4459a19a7b169f54c50b1fb6dd289b3b567e4ae96e183f572",
          "transactionIndex": "0xc5",
          "logIndex": "0x115",
          "removed": false
        },
        {
          "address": "0x1f9840a85d5af5bf1d1762f925bdaddc4201f984",
          "topics": [
            "0xddf252ad1be2c89b69c2b068fc378daa952ba7f163c4a11628f55a4df523b3ef",
            "0x000000000000000000000000c66289b45a3d2c804c964609868d4718ce319c74",
            "0x000000000000000000000000421b152478f5370c4d28b11fdfab122d171b731b"
          ],
          "data": "0x00000000000000000000000000000000000000000000000000000d4f1d97d461",
          "blockHash": "0x439508226ca0543bbb074d73a45ab089ac82deb67fc1edda7b49b853f71721cf",
          "blockNumber": "0x91133a",
          "blockTimestamp": "0x69008cac",
          "transactionHash": "0x0241d35efeb4c4b4459a19a7b169f54c50b1fb6dd289b3b567e4ae96e183f572",
          "transactionIndex": "0xc5",
          "logIndex": "0x116",
          "removed": false
        },
        {
          "address": "0x421b152478f5370c4d28b11fdfab122d171b731b",
          "topics": [
            "0xddf252ad1be2c89b69c2b068fc378daa952ba7f163c4a11628f55a4df523b3ef",
            "0x0000000000000000000000000000000000000000000000000000000000000000",
            "0x000000000000000000000000eff3521fb13228c767ad6dc3b934f9efac9c56ad"
          ],
          "data": "0x0000000000000000000000000000000000000000000000000036098d9e5d6373",
          "blockHash": "0x439508226ca0543bbb074d73a45ab089ac82deb67fc1edda7b49b853f71721cf",
          "blockNumber": "0x91133a",
          "blockTimestamp": "0x69008cac",
          "transactionHash": "0x0241d35efeb4c4b4459a19a7b169f54c50b1fb6dd289b3b567e4ae96e183f572",
          "transactionIndex": "0xc5",
          "logIndex": "0x117",
          "removed": false
        },
        {
          "address": "0x421b152478f5370c4d28b11fdfab122d171b731b",
          "topics": [
            "0x1c411e9a96e071241c2f21f7726b17ae89e3cab4c78be50e062b03a9fffbbad1"
          ],
          "data": "0x00000000000000000000000000000000000000000000000000016b50346cf7bd000000000000000000000000000000000000000000000049fdf2b0ca605640a6",
          "blockHash": "0x439508226ca0543bbb074d73a45ab089ac82deb67fc1edda7b49b853f71721cf",
          "blockNumber": "0x91133a",
          "blockTimestamp": "0x69008cac",
          "transactionHash": "0x0241d35efeb4c4b4459a19a7b169f54c50b1fb6dd289b3b567e4ae96e183f572",
          "transactionIndex": "0xc5",
          "logIndex": "0x118",
          "removed": false
        },
        {
          "address": "0x421b152478f5370c4d28b11fdfab122d171b731b",
          "topics": [
            "0x4c209b5fc8ad50758f13e2e1088ba56a560dff690a1c6fef26394f4c03821c4f",
            "0x000000000000000000000000ee567fe1712faf6149d80da1e6934e354124cfe3"
          ],
          "data": "0x00000000000000000000000000000000000000000000000000000d4f1d97d461000000000000000000000000000000000000000000000002b5e3af16b1880000",
          "blockHash": "0x439508226ca0543bbb074d73a45ab089ac82deb67fc1edda7b49b853f71721cf",
          "blockNumber": "0x91133a",
          "blockTimestamp": "0x69008cac",
          "transactionHash": "0x0241d35efeb4c4b4459a19a7b169f54c50b1fb6dd289b3b567e4ae96e183f572",
          "transactionIndex": "0xc5",
          "logIndex": "0x119",
          "removed": false
        },
        {
          "address": "0xc66289b45a3d2c804c964609868d4718ce319c74",
          "topics": [
            "0x4a1a2a6176e9646d9e3157f7c2ab3c499f18337c0b0828cfb28e0a61de4a11f7"
          ],
          "data": "0x0000000000000000000000006c64e8278b7d5513143d59bf1484b0e6972e45050000000000000000000000001f9840a85d5af5bf1d1762f925bdaddc4201f984000000000000000000000000000000000000000000000002b5e3af16b188000000000000000000000000000000000000000000000000000000000dcb2b13dca50000000000000000000000000000000000000000000000000036098d9e5d6373",
          "blockHash": "0x439508226ca0543bbb074d73a45ab089ac82deb67fc1edda7b49b853f71721cf",
          "blockNumber": "0x91133a",
          "blockTimestamp": "0x69008cac",
          "transactionHash": "0x0241d35efeb4c4b4459a19a7b169f54c50b1fb6dd289b3b567e4ae96e183f572",
          "transactionIndex": "0xc5",
          "logIndex": "0x11a",
          "removed": false
        }
      ],
      "logsBloom": "0x0020000000000000000000008000000002000000000000008000000000000102000080000000000000000200800000100000000800000000000000000820000000000000000000000020000810000020000000000000000000200000000000000a000000020000000000800000000800000000000008000000000010000000000000000000000000000000000000000000000000000000088000004000010000020000000000000000000000000000000000100000000040000000800000180000000002000000000000000000020000000000000010001000000000000128000010000000000000000000000000000000000000000000000080000000000000",
      "type": "0x2",
      "transactionHash": "0x0241d35efeb4c4b4459a19a7b169f54c50b1fb6dd289b3b567e4ae96e183f572",
      "transactionIndex": "0xc5",
      "blockHash": "0x439508226ca0543bbb074d73a45ab089ac82deb67fc1edda7b49b853f71721cf",
      "blockNumber": "0x91133a",
      "gasUsed": "0x3c9f0",
      "effectiveGasPrice": "0xf424e",
      "from": "0xeff3521fb13228c767ad6dc3b934f9efac9c56ad",
      "to": "0xc66289b45a3d2c804c964609868d4718ce319c74",
      "contractAddress": null
    }
  ],
  "libraries": [],
  "pending": [],
  "returns": {},
  "timestamp": 1761643694,
  "chain": 11155111,
  "commit": "4457f8a"
}