{
  "transactions": [
    {
      "hash": "0x5e0caccc85292f98afc7916994d2c7548285d52259a2a404a519e4212547172b",
      "transactionType": "CALL",
      "contractName": null,
      "contractAddress": "0xfff9976782d46cc05630d1f6ebab18b2324d6b14",
      "function": "approve(address,uint256)",
      "arguments": [
        "0x5deB5E322dA6ec413363Aef0399F3A5d24C8c1cB",
        "1000000000000000"
      ],
      "transaction": {
        "from": "0xeff3521fb13228c767ad6dc3b934f9efac9c56ad",
        "to": "0xfff9976782d46cc05630d1f6ebab18b2324d6b14",
        "gas": "0xf879",
        "value": "0x0",
        "input": "0x095ea7b30000000000000000000000005deb5e322da6ec413363aef0399f3a5d24c8c1cb00000000000000000000000000000000000000000000000000038d7ea4c68000",
        "nonce": "0xc5",
        "chainId": "0xaa36a7"
      },
      "additionalContracts": [],
      "isFixedGasLimit": false
    },
    {
      "hash": "0x46cfd20cc82337109ac474fad8ee21342d1c675b3ae72d0c62e4c0e2ea77cbc2",
      "transactionType": "CALL",
      "contractName": null,
      "contractAddress": "0x5deb5e322da6ec413363aef0399f3a5d24c8c1cb",
      "function": "swapToken(address,address,uint256)",
      "arguments": [
        "0xfFf9976782d46CC05630D1f6eBAb18b2324d6B14",
        "0x1f9840a85d5aF5bf1D1762F925BDADdC4201F984",
        "1000000000000000"
      ],
      "transaction": {
        "from": "0xeff3521fb13228c767ad6dc3b934f9efac9c56ad",
        "to": "0x5deb5e322da6ec413363aef0399f3a5d24c8c1cb",
        "gas": "0x36377",
        "value": "0x0",
        "input": "0x0c0a7630000000000000000000000000fff9976782d46cc05630d1f6ebab18b2324d6b140000000000000000000000001f9840a85d5af5bf1d1762f925bdaddc4201f98400000000000000000000000000000000000000000000000000038d7ea4c68000",
        "nonce": "0xc6",
        "chainId": "0xaa36a7"
      },
      "additionalContracts": [],
      "isFixedGasLimit": false
    }
  ],
  "receipts": [
    {
      "status": "0x1",
      "cumulativeGasUsed": "0x487009",
      "logs": [
        {
          "address": "0xfff9976782d46cc05630d1f6ebab18b2324d6b14",
          "topics": [
            "0x8c5be1e5ebec7d5bd14f71427d1e84f3dd0314c0f7b2291e5b200ac8c7c3b925",
            "0x000000000000000000000000eff3521fb13228c767ad6dc3b934f9efac9c56ad",
            "0x0000000000000000000000005deb5e322da6ec413363aef0399f3a5d24c8c1cb"
          ],
          "data": "0x00000000000000000000000000000000000000000000000000038d7ea4c68000",
          "blockHash": "0xd4103cca3438ab272965078dfa73ac9ae31e2ae8ca0a5d510096ae202faaa92d",
          "blockNumber": "0x90a53c",
          "blockTimestamp": "0x68fb5468",
          "transactionHash": "0x5e0caccc85292f98afc7916994d2c7548285d52259a2a404a519e4212547172b",
          "transactionIndex": "0x3e",
          "logIndex": "0x46",
          "removed": false
        }
      ],
      "logsBloom": "0x00000000000000000000000000000000100000000000000000000000000000020000000000000000000000000000000000000000000000000000000000200000000000200000000000000000000000000000000000000000002000000000000000000000000000000000000000000000000000000000000000000000000000000040000000000000000000000000000000000000000000000000000000000000020020000000010000000000000000000000100000000000000000000000000000000000000000000002000000000000000000000000000000000000000000000010000000000000000000000000000000000000000000000000000000000000",
      "type": "0x2",
      "transactionHash": "0x5e0caccc85292f98afc7916994d2c7548285d52259a2a404a519e4212547172b",
      "transactionIndex": "0x3e",
      "blockHash": "0xd4103cca3438ab272965078dfa73ac9ae31e2ae8ca0a5d510096ae202faaa92d",
      "blockNumber": "0x90a53c",
      "gasUsed": "0xb3e4",
      "effectiveGasPrice": "0xf4249",
      "from": "0xeff3521fb13228c767ad6dc3b934f9efac9c56ad",
      "to": "0xfff9976782d46cc05630d1f6ebab18b2324d6b14",
      "contractAddress": null
    },
    {
      "status": "0x1",
      "cumulativeGasUsed": "0x4ae411",
      "logs": [
        {
          "address": "0xfff9976782d46cc05630d1f6ebab18b2324d6b14",
          "topics": [
            "0xddf252ad1be2c89b69c2b068fc378daa952ba7f163c4a11628f55a4df523b3ef",
            "0x000000000000000000000000eff3521fb13228c767ad6dc3b934f9efac9c56ad",
            "0x0000000000000000000000005deb5e322da6ec413363aef0399f3a5d24c8c1cb"
          ],
          "data": "0x00000000000000000000000000000000000000000000000000038d7ea4c68000",
          "blockHash": "0xd4103cca3438ab272965078dfa73ac9ae31e2ae8ca0a5d510096ae202faaa92d",
          "blockNumber": "0x90a53c",
          "blockTimestamp": "0x68fb5468",
          "transactionHash": "0x46cfd20cc82337109ac474fad8ee21342d1c675b3ae72d0c62e4c0e2ea77cbc2",
          "transactionIndex": "0x3f",
          "logIndex": "0x47",
          "removed": false
        },
        {
          "address": "0xfff9976782d46cc05630d1f6ebab18b2324d6b14",
          "topics": [
            "0x8c5be1e5ebec7d5bd14f71427d1e84f3dd0314c0f7b2291e5b200ac8c7c3b925",
            "0x0000000000000000000000005deb5e322da6ec413363aef0399f3a5d24c8c1cb",
            "0x000000000000000000000000ee567fe1712faf6149d80da1e6934e354124cfe3"
          ],
          "data": "0x00000000000000000000000000000000000000000000000000038d7ea4c68000",
          "blockHash": "0xd4103cca3438ab272965078dfa73ac9ae31e2ae8ca0a5d510096ae202faaa92d",
          "blockNumber": "0x90a53c",
          "blockTimestamp": "0x68fb5468",
          "transactionHash": "0x46cfd20cc82337109ac474fad8ee21342d1c675b3ae72d0c62e4c0e2ea77cbc2",
          "transactionIndex": "0x3f",
          "logIndex": "0x48",
          "removed": false
        },
        {
          "address": "0xfff9976782d46cc05630d1f6ebab18b2324d6b14",
          "topics": [
            "0xddf252ad1be2c89b69c2b068fc378daa952ba7f163c4a11628f55a4df523b3ef",
            "0x0000000000000000000000005deb5e322da6ec413363aef0399f3a5d24c8c1cb",
            "0x000000000000000000000000e8aa2fa3963bad64ff66cfc458fda9f19a8e7024"
          ],
          "data": "0x00000000000000000000000000000000000000000000000000038d7ea4c68000",
          "blockHash": "0xd4103cca3438ab272965078dfa73ac9ae31e2ae8ca0a5d510096ae202faaa92d",
          "blockNumber": "0x90a53c",
          "blockTimestamp": "0x68fb5468",
          "transactionHash": "0x46cfd20cc82337109ac474fad8ee21342d1c675b3ae72d0c62e4c0e2ea77cbc2",
          "transactionIndex": "0x3f",
          "logIndex": "0x49",
          "removed": false
        },
        {
          "address": "0x1f9840a85d5af5bf1d1762f925bdaddc4201f984",
          "topics": [
            "0xddf252ad1be2c89b69c2b068fc378daa952ba7f163c4a11628f55a4df523b3ef",
            "0x000000000000000000000000e8aa2fa3963bad64ff66cfc458fda9f19a8e7024",
            "0x000000000000000000000000eff3521fb13228c767ad6dc3b934f9efac9c56ad"
          ],
          "data": "0x000000000000000000000000000000000000000000000000000022928e99c6cd",
          "blockHash": "0xd4103cca3438ab272965078dfa73ac9ae31e2ae8ca0a5d510096ae202faaa92d",
          "blockNumber": "0x90a53c",
          "blockTimestamp": "0x68fb5468",
          "transactionHash": "0x46cfd20cc82337109ac474fad8ee21342d1c675b3ae72d0c62e4c0e2ea77cbc2",
          "transactionIndex": "0x3f",
          "logIndex": "0x4a",
          "removed": false
        },
        {
          "address": "0xe8aa2fa3963bad64ff66cfc458fda9f19a8e7024",
          "topics": [
            "0x1c411e9a96e071241c2f21f7726b17ae89e3cab4c78be50e062b03a9fffbbad1"
          ],
          "data": "0x000000000000000000000000000000000000000000000000017dd7c0f16d3492000000000000000000000000000000000000000000000000272283a394895b96",
          "blockHash": "0xd4103cca3438ab272965078dfa73ac9ae31e2ae8ca0a5d510096ae202faaa92d",
          "blockNumber": "0x90a53c",
          "blockTimestamp": "0x68fb5468",
          "transactionHash": "0x46cfd20cc82337109ac474fad8ee21342d1c675b3ae72d0c62e4c0e2ea77cbc2",
          "transactionIndex": "0x3f",
          "logIndex": "0x4b",
          "removed": false
        },
        {
          "address": "0xe8aa2fa3963bad64ff66cfc458fda9f19a8e7024",
          "topics": [
            "0xd78ad95fa46c994b6551d0da85fc275fe613ce37657fb8d5e3d130840159d822",
            "0x000000000000000000000000ee567fe1712faf6149d80da1e6934e354124cfe3",
            "0x000000000000000000000000eff3521fb13228c767ad6dc3b934f9efac9c56ad"
          ],
          "data": "0x000000000000000000000000000000000000000000000000000000000000000000000000000000000000000000000000000000000000000000038d7ea4c68000000000000000000000000000000000000000000000000000000022928e99c6cd0000000000000000000000000000000000000000000000000000000000000000",
          "blockHash": "0xd4103cca3438ab272965078dfa73ac9ae31e2ae8ca0a5d510096ae202faaa92d",
          "blockNumber": "0x90a53c",
          "blockTimestamp": "0x68fb5468",
          "transactionHash": "0x46cfd20cc82337109ac474fad8ee21342d1c675b3ae72d0c62e4c0e2ea77cbc2",
          "transactionIndex": "0x3f",
          "logIndex": "0x4c",
          "removed": false
        },
        {
          "address": "0x5deb5e322da6ec413363aef0399f3a5d24c8c1cb",
          "topics": [
            "0x6782190c91d4a7e8ad2a867deed6ec0a970cab8ff137ae2bd4abd92b3810f4d3",
            "0x000000000000000000000000eff3521fb13228c767ad6dc3b934f9efac9c56ad"
          ],
          "data": "0x000000000000000000000000fff9976782d46cc05630d1f6ebab18b2324d6b140000000000000000000000001f9840a85d5af5bf1d1762f925bdaddc4201f98400000000000000000000000000000000000000000000000000038d7ea4c68000000000000000000000000000000000000000000000000000000022928e99c6cd",
          "blockHash": "0xd4103cca3438ab272965078dfa73ac9ae31e2ae8ca0a5d510096ae202faaa92d",
          "blockNumber": "0x90a53c",
          "blockTimestamp": "0x68fb5468",
          "transactionHash": "0x46cfd20cc82337109ac474fad8ee21342d1c675b3ae72d0c62e4c0e2ea77cbc2",
          "transactionIndex": "0x3f",
          "logIndex": "0x4d",
          "removed": false
        }
      ],
      "logsBloom": "0x00200000000000000000000080000008100000000100000800000000000000020400000000000000000000000000001000000000000000000000000048200000000000200000000000000008100000200000000000000000002000000000000008000000000000000008000000000000000000000000000000000010002000000040000000000000000000002000000000000000001000080000004000000000020020000000010000000000000000000000100000040000000000800000000000000002000000000002100000000000000000000000001000000000000000000010002000000000000000000000000000000000000000000080000000000000",
      "type": "0x2",
      "transactionHash": "0x46cfd20cc82337109ac474fad8ee21342d1c675b3ae72d0c62e4c0e2ea77cbc2",
      "transactionIndex": "0x3f",
      "blockHash": "0xd4103cca3438ab272965078dfa73ac9ae31e2ae8ca0a5d510096ae202faaa92d",
      "blockNumber": "0x90a53c",
      "gasUsed": "0x27408",
      "effectiveGasPrice": "0xf4249",
      "from": "0xeff3521fb13228c767ad6dc3b934f9efac9c56ad",
      "to": "0x5deb5e322da6ec413363aef0399f3a5d24c8c1cb",
      "contractAddress": null
    }
  ],
  "libraries": [],
  "pending": [],
  "returns": {},
  "timestamp": 1761301610,
  "chain": 11155111,
  "commit": null
}