{
  "transactions": [
    {
      "hash": "0xaec6442263b17b751e5645046f11c28271f2acbde142de5d866f2bbcee2d09a7",
      "transactionType": "CALL",
      "contractName": null,
      "contractAddress": "0x1c7d4b196cb0c7b01d743fbc6116a902379c7238",
      "function": "approve(address,uint256)",
      "arguments": [
        "0x284af8B3d00dBbaFA46c93633b365d4291E8Bd74",
        "74524455"
      ],
      "transaction": {
        "from": "0xeff3521fb13228c767ad6dc3b934f9efac9c56ad",
        "to": "0x1c7d4b196cb0c7b01d743fbc6116a902379c7238",
        "gas": "0x13cc6",
        "value": "0x0",
        "input": "0x095ea7b3000000000000000000000000284af8b3d00dbbafa46c93633b365d4291e8bd740000000000000000000000000000000000000000000000000000000004712727",
        "nonce": "0x147",
        "chainId": "0xaa36a7"
      },
      "additionalContracts": [],
      "isFixedGasLimit": false
    },
    {
      "hash": "0x58a5a8764653820b30b3cba605642f0b0da4b93306fbc083d381cfc2f4fcafc0",
      "transactionType": "CALL",
      "contractName": null,
      "contractAddress": "0x284af8b3d00dbbafa46c93633b365d4291e8bd74",
      "function": "swapToken(address,address,uint256)",
      "arguments": [
        "0x1c7D4B196Cb0C7B01d743Fbc6116a902379C7238",
        "0x1f9840a85d5aF5bf1D1762F925BDADdC4201F984",
        "74524455"
      ],
      "transaction": {
        "from": "0xeff3521fb13228c767ad6dc3b934f9efac9c56ad",
        "to": "0x284af8b3d00dbbafa46c93633b365d4291e8bd74",
        "gas": "0x36c08",
        "value": "0x0",
        "input": "0x0c0a76300000000000000000000000001c7d4b196cb0c7b01d743fbc6116a902379c72380000000000000000000000001f9840a85d5af5bf1d1762f925bdaddc4201f9840000000000000000000000000000000000000000000000000000000004712727",
        "nonce": "0x148",
        "chainId": "0xaa36a7"
      },
      "additionalContracts": [],
      "isFixedGasLimit": false
    }
  ],
  "receipts": [
    {
      "status": "0x1",
      "cumulativeGasUsed": "0x78bda6",
      "logs": [
        {
          "address": "0x1c7d4b196cb0c7b01d743fbc6116a902379c7238",
          "topics": [
            "0x8c5be1e5ebec7d5bd14f71427d1e84f3dd0314c0f7b2291e5b200ac8c7c3b925",
            "0x000000000000000000000000eff3521fb13228c767ad6dc3b934f9efac9c56ad",
            "0x000000000000000000000000284af8b3d00dbbafa46c93633b365d4291e8bd74"
          ],
          "data": "0x0000000000000000000000000000000000000000000000000000000004712727",
          "blockHash": "0x1b3b85a648f3f3986f23ee376c96347bc0aac526df5d7150df12c4956651f778",
          "blockNumber": "0x912740",
          "blockTimestamp": "0x6901806c",
          "transactionHash": "0xaec6442263b17b751e5645046f11c28271f2acbde142de5d866f2bbcee2d09a7",
          "transactionIndex": "0x49",
          "logIndex": "0x7d",
          "removed": false
        }
      ],
      "logsBloom": "0x00000000000000200000000000000000000000000000000000000000000200020002000000000000000000000000000000000000000000000000000000200000000000000000000000000000000000000000000000000000002000000000000000000000000000000000000000000000000000000000000000000000000000000000000000100000000000000000000000000000000000000000000000000000020000000000000000000000000000000000100001000000000000000000000000000000000000000000000000000000000000000000000000000000000000000010000000000000000010000000000000000000000000000000000000000000",
      "type": "0x2",
      "transactionHash": "0xaec6442263b17b751e5645046f11c28271f2acbde142de5d866f2bbcee2d09a7",
      "transactionIndex": "0x49",
      "blockHash": "0x1b3b85a648f3f3986f23ee376c96347bc0aac526df5d7150df12c4956651f778",
      "blockNumber": "0x912740",
      "gasUsed": "0xd899",
      "effectiveGasPrice": "0xf424a",
      "from": "0xeff3521fb13228c767ad6dc3b934f9efac9c56ad",
      "to": "0x1c7d4b196cb0c7b01d743fbc6116a902379c7238",
      "contractAddress": null
    },
    {
      "status": "0x1",
      "cumulativeGasUsed": "0x7b37e2",
      "logs": [
        {
          "address": "0x1c7d4b196cb0c7b01d743fbc6116a902379c7238",
          "topics": [
            "0xddf252ad1be2c89b69c2b068fc378daa952ba7f163c4a11628f55a4df523b3ef",
            "0x000000000000000000000000eff3521fb13228c767ad6dc3b934f9efac9c56ad",
            "0x000000000000000000000000284af8b3d00dbbafa46c93633b365d4291e8bd74"
          ],
          "data": "0x0000000000000000000000000000000000000000000000000000000004712727",
          "blockHash": "0x1b3b85a648f3f3986f23ee376c96347bc0aac526df5d7150df12c4956651f778",
          "blockNumber": "0x912740",
          "blockTimestamp": "0x6901806c",
          "transactionHash": "0x58a5a8764653820b30b3cba605642f0b0da4b93306fbc083d381cfc2f4fcafc0",
          "transactionIndex": "0x4a",
          "logIndex": "0x7e",
          "removed": false
        },
        {
          "address": "0x1c7d4b196cb0c7b01d743fbc6116a902379c7238",
          "topics": [
            "0x8c5be1e5ebec7d5bd14f71427d1e84f3dd0314c0f7b2291e5b200ac8c7c3b925",
            "0x000000000000000000000000284af8b3d00dbbafa46c93633b365d4291e8bd74",
            "0x000000000000000000000000ee567fe1712faf6149d80da1e6934e354124cfe3"
          ],
          "data": "0x0000000000000000000000000000000000000000000000000000000004712727",
          "blockHash": "0x1b3b85a648f3f3986f23ee376c96347bc0aac526df5d7150df12c4956651f778",
          "blockNumber": "0x912740",
          "blockTimestamp": "0x6901806c",
          "transactionHash": "0x58a5a8764653820b30b3cba605642f0b0da4b93306fbc083d381cfc2f4fcafc0",
          "transactionIndex": "0x4a",
          "logIndex": "0x7f",
          "removed": false
        },
        {
          "address": "0x1c7d4b196cb0c7b01d743fbc6116a902379c7238",
          "topics": [
            "0xddf252ad1be2c89b69c2b068fc378daa952ba7f163c4a11628f55a4df523b3ef",
            "0x000000000000000000000000284af8b3d00dbbafa46c93633b365d4291e8bd74",
            "0x00000000000000000000000031feb94712a8252532aaf35a0d61a1300bd2d12b"
          ],
          "data": "0x0000000000000000000000000000000000000000000000000000000004712727",
          "blockHash": "0x1b3b85a648f3f3986f23ee376c96347bc0aac526df5d7150df12c4956651f778",
          "blockNumber": "0x912740",
          "blockTimestamp": "0x6901806c",
          "transactionHash": "0x58a5a8764653820b30b3cba605642f0b0da4b93306fbc083d381cfc2f4fcafc0",
          "transactionIndex": "0x4a",
          "logIndex": "0x80",
          "removed": false
        },
        {
          "address": "0x1f9840a85d5af5bf1d1762f925bdaddc4201f984",
          "topics": [
            "0xddf252ad1be2c89b69c2b068fc378daa952ba7f163c4a11628f55a4df523b3ef",
            "0x00000000000000000000000031feb94712a8252532aaf35a0d61a1300bd2d12b",
            "0x000000000000000000000000eff3521fb13228c767ad6dc3b934f9efac9c56ad"
          ],
          "data": "0x00000000000000000000000000000000000000000000000000009cdcf31ee6af",
          "blockHash": "0x1b3b85a648f3f3986f23ee376c96347bc0aac526df5d7150df12c4956651f778",
          "blockNumber": "0x912740",
          "blockTimestamp": "0x6901806c",
          "transactionHash": "0x58a5a8764653820b30b3cba605642f0b0da4b93306fbc083d381cfc2f4fcafc0",
          "transactionIndex": "0x4a",
          "logIndex": "0x81",
          "removed": false
        },
        {
          "address": "0x31feb94712a8252532aaf35a0d61a1300bd2d12b",
          "topics": [
            "0x1c411e9a96e071241c2f21f7726b17ae89e3cab4c78be50e062b03a9fffbbad1"
          ],
          "data": "0x000000000000000000000000000000000000000000000000000000003e0e02020000000000000000000000000000000000000000000000000007f8a22ee7b049",
          "blockHash": "0x1b3b85a648f3f3986f23ee376c96347bc0aac526df5d7150df12c4956651f778",
          "blockNumber": "0x912740",
          "blockTimestamp": "0x6901806c",
          "transactionHash": "0x58a5a8764653820b30b3cba605642f0b0da4b93306fbc083d381cfc2f4fcafc0",
          "transactionIndex": "0x4a",
          "logIndex": "0x82",
          "removed": false
        },
        {
          "address": "0x31feb94712a8252532aaf35a0d61a1300bd2d12b",
          "topics": [
            "0xd78ad95fa46c994b6551d0da85fc275fe613ce37657fb8d5e3d130840159d822",
            "0x000000000000000000000000ee567fe1712faf6149d80da1e6934e354124cfe3",
            "0x000000000000000000000000eff3521fb13228c767ad6dc3b934f9efac9c56ad"
          ],
          "data": "0x00000000000000000000000000000000000000000000000000000000047127270000000000000000000000000000000000000000000000000000000000000000000000000000000000000000000000000000000000000000000000000000000000000000000000000000000000000000000000000000000000009cdcf31ee6af",
          "blockHash": "0x1b3b85a648f3f3986f23ee376c96347bc0aac526df5d7150df12c4956651f778",
          "blockNumber": "0x912740",
          "blockTimestamp": "0x6901806c",
          "transactionHash": "0x58a5a8764653820b30b3cba605642f0b0da4b93306fbc083d381cfc2f4fcafc0",
          "transactionIndex": "0x4a",
          "logIndex": "0x83",
          "removed": false
        },
        {
          "address": "0x284af8b3d00dbbafa46c93633b365d4291e8bd74",
          "topics": [
            "0x6782190c91d4a7e8ad2a867deed6ec0a970cab8ff137ae2bd4abd92b3810f4d3",
            "0x000000000000000000000000eff3521fb13228c767ad6dc3b934f9efac9c56ad"
          ],
          "data": "0x0000000000000000000000001c7d4b196cb0c7b01d743fbc6116a902379c72380000000000000000000000001f9840a85d5af5bf1d1762f925bdaddc4201f984000000000000000000000000000000000000000000000000000000000471272700000000000000000000000000000000000000000000000000009cdcf31ee6af",
          "blockHash": "0x1b3b85a648f3f3986f23ee376c96347bc0aac526df5d7150df12c4956651f778",
          "blockNumber": "0x912740",
          "blockTimestamp": "0x6901806c",
          "transactionHash": "0x58a5a8764653820b30b3cba605642f0b0da4b93306fbc083d381cfc2f4fcafc0",
          "transactionIndex": "0x4a",
          "logIndex": "0x84",
          "removed": false
        }
      ],
      "logsBloom": "0x00200000000000200000000080000008000000000100000000000000000200020002000000000000000000000010001000000000000000000000000008200000000000000000000000000008100000200000000000000000002000000000000008000800000000000000000000000000000000000000000000000410000000000001000000100000000000000000000000000000000000080000004000000000020000000000000000000000000000000000100001000000000000800000000000000002000004000000000000000200000800000000001000000000000000000010002000000080000010000000000000000000000000000082000000000000",
      "type": "0x2",
      "transactionHash": "0x58a5a8764653820b30b3cba605642f0b0da4b93306fbc083d381cfc2f4fcafc0",
      "transactionIndex": "0x4a",
      "blockHash": "0x1b3b85a648f3f3986f23ee376c96347bc0aac526df5d7150df12c4956651f778",
      "blockNumber": "0x912740",
      "gasUsed": "0x27a3c",
      "effectiveGasPrice": "0xf424a",
      "from": "0xeff3521fb13228c767ad6dc3b934f9efac9c56ad",
      "to": "0x284af8b3d00dbbafa46c93633b365d4291e8bd74",
      "contractAddress": null
    }
  ],
  "libraries": [],
  "pending": [],
  "returns": {},
  "timestamp": 1761706101,
  "chain": 11155111,
  "commit": "6735a57"
}